{
  "address": "0xCeF91CAD107CA8EE291d07Fb9011eA637a0084da",
  "abi": [
    {
      "inputs": [
        {
          "internalType": "address",
          "name": "_token",
          "type": "address"
        },
        {
          "internalType": "uint32",
          "name": "_secsClosure",
          "type": "uint32"
        }
      ],
      "stateMutability": "nonpayable",
      "type": "constructor"
    },
    {
      "anonymous": false,
      "inputs": [
        {
          "indexed": true,
          "internalType": "address",
          "name": "account",
          "type": "address"
        },
        {
          "indexed": false,
          "internalType": "bytes",
          "name": "multiaddr",
          "type": "bytes"
        }
      ],
      "name": "Announcement",
      "type": "event"
    },
    {
      "anonymous": false,
      "inputs": [
        {
          "indexed": true,
          "internalType": "address",
          "name": "partyA",
          "type": "address"
        },
        {
          "indexed": true,
          "internalType": "address",
          "name": "partyB",
          "type": "address"
        },
        {
          "components": [
            {
              "internalType": "uint256",
              "name": "partyABalance",
              "type": "uint256"
            },
            {
              "internalType": "uint256",
              "name": "partyBBalance",
              "type": "uint256"
            },
            {
              "internalType": "bytes32",
              "name": "partyACommitment",
              "type": "bytes32"
            },
            {
              "internalType": "bytes32",
              "name": "partyBCommitment",
              "type": "bytes32"
            },
            {
              "internalType": "uint256",
              "name": "partyATicketEpoch",
              "type": "uint256"
            },
            {
              "internalType": "uint256",
              "name": "partyBTicketEpoch",
              "type": "uint256"
            },
            {
              "internalType": "uint256",
              "name": "partyATicketIndex",
              "type": "uint256"
            },
            {
              "internalType": "uint256",
              "name": "partyBTicketIndex",
              "type": "uint256"
            },
            {
              "internalType": "enum HoprChannels.ChannelStatus",
              "name": "status",
              "type": "uint8"
            },
            {
              "internalType": "uint256",
              "name": "channelEpoch",
              "type": "uint256"
            },
            {
              "internalType": "uint32",
              "name": "closureTime",
              "type": "uint32"
            },
            {
              "internalType": "bool",
              "name": "closureByPartyA",
              "type": "bool"
            }
          ],
          "indexed": false,
          "internalType": "struct HoprChannels.Channel",
          "name": "newState",
          "type": "tuple"
        }
      ],
      "name": "ChannelUpdate",
      "type": "event"
    },
    {
      "inputs": [],
      "name": "FUND_CHANNEL_MULTI_SIZE",
      "outputs": [
        {
          "internalType": "uint256",
          "name": "",
          "type": "uint256"
        }
      ],
      "stateMutability": "view",
      "type": "function"
    },
    {
      "inputs": [],
      "name": "TOKENS_RECIPIENT_INTERFACE_HASH",
      "outputs": [
        {
          "internalType": "bytes32",
          "name": "",
          "type": "bytes32"
        }
      ],
      "stateMutability": "view",
      "type": "function"
    },
    {
      "inputs": [
        {
          "internalType": "bytes",
          "name": "multiaddr",
          "type": "bytes"
        }
      ],
      "name": "announce",
      "outputs": [],
      "stateMutability": "nonpayable",
      "type": "function"
    },
    {
      "inputs": [
        {
          "internalType": "address",
          "name": "counterparty",
          "type": "address"
        },
        {
          "internalType": "bytes32",
          "name": "newCommitment",
          "type": "bytes32"
        }
      ],
      "name": "bumpChannel",
      "outputs": [],
      "stateMutability": "nonpayable",
      "type": "function"
    },
    {
      "inputs": [
        {
          "internalType": "bytes32",
          "name": "interfaceHash",
          "type": "bytes32"
        },
        {
          "internalType": "address",
          "name": "account",
          "type": "address"
        }
      ],
      "name": "canImplementInterfaceForAddress",
      "outputs": [
        {
          "internalType": "bytes32",
          "name": "",
          "type": "bytes32"
        }
      ],
      "stateMutability": "view",
      "type": "function"
    },
    {
      "inputs": [
        {
          "internalType": "bytes32",
          "name": "",
          "type": "bytes32"
        }
      ],
      "name": "channels",
      "outputs": [
        {
          "internalType": "uint256",
          "name": "partyABalance",
          "type": "uint256"
        },
        {
          "internalType": "uint256",
          "name": "partyBBalance",
          "type": "uint256"
        },
        {
          "internalType": "bytes32",
          "name": "partyACommitment",
          "type": "bytes32"
        },
        {
          "internalType": "bytes32",
          "name": "partyBCommitment",
          "type": "bytes32"
        },
        {
          "internalType": "uint256",
          "name": "partyATicketEpoch",
          "type": "uint256"
        },
        {
          "internalType": "uint256",
          "name": "partyBTicketEpoch",
          "type": "uint256"
        },
        {
          "internalType": "uint256",
          "name": "partyATicketIndex",
          "type": "uint256"
        },
        {
          "internalType": "uint256",
          "name": "partyBTicketIndex",
          "type": "uint256"
        },
        {
          "internalType": "enum HoprChannels.ChannelStatus",
          "name": "status",
          "type": "uint8"
        },
        {
          "internalType": "uint256",
          "name": "channelEpoch",
          "type": "uint256"
        },
        {
          "internalType": "uint32",
          "name": "closureTime",
          "type": "uint32"
        },
        {
          "internalType": "bool",
          "name": "closureByPartyA",
          "type": "bool"
        }
      ],
      "stateMutability": "view",
      "type": "function"
    },
    {
      "inputs": [
        {
          "internalType": "bytes32",
          "name": "response",
          "type": "bytes32"
        }
      ],
      "name": "computeChallenge",
      "outputs": [
        {
          "internalType": "address",
          "name": "",
          "type": "address"
        }
      ],
      "stateMutability": "pure",
      "type": "function"
    },
    {
      "inputs": [
        {
          "internalType": "address",
          "name": "counterparty",
          "type": "address"
        }
      ],
      "name": "finalizeChannelClosure",
      "outputs": [],
      "stateMutability": "nonpayable",
      "type": "function"
    },
    {
      "inputs": [
        {
          "internalType": "address",
          "name": "account1",
          "type": "address"
        },
        {
          "internalType": "address",
          "name": "account2",
          "type": "address"
        },
        {
          "internalType": "uint256",
          "name": "amount1",
          "type": "uint256"
        },
        {
          "internalType": "uint256",
          "name": "amount2",
          "type": "uint256"
        }
      ],
      "name": "fundChannelMulti",
      "outputs": [],
      "stateMutability": "nonpayable",
      "type": "function"
    },
    {
      "inputs": [
        {
          "internalType": "address",
          "name": "counterparty",
          "type": "address"
        }
      ],
      "name": "initiateChannelClosure",
      "outputs": [],
      "stateMutability": "nonpayable",
      "type": "function"
    },
    {
      "inputs": [
        {
          "internalType": "address",
          "name": "counterparty",
          "type": "address"
        },
        {
          "internalType": "bytes32",
          "name": "nextCommitment",
          "type": "bytes32"
        },
        {
          "internalType": "uint256",
          "name": "ticketEpoch",
          "type": "uint256"
        },
        {
          "internalType": "uint256",
          "name": "ticketIndex",
          "type": "uint256"
        },
        {
          "internalType": "bytes32",
          "name": "proofOfRelaySecret",
          "type": "bytes32"
        },
        {
          "internalType": "uint256",
          "name": "amount",
          "type": "uint256"
        },
        {
          "internalType": "uint256",
          "name": "winProb",
          "type": "uint256"
        },
        {
          "internalType": "bytes",
          "name": "signature",
          "type": "bytes"
        }
      ],
      "name": "redeemTicket",
      "outputs": [],
      "stateMutability": "nonpayable",
      "type": "function"
    },
    {
      "inputs": [],
      "name": "secsClosure",
      "outputs": [
        {
          "internalType": "uint32",
          "name": "",
          "type": "uint32"
        }
      ],
      "stateMutability": "view",
      "type": "function"
    },
    {
      "inputs": [],
      "name": "token",
      "outputs": [
        {
          "internalType": "contract IERC20",
          "name": "",
          "type": "address"
        }
      ],
      "stateMutability": "view",
      "type": "function"
    },
    {
      "inputs": [
        {
          "internalType": "address",
          "name": "operator",
          "type": "address"
        },
        {
          "internalType": "address",
          "name": "from",
          "type": "address"
        },
        {
          "internalType": "address",
          "name": "to",
          "type": "address"
        },
        {
          "internalType": "uint256",
          "name": "amount",
          "type": "uint256"
        },
        {
          "internalType": "bytes",
          "name": "userData",
          "type": "bytes"
        },
        {
          "internalType": "bytes",
          "name": "operatorData",
          "type": "bytes"
        }
      ],
      "name": "tokensReceived",
      "outputs": [],
      "stateMutability": "nonpayable",
      "type": "function"
    }
  ],
  "transactionHash": "0xb6fd0b78ba23e9e522e25410041b44bf839927fef56d7406925ff03aee15b4c4",
  "args": [
    "0xD4fdec44DB9D44B8f2b6d529620f9C0C7066A2c1",
    3600
  ],
  "solcInputHash": "c3b0d36e93baf12b2202b30086a0bb41",
  "bytecode": "0x600060a081905260c081905260e08190526101005260808080526101206040526001553480156200002f57600080fd5b50604051620024b9380380620024b9833981016040819052620000529162000118565b600380546001600160a01b0384166001600160c01b031990911617600160a01b63ffffffff8416021790556040516329965a1d60e01b815230600482018190527fb281fc8c12954d22544db45de3159a39272895b169a852b314f9cc762e44c53b60248301526044820152731820a4b7618bde71dce8cdc73aab6c95905fad24906329965a1d90606401600060405180830381600087803b158015620000f757600080fd5b505af11580156200010c573d6000803e3d6000fd5b50505050505062000167565b600080604083850312156200012b578182fd5b82516001600160a01b038116811462000142578283fd5b602084015190925063ffffffff811681146200015c578182fd5b809150509250929050565b61234280620001776000396000f3fe608060405234801561001057600080fd5b50600436106100e95760003560e01c806372581cc01161008c578063b4037e8011610066578063b4037e8014610267578063b7bbca8a1461027a578063c3af8c561461028d578063fc0c546a146102b8576100e9565b806372581cc0146101975780637a7ebd7b146101be578063b216706c14610254576100e9565b8063249cb3fa116100c8578063249cb3fa14610132578063275621d1146101455780632bcead2f146101715780634341abdd14610184576100e9565b806223de29146100ee578063048a097d14610103578063075e389f1461011f575b600080fd5b6101016100fc366004611cae565b6102cb565b005b61010c60015481565b6040519081526020015b60405180910390f35b61010161012d366004611c4d565b610462565b61010c610140366004611ecd565b61046f565b60035461015c90600160a01b900463ffffffff1681565b60405163ffffffff9091168152602001610116565b61010161017f366004611d9c565b6104c7565b610101610192366004611d5c565b6104d8565b61010c7fb281fc8c12954d22544db45de3159a39272895b169a852b314f9cc762e44c53b81565b61023c6101cc366004611eb5565b600260208190526000918252604090912080546001820154928201546003830154600484015460058501546006860154600787015460088801546009890154600a9099015497999896979596949593949293919260ff91821692909163ffffffff8216916401000000009004168c565b6040516101169c9b9a99989796959493929190612196565b610101610262366004611efc565b61050d565b610101610275366004611c4d565b610554565b610101610288366004611d71565b61055e565b6102a061029b366004611eb5565b61065f565b6040516001600160a01b039091168152602001610116565b6003546102a0906001600160a01b031681565b6003546001600160a01b0316331461032a5760405162461bcd60e51b815260206004820152601860248201527f63616c6c6572206d75737420626520486f7072546f6b656e000000000000000060448201526064015b60405180910390fd5b6001600160a01b03881630148061034857506001600160a01b038716155b1561035257610458565b60015483146103be5760405162461bcd60e51b815260206004820152603260248201527f7573657244617461206d757374206d61746368206f6e65206f66206f757220736044820152717570706f727465642066756e6374696f6e7360701b6064820152608401610321565b60008080806103cf87890189611c69565b929650909450925090506103e38282610704565b89146104475760405162461bcd60e51b815260206004820152602d60248201527f616d6f756e742073656e74206d75737420626520657175616c20746f20616d6f60448201526c1d5b9d081cdc1958da599a5959609a1b6064820152608401610321565b61045384848484610710565b505050505b5050505050505050565b61046c33826109ea565b50565b6000828152602081815260408083206001600160a01b038516845290915281205460ff1661049e5760006104c0565b7fa2ef4600d742022d532d4747cb3547474667d6f13804902513b2ec01c848f4b45b9392505050565b610458338989898989898989610def565b6104fb33306104e78585610704565b6003546001600160a01b0316929190611407565b61050784848484610710565b50505050565b336001600160a01b03167f7463de96ba8fbb96ef3e622fddfff321bdbdfef94b95cbcf27f6bfcac8fe83aa8383604051610548929190611f7a565b60405180910390a25050565b61046c3382611461565b336105ab5760405162461bcd60e51b815260206004820152601860248201527f73656e646572206d757374206e6f7420626520656d70747900000000000000006044820152606401610321565b6001600160a01b0382166105d15760405162461bcd60e51b815260040161032190612026565b336001600160a01b03831614156105fa5760405162461bcd60e51b815260040161032190611fdc565b6000610606338461164f565b93505050506001600160a01b03831633101561063d57600281018290556004810154610633906001610704565b600482015561065a565b600381018290556005810154610654906001610704565b60048201555b505050565b600070014551231950b75fc4402da1732fc9bebe197f79be667ef9dcbbac55a06295ce870b07029bfcdb2dce28d959f2815b16f81798601b83600181838587878b096040805160008152602081018083529590955260ff909316928401929092526060830152608082015260a0016020604051602081039080840390855afa1580156106ef573d6000803e3d6000fd5b5050604051601f190151979650505050505050565b60006104c08284612208565b826001600160a01b0316846001600160a01b031614156107425760405162461bcd60e51b815260040161032190611fdc565b6001600160a01b0384166107985760405162461bcd60e51b815260206004820152601a60248201527f6163636f756e7441206d757374206e6f7420626520656d7074790000000000006044820152606401610321565b6001600160a01b0383166107ee5760405162461bcd60e51b815260206004820152601a60248201527f6163636f756e7442206d757374206e6f7420626520656d7074790000000000006044820152606401610321565b60008211806107fd5750600081115b61085b5760405162461bcd60e51b815260206004820152602960248201527f616d6f756e7441206f7220616d6f756e7442206d75737420626520677265617460448201526806572207468616e20360bc1b6064820152608401610321565b60008080806001600160a01b038088169089161015610884575086925085915084905083610890565b50859250869150839050845b600061089c858561164f565b9350600292506108aa915050565b600882015460ff1660028111156108d157634e487b7160e01b600052602160045260246000fd5b141561091f5760405162461bcd60e51b815260206004820152601d60248201527f43616e6e6f742066756e64206120636c6f73696e67206368616e6e656c0000006044820152606401610321565b6000600882015460ff16600281111561094857634e487b7160e01b600052602160045260246000fd5b141561098157600981015461095e906001610704565b600982015560088101805460ff1916600117905560006006820181905560078201555b805461098d9084610704565b8155600181015461099e9083610704565b8160010181905550836001600160a01b0316856001600160a01b03166000805160206122ed833981519152836040516109d791906120f6565b60405180910390a3505050505050505050565b6003546001600160a01b0316610a425760405162461bcd60e51b815260206004820152601760248201527f746f6b656e206d757374206e6f7420626520656d7074790000000000000000006044820152606401610321565b806001600160a01b0316826001600160a01b03161415610a745760405162461bcd60e51b8152600401610321906120a7565b6001600160a01b038216610aca5760405162461bcd60e51b815260206004820152601b60248201527f696e69746961746f72206d757374206e6f7420626520656d70747900000000006044820152606401610321565b6001600160a01b038116610af05760405162461bcd60e51b815260040161032190612026565b6000806000610aff858561164f565b93505092509250600280811115610b2657634e487b7160e01b600052602160045260246000fd5b600882015460ff166002811115610b4d57634e487b7160e01b600052602160045260246000fd5b14610b9a5760405162461bcd60e51b815260206004820181905260248201527f6368616e6e656c206d7573742062652070656e64696e6720746f20636c6f73656044820152606401610321565b600a810154640100000000900460ff168015610bc75750826001600160a01b0316856001600160a01b0316145b80610bfb5750600a810154640100000000900460ff16158015610bfb5750816001600160a01b0316856001600160a01b0316145b15610c6457610c086116d6565b600a82015463ffffffff918216911610610c645760405162461bcd60e51b815260206004820152601e60248201527f636c6f7375726554696d65206d757374206265206265666f7265206e6f7700006044820152606401610321565b805415610cf557600354815460405163a9059cbb60e01b81526001600160a01b038681166004830152602482019290925291169063a9059cbb90604401602060405180830381600087803b158015610cbb57600080fd5b505af1158015610ccf573d6000803e3d6000fd5b505050506040513d601f19601f82011682018060405250810190610cf39190611e95565b505b600181015415610d8c57600354600182015460405163a9059cbb60e01b81526001600160a01b038581166004830152602482019290925291169063a9059cbb90604401602060405180830381600087803b158015610d5257600080fd5b505af1158015610d66573d6000803e3d6000fd5b505050506040513d601f19601f82011682018060405250810190610d8a9190611e95565b505b60008082556001820155600a8101805464ffffffffff1916905560088101805460ff191690556040516001600160a01b0380861691908716906000805160206122ed83398151915290610de09085906120f6565b60405180910390a35050505050565b6001600160a01b038916610e455760405162461bcd60e51b815260206004820152601a60248201527f72656465656d6572206d757374206e6f7420626520656d7074790000000000006044820152606401610321565b6001600160a01b038816610e6b5760405162461bcd60e51b815260040161032190612026565b86610eb85760405162461bcd60e51b815260206004820181905260248201527f6e657874436f6d6d69746d656e74206d757374206e6f7420626520656d7074796044820152606401610321565b82610f055760405162461bcd60e51b815260206004820152601860248201527f616d6f756e74206d757374206e6f7420626520656d70747900000000000000006044820152606401610321565b6000610f118a8a61164f565b93506000925050506001600160a01b03808b16908c16101561101c5760408051602081018b90520160405160208183030381529060405280519060200120826002015414610f715760405162461bcd60e51b81526004016103219061205d565b87826004015414610fbe5760405162461bcd60e51b81526020600482015260176024820152760e8d2c6d6cae840cae0dec6d040daeae6e840dac2e8c6d604b1b6044820152606401610321565b868260060154106110115760405162461bcd60e51b815260206004820152601c60248201527f726564656d7074696f6e73206d75737420626520696e206f72646572000000006044820152606401610321565b506004810154611107565b60408051602081018b905201604051602081830303815290604052805190602001208260030154146110605760405162461bcd60e51b81526004016103219061205d565b878260050154146110ad5760405162461bcd60e51b81526020600482015260176024820152760e8d2c6d6cae840cae0dec6d040daeae6e840dac2e8c6d604b1b6044820152606401610321565b868260070154106111005760405162461bcd60e51b815260206004820152601c60248201527f726564656d7074696f6e73206d75737420626520696e206f72646572000000006044820152606401610321565b5060058101545b6000600883015460ff16600281111561113057634e487b7160e01b600052602160045260246000fd5b141561118f5760405162461bcd60e51b815260206004820152602860248201527f6368616e6e656c206d757374206265206f70656e206f722070656e64696e6720604482015267746f20636c6f736560c01b6064820152608401610321565b60006111f86111a78d848a87600901548b8e8c6116ec565b8051602091820120604080517f19457468657265756d205369676e6564204d6573736167653a0a33320000000081850152603c8082019390935281518082039093018352605c019052805191012090565b90508a6001600160a01b031661120e8286611765565b6001600160a01b03161461126f5760405162461bcd60e51b815260206004820152602260248201527f7369676e6572206d757374206d617463682074686520636f756e746572706172604482015261747960f01b6064820152608401610321565b6040805160208082018490528183018d9052606080830189905283518084039091018152608090920190925280519101208510156112e65760405162461bcd60e51b81526020600482015260146024820152733a34b1b5b2ba1036bab9ba1031329030903bb4b760611b6044820152606401610321565b6001600160a01b03808c16908d16101561137c57600283018a9055825461130d9087610704565b8355600183015461131e90876117e0565b600180850191909155600484015461133591610704565b6004840155600683018890556040516001600160a01b03808d1691908e16906000805160206122ed8339815191529061136f9087906120f6565b60405180910390a3610453565b825461138890876117e0565b835560018301546113999087610704565b600180850191909155600384018b905560058401546113b791610704565b6005840155600783018890556040516001600160a01b03808e1691908d16906000805160206122ed833981519152906113f19087906120f6565b60405180910390a3505050505050505050505050565b604080516001600160a01b0385811660248301528416604482015260648082018490528251808303909101815260849091019091526020810180516001600160e01b03166323b872dd60e01b1790526105079085906117ec565b806001600160a01b0316826001600160a01b031614156114935760405162461bcd60e51b8152600401610321906120a7565b6001600160a01b0382166114e95760405162461bcd60e51b815260206004820152601b60248201527f696e69746961746f72206d757374206e6f7420626520656d70747900000000006044820152606401610321565b6001600160a01b03811661150f5760405162461bcd60e51b815260040161032190612026565b600061151b838361164f565b935060019250611529915050565b600882015460ff16600281111561155057634e487b7160e01b600052602160045260246000fd5b146115945760405162461bcd60e51b815260206004820152601460248201527331b430b73732b61036bab9ba1031329037b832b760611b6044820152606401610321565b600354600160a01b900463ffffffff166115ac6116d6565b6115b69190612220565b600a8201805463ffffffff191663ffffffff92909216919091179055600881018054600260ff199091161790556001600160a01b0382811690841610801561161057600a8201805464ff0000000019166401000000001790555b826001600160a01b0316846001600160a01b03166000805160206122ed8339815191528460405161164191906120f6565b60405180910390a350505050565b60008060008060008061166288886118be565b9150915060006116b783836040516bffffffffffffffffffffffff19606084811b8216602084015283901b16603482015260009060480160405160208183030381529060405280519060200120905092915050565b6000818152600260205260409020939a92995097509195509350505050565b60006116e76401000000004261228b565b905090565b606060006116f98761065f565b6040516bffffffffffffffffffffffff1960608c811b8216602084015283901b166034820152604881018a9052606881018790526088810185905260a8810186905260c8810188905290915060e801604051602081830303815290604052915050979650505050505050565b600081516041146117b85760405162461bcd60e51b815260206004820152601f60248201527f45434453413a20696e76616c6964207369676e6174757265206c656e677468006044820152606401610321565b60208201516040830151606084015160001a6117d6868285856118ec565b9695505050505050565b60006104c08284612248565b6000611841826040518060400160405280602081526020017f5361666545524332303a206c6f772d6c6576656c2063616c6c206661696c6564815250856001600160a01b0316611a959092919063ffffffff16565b80519091501561065a578080602001905181019061185f9190611e95565b61065a5760405162461bcd60e51b815260206004820152602a60248201527f5361666545524332303a204552433230206f7065726174696f6e20646964206e6044820152691bdd081cdd58d8d9595960b21b6064820152608401610321565b6000806001600160a01b0380841690851610156118df5750829050816118e5565b50819050825b9250929050565b60007f7fffffffffffffffffffffffffffffff5d576e7357a4501ddfe92f46681b20a08211156119695760405162461bcd60e51b815260206004820152602260248201527f45434453413a20696e76616c6964207369676e6174757265202773272076616c604482015261756560f01b6064820152608401610321565b8360ff16601b148061197e57508360ff16601c145b6119d55760405162461bcd60e51b815260206004820152602260248201527f45434453413a20696e76616c6964207369676e6174757265202776272076616c604482015261756560f01b6064820152608401610321565b6040805160008082526020820180845288905260ff871692820192909252606081018590526080810184905260019060a0016020604051602081039080840390855afa158015611a29573d6000803e3d6000fd5b5050604051601f1901519150506001600160a01b038116611a8c5760405162461bcd60e51b815260206004820152601860248201527f45434453413a20696e76616c6964207369676e617475726500000000000000006044820152606401610321565b95945050505050565b6060611aa48484600085611aac565b949350505050565b606082471015611b0d5760405162461bcd60e51b815260206004820152602660248201527f416464726573733a20696e73756666696369656e742062616c616e636520666f6044820152651c8818d85b1b60d21b6064820152608401610321565b843b611b5b5760405162461bcd60e51b815260206004820152601d60248201527f416464726573733a2063616c6c20746f206e6f6e2d636f6e74726163740000006044820152606401610321565b600080866001600160a01b03168587604051611b779190611f5e565b60006040518083038185875af1925050503d8060008114611bb4576040519150601f19603f3d011682016040523d82523d6000602084013e611bb9565b606091505b5091509150611bc9828286611bd4565b979650505050505050565b60608315611be35750816104c0565b825115611bf35782518084602001fd5b8160405162461bcd60e51b81526004016103219190611fa9565b60008083601f840112611c1e578182fd5b50813567ffffffffffffffff811115611c35578182fd5b6020830191508360208285010111156118e557600080fd5b600060208284031215611c5e578081fd5b81356104c0816122d7565b60008060008060808587031215611c7e578283fd5b8435611c89816122d7565b93506020850135611c99816122d7565b93969395505050506040820135916060013590565b60008060008060008060008060c0898b031215611cc9578384fd5b8835611cd4816122d7565b97506020890135611ce4816122d7565b96506040890135611cf4816122d7565b955060608901359450608089013567ffffffffffffffff80821115611d17578586fd5b611d238c838d01611c0d565b909650945060a08b0135915080821115611d3b578384fd5b50611d488b828c01611c0d565b999c989b5096995094979396929594505050565b60008060008060808587031215611c7e578384fd5b60008060408385031215611d83578182fd5b8235611d8e816122d7565b946020939093013593505050565b600080600080600080600080610100898b031215611db8578384fd5b8835611dc3816122d7565b97506020890135965060408901359550606089013594506080890135935060a0890135925060c0890135915060e089013567ffffffffffffffff80821115611e09578283fd5b818b0191508b601f830112611e1c578283fd5b813581811115611e2e57611e2e6122c1565b604051601f8201601f19908116603f01168101908382118183101715611e5657611e566122c1565b816040528281528e6020848701011115611e6e578586fd5b82602086016020830137856020848301015280955050505050509295985092959890939650565b600060208284031215611ea6578081fd5b815180151581146104c0578182fd5b600060208284031215611ec6578081fd5b5035919050565b60008060408385031215611edf578182fd5b823591506020830135611ef1816122d7565b809150509250929050565b60008060208385031215611f0e578182fd5b823567ffffffffffffffff811115611f24578283fd5b611f3085828601611c0d565b90969095509350505050565b60038110611f5a57634e487b7160e01b600052602160045260246000fd5b9052565b60008251611f7081846020870161225f565b9190910192915050565b60006020825282602083015282846040840137818301604090810191909152601f909201601f19160101919050565b6000602082528251806020840152611fc881604085016020870161225f565b601f01601f19169190910160400192915050565b6020808252602a908201527f6163636f756e744120616e64206163636f756e7442206d757374206e6f74206260408201526965207468652073616d6560b01b606082015260800190565b6020808252601e908201527f636f756e7465727061727479206d757374206e6f7420626520656d7074790000604082015260600190565b6020808252602a908201527f636f6d6d69746d656e74206d7573742062652068617368206f66206e6578742060408201526918dbdb5b5a5d1b595b9d60b21b606082015260800190565b6020808252602f908201527f696e69746961746f7220616e6420636f756e7465727061727479206d7573742060408201526e6e6f74206265207468652073616d6560881b606082015260800190565b8154815260018201546020820152600282015460408201526003820154606082015260048201546080820152600582015460a0820152600682015460c0820152600782015460e0820152600882015461018082019060ff1661215c610100840182611f3c565b506009830154610120830152600a83015463ffffffff811661014084015261218f610160840160ff8360201c1615159052565b5092915050565b6000610180820190508d82528c60208301528b60408301528a60608301528960808301528860a08301528760c08301528660e08301526121da610100830187611f3c565b8461012083015263ffffffff84166101408301528215156101608301529d9c50505050505050505050505050565b6000821982111561221b5761221b6122ab565b500190565b600063ffffffff80831681851680830382111561223f5761223f6122ab565b01949350505050565b60008282101561225a5761225a6122ab565b500390565b60005b8381101561227a578181015183820152602001612262565b838111156105075750506000910152565b6000826122a657634e487b7160e01b81526012600452602481fd5b500690565b634e487b7160e01b600052601160045260246000fd5b634e487b7160e01b600052604160045260246000fd5b6001600160a01b038116811461046c57600080fdfe4910a2e1baf8597d438cd08f3a64cff447af531f02d91138c8bef6e311f970f4a2646970667358221220bb0d8276cf2e250ef266827899a069c7a86e484b91053f2529222385580e060064736f6c63430008030033",
  "devdoc": {
    "kind": "dev",
    "methods": {
      "announce(bytes)": {
        "details": "Announces msg.sender's multiaddress. Confirmation should be done off-chain.",
        "params": {
          "multiaddr": "the multiaddress"
        }
      },
      "bumpChannel(address,bytes32)": {
        "details": "Request a channelIteration bump, so we can make a new set of commitments",
        "params": {
          "counterparty": "the address of the counterparty",
          "newCommitment": ", a secret derived from this new commitment"
        }
      },
      "computeChallenge(bytes32)": {
        "params": {
          "response": "response that is used to recompute the challenge"
        }
      },
      "constructor": {
        "params": {
          "_secsClosure": "seconds until a channel can be closed",
          "_token": "HoprToken address"
        }
      },
      "finalizeChannelClosure(address)": {
        "details": "Finalize channel closure, if cool-off period is over it will close the channel and transfer funds to the parties involved, then emits {ChannelUpdate} event.",
        "params": {
          "counterparty": "the address of the counterparty"
        }
      },
      "fundChannelMulti(address,address,uint256,uint256)": {
        "details": "Funds a channel, in both directions, then emits {ChannelUpdate} event.",
        "params": {
          "account1": "the address of account1",
          "account2": "the address of account2",
          "amount1": "amount to fund account1",
          "amount2": "amount to fund account2"
        }
      },
      "initiateChannelClosure(address)": {
        "details": "Initialize channel closure, updates channel'r closure time, when the cool-off period is over, user may finalize closure, then emits {ChannelUpdate} event.",
        "params": {
          "counterparty": "the address of the counterparty"
        }
      },
      "tokensReceived(address,address,address,uint256,bytes,bytes)": {
        "params": {
          "amount": "uint256 amount of tokens to transfer",
          "from": "address token holder address",
          "operator": "address operator requesting the transfer",
          "operatorData": "bytes extra information provided by the operator (if any)",
          "to": "address recipient address",
          "userData": "bytes extra information provided by the token holder (if any)"
        }
      }
    },
    "stateVariables": {
      "channels": {
        "details": "Stored channels keyed by their channel ids"
      },
      "secsClosure": {
        "details": "Seconds it takes until we can finalize channel closure once, channel closure has been initialized."
      },
      "token": {
        "details": "HoprToken, the token that will be used to settle payments"
      }
    },
    "version": 1
  },
  "userdoc": {
    "kind": "user",
    "methods": {
      "canImplementInterfaceForAddress(bytes32,address)": {
        "notice": "See {IERC1820Implementer-canImplementInterfaceForAddress}."
      },
      "computeChallenge(bytes32)": {
        "notice": "Uses the response to recompute the challenge. This is done by multiplying the base point of the curve with the given response. Due to the lack of embedded ECMUL functionality in the current version of the EVM, this is done by misusing the `ecrecover`  functionality. `ecrecover` performs the point multiplication and  converts the output to an Ethereum address (sliced hash of the product of base point and scalar). See https://ethresear.ch/t/you-can-kinda-abuse-ecrecover-to-do-ecmul-in-secp256k1-today/2384"
      },
      "tokensReceived(address,address,address,uint256,bytes,bytes)": {
        "notice": "A hook triggered when HOPR tokens are sent to this contract."
      }
    },
    "version": 1
  },
  "storageLayout": {
    "storage": [
      {
        "astId": 903,
        "contract": "contracts/HoprChannels.sol:HoprChannels",
        "label": "_supportedInterfaces",
        "offset": 0,
        "slot": "0",
        "type": "t_mapping(t_bytes32,t_mapping(t_address,t_bool))"
      },
      {
        "astId": 1415,
        "contract": "contracts/HoprChannels.sol:HoprChannels",
        "label": "FUND_CHANNEL_MULTI_SIZE",
        "offset": 0,
        "slot": "1",
        "type": "t_uint256"
      },
      {
        "astId": 1451,
        "contract": "contracts/HoprChannels.sol:HoprChannels",
        "label": "channels",
        "offset": 0,
        "slot": "2",
        "type": "t_mapping(t_bytes32,t_struct(Channel)1445_storage)"
      },
      {
        "astId": 1455,
        "contract": "contracts/HoprChannels.sol:HoprChannels",
        "label": "token",
        "offset": 0,
        "slot": "3",
        "type": "t_contract(IERC20)187"
      },
      {
        "astId": 1458,
        "contract": "contracts/HoprChannels.sol:HoprChannels",
        "label": "secsClosure",
        "offset": 20,
        "slot": "3",
        "type": "t_uint32"
      }
    ],
    "types": {
      "t_address": {
        "encoding": "inplace",
        "label": "address",
        "numberOfBytes": "20"
      },
      "t_bool": {
        "encoding": "inplace",
        "label": "bool",
        "numberOfBytes": "1"
      },
      "t_bytes32": {
        "encoding": "inplace",
        "label": "bytes32",
        "numberOfBytes": "32"
      },
      "t_contract(IERC20)187": {
        "encoding": "inplace",
        "label": "contract IERC20",
        "numberOfBytes": "20"
      },
      "t_enum(ChannelStatus)1419": {
        "encoding": "inplace",
        "label": "enum HoprChannels.ChannelStatus",
        "numberOfBytes": "1"
      },
      "t_mapping(t_address,t_bool)": {
        "encoding": "mapping",
        "key": "t_address",
        "label": "mapping(address => bool)",
        "numberOfBytes": "32",
        "value": "t_bool"
      },
      "t_mapping(t_bytes32,t_mapping(t_address,t_bool))": {
        "encoding": "mapping",
        "key": "t_bytes32",
        "label": "mapping(bytes32 => mapping(address => bool))",
        "numberOfBytes": "32",
        "value": "t_mapping(t_address,t_bool)"
      },
      "t_mapping(t_bytes32,t_struct(Channel)1445_storage)": {
        "encoding": "mapping",
        "key": "t_bytes32",
        "label": "mapping(bytes32 => struct HoprChannels.Channel)",
        "numberOfBytes": "32",
        "value": "t_struct(Channel)1445_storage"
      },
      "t_struct(Channel)1445_storage": {
        "encoding": "inplace",
        "label": "struct HoprChannels.Channel",
        "members": [
          {
            "astId": 1421,
            "contract": "contracts/HoprChannels.sol:HoprChannels",
            "label": "partyABalance",
            "offset": 0,
            "slot": "0",
            "type": "t_uint256"
          },
          {
            "astId": 1423,
            "contract": "contracts/HoprChannels.sol:HoprChannels",
            "label": "partyBBalance",
            "offset": 0,
            "slot": "1",
            "type": "t_uint256"
          },
          {
            "astId": 1425,
            "contract": "contracts/HoprChannels.sol:HoprChannels",
            "label": "partyACommitment",
            "offset": 0,
            "slot": "2",
            "type": "t_bytes32"
          },
          {
            "astId": 1427,
            "contract": "contracts/HoprChannels.sol:HoprChannels",
            "label": "partyBCommitment",
            "offset": 0,
            "slot": "3",
            "type": "t_bytes32"
          },
          {
            "astId": 1429,
            "contract": "contracts/HoprChannels.sol:HoprChannels",
            "label": "partyATicketEpoch",
            "offset": 0,
            "slot": "4",
            "type": "t_uint256"
          },
          {
            "astId": 1431,
            "contract": "contracts/HoprChannels.sol:HoprChannels",
            "label": "partyBTicketEpoch",
            "offset": 0,
            "slot": "5",
            "type": "t_uint256"
          },
          {
            "astId": 1433,
            "contract": "contracts/HoprChannels.sol:HoprChannels",
            "label": "partyATicketIndex",
            "offset": 0,
            "slot": "6",
            "type": "t_uint256"
          },
          {
            "astId": 1435,
            "contract": "contracts/HoprChannels.sol:HoprChannels",
            "label": "partyBTicketIndex",
            "offset": 0,
            "slot": "7",
            "type": "t_uint256"
          },
          {
            "astId": 1438,
            "contract": "contracts/HoprChannels.sol:HoprChannels",
            "label": "status",
            "offset": 0,
            "slot": "8",
            "type": "t_enum(ChannelStatus)1419"
          },
          {
            "astId": 1440,
            "contract": "contracts/HoprChannels.sol:HoprChannels",
            "label": "channelEpoch",
            "offset": 0,
            "slot": "9",
            "type": "t_uint256"
          },
          {
            "astId": 1442,
            "contract": "contracts/HoprChannels.sol:HoprChannels",
            "label": "closureTime",
            "offset": 0,
            "slot": "10",
            "type": "t_uint32"
          },
          {
            "astId": 1444,
            "contract": "contracts/HoprChannels.sol:HoprChannels",
            "label": "closureByPartyA",
            "offset": 4,
            "slot": "10",
            "type": "t_bool"
          }
        ],
        "numberOfBytes": "352"
      },
      "t_uint256": {
        "encoding": "inplace",
        "label": "uint256",
        "numberOfBytes": "32"
      },
      "t_uint32": {
        "encoding": "inplace",
        "label": "uint32",
        "numberOfBytes": "4"
      }
    }
  }
}