{
  "address": "0x1b7714DC1D40ef37F612967Bed94a6dF84a93b85",
  "abi": [
    {
      "inputs": [
        {
          "internalType": "address",
          "name": "_token",
          "type": "address"
        },
        {
          "internalType": "uint32",
          "name": "_secsClosure",
          "type": "uint32"
        }
      ],
      "stateMutability": "nonpayable",
      "type": "constructor"
    },
    {
      "anonymous": false,
      "inputs": [
        {
          "indexed": true,
          "internalType": "address",
          "name": "account",
          "type": "address"
        },
        {
          "indexed": false,
          "internalType": "bytes",
          "name": "multiaddr",
          "type": "bytes"
        }
      ],
      "name": "Announcement",
      "type": "event"
    },
    {
      "anonymous": false,
      "inputs": [
        {
          "indexed": true,
          "internalType": "address",
          "name": "partyA",
          "type": "address"
        },
        {
          "indexed": true,
          "internalType": "address",
          "name": "partyB",
          "type": "address"
        },
        {
          "components": [
            {
              "internalType": "uint256",
              "name": "partyABalance",
              "type": "uint256"
            },
            {
              "internalType": "uint256",
              "name": "partyBBalance",
              "type": "uint256"
            },
            {
              "internalType": "bytes32",
              "name": "partyACommitment",
              "type": "bytes32"
            },
            {
              "internalType": "bytes32",
              "name": "partyBCommitment",
              "type": "bytes32"
            },
            {
              "internalType": "uint256",
              "name": "partyATicketEpoch",
              "type": "uint256"
            },
            {
              "internalType": "uint256",
              "name": "partyBTicketEpoch",
              "type": "uint256"
            },
            {
              "internalType": "uint256",
              "name": "partyATicketIndex",
              "type": "uint256"
            },
            {
              "internalType": "uint256",
              "name": "partyBTicketIndex",
              "type": "uint256"
            },
            {
              "internalType": "enum HoprChannels.ChannelStatus",
              "name": "status",
              "type": "uint8"
            },
            {
              "internalType": "uint256",
              "name": "channelEpoch",
              "type": "uint256"
            },
            {
              "internalType": "uint32",
              "name": "closureTime",
              "type": "uint32"
            },
            {
              "internalType": "bool",
              "name": "closureByPartyA",
              "type": "bool"
            }
          ],
          "indexed": false,
          "internalType": "struct HoprChannels.Channel",
          "name": "newState",
          "type": "tuple"
        }
      ],
      "name": "ChannelUpdate",
      "type": "event"
    },
    {
      "inputs": [],
      "name": "FUND_CHANNEL_MULTI_SIZE",
      "outputs": [
        {
          "internalType": "uint256",
          "name": "",
          "type": "uint256"
        }
      ],
      "stateMutability": "view",
      "type": "function"
    },
    {
      "inputs": [],
      "name": "TOKENS_RECIPIENT_INTERFACE_HASH",
      "outputs": [
        {
          "internalType": "bytes32",
          "name": "",
          "type": "bytes32"
        }
      ],
      "stateMutability": "view",
      "type": "function"
    },
    {
      "inputs": [
        {
          "internalType": "bytes",
          "name": "multiaddr",
          "type": "bytes"
        }
      ],
      "name": "announce",
      "outputs": [],
      "stateMutability": "nonpayable",
      "type": "function"
    },
    {
      "inputs": [
        {
          "internalType": "address",
          "name": "counterparty",
          "type": "address"
        },
        {
          "internalType": "bytes32",
          "name": "newCommitment",
          "type": "bytes32"
        }
      ],
      "name": "bumpChannel",
      "outputs": [],
      "stateMutability": "nonpayable",
      "type": "function"
    },
    {
      "inputs": [
        {
          "internalType": "bytes32",
          "name": "interfaceHash",
          "type": "bytes32"
        },
        {
          "internalType": "address",
          "name": "account",
          "type": "address"
        }
      ],
      "name": "canImplementInterfaceForAddress",
      "outputs": [
        {
          "internalType": "bytes32",
          "name": "",
          "type": "bytes32"
        }
      ],
      "stateMutability": "view",
      "type": "function"
    },
    {
      "inputs": [
        {
          "internalType": "bytes32",
          "name": "",
          "type": "bytes32"
        }
      ],
      "name": "channels",
      "outputs": [
        {
          "internalType": "uint256",
          "name": "partyABalance",
          "type": "uint256"
        },
        {
          "internalType": "uint256",
          "name": "partyBBalance",
          "type": "uint256"
        },
        {
          "internalType": "bytes32",
          "name": "partyACommitment",
          "type": "bytes32"
        },
        {
          "internalType": "bytes32",
          "name": "partyBCommitment",
          "type": "bytes32"
        },
        {
          "internalType": "uint256",
          "name": "partyATicketEpoch",
          "type": "uint256"
        },
        {
          "internalType": "uint256",
          "name": "partyBTicketEpoch",
          "type": "uint256"
        },
        {
          "internalType": "uint256",
          "name": "partyATicketIndex",
          "type": "uint256"
        },
        {
          "internalType": "uint256",
          "name": "partyBTicketIndex",
          "type": "uint256"
        },
        {
          "internalType": "enum HoprChannels.ChannelStatus",
          "name": "status",
          "type": "uint8"
        },
        {
          "internalType": "uint256",
          "name": "channelEpoch",
          "type": "uint256"
        },
        {
          "internalType": "uint32",
          "name": "closureTime",
          "type": "uint32"
        },
        {
          "internalType": "bool",
          "name": "closureByPartyA",
          "type": "bool"
        }
      ],
      "stateMutability": "view",
      "type": "function"
    },
    {
      "inputs": [
        {
          "internalType": "bytes32",
          "name": "response",
          "type": "bytes32"
        }
      ],
      "name": "computeChallenge",
      "outputs": [
        {
          "internalType": "address",
          "name": "",
          "type": "address"
        }
      ],
      "stateMutability": "pure",
      "type": "function"
    },
    {
      "inputs": [
        {
          "internalType": "address",
          "name": "counterparty",
          "type": "address"
        }
      ],
      "name": "finalizeChannelClosure",
      "outputs": [],
      "stateMutability": "nonpayable",
      "type": "function"
    },
    {
      "inputs": [
        {
          "internalType": "address",
          "name": "account1",
          "type": "address"
        },
        {
          "internalType": "address",
          "name": "account2",
          "type": "address"
        },
        {
          "internalType": "uint256",
          "name": "amount1",
          "type": "uint256"
        },
        {
          "internalType": "uint256",
          "name": "amount2",
          "type": "uint256"
        }
      ],
      "name": "fundChannelMulti",
      "outputs": [],
      "stateMutability": "nonpayable",
      "type": "function"
    },
    {
      "inputs": [
        {
          "internalType": "address",
          "name": "counterparty",
          "type": "address"
        }
      ],
      "name": "initiateChannelClosure",
      "outputs": [],
      "stateMutability": "nonpayable",
      "type": "function"
    },
    {
      "inputs": [
        {
          "internalType": "address",
          "name": "counterparty",
          "type": "address"
        },
        {
          "internalType": "bytes32",
          "name": "nextCommitment",
          "type": "bytes32"
        },
        {
          "internalType": "uint256",
          "name": "ticketEpoch",
          "type": "uint256"
        },
        {
          "internalType": "uint256",
          "name": "ticketIndex",
          "type": "uint256"
        },
        {
          "internalType": "bytes32",
          "name": "proofOfRelaySecret",
          "type": "bytes32"
        },
        {
          "internalType": "uint256",
          "name": "amount",
          "type": "uint256"
        },
        {
          "internalType": "uint256",
          "name": "winProb",
          "type": "uint256"
        },
        {
          "internalType": "bytes",
          "name": "signature",
          "type": "bytes"
        }
      ],
      "name": "redeemTicket",
      "outputs": [],
      "stateMutability": "nonpayable",
      "type": "function"
    },
    {
      "inputs": [],
      "name": "secsClosure",
      "outputs": [
        {
          "internalType": "uint32",
          "name": "",
          "type": "uint32"
        }
      ],
      "stateMutability": "view",
      "type": "function"
    },
    {
      "inputs": [],
      "name": "token",
      "outputs": [
        {
          "internalType": "contract IERC20",
          "name": "",
          "type": "address"
        }
      ],
      "stateMutability": "view",
      "type": "function"
    },
    {
      "inputs": [
        {
          "internalType": "address",
          "name": "operator",
          "type": "address"
        },
        {
          "internalType": "address",
          "name": "from",
          "type": "address"
        },
        {
          "internalType": "address",
          "name": "to",
          "type": "address"
        },
        {
          "internalType": "uint256",
          "name": "amount",
          "type": "uint256"
        },
        {
          "internalType": "bytes",
          "name": "userData",
          "type": "bytes"
        },
        {
          "internalType": "bytes",
          "name": "operatorData",
          "type": "bytes"
        }
      ],
      "name": "tokensReceived",
      "outputs": [],
      "stateMutability": "nonpayable",
      "type": "function"
    }
  ],
  "transactionHash": "0x08175df683485c6aada78bd09e02ad1edaa4decd59c736e6287336154d5e8248",
  "args": [
    "0x566a5c774bb8ABE1A88B4f187e24d4cD55C207A5",
    600
  ],
  "solcInputHash": "1c532be722d97a6de6bd4a6249bddc18",
  "bytecode": "0x60806040526000806000806040516020016200001f949392919062000218565b604051602081830303815290604052516001553480156200003f57600080fd5b50604051620049df380380620049df8339818101604052810190620000659190620001a4565b81600360006101000a81548173ffffffffffffffffffffffffffffffffffffffff021916908373ffffffffffffffffffffffffffffffffffffffff16021790555080600360146101000a81548163ffffffff021916908363ffffffff160217905550731820a4b7618bde71dce8cdc73aab6c95905fad2473ffffffffffffffffffffffffffffffffffffffff166329965a1d307fb281fc8c12954d22544db45de3159a39272895b169a852b314f9cc762e44c53b306040518463ffffffff1660e01b81526004016200013a9392919062000265565b600060405180830381600087803b1580156200015557600080fd5b505af11580156200016a573d6000803e3d6000fd5b5050505050506200032e565b6000815190506200018781620002fa565b92915050565b6000815190506200019e8162000314565b92915050565b60008060408385031215620001b857600080fd5b6000620001c88582860162000176565b9250506020620001db858286016200018d565b9150509250929050565b620001f081620002a2565b82525050565b6200020181620002b6565b82525050565b6200021281620002e0565b82525050565b60006080820190506200022f6000830187620001e5565b6200023e6020830186620001e5565b6200024d604083018562000207565b6200025c606083018462000207565b95945050505050565b60006060820190506200027c6000830186620001e5565b6200028b6020830185620001f6565b6200029a6040830184620001e5565b949350505050565b6000620002af82620002c0565b9050919050565b6000819050919050565b600073ffffffffffffffffffffffffffffffffffffffff82169050919050565b6000819050919050565b600063ffffffff82169050919050565b6200030581620002a2565b81146200031157600080fd5b50565b6200031f81620002ea565b81146200032b57600080fd5b50565b6146a1806200033e6000396000f3fe608060405234801561001057600080fd5b50600436106100e95760003560e01c806372581cc01161008c578063b4037e8011610066578063b4037e801461023f578063b7bbca8a1461025b578063c3af8c5614610277578063fc0c546a146102a7576100e9565b806372581cc0146101ca5780637a7ebd7b146101e8578063b216706c14610223576100e9565b8063249cb3fa116100c8578063249cb3fa14610144578063275621d1146101745780632bcead2f146101925780634341abdd146101ae576100e9565b806223de29146100ee578063048a097d1461010a578063075e389f14610128575b600080fd5b61010860048036038101906101039190612770565b6102c5565b005b6101126104a0565b60405161011f91906138f0565b60405180910390f35b610142600480360381019061013d91906126e4565b6104a6565b005b61015e600480360381019061015991906129ee565b6104b3565b60405161016b91906133ce565b60405180910390f35b61017c610549565b60405161018991906139c5565b60405180910390f35b6101ac60048036038101906101a791906128d2565b61055f565b005b6101c860048036038101906101c39190612833565b61057a565b005b6101d26105ed565b6040516101df91906133ce565b60405180910390f35b61020260048036038101906101fd91906129c5565b610611565b60405161021a9c9b9a9998979695949392919061390b565b60405180910390f35b61023d60048036038101906102389190612a2a565b61069b565b005b610259600480360381019061025491906126e4565b6106ef565b005b61027560048036038101906102709190612896565b6106fc565b005b610291600480360381019061028c91906129c5565b6108c8565b60405161029e9190613353565b60405180910390f35b6102af6109b9565b6040516102bc9190613452565b60405180910390f35b600360009054906101000a900473ffffffffffffffffffffffffffffffffffffffff1673ffffffffffffffffffffffffffffffffffffffff163373ffffffffffffffffffffffffffffffffffffffff1614610355576040517f08c379a000000000000000000000000000000000000000000000000000000000815260040161034c90613634565b60405180910390fd5b3073ffffffffffffffffffffffffffffffffffffffff168873ffffffffffffffffffffffffffffffffffffffff1614806103bb5750600073ffffffffffffffffffffffffffffffffffffffff168773ffffffffffffffffffffffffffffffffffffffff16145b156103c557610496565b600154848490501461040c576040517f08c379a000000000000000000000000000000000000000000000000000000000815260040161040390613654565b60405180910390fd5b6000806000808787810190610421919061270d565b8094508195508296508397505050505061044481836109df90919063ffffffff16565b8914610485576040517f08c379a000000000000000000000000000000000000000000000000000000000815260040161047c90613594565b60405180910390fd5b610491848484846109f5565b505050505b5050505050505050565b60015481565b6104b03382610e5a565b50565b600080600084815260200190815260200160002060008373ffffffffffffffffffffffffffffffffffffffff1673ffffffffffffffffffffffffffffffffffffffff16815260200190815260200160002060009054906101000a900460ff1661051f576000801b610541565b7fa2ef4600d742022d532d4747cb3547474667d6f13804902513b2ec01c848f4b45b905092915050565b600360149054906101000a900463ffffffff1681565b61057033898989898989898961149b565b5050505050505050565b6105db333061059284866109df90919063ffffffff16565b600360009054906101000a900473ffffffffffffffffffffffffffffffffffffffff1673ffffffffffffffffffffffffffffffffffffffff16611baa909392919063ffffffff16565b6105e7848484846109f5565b50505050565b7fb281fc8c12954d22544db45de3159a39272895b169a852b314f9cc762e44c53b81565b60026020528060005260406000206000915090508060000154908060010154908060020154908060030154908060040154908060050154908060060154908060070154908060080160009054906101000a900460ff169080600901549080600a0160009054906101000a900463ffffffff169080600a0160049054906101000a900460ff1690508c565b3373ffffffffffffffffffffffffffffffffffffffff167f7463de96ba8fbb96ef3e622fddfff321bdbdfef94b95cbcf27f6bfcac8fe83aa83836040516106e392919061342e565b60405180910390a25050565b6106f93382611c33565b50565b600073ffffffffffffffffffffffffffffffffffffffff163373ffffffffffffffffffffffffffffffffffffffff16141561076c576040517f08c379a0000000000000000000000000000000000000000000000000000000008152600401610763906135b4565b60405180910390fd5b600073ffffffffffffffffffffffffffffffffffffffff168273ffffffffffffffffffffffffffffffffffffffff1614156107dc576040517f08c379a00000000000000000000000000000000000000000000000000000000081526004016107d390613674565b60405180910390fd5b8173ffffffffffffffffffffffffffffffffffffffff163373ffffffffffffffffffffffffffffffffffffffff16141561084b576040517f08c379a000000000000000000000000000000000000000000000000000000000815260040161084290613514565b60405180910390fd5b60006108573384611f8e565b93505050506108663384611fe3565b156108995781816002018190555061088c600182600401546109df90919063ffffffff16565b81600401819055506108c3565b8181600301819055506108ba600182600501546109df90919063ffffffff16565b81600401819055505b505050565b6000807ffffffffffffffffffffffffffffffffebaaedce6af48a03bbfd25e8cd0364141905060007f79be667ef9dcbbac55a06295ce870b07029bfcdb2dce28d959f2815b16f8179890506000601b9050600060016000838560001b8780610959577f4e487b7100000000000000000000000000000000000000000000000000000000600052601260045260246000fd5b878b60001c0960001b6040516000815260200160405260405161097f949392919061346d565b6020604051602081039080840390855afa1580156109a1573d6000803e3d6000fd5b50505060206040510351905080945050505050919050565b600360009054906101000a900473ffffffffffffffffffffffffffffffffffffffff1681565b600081836109ed9190613a84565b905092915050565b8273ffffffffffffffffffffffffffffffffffffffff168473ffffffffffffffffffffffffffffffffffffffff161415610a64576040517f08c379a0000000000000000000000000000000000000000000000000000000008152600401610a5b90613514565b60405180910390fd5b600073ffffffffffffffffffffffffffffffffffffffff168473ffffffffffffffffffffffffffffffffffffffff161415610ad4576040517f08c379a0000000000000000000000000000000000000000000000000000000008152600401610acb90613734565b60405180910390fd5b600073ffffffffffffffffffffffffffffffffffffffff168373ffffffffffffffffffffffffffffffffffffffff161415610b44576040517f08c379a0000000000000000000000000000000000000000000000000000000008152600401610b3b906136f4565b60405180910390fd5b6000821180610b535750600081115b610b92576040517f08c379a0000000000000000000000000000000000000000000000000000000008152600401610b8990613874565b60405180910390fd5b600080600080610ba28888611fe3565b15610bb857879350869250859150849050610bc5565b8693508792508491508590505b6000610bd18585611f8e565b9350505050600280811115610c0f577f4e487b7100000000000000000000000000000000000000000000000000000000600052602160045260246000fd5b8160080160009054906101000a900460ff166002811115610c59577f4e487b7100000000000000000000000000000000000000000000000000000000600052602160045260246000fd5b1415610c9a576040517f08c379a0000000000000000000000000000000000000000000000000000000008152600401610c9190613774565b60405180910390fd5b60006002811115610cd4577f4e487b7100000000000000000000000000000000000000000000000000000000600052602160045260246000fd5b8160080160009054906101000a900460ff166002811115610d1e577f4e487b7100000000000000000000000000000000000000000000000000000000600052602160045260246000fd5b1415610dac57610d3c600182600901546109df90919063ffffffff16565b816009018190555060018160080160006101000a81548160ff02191690836002811115610d92577f4e487b7100000000000000000000000000000000000000000000000000000000600052602160045260246000fd5b021790555060008160060181905550600081600701819055505b610dc38382600001546109df90919063ffffffff16565b8160000181905550610de28282600101546109df90919063ffffffff16565b81600101819055508373ffffffffffffffffffffffffffffffffffffffff168573ffffffffffffffffffffffffffffffffffffffff167f4910a2e1baf8597d438cd08f3a64cff447af531f02d91138c8bef6e311f970f483604051610e4791906138d4565b60405180910390a3505050505050505050565b600073ffffffffffffffffffffffffffffffffffffffff16600360009054906101000a900473ffffffffffffffffffffffffffffffffffffffff1673ffffffffffffffffffffffffffffffffffffffff161415610eec576040517f08c379a0000000000000000000000000000000000000000000000000000000008152600401610ee390613794565b60405180910390fd5b8073ffffffffffffffffffffffffffffffffffffffff168273ffffffffffffffffffffffffffffffffffffffff161415610f5b576040517f08c379a0000000000000000000000000000000000000000000000000000000008152600401610f5290613834565b60405180910390fd5b600073ffffffffffffffffffffffffffffffffffffffff168273ffffffffffffffffffffffffffffffffffffffff161415610fcb576040517f08c379a0000000000000000000000000000000000000000000000000000000008152600401610fc290613754565b60405180910390fd5b600073ffffffffffffffffffffffffffffffffffffffff168173ffffffffffffffffffffffffffffffffffffffff16141561103b576040517f08c379a000000000000000000000000000000000000000000000000000000000815260040161103290613674565b60405180910390fd5b600080600061104a8585611f8e565b9350509250925060028081111561108a577f4e487b7100000000000000000000000000000000000000000000000000000000600052602160045260246000fd5b8160080160009054906101000a900460ff1660028111156110d4577f4e487b7100000000000000000000000000000000000000000000000000000000600052602160045260246000fd5b14611114576040517f08c379a000000000000000000000000000000000000000000000000000000000815260040161110b90613554565b60405180910390fd5b80600a0160049054906101000a900460ff16801561115d57508273ffffffffffffffffffffffffffffffffffffffff168573ffffffffffffffffffffffffffffffffffffffff16145b806111ae575080600a0160049054906101000a900460ff161580156111ad57508173ffffffffffffffffffffffffffffffffffffffff168573ffffffffffffffffffffffffffffffffffffffff16145b5b1561121d576111bb61201c565b63ffffffff1681600a0160009054906101000a900463ffffffff1663ffffffff161061121c576040517f08c379a0000000000000000000000000000000000000000000000000000000008152600401611213906137f4565b60405180910390fd5b5b6000816000015411156112df57600360009054906101000a900473ffffffffffffffffffffffffffffffffffffffff1673ffffffffffffffffffffffffffffffffffffffff1663a9059cbb8483600001546040518363ffffffff1660e01b815260040161128b9291906133a5565b602060405180830381600087803b1580156112a557600080fd5b505af11580156112b9573d6000803e3d6000fd5b505050506040513d601f19601f820116820180604052508101906112dd919061299c565b505b6000816001015411156113a157600360009054906101000a900473ffffffffffffffffffffffffffffffffffffffff1673ffffffffffffffffffffffffffffffffffffffff1663a9059cbb8383600101546040518363ffffffff1660e01b815260040161134d9291906133a5565b602060405180830381600087803b15801561136757600080fd5b505af115801561137b573d6000803e3d6000fd5b505050506040513d601f19601f8201168201806040525081019061139f919061299c565b505b8060000160009055806001016000905580600a0160006101000a81549063ffffffff021916905580600a0160046101000a81549060ff021916905560008160080160006101000a81548160ff0219169083600281111561142a577f4e487b7100000000000000000000000000000000000000000000000000000000600052602160045260246000fd5b02179055508373ffffffffffffffffffffffffffffffffffffffff168573ffffffffffffffffffffffffffffffffffffffff167f4910a2e1baf8597d438cd08f3a64cff447af531f02d91138c8bef6e311f970f48360405161148c91906138d4565b60405180910390a35050505050565b600073ffffffffffffffffffffffffffffffffffffffff168973ffffffffffffffffffffffffffffffffffffffff16141561150b576040517f08c379a000000000000000000000000000000000000000000000000000000000815260040161150290613854565b60405180910390fd5b600073ffffffffffffffffffffffffffffffffffffffff168873ffffffffffffffffffffffffffffffffffffffff16141561157b576040517f08c379a000000000000000000000000000000000000000000000000000000000815260040161157290613674565b60405180910390fd5b6000801b8714156115c1576040517f08c379a00000000000000000000000000000000000000000000000000000000081526004016115b890613894565b60405180910390fd5b6000831415611605576040517f08c379a00000000000000000000000000000000000000000000000000000000081526004016115fc906136b4565b60405180910390fd5b60006116118a8a611f8e565b935050505060006116228b8b611fe3565b1561172b578860405160200161163891906132be565b60405160208183030381529060405280519060200120826002015414611693576040517f08c379a000000000000000000000000000000000000000000000000000000000815260040161168a90613694565b60405180910390fd5b878260040154146116d9576040517f08c379a00000000000000000000000000000000000000000000000000000000081526004016116d0906137d4565b60405180910390fd5b8682600601541061171f576040517f08c379a000000000000000000000000000000000000000000000000000000000815260040161171690613574565b60405180910390fd5b8160040154905061182b565b8860405160200161173c91906132be565b60405160208183030381529060405280519060200120826003015414611797576040517f08c379a000000000000000000000000000000000000000000000000000000000815260040161178e90613694565b60405180910390fd5b878260050154146117dd576040517f08c379a00000000000000000000000000000000000000000000000000000000081526004016117d4906137d4565b60405180910390fd5b86826007015410611823576040517f08c379a000000000000000000000000000000000000000000000000000000000815260040161181a90613574565b60405180910390fd5b816005015490505b60006002811115611865577f4e487b7100000000000000000000000000000000000000000000000000000000600052602160045260246000fd5b8260080160009054906101000a900460ff1660028111156118af577f4e487b7100000000000000000000000000000000000000000000000000000000600052602160045260246000fd5b14156118f0576040517f08c379a00000000000000000000000000000000000000000000000000000000081526004016118e790613534565b60405180910390fd5b60006119146119088d848a87600901548b8e8c612034565b8051906020012061207d565b90508a73ffffffffffffffffffffffffffffffffffffffff1661193782866120ad565b73ffffffffffffffffffffffffffffffffffffffff161461198d576040517f08c379a000000000000000000000000000000000000000000000000000000000815260040161198490613714565b60405180910390fd5b84611999828c88612127565b60001c11156119dd576040517f08c379a00000000000000000000000000000000000000000000000000000000081526004016119d4906138b4565b60405180910390fd5b6119e78c8c611fe3565b15611ac657898360020181905550611a0c8684600001546109df90919063ffffffff16565b8360000181905550611a2b86846001015461215d90919063ffffffff16565b8360010181905550611a4b600184600401546109df90919063ffffffff16565b83600401819055508783600601819055508a73ffffffffffffffffffffffffffffffffffffffff168c73ffffffffffffffffffffffffffffffffffffffff167f4910a2e1baf8597d438cd08f3a64cff447af531f02d91138c8bef6e311f970f485604051611ab991906138d4565b60405180910390a3611b9c565b611add86846000015461215d90919063ffffffff16565b8360000181905550611afc8684600101546109df90919063ffffffff16565b8360010181905550898360030181905550611b25600184600501546109df90919063ffffffff16565b83600501819055508783600701819055508b73ffffffffffffffffffffffffffffffffffffffff168b73ffffffffffffffffffffffffffffffffffffffff167f4910a2e1baf8597d438cd08f3a64cff447af531f02d91138c8bef6e311f970f485604051611b9391906138d4565b60405180910390a35b505050505050505050505050565b611c2d846323b872dd60e01b858585604051602401611bcb9392919061336e565b604051602081830303815290604052907bffffffffffffffffffffffffffffffffffffffffffffffffffffffff19166020820180517bffffffffffffffffffffffffffffffffffffffffffffffffffffffff8381831617835250505050612173565b50505050565b8073ffffffffffffffffffffffffffffffffffffffff168273ffffffffffffffffffffffffffffffffffffffff161415611ca2576040517f08c379a0000000000000000000000000000000000000000000000000000000008152600401611c9990613834565b60405180910390fd5b600073ffffffffffffffffffffffffffffffffffffffff168273ffffffffffffffffffffffffffffffffffffffff161415611d12576040517f08c379a0000000000000000000000000000000000000000000000000000000008152600401611d0990613754565b60405180910390fd5b600073ffffffffffffffffffffffffffffffffffffffff168173ffffffffffffffffffffffffffffffffffffffff161415611d82576040517f08c379a0000000000000000000000000000000000000000000000000000000008152600401611d7990613674565b60405180910390fd5b6000611d8e8383611f8e565b935050505060016002811115611dcd577f4e487b7100000000000000000000000000000000000000000000000000000000600052602160045260246000fd5b8160080160009054906101000a900460ff166002811115611e17577f4e487b7100000000000000000000000000000000000000000000000000000000600052602160045260246000fd5b14611e57576040517f08c379a0000000000000000000000000000000000000000000000000000000008152600401611e4e906135d4565b60405180910390fd5b600360149054906101000a900463ffffffff16611e7261201c565b611e7c9190613ada565b81600a0160006101000a81548163ffffffff021916908363ffffffff16021790555060028160080160006101000a81548160ff02191690836002811115611eec577f4e487b7100000000000000000000000000000000000000000000000000000000600052602160045260246000fd5b02179055506000611efd8484611fe3565b90508015611f2357600182600a0160046101000a81548160ff0219169083151502179055505b8273ffffffffffffffffffffffffffffffffffffffff168473ffffffffffffffffffffffffffffffffffffffff167f4910a2e1baf8597d438cd08f3a64cff447af531f02d91138c8bef6e311f970f484604051611f8091906138d4565b60405180910390a350505050565b600080600080600080611fa1888861223a565b915091506000611fb18383612265565b905060006002600083815260200190815260200160002090508383838397509750975097505050505092959194509250565b60008173ffffffffffffffffffffffffffffffffffffffff168373ffffffffffffffffffffffffffffffffffffffff1610905092915050565b60006401000000004261202f9190613da1565b905090565b60606000612041876108c8565b90508881898786888b604051602001612060979695949392919061323d565b604051602081830303815290604052915050979650505050505050565b600081604051602001612090919061332d565b604051602081830303815290604052805190602001209050919050565b600060418251146120f3576040517f08c379a00000000000000000000000000000000000000000000000000000000081526004016120ea906134f4565b60405180910390fd5b60008060006020850151925060408501519150606085015160001a905061211c86828585612298565b935050505092915050565b600083838360405160200161213e939291906132d9565b6040516020818303038152906040528051906020012090509392505050565b6000818361216b9190613b14565b905092915050565b60006121d5826040518060400160405280602081526020017f5361666545524332303a206c6f772d6c6576656c2063616c6c206661696c65648152508573ffffffffffffffffffffffffffffffffffffffff166124239092919063ffffffff16565b905060008151111561223557808060200190518101906121f5919061299c565b612234576040517f08c379a000000000000000000000000000000000000000000000000000000000815260040161222b90613814565b60405180910390fd5b5b505050565b6000806122478484611fe3565b156122575783839150915061225e565b8284915091505b9250929050565b6000828260405160200161227a929190613211565b60405160208183030381529060405280519060200120905092915050565b60007f7fffffffffffffffffffffffffffffff5d576e7357a4501ddfe92f46681b20a08260001c1115612300576040517f08c379a00000000000000000000000000000000000000000000000000000000081526004016122f7906135f4565b60405180910390fd5b601b8460ff1614806123155750601c8460ff16145b612354576040517f08c379a000000000000000000000000000000000000000000000000000000000815260040161234b906136d4565b60405180910390fd5b60006001868686866040516000815260200160405260405161237994939291906133e9565b6020604051602081039080840390855afa15801561239b573d6000803e3d6000fd5b505050602060405103519050600073ffffffffffffffffffffffffffffffffffffffff168173ffffffffffffffffffffffffffffffffffffffff161415612417576040517f08c379a000000000000000000000000000000000000000000000000000000000815260040161240e906134d4565b60405180910390fd5b80915050949350505050565b6060612432848460008561243b565b90509392505050565b606082471015612480576040517f08c379a000000000000000000000000000000000000000000000000000000000815260040161247790613614565b60405180910390fd5b6124898561254f565b6124c8576040517f08c379a00000000000000000000000000000000000000000000000000000000081526004016124bf906137b4565b60405180910390fd5b6000808673ffffffffffffffffffffffffffffffffffffffff1685876040516124f19190613316565b60006040518083038185875af1925050503d806000811461252e576040519150601f19603f3d011682016040523d82523d6000602084013e612533565b606091505b5091509150612543828286612562565b92505050949350505050565b600080823b905060008111915050919050565b60608315612572578290506125c2565b6000835111156125855782518084602001fd5b816040517f08c379a00000000000000000000000000000000000000000000000000000000081526004016125b991906134b2565b60405180910390fd5b9392505050565b60006125dc6125d784613a05565b6139e0565b9050828152602081018484840111156125f457600080fd5b6125ff848285613c74565b509392505050565b600081359050612616816145f8565b92915050565b60008135905061262b8161460f565b92915050565b60008151905061264081614626565b92915050565b6000813590506126558161463d565b92915050565b60008083601f84011261266d57600080fd5b8235905067ffffffffffffffff81111561268657600080fd5b60208301915083600182028301111561269e57600080fd5b9250929050565b600082601f8301126126b657600080fd5b81356126c68482602086016125c9565b91505092915050565b6000813590506126de81614654565b92915050565b6000602082840312156126f657600080fd5b600061270484828501612607565b91505092915050565b6000806000806080858703121561272357600080fd5b60006127318782880161261c565b94505060206127428782880161261c565b9350506040612753878288016126cf565b9250506060612764878288016126cf565b91505092959194509250565b60008060008060008060008060c0898b03121561278c57600080fd5b600061279a8b828c01612607565b98505060206127ab8b828c01612607565b97505060406127bc8b828c01612607565b96505060606127cd8b828c016126cf565b955050608089013567ffffffffffffffff8111156127ea57600080fd5b6127f68b828c0161265b565b945094505060a089013567ffffffffffffffff81111561281557600080fd5b6128218b828c0161265b565b92509250509295985092959890939650565b6000806000806080858703121561284957600080fd5b600061285787828801612607565b945050602061286887828801612607565b9350506040612879878288016126cf565b925050606061288a878288016126cf565b91505092959194509250565b600080604083850312156128a957600080fd5b60006128b785828601612607565b92505060206128c885828601612646565b9150509250929050565b600080600080600080600080610100898b0312156128ef57600080fd5b60006128fd8b828c01612607565b985050602061290e8b828c01612646565b975050604061291f8b828c016126cf565b96505060606129308b828c016126cf565b95505060806129418b828c01612646565b94505060a06129528b828c016126cf565b93505060c06129638b828c016126cf565b92505060e089013567ffffffffffffffff81111561298057600080fd5b61298c8b828c016126a5565b9150509295985092959890939650565b6000602082840312156129ae57600080fd5b60006129bc84828501612631565b91505092915050565b6000602082840312156129d757600080fd5b60006129e584828501612646565b91505092915050565b60008060408385031215612a0157600080fd5b6000612a0f85828601612646565b9250506020612a2085828601612607565b9150509250929050565b60008060208385031215612a3d57600080fd5b600083013567ffffffffffffffff811115612a5757600080fd5b612a638582860161265b565b92509250509250929050565b612a7881613b86565b82525050565b612a8f612a8a82613b86565b613d69565b82525050565b612a9e81613baa565b82525050565b612aad81613baa565b82525050565b612abc81613bb6565b82525050565b612acb81613bb6565b82525050565b612ae2612add82613bb6565b613d7b565b82525050565b6000612af48385613a4c565b9350612b01838584613c74565b612b0a83613e8e565b840190509392505050565b6000612b2082613a36565b612b2a8185613a5d565b9350612b3a818560208601613c83565b80840191505092915050565b612b4f81613c24565b82525050565b612b5e81613c48565b82525050565b612b6d81613c48565b82525050565b612b7c81613c5a565b82525050565b6000612b8d82613a41565b612b978185613a68565b9350612ba7818560208601613c83565b612bb081613e8e565b840191505092915050565b6000612bc8601883613a68565b9150612bd382613ed3565b602082019050919050565b6000612beb601f83613a68565b9150612bf682613efc565b602082019050919050565b6000612c0e601c83613a79565b9150612c1982613f25565b601c82019050919050565b6000612c31602a83613a68565b9150612c3c82613f4e565b604082019050919050565b6000612c54602883613a68565b9150612c5f82613f9d565b604082019050919050565b6000612c77602083613a68565b9150612c8282613fec565b602082019050919050565b6000612c9a601c83613a68565b9150612ca582614015565b602082019050919050565b6000612cbd602d83613a68565b9150612cc88261403e565b604082019050919050565b6000612ce0601883613a68565b9150612ceb8261408d565b602082019050919050565b6000612d03601483613a68565b9150612d0e826140b6565b602082019050919050565b6000612d26602283613a68565b9150612d31826140df565b604082019050919050565b6000612d49602683613a68565b9150612d548261412e565b604082019050919050565b6000612d6c601883613a68565b9150612d778261417d565b602082019050919050565b6000612d8f603283613a68565b9150612d9a826141a6565b604082019050919050565b6000612db2601e83613a68565b9150612dbd826141f5565b602082019050919050565b6000612dd5602a83613a68565b9150612de08261421e565b604082019050919050565b6000612df8601883613a68565b9150612e038261426d565b602082019050919050565b6000612e1b602283613a68565b9150612e2682614296565b604082019050919050565b6000612e3e601a83613a68565b9150612e49826142e5565b602082019050919050565b6000612e61602283613a68565b9150612e6c8261430e565b604082019050919050565b6000612e84601a83613a68565b9150612e8f8261435d565b602082019050919050565b6000612ea7601b83613a68565b9150612eb282614386565b602082019050919050565b6000612eca601d83613a68565b9150612ed5826143af565b602082019050919050565b6000612eed601783613a68565b9150612ef8826143d8565b602082019050919050565b6000612f10601d83613a68565b9150612f1b82614401565b602082019050919050565b6000612f33601783613a68565b9150612f3e8261442a565b602082019050919050565b6000612f56601e83613a68565b9150612f6182614453565b602082019050919050565b6000612f79602a83613a68565b9150612f848261447c565b604082019050919050565b6000612f9c602f83613a68565b9150612fa7826144cb565b604082019050919050565b6000612fbf601a83613a68565b9150612fca8261451a565b602082019050919050565b6000612fe2602983613a68565b9150612fed82614543565b604082019050919050565b6000613005602083613a68565b915061301082614592565b602082019050919050565b6000613028601483613a68565b9150613033826145bb565b602082019050919050565b6101808201600080830154905061305481613cea565b61306160008601826131af565b506001830154905061307281613cea565b61307f60208601826131af565b506002830154905061309081613cb6565b61309d6040860182612ab3565b50600383015490506130ae81613cb6565b6130bb6060860182612ab3565b50600483015490506130cc81613cea565b6130d960808601826131af565b50600583015490506130ea81613cea565b6130f760a08601826131af565b506006830154905061310881613cea565b61311560c08601826131af565b506007830154905061312681613cea565b61313360e08601826131af565b506008830154905061314481613cd0565b613152610100860182612b55565b506009830154905061316381613cea565b6131716101208601826131af565b50600a830154905061318281613d04565b6131906101408601826131e4565b5061319a81613d1e565b6131a8610160860182612a95565b5050505050565b6131b881613bfd565b82525050565b6131c781613bfd565b82525050565b6131de6131d982613bfd565b613d97565b82525050565b6131ed81613c07565b82525050565b6131fc81613c07565b82525050565b61320b81613c17565b82525050565b600061321d8285612a7e565b60148201915061322d8284612a7e565b6014820191508190509392505050565b6000613249828a612a7e565b6014820191506132598289612a7e565b60148201915061326982886131cd565b60208201915061327982876131cd565b60208201915061328982866131cd565b60208201915061329982856131cd565b6020820191506132a982846131cd565b60208201915081905098975050505050505050565b60006132ca8284612ad1565b60208201915081905092915050565b60006132e58286612ad1565b6020820191506132f58285612ad1565b60208201915061330582846131cd565b602082019150819050949350505050565b60006133228284612b15565b915081905092915050565b600061333882612c01565b91506133448284612ad1565b60208201915081905092915050565b60006020820190506133686000830184612a6f565b92915050565b60006060820190506133836000830186612a6f565b6133906020830185612a6f565b61339d60408301846131be565b949350505050565b60006040820190506133ba6000830185612a6f565b6133c760208301846131be565b9392505050565b60006020820190506133e36000830184612ac2565b92915050565b60006080820190506133fe6000830187612ac2565b61340b6020830186613202565b6134186040830185612ac2565b6134256060830184612ac2565b95945050505050565b60006020820190508181036000830152613449818486612ae8565b90509392505050565b60006020820190506134676000830184612b46565b92915050565b60006080820190506134826000830187612b73565b61348f6020830186613202565b61349c6040830185612ac2565b6134a96060830184612ac2565b95945050505050565b600060208201905081810360008301526134cc8184612b82565b905092915050565b600060208201905081810360008301526134ed81612bbb565b9050919050565b6000602082019050818103600083015261350d81612bde565b9050919050565b6000602082019050818103600083015261352d81612c24565b9050919050565b6000602082019050818103600083015261354d81612c47565b9050919050565b6000602082019050818103600083015261356d81612c6a565b9050919050565b6000602082019050818103600083015261358d81612c8d565b9050919050565b600060208201905081810360008301526135ad81612cb0565b9050919050565b600060208201905081810360008301526135cd81612cd3565b9050919050565b600060208201905081810360008301526135ed81612cf6565b9050919050565b6000602082019050818103600083015261360d81612d19565b9050919050565b6000602082019050818103600083015261362d81612d3c565b9050919050565b6000602082019050818103600083015261364d81612d5f565b9050919050565b6000602082019050818103600083015261366d81612d82565b9050919050565b6000602082019050818103600083015261368d81612da5565b9050919050565b600060208201905081810360008301526136ad81612dc8565b9050919050565b600060208201905081810360008301526136cd81612deb565b9050919050565b600060208201905081810360008301526136ed81612e0e565b9050919050565b6000602082019050818103600083015261370d81612e31565b9050919050565b6000602082019050818103600083015261372d81612e54565b9050919050565b6000602082019050818103600083015261374d81612e77565b9050919050565b6000602082019050818103600083015261376d81612e9a565b9050919050565b6000602082019050818103600083015261378d81612ebd565b9050919050565b600060208201905081810360008301526137ad81612ee0565b9050919050565b600060208201905081810360008301526137cd81612f03565b9050919050565b600060208201905081810360008301526137ed81612f26565b9050919050565b6000602082019050818103600083015261380d81612f49565b9050919050565b6000602082019050818103600083015261382d81612f6c565b9050919050565b6000602082019050818103600083015261384d81612f8f565b9050919050565b6000602082019050818103600083015261386d81612fb2565b9050919050565b6000602082019050818103600083015261388d81612fd5565b9050919050565b600060208201905081810360008301526138ad81612ff8565b9050919050565b600060208201905081810360008301526138cd8161301b565b9050919050565b6000610180820190506138ea600083018461303e565b92915050565b600060208201905061390560008301846131be565b92915050565b600061018082019050613921600083018f6131be565b61392e602083018e6131be565b61393b604083018d612ac2565b613948606083018c612ac2565b613955608083018b6131be565b61396260a083018a6131be565b61396f60c08301896131be565b61397c60e08301886131be565b61398a610100830187612b64565b6139986101208301866131be565b6139a66101408301856131f3565b6139b4610160830184612aa4565b9d9c50505050505050505050505050565b60006020820190506139da60008301846131f3565b92915050565b60006139ea6139fb565b90506139f68282613d38565b919050565b6000604051905090565b600067ffffffffffffffff821115613a2057613a1f613e5f565b5b613a2982613e8e565b9050602081019050919050565b600081519050919050565b600081519050919050565b600082825260208201905092915050565b600081905092915050565b600082825260208201905092915050565b600081905092915050565b6000613a8f82613bfd565b9150613a9a83613bfd565b9250827fffffffffffffffffffffffffffffffffffffffffffffffffffffffffffffffff03821115613acf57613ace613dd2565b5b828201905092915050565b6000613ae582613c07565b9150613af083613c07565b92508263ffffffff03821115613b0957613b08613dd2565b5b828201905092915050565b6000613b1f82613bfd565b9150613b2a83613bfd565b925082821015613b3d57613b3c613dd2565b5b828203905092915050565b600060ff82169050919050565b6000819050919050565b600060ff82169050919050565b6000819050919050565b600063ffffffff82169050919050565b6000613b9182613bdd565b9050919050565b6000613ba382613bdd565b9050919050565b60008115159050919050565b6000819050919050565b6000819050613bce826145e4565b919050565b6000819050919050565b600073ffffffffffffffffffffffffffffffffffffffff82169050919050565b6000819050919050565b600063ffffffff82169050919050565b600060ff82169050919050565b6000613c2f82613c36565b9050919050565b6000613c4182613bdd565b9050919050565b6000613c5382613bc0565b9050919050565b6000613c6d613c6883613bd3565b613e9f565b9050919050565b82818337600083830152505050565b60005b83811015613ca1578082015181840152602081019050613c86565b83811115613cb0576000848401525b50505050565b6000613cc9613cc483613eb9565b613b55565b9050919050565b6000613ce3613cde83613eb9565b613b5f565b9050919050565b6000613cfd613cf883613eb9565b613b6c565b9050919050565b6000613d17613d1283613eb9565b613b76565b9050919050565b6000613d31613d2c83613ec6565b613b48565b9050919050565b613d4182613e8e565b810181811067ffffffffffffffff82111715613d6057613d5f613e5f565b5b80604052505050565b6000613d7482613d85565b9050919050565b6000819050919050565b6000613d9082613eac565b9050919050565b6000819050919050565b6000613dac82613bfd565b9150613db783613bfd565b925082613dc757613dc6613e01565b5b828206905092915050565b7f4e487b7100000000000000000000000000000000000000000000000000000000600052601160045260246000fd5b7f4e487b7100000000000000000000000000000000000000000000000000000000600052601260045260246000fd5b7f4e487b7100000000000000000000000000000000000000000000000000000000600052602160045260246000fd5b7f4e487b7100000000000000000000000000000000000000000000000000000000600052604160045260246000fd5b6000601f19601f8301169050919050565b60008160001b9050919050565b60008160601b9050919050565b60008160001c9050919050565b60008160201c9050919050565b7f45434453413a20696e76616c6964207369676e61747572650000000000000000600082015250565b7f45434453413a20696e76616c6964207369676e6174757265206c656e67746800600082015250565b7f19457468657265756d205369676e6564204d6573736167653a0a333200000000600082015250565b7f6163636f756e744120616e64206163636f756e7442206d757374206e6f74206260008201527f65207468652073616d6500000000000000000000000000000000000000000000602082015250565b7f6368616e6e656c206d757374206265206f70656e206f722070656e64696e672060008201527f746f20636c6f7365000000000000000000000000000000000000000000000000602082015250565b7f6368616e6e656c206d7573742062652070656e64696e6720746f20636c6f7365600082015250565b7f726564656d7074696f6e73206d75737420626520696e206f7264657200000000600082015250565b7f616d6f756e742073656e74206d75737420626520657175616c20746f20616d6f60008201527f756e742073706563696669656400000000000000000000000000000000000000602082015250565b7f73656e646572206d757374206e6f7420626520656d7074790000000000000000600082015250565b7f6368616e6e656c206d757374206265206f70656e000000000000000000000000600082015250565b7f45434453413a20696e76616c6964207369676e6174757265202773272076616c60008201527f7565000000000000000000000000000000000000000000000000000000000000602082015250565b7f416464726573733a20696e73756666696369656e742062616c616e636520666f60008201527f722063616c6c0000000000000000000000000000000000000000000000000000602082015250565b7f63616c6c6572206d75737420626520486f7072546f6b656e0000000000000000600082015250565b7f7573657244617461206d757374206d61746368206f6e65206f66206f7572207360008201527f7570706f727465642066756e6374696f6e730000000000000000000000000000602082015250565b7f636f756e7465727061727479206d757374206e6f7420626520656d7074790000600082015250565b7f636f6d6d69746d656e74206d7573742062652068617368206f66206e6578742060008201527f636f6d6d69746d656e7400000000000000000000000000000000000000000000602082015250565b7f616d6f756e74206d757374206e6f7420626520656d7074790000000000000000600082015250565b7f45434453413a20696e76616c6964207369676e6174757265202776272076616c60008201527f7565000000000000000000000000000000000000000000000000000000000000602082015250565b7f6163636f756e7442206d757374206e6f7420626520656d707479000000000000600082015250565b7f7369676e6572206d757374206d617463682074686520636f756e74657270617260008201527f7479000000000000000000000000000000000000000000000000000000000000602082015250565b7f6163636f756e7441206d757374206e6f7420626520656d707479000000000000600082015250565b7f696e69746961746f72206d757374206e6f7420626520656d7074790000000000600082015250565b7f43616e6e6f742066756e64206120636c6f73696e67206368616e6e656c000000600082015250565b7f746f6b656e206d757374206e6f7420626520656d707479000000000000000000600082015250565b7f416464726573733a2063616c6c20746f206e6f6e2d636f6e7472616374000000600082015250565b7f7469636b65742065706f6368206d757374206d61746368000000000000000000600082015250565b7f636c6f7375726554696d65206d757374206265206265666f7265206e6f770000600082015250565b7f5361666545524332303a204552433230206f7065726174696f6e20646964206e60008201527f6f74207375636365656400000000000000000000000000000000000000000000602082015250565b7f696e69746961746f7220616e6420636f756e7465727061727479206d7573742060008201527f6e6f74206265207468652073616d650000000000000000000000000000000000602082015250565b7f72656465656d6572206d757374206e6f7420626520656d707479000000000000600082015250565b7f616d6f756e7441206f7220616d6f756e7442206d75737420626520677265617460008201527f6572207468616e20300000000000000000000000000000000000000000000000602082015250565b7f6e657874436f6d6d69746d656e74206d757374206e6f7420626520656d707479600082015250565b7f7469636b6574206d75737420626520612077696e000000000000000000000000600082015250565b600381106145f5576145f4613e30565b5b50565b61460181613b86565b811461460c57600080fd5b50565b61461881613b98565b811461462357600080fd5b50565b61462f81613baa565b811461463a57600080fd5b50565b61464681613bb6565b811461465157600080fd5b50565b61465d81613bfd565b811461466857600080fd5b5056fea2646970667358221220648cd3a752298c0cb14bfc3b4cce6574f13f9a9eebc8e06dfd29f03920eac95264736f6c63430008030033",
  "devdoc": {
    "kind": "dev",
    "methods": {
      "announce(bytes)": {
        "details": "Announces msg.sender's multiaddress. Confirmation should be done off-chain.",
        "params": {
          "multiaddr": "the multiaddress"
        }
      },
      "bumpChannel(address,bytes32)": {
        "details": "Request a channelIteration bump, so we can make a new set of commitments",
        "params": {
          "counterparty": "the address of the counterparty",
          "newCommitment": ", a secret derived from this new commitment"
        }
      },
      "computeChallenge(bytes32)": {
        "params": {
          "response": "response that is used to recompute the challenge"
        }
      },
      "constructor": {
        "params": {
          "_secsClosure": "seconds until a channel can be closed",
          "_token": "HoprToken address"
        }
      },
      "finalizeChannelClosure(address)": {
        "details": "Finalize channel closure, if cool-off period is over it will close the channel and transfer funds to the parties involved, then emits {ChannelUpdate} event.",
        "params": {
          "counterparty": "the address of the counterparty"
        }
      },
      "fundChannelMulti(address,address,uint256,uint256)": {
        "details": "Funds a channel, in both directions, then emits {ChannelUpdate} event.",
        "params": {
          "account1": "the address of account1",
          "account2": "the address of account2",
          "amount1": "amount to fund account1",
          "amount2": "amount to fund account2"
        }
      },
      "initiateChannelClosure(address)": {
        "details": "Initialize channel closure, updates channel'r closure time, when the cool-off period is over, user may finalize closure, then emits {ChannelUpdate} event.",
        "params": {
          "counterparty": "the address of the counterparty"
        }
      },
      "tokensReceived(address,address,address,uint256,bytes,bytes)": {
        "params": {
          "amount": "uint256 amount of tokens to transfer",
          "from": "address token holder address",
          "operator": "address operator requesting the transfer",
          "operatorData": "bytes extra information provided by the operator (if any)",
          "to": "address recipient address",
          "userData": "bytes extra information provided by the token holder (if any)"
        }
      }
    },
    "stateVariables": {
      "channels": {
        "details": "Stored channels keyed by their channel ids"
      },
      "secsClosure": {
        "details": "Seconds it takes until we can finalize channel closure once, channel closure has been initialized."
      },
      "token": {
        "details": "HoprToken, the token that will be used to settle payments"
      }
    },
    "version": 1
  },
  "userdoc": {
    "kind": "user",
    "methods": {
      "canImplementInterfaceForAddress(bytes32,address)": {
        "notice": "See {IERC1820Implementer-canImplementInterfaceForAddress}."
      },
      "computeChallenge(bytes32)": {
        "notice": "Uses the response to recompute the challenge. This is done by multiplying the base point of the curve with the given response. Due to the lack of embedded ECMUL functionality in the current version of the EVM, this is done by misusing the `ecrecover`  functionality. `ecrecover` performs the point multiplication and  converts the output to an Ethereum address (sliced hash of the product of base point and scalar). See https://ethresear.ch/t/you-can-kinda-abuse-ecrecover-to-do-ecmul-in-secp256k1-today/2384"
      },
      "tokensReceived(address,address,address,uint256,bytes,bytes)": {
        "notice": "A hook triggered when HOPR tokens are sent to this contract."
      }
    },
    "version": 1
  },
  "storageLayout": {
    "storage": [
      {
        "astId": 770,
        "contract": "contracts/HoprChannels.sol:HoprChannels",
        "label": "_supportedInterfaces",
        "offset": 0,
        "slot": "0",
        "type": "t_mapping(t_bytes32,t_mapping(t_address,t_bool))"
      },
      {
        "astId": 1282,
        "contract": "contracts/HoprChannels.sol:HoprChannels",
        "label": "FUND_CHANNEL_MULTI_SIZE",
        "offset": 0,
        "slot": "1",
        "type": "t_uint256"
      },
      {
        "astId": 1318,
        "contract": "contracts/HoprChannels.sol:HoprChannels",
        "label": "channels",
        "offset": 0,
        "slot": "2",
        "type": "t_mapping(t_bytes32,t_struct(Channel)1312_storage)"
      },
      {
        "astId": 1322,
        "contract": "contracts/HoprChannels.sol:HoprChannels",
        "label": "token",
        "offset": 0,
        "slot": "3",
        "type": "t_contract(IERC20)77"
      },
      {
        "astId": 1325,
        "contract": "contracts/HoprChannels.sol:HoprChannels",
        "label": "secsClosure",
        "offset": 20,
        "slot": "3",
        "type": "t_uint32"
      }
    ],
    "types": {
      "t_address": {
        "encoding": "inplace",
        "label": "address",
        "numberOfBytes": "20"
      },
      "t_bool": {
        "encoding": "inplace",
        "label": "bool",
        "numberOfBytes": "1"
      },
      "t_bytes32": {
        "encoding": "inplace",
        "label": "bytes32",
        "numberOfBytes": "32"
      },
      "t_contract(IERC20)77": {
        "encoding": "inplace",
        "label": "contract IERC20",
        "numberOfBytes": "20"
      },
      "t_enum(ChannelStatus)1286": {
        "encoding": "inplace",
        "label": "enum HoprChannels.ChannelStatus",
        "numberOfBytes": "1"
      },
      "t_mapping(t_address,t_bool)": {
        "encoding": "mapping",
        "key": "t_address",
        "label": "mapping(address => bool)",
        "numberOfBytes": "32",
        "value": "t_bool"
      },
      "t_mapping(t_bytes32,t_mapping(t_address,t_bool))": {
        "encoding": "mapping",
        "key": "t_bytes32",
        "label": "mapping(bytes32 => mapping(address => bool))",
        "numberOfBytes": "32",
        "value": "t_mapping(t_address,t_bool)"
      },
      "t_mapping(t_bytes32,t_struct(Channel)1312_storage)": {
        "encoding": "mapping",
        "key": "t_bytes32",
        "label": "mapping(bytes32 => struct HoprChannels.Channel)",
        "numberOfBytes": "32",
        "value": "t_struct(Channel)1312_storage"
      },
      "t_struct(Channel)1312_storage": {
        "encoding": "inplace",
        "label": "struct HoprChannels.Channel",
        "members": [
          {
            "astId": 1288,
            "contract": "contracts/HoprChannels.sol:HoprChannels",
            "label": "partyABalance",
            "offset": 0,
            "slot": "0",
            "type": "t_uint256"
          },
          {
            "astId": 1290,
            "contract": "contracts/HoprChannels.sol:HoprChannels",
            "label": "partyBBalance",
            "offset": 0,
            "slot": "1",
            "type": "t_uint256"
          },
          {
            "astId": 1292,
            "contract": "contracts/HoprChannels.sol:HoprChannels",
            "label": "partyACommitment",
            "offset": 0,
            "slot": "2",
            "type": "t_bytes32"
          },
          {
            "astId": 1294,
            "contract": "contracts/HoprChannels.sol:HoprChannels",
            "label": "partyBCommitment",
            "offset": 0,
            "slot": "3",
            "type": "t_bytes32"
          },
          {
            "astId": 1296,
            "contract": "contracts/HoprChannels.sol:HoprChannels",
            "label": "partyATicketEpoch",
            "offset": 0,
            "slot": "4",
            "type": "t_uint256"
          },
          {
            "astId": 1298,
            "contract": "contracts/HoprChannels.sol:HoprChannels",
            "label": "partyBTicketEpoch",
            "offset": 0,
            "slot": "5",
            "type": "t_uint256"
          },
          {
            "astId": 1300,
            "contract": "contracts/HoprChannels.sol:HoprChannels",
            "label": "partyATicketIndex",
            "offset": 0,
            "slot": "6",
            "type": "t_uint256"
          },
          {
            "astId": 1302,
            "contract": "contracts/HoprChannels.sol:HoprChannels",
            "label": "partyBTicketIndex",
            "offset": 0,
            "slot": "7",
            "type": "t_uint256"
          },
          {
            "astId": 1305,
            "contract": "contracts/HoprChannels.sol:HoprChannels",
            "label": "status",
            "offset": 0,
            "slot": "8",
            "type": "t_enum(ChannelStatus)1286"
          },
          {
            "astId": 1307,
            "contract": "contracts/HoprChannels.sol:HoprChannels",
            "label": "channelEpoch",
            "offset": 0,
            "slot": "9",
            "type": "t_uint256"
          },
          {
            "astId": 1309,
            "contract": "contracts/HoprChannels.sol:HoprChannels",
            "label": "closureTime",
            "offset": 0,
            "slot": "10",
            "type": "t_uint32"
          },
          {
            "astId": 1311,
            "contract": "contracts/HoprChannels.sol:HoprChannels",
            "label": "closureByPartyA",
            "offset": 4,
            "slot": "10",
            "type": "t_bool"
          }
        ],
        "numberOfBytes": "352"
      },
      "t_uint256": {
        "encoding": "inplace",
        "label": "uint256",
        "numberOfBytes": "32"
      },
      "t_uint32": {
        "encoding": "inplace",
        "label": "uint32",
        "numberOfBytes": "4"
      }
    }
  }
}