{
  "address": "0xe71535c8110342d39D5f6Cdf31837C9AdD0975Ef",
  "abi": [
    {
      "inputs": [
        {
          "internalType": "contract HoprToken",
          "name": "_token",
          "type": "address"
        },
        {
          "internalType": "uint128",
          "name": "_startTime",
          "type": "uint128"
        },
        {
          "internalType": "uint128",
          "name": "_maxMintAmount",
          "type": "uint128"
        }
      ],
      "stateMutability": "nonpayable",
      "type": "constructor"
    },
    {
      "anonymous": false,
      "inputs": [
        {
          "indexed": true,
          "internalType": "address",
          "name": "account",
          "type": "address"
        },
        {
          "indexed": false,
          "internalType": "uint128",
          "name": "amount",
          "type": "uint128"
        },
        {
          "indexed": false,
          "internalType": "string",
          "name": "scheduleName",
          "type": "string"
        }
      ],
      "name": "AllocationAdded",
      "type": "event"
    },
    {
      "anonymous": false,
      "inputs": [
        {
          "indexed": true,
          "internalType": "address",
          "name": "account",
          "type": "address"
        },
        {
          "indexed": false,
          "internalType": "uint128",
          "name": "amount",
          "type": "uint128"
        },
        {
          "indexed": false,
          "internalType": "string",
          "name": "scheduleName",
          "type": "string"
        }
      ],
      "name": "Claimed",
      "type": "event"
    },
    {
      "anonymous": false,
      "inputs": [
        {
          "indexed": true,
          "internalType": "address",
          "name": "previousOwner",
          "type": "address"
        },
        {
          "indexed": true,
          "internalType": "address",
          "name": "newOwner",
          "type": "address"
        }
      ],
      "name": "OwnershipTransferred",
      "type": "event"
    },
    {
      "anonymous": false,
      "inputs": [
        {
          "indexed": false,
          "internalType": "uint128[]",
          "name": "durations",
          "type": "uint128[]"
        },
        {
          "indexed": false,
          "internalType": "uint128[]",
          "name": "percents",
          "type": "uint128[]"
        },
        {
          "indexed": false,
          "internalType": "string",
          "name": "name",
          "type": "string"
        }
      ],
      "name": "ScheduleAdded",
      "type": "event"
    },
    {
      "inputs": [],
      "name": "MULTIPLIER",
      "outputs": [
        {
          "internalType": "uint128",
          "name": "",
          "type": "uint128"
        }
      ],
      "stateMutability": "view",
      "type": "function"
    },
    {
      "inputs": [
        {
          "internalType": "address[]",
          "name": "accounts",
          "type": "address[]"
        },
        {
          "internalType": "uint128[]",
          "name": "amounts",
          "type": "uint128[]"
        },
        {
          "internalType": "string",
          "name": "scheduleName",
          "type": "string"
        }
      ],
      "name": "addAllocations",
      "outputs": [],
      "stateMutability": "nonpayable",
      "type": "function"
    },
    {
      "inputs": [
        {
          "internalType": "uint128[]",
          "name": "durations",
          "type": "uint128[]"
        },
        {
          "internalType": "uint128[]",
          "name": "percents",
          "type": "uint128[]"
        },
        {
          "internalType": "string",
          "name": "name",
          "type": "string"
        }
      ],
      "name": "addSchedule",
      "outputs": [],
      "stateMutability": "nonpayable",
      "type": "function"
    },
    {
      "inputs": [
        {
          "internalType": "address",
          "name": "",
          "type": "address"
        },
        {
          "internalType": "string",
          "name": "",
          "type": "string"
        }
      ],
      "name": "allocations",
      "outputs": [
        {
          "internalType": "uint128",
          "name": "amount",
          "type": "uint128"
        },
        {
          "internalType": "uint128",
          "name": "claimed",
          "type": "uint128"
        },
        {
          "internalType": "uint128",
          "name": "lastClaim",
          "type": "uint128"
        },
        {
          "internalType": "bool",
          "name": "revoked",
          "type": "bool"
        }
      ],
      "stateMutability": "view",
      "type": "function"
    },
    {
      "inputs": [
        {
          "internalType": "string",
          "name": "scheduleName",
          "type": "string"
        }
      ],
      "name": "claim",
      "outputs": [],
      "stateMutability": "nonpayable",
      "type": "function"
    },
    {
      "inputs": [
        {
          "internalType": "address",
          "name": "account",
          "type": "address"
        },
        {
          "internalType": "string",
          "name": "scheduleName",
          "type": "string"
        }
      ],
      "name": "claimFor",
      "outputs": [],
      "stateMutability": "nonpayable",
      "type": "function"
    },
    {
      "inputs": [
        {
          "internalType": "address",
          "name": "account",
          "type": "address"
        },
        {
          "internalType": "string",
          "name": "scheduleName",
          "type": "string"
        }
      ],
      "name": "getClaimable",
      "outputs": [
        {
          "internalType": "uint128",
          "name": "",
          "type": "uint128"
        }
      ],
      "stateMutability": "view",
      "type": "function"
    },
    {
      "inputs": [
        {
          "internalType": "string",
          "name": "name",
          "type": "string"
        }
      ],
      "name": "getSchedule",
      "outputs": [
        {
          "internalType": "uint128[]",
          "name": "",
          "type": "uint128[]"
        },
        {
          "internalType": "uint128[]",
          "name": "",
          "type": "uint128[]"
        }
      ],
      "stateMutability": "view",
      "type": "function"
    },
    {
      "inputs": [],
      "name": "maxMintAmount",
      "outputs": [
        {
          "internalType": "uint128",
          "name": "",
          "type": "uint128"
        }
      ],
      "stateMutability": "view",
      "type": "function"
    },
    {
      "inputs": [],
      "name": "owner",
      "outputs": [
        {
          "internalType": "address",
          "name": "",
          "type": "address"
        }
      ],
      "stateMutability": "view",
      "type": "function"
    },
    {
      "inputs": [],
      "name": "renounceOwnership",
      "outputs": [],
      "stateMutability": "nonpayable",
      "type": "function"
    },
    {
      "inputs": [
        {
          "internalType": "address",
          "name": "account",
          "type": "address"
        },
        {
          "internalType": "string",
          "name": "scheduleName",
          "type": "string"
        }
      ],
      "name": "revokeAccount",
      "outputs": [],
      "stateMutability": "nonpayable",
      "type": "function"
    },
    {
      "inputs": [],
      "name": "startTime",
      "outputs": [
        {
          "internalType": "uint128",
          "name": "",
          "type": "uint128"
        }
      ],
      "stateMutability": "view",
      "type": "function"
    },
    {
      "inputs": [],
      "name": "token",
      "outputs": [
        {
          "internalType": "contract HoprToken",
          "name": "",
          "type": "address"
        }
      ],
      "stateMutability": "view",
      "type": "function"
    },
    {
      "inputs": [],
      "name": "totalMinted",
      "outputs": [
        {
          "internalType": "uint128",
          "name": "",
          "type": "uint128"
        }
      ],
      "stateMutability": "view",
      "type": "function"
    },
    {
      "inputs": [],
      "name": "totalToBeMinted",
      "outputs": [
        {
          "internalType": "uint128",
          "name": "",
          "type": "uint128"
        }
      ],
      "stateMutability": "view",
      "type": "function"
    },
    {
      "inputs": [
        {
          "internalType": "address",
          "name": "newOwner",
          "type": "address"
        }
      ],
      "name": "transferOwnership",
      "outputs": [],
      "stateMutability": "nonpayable",
      "type": "function"
    },
    {
      "inputs": [
        {
          "internalType": "uint128",
          "name": "_startTime",
          "type": "uint128"
        }
      ],
      "name": "updateStartTime",
      "outputs": [],
      "stateMutability": "nonpayable",
      "type": "function"
    }
  ],
  "transactionHash": "0x174ad1d708962b63139b7473d461394bdcd0f9c010f7ed6d0e7bab95a5ba7d74",
  "args": [
    "0xa3C8f4044b30Fb3071F5b3b02913DE524F1041dc",
    86400000,
    "100000000000000000000000000"
  ],
  "numDeployments": 2,
  "solcInputHash": "a32ef8acd5777f9c1e9dc43dfb9de112",
  "bytecode": "0x6080604052600060015534801561001557600080fd5b506040516122313803806122318339818101604052606081101561003857600080fd5b5080516020820151604090920151909190600061005c6001600160e01b036100f716565b600080546001600160a01b0319166001600160a01b0383169081178255604051929350917f8be0079c531659141344cd1fd0a4f28419497f9722a3daafe3b4186f6b6457e0908290a350600280546001600160801b03199081166001600160801b0394851617909155600380546001600160a01b0319166001600160a01b0395909516949094179093556004805490931691161790556100fb565b3390565b6121278061010a6000396000f3fe608060405234801561001057600080fd5b50600436106101165760003560e01c80638da5cb5b116100a2578063e574297011610071578063e5742970146105ad578063e82330b2146106bb578063f2fde38b14610739578063f3fe12c91461075f578063fc0c546a146107cd57610116565b80638da5cb5b14610472578063a2309ff814610496578063b733f67d1461049e578063c31cd7d7146104c457610116565b80632c902c7c116100e95780632c902c7c1461025f57806370a42898146102dd578063715018a61461035b57806372840f0e1461036357806378e979251461046a57610116565b80630373a3641461011b578063059f8b161461013f57806322bccfd714610147578063239c70ae14610257575b600080fd5b6101236107d5565b604080516001600160801b039092168252519081900360200190f35b6101236107eb565b6102556004803603606081101561015d57600080fd5b810190602081018135600160201b81111561017757600080fd5b82018360208201111561018957600080fd5b803590602001918460208302840111600160201b831117156101aa57600080fd5b919390929091602081019035600160201b8111156101c757600080fd5b8201836020820111156101d957600080fd5b803590602001918460208302840111600160201b831117156101fa57600080fd5b919390929091602081019035600160201b81111561021757600080fd5b82018360208201111561022957600080fd5b803590602001918460018302840111600160201b8311171561024a57600080fd5b5090925090506107f2565b005b610123610baf565b6102556004803603604081101561027557600080fd5b6001600160a01b038235169190810190604081016020820135600160201b81111561029f57600080fd5b8201836020820111156102b157600080fd5b803590602001918460018302840111600160201b831117156102d257600080fd5b509092509050610bbe565b610123600480360360408110156102f357600080fd5b6001600160a01b038235169190810190604081016020820135600160201b81111561031d57600080fd5b82018360208201111561032f57600080fd5b803590602001918460018302840111600160201b8311171561035057600080fd5b509092509050610d6c565b610255610def565b6103d16004803603602081101561037957600080fd5b810190602081018135600160201b81111561039357600080fd5b8201836020820111156103a557600080fd5b803590602001918460018302840111600160201b831117156103c657600080fd5b509092509050610e9b565b604051808060200180602001838103835285818151815260200191508051906020019060200280838360005b838110156104155781810151838201526020016103fd565b50505050905001838103825284818151815260200191508051906020019060200280838360005b8381101561045457818101518382015260200161043c565b5050505090500194505050505060405180910390f35b610123610ff9565b61047a611008565b604080516001600160a01b039092168252519081900360200190f35b610123611018565b610255600480360360208110156104b457600080fd5b50356001600160801b0316611027565b610578600480360360408110156104da57600080fd5b6001600160a01b038235169190810190604081016020820135600160201b81111561050457600080fd5b82018360208201111561051657600080fd5b803590602001918460018302840111600160201b8311171561053757600080fd5b91908080601f0160208091040260200160405190810160405280939291908181526020018383808284376000920191909152509295506110ff945050505050565b604080516001600160801b03958616815293851660208501529190931682820152911515606082015290519081900360800190f35b610255600480360360608110156105c357600080fd5b810190602081018135600160201b8111156105dd57600080fd5b8201836020820111156105ef57600080fd5b803590602001918460208302840111600160201b8311171561061057600080fd5b919390929091602081019035600160201b81111561062d57600080fd5b82018360208201111561063f57600080fd5b803590602001918460208302840111600160201b8311171561066057600080fd5b919390929091602081019035600160201b81111561067d57600080fd5b82018360208201111561068f57600080fd5b803590602001918460018302840111600160201b831117156106b057600080fd5b509092509050611154565b610255600480360360408110156106d157600080fd5b6001600160a01b038235169190810190604081016020820135600160201b8111156106fb57600080fd5b82018360208201111561070d57600080fd5b803590602001918460018302840111600160201b8311171561072e57600080fd5b509092509050611573565b6102556004803603602081101561074f57600080fd5b50356001600160a01b03166115b8565b6102556004803603602081101561077557600080fd5b810190602081018135600160201b81111561078f57600080fd5b8201836020820111156107a157600080fd5b803590602001918460018302840111600160201b831117156107c257600080fd5b5090925090506116ba565b61047a6116fe565b600154600160801b90046001600160801b031681565b620f424081565b6107fa61170d565b6001600160a01b031661080b611008565b6001600160a01b031614610854576040805162461bcd60e51b815260206004820181905260248201526000805160206120ac833981519152604482015290519081900360640190fd5b60058282604051808383808284379190910194855250506040519283900360200190922054151591506108c69050576040805162461bcd60e51b815260206004820152601360248201527214d8da19591d5b19481b5d5cdd08195e1a5cdd606a1b604482015290519081900360640190fd5b8483146109045760405162461bcd60e51b815260040180806020018281038252602b815260200180612023602b913960400191505060405180910390fd5b600154600160801b90046001600160801b031660005b86811015610b89576006600089898481811061093257fe5b905060200201356001600160a01b03166001600160a01b03166001600160a01b0316815260200190815260200160002084846040518083838082843791909101948552505060405192839003602001909220546001600160801b03161591506109e49050576040805162461bcd60e51b815260206004820152601960248201527f416c6c6f636174696f6e206d757374206e6f7420657869737400000000000000604482015290519081900360640190fd5b8585828181106109f057fe5b905060200201356001600160801b0316600660008a8a85818110610a1057fe5b905060200201356001600160a01b03166001600160a01b03166001600160a01b031681526020019081526020016000208585604051808383808284379190910194855250506040519283900360200190922080546001600160801b03949094166001600160801b03199094169390931790925550610aab905082878784818110610a9657fe5b905060200201356001600160801b0316611711565b6004549092506001600160801b039081169083161115610ac757fe5b878782818110610ad357fe5b905060200201356001600160a01b03166001600160a01b03167f499c64a5e7cdaa8e72ac9f0f4b080fce7a37c5ef24b2a9f67c7c6a728f5aec09878784818110610b1957fe5b905060200201356001600160801b0316868660405180846001600160801b03166001600160801b03168152602001806020018281038252848482818152602001925080828437600083820152604051601f909101601f1916909201829003965090945050505050a260010161091a565b50600180546001600160801b03928316600160801b029216919091179055505050505050565b6004546001600160801b031681565b610bc661170d565b6001600160a01b0316610bd7611008565b6001600160a01b031614610c20576040805162461bcd60e51b815260206004820181905260248201526000805160206120ac833981519152604482015290519081900360640190fd5b6001600160a01b038316600090815260066020526040808220905184908490808383808284379190910194855250506040519283900360200190922080549093506001600160801b031615159150610cb99050576040805162461bcd60e51b8152602060048201526015602482015274105b1b1bd8d85d1a5bdb881b5d5cdd08195e1a5cdd605a1b604482015290519081900360640190fd5b6001810154600160801b900460ff1615610d045760405162461bcd60e51b81526004018080602001828103825260268152602001806120cc6026913960400191505060405180910390fd5b6001818101805460ff60801b1916600160801b90811790915590548254610d49926001600160801b0392819004831692610d449280821692900416611780565b611780565b600180546001600160801b03928316600160801b02921691909117905550505050565b6000610de760058484604051808383808284378083019250505092505050908152602001604051809103902060066000876001600160a01b03166001600160a01b03168152602001908152602001600020858560405180838380828437808301925050509250505090815260200160405180910390206117ef565b949350505050565b610df761170d565b6001600160a01b0316610e08611008565b6001600160a01b031614610e51576040805162461bcd60e51b815260206004820181905260248201526000805160206120ac833981519152604482015290519081900360640190fd5b600080546040516001600160a01b03909116907f8be0079c531659141344cd1fd0a4f28419497f9722a3daafe3b4186f6b6457e0908390a3600080546001600160a01b0319169055565b60608060058484604051808383808284379190910194855250506040519283900360200183209260059250879150869080838380828437919091019485525050604080519384900360209081018520865480830287018301909352828652600101949350859250830182828015610f6357602002820191906000526020600020906000905b82829054906101000a90046001600160801b03166001600160801b031681526020019060100190602082600f01049283019260010382029150808411610f205790505b5050505050915080805480602002602001604051908101604052809291908181526020018280548015610fe757602002820191906000526020600020906000905b82829054906101000a90046001600160801b03166001600160801b031681526020019060100190602082600f01049283019260010382029150808411610fa45790505b50505050509050915091509250929050565b6002546001600160801b031681565b6000546001600160a01b03165b90565b6001546001600160801b031681565b61102f61170d565b6001600160a01b0316611040611008565b6001600160a01b031614611089576040805162461bcd60e51b815260206004820181905260248201526000805160206120ac833981519152604482015290519081900360640190fd5b6110916119b6565b6002546001600160801b039182169116116110dd5760405162461bcd60e51b815260040180806020018281038252602781526020018061204e6027913960400191505060405180910390fd5b600280546001600160801b0319166001600160801b0392909216919091179055565b60066020908152600092835260409092208151808301840180519281529084019290930191909120915280546001909101546001600160801b0380831692600160801b90819004821692918216910460ff1684565b61115c61170d565b6001600160a01b031661116d611008565b6001600160a01b0316146111b6576040805162461bcd60e51b815260206004820181905260248201526000805160206120ac833981519152604482015290519081900360640190fd5b600582826040518083838082843791909101948552505060405192839003602001909220541591506112319050576040805162461bcd60e51b815260206004820152601760248201527f5363686564756c65206d757374206e6f74206578697374000000000000000000604482015290519081900360640190fd5b84831461126f5760405162461bcd60e51b815260040180806020018281038252602d815260200180611fd0602d913960400191505060405180910390fd5b600080805b8781101561138e5788888281811061128857fe5b905060200201356001600160801b03166001600160801b0316836001600160801b0316106112e75760405162461bcd60e51b815260040180806020018281038252602a815260200180611f80602a913960400191505060405180910390fd5b8888828181106112f357fe5b905060200201356001600160801b03169250620f42406001600160801b031687878381811061131e57fe5b905060200201356001600160801b03166001600160801b031611156113745760405162461bcd60e51b81526004018080602001828103825260378152602001806120756037913960400191505060405180910390fd5b61138482888884818110610a9657fe5b9150600101611274565b506001600160801b038116620f4240146113d95760405162461bcd60e51b8152600401808060200182810382526026815260200180611ffd6026913960400191505060405180910390fd5b604051806040016040528089898080602002602001604051908101604052809392919081815260200183836020028082843760009201919091525050509082525060408051602089810282810182019093528982529283019290918a918a918291850190849080828437600092019190915250505091525060405160059086908690808383808284379190910194855250506040516020938190038401902084518051919461148d94508593500190611ea3565b5060208281015180516114a69260018501920190611ea3565b509050507f14a9427471da7dbb7ecca56162a326853031d8fab46a74ab7b1b797591d9e4688888888888886040518080602001806020018060200184810384528a8a82818152602001925060200280828437600083820152601f01601f19169091018581038452888152602090810191508990890280828437600083820152601f01601f191690910185810383528681526020019050868680828437600083820152604051601f909101601f19169092018290039b50909950505050505050505050a15050505050505050565b6115b38383838080601f0160208091040260200160405190810160405280939291908181526020018383808284376000920191909152506119ba92505050565b505050565b6115c061170d565b6001600160a01b03166115d1611008565b6001600160a01b03161461161a576040805162461bcd60e51b815260206004820181905260248201526000805160206120ac833981519152604482015290519081900360640190fd5b6001600160a01b03811661165f5760405162461bcd60e51b8152600401808060200182810382526026815260200180611faa6026913960400191505060405180910390fd5b600080546040516001600160a01b03808516939216917f8be0079c531659141344cd1fd0a4f28419497f9722a3daafe3b4186f6b6457e091a3600080546001600160a01b0319166001600160a01b0392909216919091179055565b6116fa3383838080601f0160208091040260200160405190810160405280939291908181526020018383808284376000920191909152506119ba92505050565b5050565b6003546001600160a01b031681565b3390565b60008282016001600160801b038085169082161015611777576040805162461bcd60e51b815260206004820152601960248201527f75696e74313238206164646974696f6e206f766572666c6f7700000000000000604482015290519081900360640190fd5b90505b92915050565b6000826001600160801b0316826001600160801b031611156117e9576040805162461bcd60e51b815260206004820152601c60248201527f75696e74313238207375627472616374696f6e206f766572666c6f7700000000604482015290519081900360640190fd5b50900390565b60006117f96119b6565b60025484546001600160801b0392831692611849921690869060009061181b57fe5b90600052602060002090600291828204019190066010029054906101000a90046001600160801b0316611711565b6001600160801b031611156118605750600061177a565b6118686119b6565b60025484546001600160801b039283169261188f9216908690600019810190811061181b57fe5b6001600160801b031610156118c45781546118bd906001600160801b0380821691600160801b900416611780565b905061177a565b6000805b84548110156119ae5760025485546000916118f5916001600160801b039091169088908590811061181b57fe5b90506118ff6119b6565b6001600160801b0316816001600160801b0316111561191e57506119ae565b60018501546001600160801b0380831691161061193b57506119a6565b84546001870180546119a292869261199d92611994926001600160801b031691908890811061196657fe5b90600052602060002090600291828204019190066010029054906101000a90046001600160801b0316611d8e565b620f4240611e1e565b611711565b9250505b6001016118c8565b509392505050565b4290565b6001600160a01b0382166000908152600660209081526040808320905184519192859282918401908083835b60208310611a055780518252601f1990920191602091820191016119e6565b51815160209384036101000a6000190180199092169116179052920194855250604051938490030190922080549093506001600160801b031615159150611a959050576040805162461bcd60e51b815260206004820152601960248201527f5468657265206973206e6f7468696e6720746f20636c61696d00000000000000604482015290519081900360640190fd5b6001810154600160801b900460ff1615611aeb576040805162461bcd60e51b81526020600482015260126024820152711058d8dbdd5b9d081a5cc81c995d9bdad95960721b604482015290519081900360640190fd5b60006005836040518082805190602001908083835b60208310611b1f5780518252601f199092019160209182019101611b00565b51815160209384036101000a60001901801990921691161790529201948552506040519384900301909220925060009150611b5c905082846117ef565b83549091506001600160801b039081169082161115611b7757fe5b8254600090611b9690600160801b90046001600160801b031683611711565b84549091506001600160801b039081169082161115611bb157fe5b600154600090611bca906001600160801b031684611711565b6004549091506001600160801b039081169082161115611be657fe5b600180546001600160801b038084166001600160801b0319909216919091179091558554838216600160801b029116178555611c206119b6565b6001860180546001600160801b0319166001600160801b0392831617905560035460408051630dcdc7dd60e41b81526001600160a01b038b8116600483015293871660248201526080604482015260006084820181905260c0606483015260c482018190529151939092169263dcdc7dd09261010480820193929182900301818387803b158015611cb057600080fd5b505af1158015611cc4573d6000803e3d6000fd5b50505050866001600160a01b03167fd6d52022b5ae5ce877753d56a79a1299605b05220771f26b0817599cabd2b6b4848860405180836001600160801b03166001600160801b0316815260200180602001828103825283818151815260200191508051906020019080838360005b83811015611d4a578181015183820152602001611d32565b50505050905090810190601f168015611d775780820380516001836020036101000a031916815260200191505b50935050505060405180910390a250505050505050565b60006001600160801b038316611da65750600061177a565b8282026001600160801b038084169080861690831681611dc257fe5b046001600160801b031614611777576040805162461bcd60e51b815260206004820152601f60248201527f75696e74313238206d756c7469706c69636174696f6e206f766572666c6f7700604482015290519081900360640190fd5b600080826001600160801b031611611e7d576040805162461bcd60e51b815260206004820152601860248201527f75696e74313238206469766973696f6e206279207a65726f0000000000000000604482015290519081900360640190fd5b6000826001600160801b0316846001600160801b031681611e9a57fe5b04949350505050565b82805482825590600052602060002090600101600290048101928215611f4b5791602002820160005b83821115611f1657835183826101000a8154816001600160801b0302191690836001600160801b031602179055509260200192601001602081600f01049283019260010302611ecc565b8015611f495782816101000a8154906001600160801b030219169055601001602081600f01049283019260010302611f16565b505b50611f57929150611f5b565b5090565b61101591905b80821115611f575780546001600160801b0319168155600101611f6156fe4475726174696f6e73206d75737420626520616464656420696e20617363656e64696e67206f726465724f776e61626c653a206e6577206f776e657220697320746865207a65726f20616464726573734475726174696f6e7320616e642070657263656e7473206d757374206861766520657175616c206c656e67746850657263656e7473206d7573742073756d20746f204d554c5449504c49455220616d6f756e744163636f756e747320616e6420616d6f756e7473206d757374206861766520657175616c206c656e67746850726576696f75732073746172742074696d65206d757374206e6f74206265207265616368656450657263656e742070726f7669646564206d75737420626520736d616c6c6572206f7220657175616c20746f204d554c5449504c4945524f776e61626c653a2063616c6c6572206973206e6f7420746865206f776e6572416c6c6f636174696f6e206d757374206e6f7420626520616c7265616479207265766f6b6564a26469706673582212204591a6c9c13635876d4f96c61a8424aeb0577a6dc85a732080a84a4dfeb6ca7564736f6c63430006060033",
  "devdoc": {
    "methods": {
      "addAllocations(address[],uint128[],string)": {
        "details": "Adds allocations, all allocations will use the schedule specified, schedule must be created before and account must not have an allocation in the specific schedule.",
        "params": {
          "accounts": "accounts to create allocations for",
          "amounts": "total amount to be allocated",
          "scheduleName": "the schedule name"
        }
      },
      "addSchedule(uint128[],uint128[],string)": {
        "details": "Adds a schedule, the schedule must not already exist. Owner is expected to insert values in ascending order, each element in arrays {durations} and {percents} is meant to be related.",
        "params": {
          "durations": "the durations for each schedule period in seconds (6 months, 1 year)",
          "percents": "the percent of how much can be allocated during that period, instead of using 100 we scale the value up to {MULTIPLIER} so we can have more accurate \"percentages\"."
        }
      },
      "claim(string)": {
        "details": "Claim tokens by specified a schedule.",
        "params": {
          "scheduleName": "the schedule name"
        }
      },
      "claimFor(address,string)": {
        "details": "Claim tokens for a specific account by specified a schedule.",
        "params": {
          "account": "the account to claim for",
          "scheduleName": "the schedule name"
        }
      },
      "constructor": {
        "params": {
          "_startTime": "the timestamp to start counting",
          "_token": "the token which we will mint"
        }
      },
      "getClaimable(address,string)": {
        "params": {
          "account": "the account to get claimable for",
          "scheduleName": "the schedule name"
        },
        "returns": {
          "_0": "claimable amount"
        }
      },
      "getSchedule(string)": {
        "params": {
          "name": "the schedule name"
        },
        "returns": {
          "_0": "the schedule"
        }
      },
      "owner()": {
        "details": "Returns the address of the current owner."
      },
      "renounceOwnership()": {
        "details": "Leaves the contract without owner. It will not be possible to call `onlyOwner` functions anymore. Can only be called by the current owner.     * NOTE: Renouncing ownership will leave the contract without an owner, thereby removing any functionality that is only available to the owner."
      },
      "revokeAccount(address,string)": {
        "details": "Revokes the ability for an account to claim on the specified schedule.",
        "params": {
          "account": "the account to crevoke",
          "scheduleName": "the schedule name"
        }
      },
      "transferOwnership(address)": {
        "details": "Transfers ownership of the contract to a new account (`newOwner`). Can only be called by the current owner."
      },
      "updateStartTime(uint128)": {
        "details": "Allows the owner to update the start time, in case there are unforeseen issues in the long schedule.",
        "params": {
          "_startTime": "the new timestamp to start counting"
        }
      }
    }
  },
  "userdoc": {
    "methods": {}
  },
  "storageLayout": {
    "storage": [
      {
        "astId": 293,
        "contract": "contracts/HoprDistributor.sol:HoprDistributor",
        "label": "_owner",
        "offset": 0,
        "slot": "0",
        "type": "t_address"
      },
      {
        "astId": 2629,
        "contract": "contracts/HoprDistributor.sol:HoprDistributor",
        "label": "totalMinted",
        "offset": 0,
        "slot": "1",
        "type": "t_uint128"
      },
      {
        "astId": 2632,
        "contract": "contracts/HoprDistributor.sol:HoprDistributor",
        "label": "totalToBeMinted",
        "offset": 16,
        "slot": "1",
        "type": "t_uint128"
      },
      {
        "astId": 2634,
        "contract": "contracts/HoprDistributor.sol:HoprDistributor",
        "label": "startTime",
        "offset": 0,
        "slot": "2",
        "type": "t_uint128"
      },
      {
        "astId": 2636,
        "contract": "contracts/HoprDistributor.sol:HoprDistributor",
        "label": "token",
        "offset": 0,
        "slot": "3",
        "type": "t_contract(HoprToken)3465"
      },
      {
        "astId": 2638,
        "contract": "contracts/HoprDistributor.sol:HoprDistributor",
        "label": "maxMintAmount",
        "offset": 0,
        "slot": "4",
        "type": "t_uint128"
      },
      {
        "astId": 2642,
        "contract": "contracts/HoprDistributor.sol:HoprDistributor",
        "label": "schedules",
        "offset": 0,
        "slot": "5",
        "type": "t_mapping(t_string_memory_ptr,t_struct(Schedule)2612_storage)"
      },
      {
        "astId": 2648,
        "contract": "contracts/HoprDistributor.sol:HoprDistributor",
        "label": "allocations",
        "offset": 0,
        "slot": "6",
        "type": "t_mapping(t_address,t_mapping(t_string_memory_ptr,t_struct(Allocation)2621_storage))"
      }
    ],
    "types": {
      "t_address": {
        "encoding": "inplace",
        "label": "address",
        "numberOfBytes": "20"
      },
      "t_array(t_uint128)dyn_storage": {
        "base": "t_uint128",
        "encoding": "dynamic_array",
        "label": "uint128[]",
        "numberOfBytes": "32"
      },
      "t_bool": {
        "encoding": "inplace",
        "label": "bool",
        "numberOfBytes": "1"
      },
      "t_contract(HoprToken)3465": {
        "encoding": "inplace",
        "label": "contract HoprToken",
        "numberOfBytes": "20"
      },
      "t_mapping(t_address,t_mapping(t_string_memory_ptr,t_struct(Allocation)2621_storage))": {
        "encoding": "mapping",
        "key": "t_address",
        "label": "mapping(address => mapping(string => struct HoprDistributor.Allocation))",
        "numberOfBytes": "32",
        "value": "t_mapping(t_string_memory_ptr,t_struct(Allocation)2621_storage)"
      },
      "t_mapping(t_string_memory_ptr,t_struct(Allocation)2621_storage)": {
        "encoding": "mapping",
        "key": "t_string_memory_ptr",
        "label": "mapping(string => struct HoprDistributor.Allocation)",
        "numberOfBytes": "32",
        "value": "t_struct(Allocation)2621_storage"
      },
      "t_mapping(t_string_memory_ptr,t_struct(Schedule)2612_storage)": {
        "encoding": "mapping",
        "key": "t_string_memory_ptr",
        "label": "mapping(string => struct HoprDistributor.Schedule)",
        "numberOfBytes": "32",
        "value": "t_struct(Schedule)2612_storage"
      },
      "t_string_memory_ptr": {
        "encoding": "bytes",
        "label": "string",
        "numberOfBytes": "32"
      },
      "t_struct(Allocation)2621_storage": {
        "encoding": "inplace",
        "label": "struct HoprDistributor.Allocation",
        "members": [
          {
            "astId": 2614,
            "contract": "contracts/HoprDistributor.sol:HoprDistributor",
            "label": "amount",
            "offset": 0,
            "slot": "0",
            "type": "t_uint128"
          },
          {
            "astId": 2616,
            "contract": "contracts/HoprDistributor.sol:HoprDistributor",
            "label": "claimed",
            "offset": 16,
            "slot": "0",
            "type": "t_uint128"
          },
          {
            "astId": 2618,
            "contract": "contracts/HoprDistributor.sol:HoprDistributor",
            "label": "lastClaim",
            "offset": 0,
            "slot": "1",
            "type": "t_uint128"
          },
          {
            "astId": 2620,
            "contract": "contracts/HoprDistributor.sol:HoprDistributor",
            "label": "revoked",
            "offset": 16,
            "slot": "1",
            "type": "t_bool"
          }
        ],
        "numberOfBytes": "64"
      },
      "t_struct(Schedule)2612_storage": {
        "encoding": "inplace",
        "label": "struct HoprDistributor.Schedule",
        "members": [
          {
            "astId": 2608,
            "contract": "contracts/HoprDistributor.sol:HoprDistributor",
            "label": "durations",
            "offset": 0,
            "slot": "0",
            "type": "t_array(t_uint128)dyn_storage"
          },
          {
            "astId": 2611,
            "contract": "contracts/HoprDistributor.sol:HoprDistributor",
            "label": "percents",
            "offset": 0,
            "slot": "1",
            "type": "t_array(t_uint128)dyn_storage"
          }
        ],
        "numberOfBytes": "64"
      },
      "t_uint128": {
        "encoding": "inplace",
        "label": "uint128",
        "numberOfBytes": "16"
      }
    }
  }
}