{
  "address": "0x42ad2C77400b6A445f144962A1E31037528d8A47",
  "abi": [
    {
      "inputs": [],
      "stateMutability": "nonpayable",
      "type": "constructor"
    },
    {
      "anonymous": false,
      "inputs": [
        {
          "indexed": true,
          "internalType": "address",
          "name": "owner",
          "type": "address"
        },
        {
          "indexed": true,
          "internalType": "address",
          "name": "spender",
          "type": "address"
        },
        {
          "indexed": false,
          "internalType": "uint256",
          "name": "value",
          "type": "uint256"
        }
      ],
      "name": "Approval",
      "type": "event"
    },
    {
      "anonymous": false,
      "inputs": [
        {
          "indexed": true,
          "internalType": "address",
          "name": "operator",
          "type": "address"
        },
        {
          "indexed": true,
          "internalType": "address",
          "name": "tokenHolder",
          "type": "address"
        }
      ],
      "name": "AuthorizedOperator",
      "type": "event"
    },
    {
      "anonymous": false,
      "inputs": [
        {
          "indexed": true,
          "internalType": "address",
          "name": "operator",
          "type": "address"
        },
        {
          "indexed": true,
          "internalType": "address",
          "name": "from",
          "type": "address"
        },
        {
          "indexed": false,
          "internalType": "uint256",
          "name": "amount",
          "type": "uint256"
        },
        {
          "indexed": false,
          "internalType": "bytes",
          "name": "data",
          "type": "bytes"
        },
        {
          "indexed": false,
          "internalType": "bytes",
          "name": "operatorData",
          "type": "bytes"
        }
      ],
      "name": "Burned",
      "type": "event"
    },
    {
      "anonymous": false,
      "inputs": [
        {
          "indexed": true,
          "internalType": "address",
          "name": "operator",
          "type": "address"
        },
        {
          "indexed": true,
          "internalType": "address",
          "name": "to",
          "type": "address"
        },
        {
          "indexed": false,
          "internalType": "uint256",
          "name": "amount",
          "type": "uint256"
        },
        {
          "indexed": false,
          "internalType": "bytes",
          "name": "data",
          "type": "bytes"
        },
        {
          "indexed": false,
          "internalType": "bytes",
          "name": "operatorData",
          "type": "bytes"
        }
      ],
      "name": "Minted",
      "type": "event"
    },
    {
      "anonymous": false,
      "inputs": [
        {
          "indexed": true,
          "internalType": "address",
          "name": "operator",
          "type": "address"
        },
        {
          "indexed": true,
          "internalType": "address",
          "name": "tokenHolder",
          "type": "address"
        }
      ],
      "name": "RevokedOperator",
      "type": "event"
    },
    {
      "anonymous": false,
      "inputs": [
        {
          "indexed": true,
          "internalType": "bytes32",
          "name": "role",
          "type": "bytes32"
        },
        {
          "indexed": true,
          "internalType": "bytes32",
          "name": "previousAdminRole",
          "type": "bytes32"
        },
        {
          "indexed": true,
          "internalType": "bytes32",
          "name": "newAdminRole",
          "type": "bytes32"
        }
      ],
      "name": "RoleAdminChanged",
      "type": "event"
    },
    {
      "anonymous": false,
      "inputs": [
        {
          "indexed": true,
          "internalType": "bytes32",
          "name": "role",
          "type": "bytes32"
        },
        {
          "indexed": true,
          "internalType": "address",
          "name": "account",
          "type": "address"
        },
        {
          "indexed": true,
          "internalType": "address",
          "name": "sender",
          "type": "address"
        }
      ],
      "name": "RoleGranted",
      "type": "event"
    },
    {
      "anonymous": false,
      "inputs": [
        {
          "indexed": true,
          "internalType": "bytes32",
          "name": "role",
          "type": "bytes32"
        },
        {
          "indexed": true,
          "internalType": "address",
          "name": "account",
          "type": "address"
        },
        {
          "indexed": true,
          "internalType": "address",
          "name": "sender",
          "type": "address"
        }
      ],
      "name": "RoleRevoked",
      "type": "event"
    },
    {
      "anonymous": false,
      "inputs": [
        {
          "indexed": true,
          "internalType": "address",
          "name": "operator",
          "type": "address"
        },
        {
          "indexed": true,
          "internalType": "address",
          "name": "from",
          "type": "address"
        },
        {
          "indexed": true,
          "internalType": "address",
          "name": "to",
          "type": "address"
        },
        {
          "indexed": false,
          "internalType": "uint256",
          "name": "amount",
          "type": "uint256"
        },
        {
          "indexed": false,
          "internalType": "bytes",
          "name": "data",
          "type": "bytes"
        },
        {
          "indexed": false,
          "internalType": "bytes",
          "name": "operatorData",
          "type": "bytes"
        }
      ],
      "name": "Sent",
      "type": "event"
    },
    {
      "anonymous": false,
      "inputs": [
        {
          "indexed": false,
          "internalType": "uint256",
          "name": "id",
          "type": "uint256"
        }
      ],
      "name": "Snapshot",
      "type": "event"
    },
    {
      "anonymous": false,
      "inputs": [
        {
          "indexed": true,
          "internalType": "address",
          "name": "from",
          "type": "address"
        },
        {
          "indexed": true,
          "internalType": "address",
          "name": "to",
          "type": "address"
        },
        {
          "indexed": false,
          "internalType": "uint256",
          "name": "value",
          "type": "uint256"
        }
      ],
      "name": "Transfer",
      "type": "event"
    },
    {
      "inputs": [],
      "name": "DEFAULT_ADMIN_ROLE",
      "outputs": [
        {
          "internalType": "bytes32",
          "name": "",
          "type": "bytes32"
        }
      ],
      "stateMutability": "view",
      "type": "function"
    },
    {
      "inputs": [],
      "name": "MINTER_ROLE",
      "outputs": [
        {
          "internalType": "bytes32",
          "name": "",
          "type": "bytes32"
        }
      ],
      "stateMutability": "view",
      "type": "function"
    },
    {
      "inputs": [
        {
          "internalType": "address",
          "name": "holder",
          "type": "address"
        },
        {
          "internalType": "address",
          "name": "spender",
          "type": "address"
        }
      ],
      "name": "allowance",
      "outputs": [
        {
          "internalType": "uint256",
          "name": "",
          "type": "uint256"
        }
      ],
      "stateMutability": "view",
      "type": "function"
    },
    {
      "inputs": [
        {
          "internalType": "address",
          "name": "spender",
          "type": "address"
        },
        {
          "internalType": "uint256",
          "name": "value",
          "type": "uint256"
        }
      ],
      "name": "approve",
      "outputs": [
        {
          "internalType": "bool",
          "name": "",
          "type": "bool"
        }
      ],
      "stateMutability": "nonpayable",
      "type": "function"
    },
    {
      "inputs": [
        {
          "internalType": "address",
          "name": "operator",
          "type": "address"
        }
      ],
      "name": "authorizeOperator",
      "outputs": [],
      "stateMutability": "nonpayable",
      "type": "function"
    },
    {
      "inputs": [
        {
          "internalType": "address",
          "name": "tokenHolder",
          "type": "address"
        }
      ],
      "name": "balanceOf",
      "outputs": [
        {
          "internalType": "uint256",
          "name": "",
          "type": "uint256"
        }
      ],
      "stateMutability": "view",
      "type": "function"
    },
    {
      "inputs": [
        {
          "internalType": "address",
          "name": "account",
          "type": "address"
        },
        {
          "internalType": "uint256",
          "name": "snapshotId",
          "type": "uint256"
        }
      ],
      "name": "balanceOfAt",
      "outputs": [
        {
          "internalType": "uint256",
          "name": "",
          "type": "uint256"
        }
      ],
      "stateMutability": "view",
      "type": "function"
    },
    {
      "inputs": [
        {
          "internalType": "uint256",
          "name": "amount",
          "type": "uint256"
        },
        {
          "internalType": "bytes",
          "name": "data",
          "type": "bytes"
        }
      ],
      "name": "burn",
      "outputs": [],
      "stateMutability": "nonpayable",
      "type": "function"
    },
    {
      "inputs": [],
      "name": "decimals",
      "outputs": [
        {
          "internalType": "uint8",
          "name": "",
          "type": "uint8"
        }
      ],
      "stateMutability": "pure",
      "type": "function"
    },
    {
      "inputs": [],
      "name": "defaultOperators",
      "outputs": [
        {
          "internalType": "address[]",
          "name": "",
          "type": "address[]"
        }
      ],
      "stateMutability": "view",
      "type": "function"
    },
    {
      "inputs": [
        {
          "internalType": "bytes32",
          "name": "role",
          "type": "bytes32"
        }
      ],
      "name": "getRoleAdmin",
      "outputs": [
        {
          "internalType": "bytes32",
          "name": "",
          "type": "bytes32"
        }
      ],
      "stateMutability": "view",
      "type": "function"
    },
    {
      "inputs": [
        {
          "internalType": "bytes32",
          "name": "role",
          "type": "bytes32"
        },
        {
          "internalType": "uint256",
          "name": "index",
          "type": "uint256"
        }
      ],
      "name": "getRoleMember",
      "outputs": [
        {
          "internalType": "address",
          "name": "",
          "type": "address"
        }
      ],
      "stateMutability": "view",
      "type": "function"
    },
    {
      "inputs": [
        {
          "internalType": "bytes32",
          "name": "role",
          "type": "bytes32"
        }
      ],
      "name": "getRoleMemberCount",
      "outputs": [
        {
          "internalType": "uint256",
          "name": "",
          "type": "uint256"
        }
      ],
      "stateMutability": "view",
      "type": "function"
    },
    {
      "inputs": [
        {
          "internalType": "bytes32",
          "name": "role",
          "type": "bytes32"
        },
        {
          "internalType": "address",
          "name": "account",
          "type": "address"
        }
      ],
      "name": "grantRole",
      "outputs": [],
      "stateMutability": "nonpayable",
      "type": "function"
    },
    {
      "inputs": [],
      "name": "granularity",
      "outputs": [
        {
          "internalType": "uint256",
          "name": "",
          "type": "uint256"
        }
      ],
      "stateMutability": "view",
      "type": "function"
    },
    {
      "inputs": [
        {
          "internalType": "bytes32",
          "name": "role",
          "type": "bytes32"
        },
        {
          "internalType": "address",
          "name": "account",
          "type": "address"
        }
      ],
      "name": "hasRole",
      "outputs": [
        {
          "internalType": "bool",
          "name": "",
          "type": "bool"
        }
      ],
      "stateMutability": "view",
      "type": "function"
    },
    {
      "inputs": [
        {
          "internalType": "address",
          "name": "operator",
          "type": "address"
        },
        {
          "internalType": "address",
          "name": "tokenHolder",
          "type": "address"
        }
      ],
      "name": "isOperatorFor",
      "outputs": [
        {
          "internalType": "bool",
          "name": "",
          "type": "bool"
        }
      ],
      "stateMutability": "view",
      "type": "function"
    },
    {
      "inputs": [
        {
          "internalType": "address",
          "name": "account",
          "type": "address"
        },
        {
          "internalType": "uint256",
          "name": "amount",
          "type": "uint256"
        },
        {
          "internalType": "bytes",
          "name": "userData",
          "type": "bytes"
        },
        {
          "internalType": "bytes",
          "name": "operatorData",
          "type": "bytes"
        }
      ],
      "name": "mint",
      "outputs": [],
      "stateMutability": "nonpayable",
      "type": "function"
    },
    {
      "inputs": [],
      "name": "name",
      "outputs": [
        {
          "internalType": "string",
          "name": "",
          "type": "string"
        }
      ],
      "stateMutability": "view",
      "type": "function"
    },
    {
      "inputs": [
        {
          "internalType": "address",
          "name": "account",
          "type": "address"
        },
        {
          "internalType": "uint256",
          "name": "amount",
          "type": "uint256"
        },
        {
          "internalType": "bytes",
          "name": "data",
          "type": "bytes"
        },
        {
          "internalType": "bytes",
          "name": "operatorData",
          "type": "bytes"
        }
      ],
      "name": "operatorBurn",
      "outputs": [],
      "stateMutability": "nonpayable",
      "type": "function"
    },
    {
      "inputs": [
        {
          "internalType": "address",
          "name": "sender",
          "type": "address"
        },
        {
          "internalType": "address",
          "name": "recipient",
          "type": "address"
        },
        {
          "internalType": "uint256",
          "name": "amount",
          "type": "uint256"
        },
        {
          "internalType": "bytes",
          "name": "data",
          "type": "bytes"
        },
        {
          "internalType": "bytes",
          "name": "operatorData",
          "type": "bytes"
        }
      ],
      "name": "operatorSend",
      "outputs": [],
      "stateMutability": "nonpayable",
      "type": "function"
    },
    {
      "inputs": [
        {
          "internalType": "bytes32",
          "name": "role",
          "type": "bytes32"
        },
        {
          "internalType": "address",
          "name": "account",
          "type": "address"
        }
      ],
      "name": "renounceRole",
      "outputs": [],
      "stateMutability": "nonpayable",
      "type": "function"
    },
    {
      "inputs": [
        {
          "internalType": "address",
          "name": "operator",
          "type": "address"
        }
      ],
      "name": "revokeOperator",
      "outputs": [],
      "stateMutability": "nonpayable",
      "type": "function"
    },
    {
      "inputs": [
        {
          "internalType": "bytes32",
          "name": "role",
          "type": "bytes32"
        },
        {
          "internalType": "address",
          "name": "account",
          "type": "address"
        }
      ],
      "name": "revokeRole",
      "outputs": [],
      "stateMutability": "nonpayable",
      "type": "function"
    },
    {
      "inputs": [
        {
          "internalType": "address",
          "name": "recipient",
          "type": "address"
        },
        {
          "internalType": "uint256",
          "name": "amount",
          "type": "uint256"
        },
        {
          "internalType": "bytes",
          "name": "data",
          "type": "bytes"
        }
      ],
      "name": "send",
      "outputs": [],
      "stateMutability": "nonpayable",
      "type": "function"
    },
    {
      "inputs": [],
      "name": "symbol",
      "outputs": [
        {
          "internalType": "string",
          "name": "",
          "type": "string"
        }
      ],
      "stateMutability": "view",
      "type": "function"
    },
    {
      "inputs": [],
      "name": "totalSupply",
      "outputs": [
        {
          "internalType": "uint256",
          "name": "",
          "type": "uint256"
        }
      ],
      "stateMutability": "view",
      "type": "function"
    },
    {
      "inputs": [
        {
          "internalType": "uint256",
          "name": "snapshotId",
          "type": "uint256"
        }
      ],
      "name": "totalSupplyAt",
      "outputs": [
        {
          "internalType": "uint256",
          "name": "",
          "type": "uint256"
        }
      ],
      "stateMutability": "view",
      "type": "function"
    },
    {
      "inputs": [
        {
          "internalType": "address",
          "name": "recipient",
          "type": "address"
        },
        {
          "internalType": "uint256",
          "name": "amount",
          "type": "uint256"
        }
      ],
      "name": "transfer",
      "outputs": [
        {
          "internalType": "bool",
          "name": "",
          "type": "bool"
        }
      ],
      "stateMutability": "nonpayable",
      "type": "function"
    },
    {
      "inputs": [
        {
          "internalType": "address",
          "name": "holder",
          "type": "address"
        },
        {
          "internalType": "address",
          "name": "recipient",
          "type": "address"
        },
        {
          "internalType": "uint256",
          "name": "amount",
          "type": "uint256"
        }
      ],
      "name": "transferFrom",
      "outputs": [
        {
          "internalType": "bool",
          "name": "",
          "type": "bool"
        }
      ],
      "stateMutability": "nonpayable",
      "type": "function"
    }
  ],
  "transactionHash": "0x1aa0ba83fb72483c18df7446a7310fd2f079621a1b443c3c2b074fa5aa9d0350",
  "args": [],
  "solcInputHash": "3e60fb29f59a517239c7feab733834c8",
  "bytecode": "0x60806040523480156200001157600080fd5b50604080518082018252600a8152692427a829102a37b5b2b760b11b60208083019182528351808501855260048152632427a82960e11b81830152845160008152918201909452825192939290916200006e91600391906200035f565b508151620000849060049060208501906200035f565b5080516200009a906005906020840190620003f4565b5060005b600554811015620000fa5760016006600060058481548110620000bd57fe5b6000918252602080832091909101546001600160a01b031683528201929092526040019020805460ff19169115159190911790556001016200009e565b50604080516329965a1d60e01b815230600482018190527fac7fbab5f54a3ca8194167523c6753bfeb96a445279294b6125b68cce2177054602483015260448201529051731820a4b7618bde71dce8cdc73aab6c95905fad24916329965a1d91606480830192600092919082900301818387803b1580156200017b57600080fd5b505af115801562000190573d6000803e3d6000fd5b5050604080516329965a1d60e01b815230600482018190527faea199e31a596269b42cdafd93407f14436db6e4cad65417994c2eb37381e05a602483015260448201529051731820a4b7618bde71dce8cdc73aab6c95905fad2493506329965a1d9250606480830192600092919082900301818387803b1580156200021457600080fd5b505af115801562000229573d6000803e3d6000fd5b50505050505050620002456000801b336200024b60201b60201c565b62000463565b6200025782826200025b565b5050565b6000828152602081815260409091206200028091839062001633620002d4821b17901c565b15620002575762000290620002f4565b6001600160a01b0316816001600160a01b0316837f2f8788117e7eff1d82e926ec794901d17c78024a50270940304540a733656f0d60405160405180910390a45050565b6000620002eb836001600160a01b038416620002f8565b90505b92915050565b3390565b600062000306838362000347565b6200033e57508154600181810184556000848152602080822090930184905584548482528286019093526040902091909155620002ee565b506000620002ee565b60009081526001919091016020526040902054151590565b828054600181600116156101000203166002900490600052602060002090601f016020900481019282620003975760008555620003e2565b82601f10620003b257805160ff1916838001178555620003e2565b82800160010185558215620003e2579182015b82811115620003e2578251825591602001919060010190620003c5565b50620003f09291506200044c565b5090565b828054828255906000526020600020908101928215620003e2579160200282015b82811115620003e257825182546001600160a01b0319166001600160a01b0390911617825560209092019160019091019062000415565b5b80821115620003f057600081556001016200044d565b612d0380620004736000396000f3fe608060405234801561001057600080fd5b50600436106101da5760003560e01c8063959b8c3f11610104578063d5391393116100a2578063dd62ed3e11610071578063dd62ed3e146108dc578063fad8b32a1461090a578063fc673c4f14610930578063fe9d930314610a6e576101da565b8063d53913931461073c578063d547741f14610744578063d95b637114610770578063dcdc7dd01461079e576101da565b80639bd9bbc6116100de5780639bd9bbc614610632578063a217fddf146106eb578063a9059cbb146106f3578063ca15c8731461071f576101da565b8063959b8c3f146105e757806395d89b411461060d578063981b24d014610615576101da565b8063313ce5671161017c57806362ad1b831161014b57806362ad1b831461040d57806370a08231146105565780639010d07c1461057c57806391d14854146105bb576101da565b8063313ce5671461038f57806336568abe146103ad5780634ee2cd7e146103d9578063556f0dc714610405576101da565b806318160ddd116101b857806318160ddd146102f457806323b872dd1461030e578063248a9ca3146103445780632f2ff15d14610361576101da565b806306e48538146101df57806306fdde0314610237578063095ea7b3146102b4575b600080fd5b6101e7610b19565b60408051602080825283518183015283519192839290830191858101910280838360005b8381101561022357818101518382015260200161020b565b505050509050019250505060405180910390f35b61023f610b7b565b6040805160208082528351818301528351919283929083019185019080838360005b83811015610279578181015183820152602001610261565b50505050905090810190601f1680156102a65780820380516001836020036101000a031916815260200191505b509250505060405180910390f35b6102e0600480360360408110156102ca57600080fd5b506001600160a01b038135169060200135610c08565b604080519115158252519081900360200190f35b6102fc610c2c565b60408051918252519081900360200190f35b6102e06004803603606081101561032457600080fd5b506001600160a01b03813581169160208101359091169060400135610c32565b6102fc6004803603602081101561035a57600080fd5b5035610daf565b61038d6004803603604081101561037757600080fd5b50803590602001356001600160a01b0316610dc7565b005b610397610e33565b6040805160ff9092168252519081900360200190f35b61038d600480360360408110156103c357600080fd5b50803590602001356001600160a01b0316610e38565b6102fc600480360360408110156103ef57600080fd5b506001600160a01b038135169060200135610e99565b6102fc610ee2565b61038d600480360360a081101561042357600080fd5b6001600160a01b03823581169260208101359091169160408201359190810190608081016060820135600160201b81111561045d57600080fd5b82018360208201111561046f57600080fd5b803590602001918460018302840111600160201b8311171561049057600080fd5b91908080601f0160208091040260200160405190810160405280939291908181526020018383808284376000920191909152509295949360208101935035915050600160201b8111156104e257600080fd5b8201836020820111156104f457600080fd5b803590602001918460018302840111600160201b8311171561051557600080fd5b91908080601f016020809104026020016040519081016040528093929190818152602001838380828437600092019190915250929550610ee7945050505050565b6102fc6004803603602081101561056c57600080fd5b50356001600160a01b0316610f49565b61059f6004803603604081101561059257600080fd5b5080359060200135610f64565b604080516001600160a01b039092168252519081900360200190f35b6102e0600480360360408110156105d157600080fd5b50803590602001356001600160a01b0316610f83565b61038d600480360360208110156105fd57600080fd5b50356001600160a01b0316610f9b565b61023f6110e7565b6102fc6004803603602081101561062b57600080fd5b5035611148565b61038d6004803603606081101561064857600080fd5b6001600160a01b0382351691602081013591810190606081016040820135600160201b81111561067757600080fd5b82018360208201111561068957600080fd5b803590602001918460018302840111600160201b831117156106aa57600080fd5b91908080601f016020809104026020016040519081016040528093929190818152602001838380828437600092019190915250929550611178945050505050565b6102fc6111a2565b6102e06004803603604081101561070957600080fd5b506001600160a01b0381351690602001356111a7565b6102fc6004803603602081101561073557600080fd5b5035611280565b6102fc611297565b61038d6004803603604081101561075a57600080fd5b50803590602001356001600160a01b03166112bb565b6102e06004803603604081101561078657600080fd5b506001600160a01b0381358116916020013516611314565b61038d600480360360808110156107b457600080fd5b6001600160a01b0382351691602081013591810190606081016040820135600160201b8111156107e357600080fd5b8201836020820111156107f557600080fd5b803590602001918460018302840111600160201b8311171561081657600080fd5b91908080601f0160208091040260200160405190810160405280939291908181526020018383808284376000920191909152509295949360208101935035915050600160201b81111561086857600080fd5b82018360208201111561087a57600080fd5b803590602001918460018302840111600160201b8311171561089b57600080fd5b91908080601f0160208091040260200160405190810160405280939291908181526020018383808284376000920191909152509295506113b5945050505050565b6102fc600480360360408110156108f257600080fd5b506001600160a01b0381358116916020013516611442565b61038d6004803603602081101561092057600080fd5b50356001600160a01b031661146d565b61038d6004803603608081101561094657600080fd5b6001600160a01b0382351691602081013591810190606081016040820135600160201b81111561097557600080fd5b82018360208201111561098757600080fd5b803590602001918460018302840111600160201b831117156109a857600080fd5b91908080601f0160208091040260200160405190810160405280939291908181526020018383808284376000920191909152509295949360208101935035915050600160201b8111156109fa57600080fd5b820183602082011115610a0c57600080fd5b803590602001918460018302840111600160201b83111715610a2d57600080fd5b91908080601f0160208091040260200160405190810160405280939291908181526020018383808284376000920191909152509295506115b9945050505050565b61038d60048036036040811015610a8457600080fd5b81359190810190604081016020820135600160201b811115610aa557600080fd5b820183602082011115610ab757600080fd5b803590602001918460018302840111600160201b83111715610ad857600080fd5b91908080601f016020809104026020016040519081016040528093929190818152602001838380828437600092019190915250929550611611945050505050565b60606005805480602002602001604051908101604052809291908181526020018280548015610b7157602002820191906000526020600020905b81546001600160a01b03168152600190910190602001808311610b53575b5050505050905090565b60038054604080516020601f6002600019610100600188161502019095169490940493840181900481028201810190925282815260609390929091830182828015610b715780601f10610bdc57610100808354040283529160200191610b71565b820191906000526020600020905b815481529060010190602001808311610bea57509395945050505050565b600080610c13611648565b9050610c2081858561164c565b60019150505b92915050565b60025490565b60006001600160a01b038316610c795760405162461bcd60e51b8152600401808060200182810382526024815260200180612bba6024913960400191505060405180910390fd5b6001600160a01b038416610cbe5760405162461bcd60e51b8152600401808060200182810382526026815260200180612c336026913960400191505060405180910390fd5b6000610cc8611648565b9050610cf6818686866040518060200160405280600081525060405180602001604052806000815250611738565b610d22818686866040518060200160405280600081525060405180602001604052806000815250611965565b610d768582610d7186604051806060016040528060298152602001612c0a602991396001600160a01b03808c166000908152600960209081526040808320938b16835292905220549190611b7f565b61164c565b610da48186868660405180602001604052806000815250604051806020016040528060008152506000611c16565b506001949350505050565b6000818152602081905260409020600201545b919050565b600082815260208190526040902060020154610dea90610de5611648565b610f83565b610e255760405162461bcd60e51b815260040180806020018281038252602f815260200180612a39602f913960400191505060405180910390fd5b610e2f8282611e9b565b5050565b601290565b610e40611648565b6001600160a01b0316816001600160a01b031614610e8f5760405162461bcd60e51b815260040180806020018281038252602f815260200180612c9f602f913960400191505060405180910390fd5b610e2f8282611f04565b6001600160a01b0382166000908152600a6020526040812081908190610ec0908590611f6d565b9150915081610ed757610ed285610f49565b610ed9565b805b95945050505050565b600190565b610ef8610ef2611648565b86611314565b610f335760405162461bcd60e51b815260040180806020018281038252602c815260200180612bde602c913960400191505060405180910390fd5b610f4285858585856001612071565b5050505050565b6001600160a01b031660009081526001602052604090205490565b6000828152602081905260408120610f7c9083612148565b9392505050565b6000828152602081905260408120610f7c9083612154565b806001600160a01b0316610fad611648565b6001600160a01b03161415610ff35760405162461bcd60e51b8152600401808060200182810382526024815260200180612af86024913960400191505060405180910390fd5b6001600160a01b03811660009081526006602052604090205460ff16156110565760086000611020611648565b6001600160a01b03908116825260208083019390935260409182016000908120918516815292529020805460ff1916905561109d565b600160076000611064611648565b6001600160a01b03908116825260208083019390935260409182016000908120918616815292529020805460ff19169115159190911790555b6110a5611648565b6001600160a01b0316816001600160a01b03167ff4caeb2d6ca8932a215a353d0703c326ec2d81fc68170f320eb2ab49e9df61f960405160405180910390a350565b60048054604080516020601f6002600019610100600188161502019095169490940493840181900481028201810190925282815260609390929091830182828015610b715780601f10610bdc57610100808354040283529160200191610b71565b600080600061115884600b611f6d565b915091508161116e57611169610c2c565b611170565b805b949350505050565b61119d611183611648565b848484604051806020016040528060008152506001612071565b505050565b600081565b60006001600160a01b0383166111ee5760405162461bcd60e51b8152600401808060200182810382526024815260200180612bba6024913960400191505060405180910390fd5b60006111f8611648565b9050611226818286866040518060200160405280600081525060405180602001604052806000815250611738565b611252818286866040518060200160405280600081525060405180602001604052806000815250611965565b610c208182868660405180602001604052806000815250604051806020016040528060008152506000611c16565b6000818152602081905260408120610c2690612169565b7f9f2df0fed2c77648de5860a4cc508cd0818c85b8b8a1ab4ceeef8d981c8956a681565b6000828152602081905260409020600201546112d990610de5611648565b610e8f5760405162461bcd60e51b8152600401808060200182810382526030815260200180612b1c6030913960400191505060405180910390fd5b6000816001600160a01b0316836001600160a01b0316148061137f57506001600160a01b03831660009081526006602052604090205460ff16801561137f57506001600160a01b0380831660009081526008602090815260408083209387168352929052205460ff16155b80610f7c5750506001600160a01b0390811660009081526007602090815260408083209490931682529290925290205460ff1690565b6113df7f9f2df0fed2c77648de5860a4cc508cd0818c85b8b8a1ab4ceeef8d981c8956a633610f83565b611430576040805162461bcd60e51b815260206004820181905260248201527f63616c6c657220646f6573206e6f742068617665206d696e74657220726f6c65604482015290519081900360640190fd5b61143c84848484612174565b50505050565b6001600160a01b03918216600090815260096020908152604080832093909416825291909152205490565b611475611648565b6001600160a01b0316816001600160a01b031614156114c55760405162461bcd60e51b8152600401808060200182810382526021815260200180612b4c6021913960400191505060405180910390fd5b6001600160a01b03811660009081526006602052604090205460ff1615611531576001600860006114f4611648565b6001600160a01b03908116825260208083019390935260409182016000908120918616815292529020805460ff191691151591909117905561156f565b6007600061153d611648565b6001600160a01b03908116825260208083019390935260409182016000908120918516815292529020805460ff191690555b611577611648565b6001600160a01b0316816001600160a01b03167f50546e66e5f44d728365dc3908c63bc5cfeeab470722c1677e3073a6ac294aa160405160405180910390a350565b6115ca6115c4611648565b85611314565b6116055760405162461bcd60e51b815260040180806020018281038252602c815260200180612bde602c913960400191505060405180910390fd5b61143c848484846123b9565b610e2f61161c611648565b8383604051806020016040528060008152506123b9565b6000610f7c836001600160a01b0384166125f3565b3390565b6001600160a01b0383166116915760405162461bcd60e51b8152600401808060200182810382526025815260200180612a686025913960400191505060405180910390fd5b6001600160a01b0382166116d65760405162461bcd60e51b8152600401808060200182810382526023815260200180612c7c6023913960400191505060405180910390fd5b6001600160a01b03808416600081815260096020908152604080832094871680845294825291829020859055815185815291517f8c5be1e5ebec7d5bd14f71427d1e84f3dd0314c0f7b2291e5b200ac8c7c3b9259281900390910190a3505050565b6040805163555ddc6560e11b81526001600160a01b03871660048201527f29ddb589b1fb5fc7cf394961c1adf5f8c6454761adf795e67fe149f658abe89560248201529051600091731820a4b7618bde71dce8cdc73aab6c95905fad249163aabbb8ca91604480820192602092909190829003018186803b1580156117bc57600080fd5b505afa1580156117d0573d6000803e3d6000fd5b505050506040513d60208110156117e657600080fd5b505190506001600160a01b0381161561195c57806001600160a01b03166375ab97828888888888886040518763ffffffff1660e01b815260040180876001600160a01b03168152602001866001600160a01b03168152602001856001600160a01b031681526020018481526020018060200180602001838103835285818151815260200191508051906020019080838360005b83811015611891578181015183820152602001611879565b50505050905090810190601f1680156118be5780820380516001836020036101000a031916815260200191505b50838103825284518152845160209182019186019080838360005b838110156118f15781810151838201526020016118d9565b50505050905090810190601f16801561191e5780820380516001836020036101000a031916815260200191505b5098505050505050505050600060405180830381600087803b15801561194357600080fd5b505af1158015611957573d6000803e3d6000fd5b505050505b50505050505050565b6119718686868661263d565b6119ae83604051806060016040528060278152602001612aaf602791396001600160a01b0388166000908152600160205260409020549190611b7f565b6001600160a01b0380871660009081526001602052604080822093909355908616815220546119dd9084612696565b60016000866001600160a01b03166001600160a01b0316815260200190815260200160002081905550836001600160a01b0316856001600160a01b0316876001600160a01b03167f06b541ddaa720db2b10a4d0cdac39b8d360425fc073085fac19bc82614677987868686604051808481526020018060200180602001838103835285818151815260200191508051906020019080838360005b83811015611a8f578181015183820152602001611a77565b50505050905090810190601f168015611abc5780820380516001836020036101000a031916815260200191505b50838103825284518152845160209182019186019080838360005b83811015611aef578181015183820152602001611ad7565b50505050905090810190601f168015611b1c5780820380516001836020036101000a031916815260200191505b509550505050505060405180910390a4836001600160a01b0316856001600160a01b03167fddf252ad1be2c89b69c2b068fc378daa952ba7f163c4a11628f55a4df523b3ef856040518082815260200191505060405180910390a3505050505050565b60008184841115611c0e5760405162461bcd60e51b81526004018080602001828103825283818151815260200191508051906020019080838360005b83811015611bd3578181015183820152602001611bbb565b50505050905090810190601f168015611c005780820380516001836020036101000a031916815260200191505b509250505060405180910390fd5b505050900390565b6040805163555ddc6560e11b81526001600160a01b03871660048201527fb281fc8c12954d22544db45de3159a39272895b169a852b314f9cc762e44c53b60248201529051600091731820a4b7618bde71dce8cdc73aab6c95905fad249163aabbb8ca91604480820192602092909190829003018186803b158015611c9a57600080fd5b505afa158015611cae573d6000803e3d6000fd5b505050506040513d6020811015611cc457600080fd5b505190506001600160a01b03811615611e3d57806001600160a01b03166223de298989898989896040518763ffffffff1660e01b815260040180876001600160a01b03168152602001866001600160a01b03168152602001856001600160a01b031681526020018481526020018060200180602001838103835285818151815260200191508051906020019080838360005b83811015611d6e578181015183820152602001611d56565b50505050905090810190601f168015611d9b5780820380516001836020036101000a031916815260200191505b50838103825284518152845160209182019186019080838360005b83811015611dce578181015183820152602001611db6565b50505050905090810190601f168015611dfb5780820380516001836020036101000a031916815260200191505b5098505050505050505050600060405180830381600087803b158015611e2057600080fd5b505af1158015611e34573d6000803e3d6000fd5b50505050611e91565b8115611e9157611e55866001600160a01b03166126f0565b15611e915760405162461bcd60e51b815260040180806020018281038252604d815260200180612b6d604d913960600191505060405180910390fd5b5050505050505050565b6000828152602081905260409020611eb39082611633565b15610e2f57611ec0611648565b6001600160a01b0316816001600160a01b0316837f2f8788117e7eff1d82e926ec794901d17c78024a50270940304540a733656f0d60405160405180910390a45050565b6000828152602081905260409020611f1c90826126f6565b15610e2f57611f29611648565b6001600160a01b0316816001600160a01b0316837ff6391f5c32d9c69d2a47ea670b442974b53935d1edc7fd64eb21e047a839171b60405160405180910390a45050565b60008060008411611fc5576040805162461bcd60e51b815260206004820152601760248201527f455243373737536e617073686f743a2069642069732030000000000000000000604482015290519081900360640190fd5b611fcf600d61270b565b841115612023576040805162461bcd60e51b815260206004820152601e60248201527f455243373737536e617073686f743a206e6f6e6578697374656e742069640000604482015290519081900360640190fd5b600061202f848661270f565b845490915081141561204857600080925092505061206a565b600184600101828154811061205957fe5b906000526020600020015492509250505b9250929050565b6001600160a01b0386166120b65760405162461bcd60e51b8152600401808060200182810382526022815260200180612a8d6022913960400191505060405180910390fd5b6001600160a01b038516612111576040805162461bcd60e51b815260206004820181905260248201527f4552433737373a2073656e6420746f20746865207a65726f2061646472657373604482015290519081900360640190fd5b600061211b611648565b905061212b818888888888611738565b612139818888888888611965565b61195c81888888888888611c16565b6000610f7c83836127b0565b6000610f7c836001600160a01b038416612814565b6000610c268261270b565b6001600160a01b0384166121cf576040805162461bcd60e51b815260206004820181905260248201527f4552433737373a206d696e7420746f20746865207a65726f2061646472657373604482015290519081900360640190fd5b60006121d9611648565b90506121e8816000878761263d565b6002546121f59085612696565b6002556001600160a01b03851660009081526001602052604090205461221b9085612696565b60016000876001600160a01b03166001600160a01b0316815260200190815260200160002081905550612255816000878787876001611c16565b846001600160a01b0316816001600160a01b03167f2fe5be0146f74c5bce36c0b80911af6c7d86ff27e89d5cfa61fc681327954e5d868686604051808481526020018060200180602001838103835285818151815260200191508051906020019080838360005b838110156122d45781810151838201526020016122bc565b50505050905090810190601f1680156123015780820380516001836020036101000a031916815260200191505b50838103825284518152845160209182019186019080838360005b8381101561233457818101518382015260200161231c565b50505050905090810190601f1680156123615780820380516001836020036101000a031916815260200191505b509550505050505060405180910390a36040805185815290516001600160a01b038716916000917fddf252ad1be2c89b69c2b068fc378daa952ba7f163c4a11628f55a4df523b3ef9181900360200190a35050505050565b6001600160a01b0384166123fe5760405162461bcd60e51b8152600401808060200182810382526022815260200180612ad66022913960400191505060405180910390fd5b6000612408611648565b9050612417818660008761263d565b61242681866000878787611738565b61246384604051806060016040528060238152602001612c59602391396001600160a01b0388166000908152600160205260409020549190611b7f565b6001600160a01b038616600090815260016020526040902055600254612489908561282c565b600281905550846001600160a01b0316816001600160a01b03167fa78a9be3a7b862d26933ad85fb11d80ef66b8f972d7cbba06621d583943a4098868686604051808481526020018060200180602001838103835285818151815260200191508051906020019080838360005b8381101561250e5781810151838201526020016124f6565b50505050905090810190601f16801561253b5780820380516001836020036101000a031916815260200191505b50838103825284518152845160209182019186019080838360005b8381101561256e578181015183820152602001612556565b50505050905090810190601f16801561259b5780820380516001836020036101000a031916815260200191505b509550505050505060405180910390a36040805185815290516000916001600160a01b038816917fddf252ad1be2c89b69c2b068fc378daa952ba7f163c4a11628f55a4df523b3ef9181900360200190a35050505050565b60006125ff8383612814565b61263557508154600181810184556000848152602080822090930184905584548482528286019093526040902091909155610c26565b506000610c26565b6126498484848461143c565b6001600160a01b03831661266d576126608261286e565b61266861289b565b61143c565b6001600160a01b038216612684576126608361286e565b61268d8361286e565b61143c8261286e565b600082820183811015610f7c576040805162461bcd60e51b815260206004820152601b60248201527f536166654d6174683a206164646974696f6e206f766572666c6f770000000000604482015290519081900360640190fd5b3b151590565b6000610f7c836001600160a01b0384166128aa565b5490565b815460009061272057506000610c26565b82546000905b8082101561276f57600061273a8383612970565b90508486828154811061274957fe5b9060005260206000200154111561276257809150612769565b8060010192505b50612726565b60008211801561279757508385600184038154811061278a57fe5b9060005260206000200154145b156127a85750600019019050610c26565b509050610c26565b815460009082106127f25760405162461bcd60e51b8152600401808060200182810382526022815260200180612a176022913960400191505060405180910390fd5b82600001828154811061280157fe5b9060005260206000200154905092915050565b60009081526001919091016020526040902054151590565b6000610f7c83836040518060400160405280601e81526020017f536166654d6174683a207375627472616374696f6e206f766572666c6f770000815250611b7f565b6001600160a01b0381166000908152600a602052604090206128989061289383610f49565b612995565b50565b6128a8600b612893610c2c565b565b6000818152600183016020526040812054801561296657835460001980830191908101906000908790839081106128dd57fe5b90600052602060002001549050808760000184815481106128fa57fe5b60009182526020808320909101929092558281526001898101909252604090209084019055865487908061292a57fe5b60019003818190600052602060002001600090559055866001016000878152602001908152602001600020600090556001945050505050610c26565b6000915050610c26565b6000600280830660028506018161298357fe5b04600283046002850401019392505050565b60006129a1600d61270b565b9050806129ad846129e1565b101561119d578254600180820185556000858152602080822090930193909355938401805494850181558252902090910155565b80546000906129f257506000610dc2565b815482906000198101908110612a0457fe5b90600052602060002001549050610dc256fe456e756d657261626c655365743a20696e646578206f7574206f6620626f756e6473416363657373436f6e74726f6c3a2073656e646572206d75737420626520616e2061646d696e20746f206772616e744552433737373a20617070726f76652066726f6d20746865207a65726f20616464726573734552433737373a2073656e642066726f6d20746865207a65726f20616464726573734552433737373a207472616e7366657220616d6f756e7420657863656564732062616c616e63654552433737373a206275726e2066726f6d20746865207a65726f20616464726573734552433737373a20617574686f72697a696e672073656c66206173206f70657261746f72416363657373436f6e74726f6c3a2073656e646572206d75737420626520616e2061646d696e20746f207265766f6b654552433737373a207265766f6b696e672073656c66206173206f70657261746f724552433737373a20746f6b656e20726563697069656e7420636f6e747261637420686173206e6f20696d706c656d656e74657220666f7220455243373737546f6b656e73526563697069656e744552433737373a207472616e7366657220746f20746865207a65726f20616464726573734552433737373a2063616c6c6572206973206e6f7420616e206f70657261746f7220666f7220686f6c6465724552433737373a207472616e7366657220616d6f756e74206578636565647320616c6c6f77616e63654552433737373a207472616e736665722066726f6d20746865207a65726f20616464726573734552433737373a206275726e20616d6f756e7420657863656564732062616c616e63654552433737373a20617070726f766520746f20746865207a65726f2061646472657373416363657373436f6e74726f6c3a2063616e206f6e6c792072656e6f756e636520726f6c657320666f722073656c66a2646970667358221220031a294484b6adadec040af36b1cc4ad2f3838b7edd033fbb3c1f4c7f6073ca864736f6c63430007050033",
  "devdoc": {
    "kind": "dev",
    "methods": {
      "allowance(address,address)": {
        "details": "See {IERC20-allowance}. Note that operator and allowance concepts are orthogonal: operators may not have allowance, and accounts with allowance may not be operators themselves."
      },
      "approve(address,uint256)": {
        "details": "See {IERC20-approve}. Note that accounts cannot have allowance issued by their operators."
      },
      "authorizeOperator(address)": {
        "details": "See {IERC777-authorizeOperator}."
      },
      "balanceOf(address)": {
        "details": "Returns the amount of tokens owned by an account (`tokenHolder`)."
      },
      "balanceOfAt(address,uint256)": {
        "details": "Retrieves the balance of `account` at the time `snapshotId` was created."
      },
      "burn(uint256,bytes)": {
        "details": "See {IERC777-burn}. Also emits a {IERC20-Transfer} event for ERC20 compatibility."
      },
      "decimals()": {
        "details": "See {ERC20-decimals}. Always returns 18, as per the [ERC777 EIP](https://eips.ethereum.org/EIPS/eip-777#backward-compatibility)."
      },
      "defaultOperators()": {
        "details": "See {IERC777-defaultOperators}."
      },
      "getRoleAdmin(bytes32)": {
        "details": "Returns the admin role that controls `role`. See {grantRole} and {revokeRole}. To change a role's admin, use {_setRoleAdmin}."
      },
      "getRoleMember(bytes32,uint256)": {
        "details": "Returns one of the accounts that have `role`. `index` must be a value between 0 and {getRoleMemberCount}, non-inclusive. Role bearers are not sorted in any particular way, and their ordering may change at any point. WARNING: When using {getRoleMember} and {getRoleMemberCount}, make sure you perform all queries on the same block. See the following https://forum.openzeppelin.com/t/iterating-over-elements-on-enumerableset-in-openzeppelin-contracts/2296[forum post] for more information."
      },
      "getRoleMemberCount(bytes32)": {
        "details": "Returns the number of accounts that have `role`. Can be used together with {getRoleMember} to enumerate all bearers of a role."
      },
      "grantRole(bytes32,address)": {
        "details": "Grants `role` to `account`. If `account` had not been already granted `role`, emits a {RoleGranted} event. Requirements: - the caller must have ``role``'s admin role."
      },
      "granularity()": {
        "details": "See {IERC777-granularity}. This implementation always returns `1`."
      },
      "hasRole(bytes32,address)": {
        "details": "Returns `true` if `account` has been granted `role`."
      },
      "isOperatorFor(address,address)": {
        "details": "See {IERC777-isOperatorFor}."
      },
      "mint(address,uint256,bytes,bytes)": {
        "details": "Creates `amount` tokens and assigns them to `account`, increasing the total supply. If a send hook is registered for `account`, the corresponding function will be called with `operator`, `data` and `operatorData`. Emits {Minted} and {IERC20-Transfer} events. Requirements - `account` cannot be the zero address. - if `account` is a contract, it must implement the {IERC777Recipient} interface. - `account` must have minter role"
      },
      "name()": {
        "details": "See {IERC777-name}."
      },
      "operatorBurn(address,uint256,bytes,bytes)": {
        "details": "See {IERC777-operatorBurn}. Emits {Burned} and {IERC20-Transfer} events."
      },
      "operatorSend(address,address,uint256,bytes,bytes)": {
        "details": "See {IERC777-operatorSend}. Emits {Sent} and {IERC20-Transfer} events."
      },
      "renounceRole(bytes32,address)": {
        "details": "Revokes `role` from the calling account. Roles are often managed via {grantRole} and {revokeRole}: this function's purpose is to provide a mechanism for accounts to lose their privileges if they are compromised (such as when a trusted device is misplaced). If the calling account had been granted `role`, emits a {RoleRevoked} event. Requirements: - the caller must be `account`."
      },
      "revokeOperator(address)": {
        "details": "See {IERC777-revokeOperator}."
      },
      "revokeRole(bytes32,address)": {
        "details": "Revokes `role` from `account`. If `account` had been granted `role`, emits a {RoleRevoked} event. Requirements: - the caller must have ``role``'s admin role."
      },
      "send(address,uint256,bytes)": {
        "details": "See {IERC777-send}. Also emits a {IERC20-Transfer} event for ERC20 compatibility."
      },
      "symbol()": {
        "details": "See {IERC777-symbol}."
      },
      "totalSupply()": {
        "details": "See {IERC777-totalSupply}."
      },
      "totalSupplyAt(uint256)": {
        "details": "Retrieves the total supply at the time `snapshotId` was created."
      },
      "transfer(address,uint256)": {
        "details": "See {IERC20-transfer}. Unlike `send`, `recipient` is _not_ required to implement the {IERC777Recipient} interface if it is a contract. Also emits a {Sent} event."
      },
      "transferFrom(address,address,uint256)": {
        "details": "See {IERC20-transferFrom}. Note that operator and allowance concepts are orthogonal: operators cannot call `transferFrom` (unless they have allowance), and accounts with allowance cannot call `operatorSend` (unless they are operators). Emits {Sent}, {IERC20-Transfer} and {IERC20-Approval} events."
      }
    },
    "version": 1
  },
  "userdoc": {
    "kind": "user",
    "methods": {},
    "version": 1
  },
  "storageLayout": {
    "storage": [
      {
        "astId": 45,
        "contract": "contracts/HoprToken.sol:HoprToken",
        "label": "_roles",
        "offset": 0,
        "slot": "0",
        "type": "t_mapping(t_bytes32,t_struct(RoleData)41_storage)"
      },
      {
        "astId": 1063,
        "contract": "contracts/HoprToken.sol:HoprToken",
        "label": "_balances",
        "offset": 0,
        "slot": "1",
        "type": "t_mapping(t_address,t_uint256)"
      },
      {
        "astId": 1065,
        "contract": "contracts/HoprToken.sol:HoprToken",
        "label": "_totalSupply",
        "offset": 0,
        "slot": "2",
        "type": "t_uint256"
      },
      {
        "astId": 1067,
        "contract": "contracts/HoprToken.sol:HoprToken",
        "label": "_name",
        "offset": 0,
        "slot": "3",
        "type": "t_string_storage"
      },
      {
        "astId": 1069,
        "contract": "contracts/HoprToken.sol:HoprToken",
        "label": "_symbol",
        "offset": 0,
        "slot": "4",
        "type": "t_string_storage"
      },
      {
        "astId": 1078,
        "contract": "contracts/HoprToken.sol:HoprToken",
        "label": "_defaultOperatorsArray",
        "offset": 0,
        "slot": "5",
        "type": "t_array(t_address)dyn_storage"
      },
      {
        "astId": 1082,
        "contract": "contracts/HoprToken.sol:HoprToken",
        "label": "_defaultOperators",
        "offset": 0,
        "slot": "6",
        "type": "t_mapping(t_address,t_bool)"
      },
      {
        "astId": 1088,
        "contract": "contracts/HoprToken.sol:HoprToken",
        "label": "_operators",
        "offset": 0,
        "slot": "7",
        "type": "t_mapping(t_address,t_mapping(t_address,t_bool))"
      },
      {
        "astId": 1094,
        "contract": "contracts/HoprToken.sol:HoprToken",
        "label": "_revokedDefaultOperators",
        "offset": 0,
        "slot": "8",
        "type": "t_mapping(t_address,t_mapping(t_address,t_bool))"
      },
      {
        "astId": 1100,
        "contract": "contracts/HoprToken.sol:HoprToken",
        "label": "_allowances",
        "offset": 0,
        "slot": "9",
        "type": "t_mapping(t_address,t_mapping(t_address,t_uint256))"
      },
      {
        "astId": 3220,
        "contract": "contracts/HoprToken.sol:HoprToken",
        "label": "_accountBalanceSnapshots",
        "offset": 0,
        "slot": "10",
        "type": "t_mapping(t_address,t_struct(Snapshots)3216_storage)"
      },
      {
        "astId": 3222,
        "contract": "contracts/HoprToken.sol:HoprToken",
        "label": "_totalSupplySnapshots",
        "offset": 0,
        "slot": "11",
        "type": "t_struct(Snapshots)3216_storage"
      },
      {
        "astId": 3224,
        "contract": "contracts/HoprToken.sol:HoprToken",
        "label": "_currentSnapshotId",
        "offset": 0,
        "slot": "13",
        "type": "t_struct(Counter)2669_storage"
      }
    ],
    "types": {
      "t_address": {
        "encoding": "inplace",
        "label": "address",
        "numberOfBytes": "20"
      },
      "t_array(t_address)dyn_storage": {
        "base": "t_address",
        "encoding": "dynamic_array",
        "label": "address[]",
        "numberOfBytes": "32"
      },
      "t_array(t_bytes32)dyn_storage": {
        "base": "t_bytes32",
        "encoding": "dynamic_array",
        "label": "bytes32[]",
        "numberOfBytes": "32"
      },
      "t_array(t_uint256)dyn_storage": {
        "base": "t_uint256",
        "encoding": "dynamic_array",
        "label": "uint256[]",
        "numberOfBytes": "32"
      },
      "t_bool": {
        "encoding": "inplace",
        "label": "bool",
        "numberOfBytes": "1"
      },
      "t_bytes32": {
        "encoding": "inplace",
        "label": "bytes32",
        "numberOfBytes": "32"
      },
      "t_mapping(t_address,t_bool)": {
        "encoding": "mapping",
        "key": "t_address",
        "label": "mapping(address => bool)",
        "numberOfBytes": "32",
        "value": "t_bool"
      },
      "t_mapping(t_address,t_mapping(t_address,t_bool))": {
        "encoding": "mapping",
        "key": "t_address",
        "label": "mapping(address => mapping(address => bool))",
        "numberOfBytes": "32",
        "value": "t_mapping(t_address,t_bool)"
      },
      "t_mapping(t_address,t_mapping(t_address,t_uint256))": {
        "encoding": "mapping",
        "key": "t_address",
        "label": "mapping(address => mapping(address => uint256))",
        "numberOfBytes": "32",
        "value": "t_mapping(t_address,t_uint256)"
      },
      "t_mapping(t_address,t_struct(Snapshots)3216_storage)": {
        "encoding": "mapping",
        "key": "t_address",
        "label": "mapping(address => struct ERC777Snapshot.Snapshots)",
        "numberOfBytes": "32",
        "value": "t_struct(Snapshots)3216_storage"
      },
      "t_mapping(t_address,t_uint256)": {
        "encoding": "mapping",
        "key": "t_address",
        "label": "mapping(address => uint256)",
        "numberOfBytes": "32",
        "value": "t_uint256"
      },
      "t_mapping(t_bytes32,t_struct(RoleData)41_storage)": {
        "encoding": "mapping",
        "key": "t_bytes32",
        "label": "mapping(bytes32 => struct AccessControl.RoleData)",
        "numberOfBytes": "32",
        "value": "t_struct(RoleData)41_storage"
      },
      "t_mapping(t_bytes32,t_uint256)": {
        "encoding": "mapping",
        "key": "t_bytes32",
        "label": "mapping(bytes32 => uint256)",
        "numberOfBytes": "32",
        "value": "t_uint256"
      },
      "t_string_storage": {
        "encoding": "bytes",
        "label": "string",
        "numberOfBytes": "32"
      },
      "t_struct(AddressSet)2985_storage": {
        "encoding": "inplace",
        "label": "struct EnumerableSet.AddressSet",
        "members": [
          {
            "astId": 2984,
            "contract": "contracts/HoprToken.sol:HoprToken",
            "label": "_inner",
            "offset": 0,
            "slot": "0",
            "type": "t_struct(Set)2720_storage"
          }
        ],
        "numberOfBytes": "64"
      },
      "t_struct(Counter)2669_storage": {
        "encoding": "inplace",
        "label": "struct Counters.Counter",
        "members": [
          {
            "astId": 2668,
            "contract": "contracts/HoprToken.sol:HoprToken",
            "label": "_value",
            "offset": 0,
            "slot": "0",
            "type": "t_uint256"
          }
        ],
        "numberOfBytes": "32"
      },
      "t_struct(RoleData)41_storage": {
        "encoding": "inplace",
        "label": "struct AccessControl.RoleData",
        "members": [
          {
            "astId": 38,
            "contract": "contracts/HoprToken.sol:HoprToken",
            "label": "members",
            "offset": 0,
            "slot": "0",
            "type": "t_struct(AddressSet)2985_storage"
          },
          {
            "astId": 40,
            "contract": "contracts/HoprToken.sol:HoprToken",
            "label": "adminRole",
            "offset": 0,
            "slot": "2",
            "type": "t_bytes32"
          }
        ],
        "numberOfBytes": "96"
      },
      "t_struct(Set)2720_storage": {
        "encoding": "inplace",
        "label": "struct EnumerableSet.Set",
        "members": [
          {
            "astId": 2715,
            "contract": "contracts/HoprToken.sol:HoprToken",
            "label": "_values",
            "offset": 0,
            "slot": "0",
            "type": "t_array(t_bytes32)dyn_storage"
          },
          {
            "astId": 2719,
            "contract": "contracts/HoprToken.sol:HoprToken",
            "label": "_indexes",
            "offset": 0,
            "slot": "1",
            "type": "t_mapping(t_bytes32,t_uint256)"
          }
        ],
        "numberOfBytes": "64"
      },
      "t_struct(Snapshots)3216_storage": {
        "encoding": "inplace",
        "label": "struct ERC777Snapshot.Snapshots",
        "members": [
          {
            "astId": 3212,
            "contract": "contracts/HoprToken.sol:HoprToken",
            "label": "ids",
            "offset": 0,
            "slot": "0",
            "type": "t_array(t_uint256)dyn_storage"
          },
          {
            "astId": 3215,
            "contract": "contracts/HoprToken.sol:HoprToken",
            "label": "values",
            "offset": 0,
            "slot": "1",
            "type": "t_array(t_uint256)dyn_storage"
          }
        ],
        "numberOfBytes": "64"
      },
      "t_uint256": {
        "encoding": "inplace",
        "label": "uint256",
        "numberOfBytes": "32"
      }
    }
  }
}