{
  "address": "0x902602174a9cEb452f60c09043BE5EBC52096200",
  "abi": [
    {
      "inputs": [
        {
          "internalType": "address",
          "name": "_token",
          "type": "address"
        },
        {
          "internalType": "uint256",
          "name": "_secsClosure",
          "type": "uint256"
        }
      ],
      "stateMutability": "nonpayable",
      "type": "constructor"
    },
    {
      "anonymous": false,
      "inputs": [
        {
          "indexed": true,
          "internalType": "address",
          "name": "account",
          "type": "address"
        },
        {
          "indexed": false,
          "internalType": "uint256",
          "name": "pubKeyFirstHalf",
          "type": "uint256"
        },
        {
          "indexed": false,
          "internalType": "uint256",
          "name": "pubKeySecondHalf",
          "type": "uint256"
        }
      ],
      "name": "AccountInitialized",
      "type": "event"
    },
    {
      "anonymous": false,
      "inputs": [
        {
          "indexed": true,
          "internalType": "address",
          "name": "account",
          "type": "address"
        },
        {
          "indexed": false,
          "internalType": "bytes32",
          "name": "secret",
          "type": "bytes32"
        }
      ],
      "name": "AccountSecretUpdated",
      "type": "event"
    },
    {
      "anonymous": false,
      "inputs": [
        {
          "indexed": true,
          "internalType": "address",
          "name": "initiator",
          "type": "address"
        },
        {
          "indexed": true,
          "internalType": "address",
          "name": "counterparty",
          "type": "address"
        },
        {
          "indexed": false,
          "internalType": "uint256",
          "name": "partyAAmount",
          "type": "uint256"
        },
        {
          "indexed": false,
          "internalType": "uint256",
          "name": "partyBAmount",
          "type": "uint256"
        }
      ],
      "name": "ChannelClosed",
      "type": "event"
    },
    {
      "anonymous": false,
      "inputs": [
        {
          "indexed": true,
          "internalType": "address",
          "name": "accountA",
          "type": "address"
        },
        {
          "indexed": true,
          "internalType": "address",
          "name": "accountB",
          "type": "address"
        },
        {
          "indexed": false,
          "internalType": "address",
          "name": "funder",
          "type": "address"
        },
        {
          "indexed": false,
          "internalType": "uint256",
          "name": "deposit",
          "type": "uint256"
        },
        {
          "indexed": false,
          "internalType": "uint256",
          "name": "partyABalance",
          "type": "uint256"
        }
      ],
      "name": "ChannelFunded",
      "type": "event"
    },
    {
      "anonymous": false,
      "inputs": [
        {
          "indexed": true,
          "internalType": "address",
          "name": "opener",
          "type": "address"
        },
        {
          "indexed": true,
          "internalType": "address",
          "name": "counterparty",
          "type": "address"
        }
      ],
      "name": "ChannelOpened",
      "type": "event"
    },
    {
      "anonymous": false,
      "inputs": [
        {
          "indexed": true,
          "internalType": "address",
          "name": "initiator",
          "type": "address"
        },
        {
          "indexed": true,
          "internalType": "address",
          "name": "counterparty",
          "type": "address"
        },
        {
          "indexed": false,
          "internalType": "uint256",
          "name": "closureTime",
          "type": "uint256"
        }
      ],
      "name": "ChannelPendingToClose",
      "type": "event"
    },
    {
      "inputs": [],
      "name": "TOKENS_RECIPIENT_INTERFACE_HASH",
      "outputs": [
        {
          "internalType": "bytes32",
          "name": "",
          "type": "bytes32"
        }
      ],
      "stateMutability": "view",
      "type": "function"
    },
    {
      "inputs": [
        {
          "internalType": "address",
          "name": "",
          "type": "address"
        }
      ],
      "name": "accounts",
      "outputs": [
        {
          "internalType": "bytes32",
          "name": "secret",
          "type": "bytes32"
        },
        {
          "internalType": "uint256",
          "name": "counter",
          "type": "uint256"
        }
      ],
      "stateMutability": "view",
      "type": "function"
    },
    {
      "inputs": [
        {
          "internalType": "bytes32",
          "name": "interfaceHash",
          "type": "bytes32"
        },
        {
          "internalType": "address",
          "name": "account",
          "type": "address"
        }
      ],
      "name": "canImplementInterfaceForAddress",
      "outputs": [
        {
          "internalType": "bytes32",
          "name": "",
          "type": "bytes32"
        }
      ],
      "stateMutability": "view",
      "type": "function"
    },
    {
      "inputs": [
        {
          "internalType": "bytes32",
          "name": "",
          "type": "bytes32"
        }
      ],
      "name": "channels",
      "outputs": [
        {
          "internalType": "uint256",
          "name": "deposit",
          "type": "uint256"
        },
        {
          "internalType": "uint256",
          "name": "partyABalance",
          "type": "uint256"
        },
        {
          "internalType": "uint256",
          "name": "closureTime",
          "type": "uint256"
        },
        {
          "internalType": "uint256",
          "name": "status",
          "type": "uint256"
        },
        {
          "internalType": "bool",
          "name": "closureByPartyA",
          "type": "bool"
        }
      ],
      "stateMutability": "view",
      "type": "function"
    },
    {
      "inputs": [
        {
          "internalType": "address",
          "name": "counterparty",
          "type": "address"
        }
      ],
      "name": "finalizeChannelClosure",
      "outputs": [],
      "stateMutability": "nonpayable",
      "type": "function"
    },
    {
      "inputs": [
        {
          "internalType": "address",
          "name": "accountA",
          "type": "address"
        },
        {
          "internalType": "address",
          "name": "accountB",
          "type": "address"
        },
        {
          "internalType": "uint256",
          "name": "amountA",
          "type": "uint256"
        },
        {
          "internalType": "uint256",
          "name": "amountB",
          "type": "uint256"
        }
      ],
      "name": "fundAndOpenChannel",
      "outputs": [],
      "stateMutability": "nonpayable",
      "type": "function"
    },
    {
      "inputs": [
        {
          "internalType": "address",
          "name": "accountA",
          "type": "address"
        },
        {
          "internalType": "address",
          "name": "accountB",
          "type": "address"
        },
        {
          "internalType": "uint256",
          "name": "amountA",
          "type": "uint256"
        },
        {
          "internalType": "uint256",
          "name": "amountB",
          "type": "uint256"
        }
      ],
      "name": "fundChannel",
      "outputs": [],
      "stateMutability": "nonpayable",
      "type": "function"
    },
    {
      "inputs": [
        {
          "internalType": "bytes32",
          "name": "secret",
          "type": "bytes32"
        },
        {
          "internalType": "uint256",
          "name": "pubKeyFirstHalf",
          "type": "uint256"
        },
        {
          "internalType": "uint256",
          "name": "pubKeySecondHalf",
          "type": "uint256"
        }
      ],
      "name": "initializeAccount",
      "outputs": [],
      "stateMutability": "nonpayable",
      "type": "function"
    },
    {
      "inputs": [
        {
          "internalType": "address",
          "name": "counterparty",
          "type": "address"
        }
      ],
      "name": "initiateChannelClosure",
      "outputs": [],
      "stateMutability": "nonpayable",
      "type": "function"
    },
    {
      "inputs": [
        {
          "internalType": "address",
          "name": "counterparty",
          "type": "address"
        }
      ],
      "name": "openChannel",
      "outputs": [],
      "stateMutability": "nonpayable",
      "type": "function"
    },
    {
      "inputs": [
        {
          "internalType": "address",
          "name": "counterparty",
          "type": "address"
        },
        {
          "internalType": "bytes32",
          "name": "secretPreImage",
          "type": "bytes32"
        },
        {
          "internalType": "bytes32",
          "name": "proofOfRelaySecret",
          "type": "bytes32"
        },
        {
          "internalType": "uint256",
          "name": "amount",
          "type": "uint256"
        },
        {
          "internalType": "bytes32",
          "name": "winProb",
          "type": "bytes32"
        },
        {
          "internalType": "bytes32",
          "name": "r",
          "type": "bytes32"
        },
        {
          "internalType": "bytes32",
          "name": "s",
          "type": "bytes32"
        },
        {
          "internalType": "uint8",
          "name": "v",
          "type": "uint8"
        }
      ],
      "name": "redeemTicket",
      "outputs": [],
      "stateMutability": "nonpayable",
      "type": "function"
    },
    {
      "inputs": [],
      "name": "secsClosure",
      "outputs": [
        {
          "internalType": "uint256",
          "name": "",
          "type": "uint256"
        }
      ],
      "stateMutability": "view",
      "type": "function"
    },
    {
      "inputs": [
        {
          "internalType": "bytes32",
          "name": "",
          "type": "bytes32"
        }
      ],
      "name": "tickets",
      "outputs": [
        {
          "internalType": "bool",
          "name": "",
          "type": "bool"
        }
      ],
      "stateMutability": "view",
      "type": "function"
    },
    {
      "inputs": [],
      "name": "token",
      "outputs": [
        {
          "internalType": "contract IERC20",
          "name": "",
          "type": "address"
        }
      ],
      "stateMutability": "view",
      "type": "function"
    },
    {
      "inputs": [
        {
          "internalType": "address",
          "name": "operator",
          "type": "address"
        },
        {
          "internalType": "address",
          "name": "from",
          "type": "address"
        },
        {
          "internalType": "address",
          "name": "to",
          "type": "address"
        },
        {
          "internalType": "uint256",
          "name": "amount",
          "type": "uint256"
        },
        {
          "internalType": "bytes",
          "name": "userData",
          "type": "bytes"
        },
        {
          "internalType": "bytes",
          "name": "operatorData",
          "type": "bytes"
        }
      ],
      "name": "tokensReceived",
      "outputs": [],
      "stateMutability": "nonpayable",
      "type": "function"
    },
    {
      "inputs": [
        {
          "internalType": "bytes32",
          "name": "secret",
          "type": "bytes32"
        }
      ],
      "name": "updateAccount",
      "outputs": [],
      "stateMutability": "nonpayable",
      "type": "function"
    }
  ],
  "transactionHash": "0x8df24f7dacea176ffe67b1144b85eaf4ad8dedafe3b915475807cf7422197b03",
  "args": [
    "0x66DB78F4ADD912a6Cb92b672Dfa09028ecc3085E",
    60
  ],
  "solcInputHash": "eaefbf7e512f526af1a82308ddbaf14e",
  "bytecode": "0x608060405234801561001057600080fd5b50604051611e31380380611e318339818101604052604081101561003357600080fd5b508051602090910151600580546001600160a01b0384166001600160a01b03199091161790556002819055604080517f455243373737546f6b656e73526563697069656e740000000000000000000000815281519081900360150181206329965a1d60e01b82523060048301819052602483019190915260448201529051731820a4b7618bde71dce8cdc73aab6c95905fad24916329965a1d91606480830192600092919082900301818387803b1580156100ed57600080fd5b505af1158015610101573d6000803e3d6000fd5b505050505050611d1b806101166000396000f3fe608060405234801561001057600080fd5b50600436106100ff5760003560e01c806372581cc011610097578063c6400a2b11610066578063c6400a2b146103bb578063c8cb8df5146103f7578063df0dd0d51461044b578063fc0c546a1461047c576100ff565b806372581cc0146103265780637a7ebd7b1461032e5780637c2101ca14610378578063b4037e8014610395576100ff565b80632abb5e9d116100d35780632abb5e9d1461025c5780633da79ce8146102825780635e5c06e2146102ab5780636c49a38e146102ea576100ff565b806223de2914610104578063075e389f146101f0578063249cb3fa14610216578063275621d114610254575b600080fd5b6101ee600480360360c081101561011a57600080fd5b6001600160a01b03823581169260208101358216926040820135909216916060820135919081019060a08101608082013564010000000081111561015d57600080fd5b82018360208201111561016f57600080fd5b8035906020019184600183028401116401000000008311171561019157600080fd5b9193909290916020810190356401000000008111156101af57600080fd5b8201836020820111156101c157600080fd5b803590602001918460018302840111640100000000831117156101e357600080fd5b5090925090506104a0565b005b6101ee6004803603602081101561020657600080fd5b50356001600160a01b0316610555565b6102426004803603604081101561022c57600080fd5b50803590602001356001600160a01b031661056f565b60408051918252519081900360200190f35b6102426105e4565b6101ee6004803603602081101561027257600080fd5b50356001600160a01b03166105ea565b6101ee6004803603606081101561029857600080fd5b50803590602081013590604001356105f4565b6102d1600480360360208110156102c157600080fd5b50356001600160a01b0316610605565b6040805192835260208301919091528051918290030190f35b6101ee6004803603608081101561030057600080fd5b506001600160a01b0381358116916020810135909116906040810135906060013561061e565b6102426106c7565b61034b6004803603602081101561034457600080fd5b50356106f4565b60408051958652602086019490945284840192909252606084015215156080830152519081900360a00190f35b6101ee6004803603602081101561038e57600080fd5b5035610727565b6101ee600480360360208110156103ab57600080fd5b50356001600160a01b0316610731565b6101ee600480360360808110156103d157600080fd5b506001600160a01b0381358116916020810135909116906040810135906060013561073b565b6101ee600480360361010081101561040e57600080fd5b5080356001600160a01b03169060208101359060408101359060608101359060808101359060a08101359060c08101359060e0013560ff1661074e565b6104686004803603602081101561046157600080fd5b503561075f565b604080519115158252519081900360200190f35b610484610774565b604080516001600160a01b039092168252519081900360200190f35b6005546001600160a01b031633146104ff576040805162461bcd60e51b815260206004820152601860248201527f63616c6c6572206d75737420626520486f7072546f6b656e0000000000000000604482015290519081900360640190fd5b6001600160a01b038816301461054b576000808585604081101561052257600080fd5b506001600160a01b038135811693506020909101351690506105488983838a6000610783565b50505b5050505050505050565b60055461056c906001600160a01b03163383610956565b50565b6000828152602081815260408083206001600160a01b038516845290915281205460ff1661059e5760006105dd565b604051602001808073455243313832305f4143434550545f4d4147494360601b8152506014019050604051602081830303815290604052805190602001205b9392505050565b60025481565b61056c3382610d9b565b61060033838386610faa565b505050565b6001602081905260009182526040909120805491015482565b336001600160a01b0385168114806106475750836001600160a01b0316816001600160a01b0316145b6106825760405162461bcd60e51b8152600401808060200182810382526023815260200180611c3f6023913960400191505060405180910390fd5b6000856001600160a01b0316826001600160a01b031614156106a55750836106a8565b50845b6106b58287878787610783565b6106bf8282610d9b565b505050505050565b6040805174115490cdcdcdd51bdad95b9cd49958da5c1a595b9d605a1b8152905190819003601501902081565b60036020819052600091825260409091208054600182015460028301549383015460049093015491939092909160ff1685565b61056c3382611056565b61056c3382611153565b6107483385858585610783565b50505050565b61054b338989898989898989611362565b60046020526000908152604090205460ff1681565b6005546001600160a01b031681565b826001600160a01b0316846001600160a01b031614156107d45760405162461bcd60e51b815260040180806020018281038252602a815260200180611ae5602a913960400191505060405180910390fd5b6001600160a01b03841661082f576040805162461bcd60e51b815260206004820152601a60248201527f6163636f756e7441206d757374206e6f7420626520656d707479000000000000604482015290519081900360640190fd5b6001600160a01b03831661088a576040805162461bcd60e51b815260206004820152601a60248201527f6163636f756e7442206d757374206e6f7420626520656d707479000000000000604482015290519081900360640190fd5b60008211806108995750600081115b6108d45760405162461bcd60e51b8152600401808060200182810382526029815260200180611cbd6029913960400191505060405180910390fd5b60006108e085856115e1565b805487870101808255600182018054890190819055604080516001600160a01b038e8116825260208201949094528082019290925251929650818a169550908a1693507f074d4367955152e97ae53474f3e30b8042462b3dd1169333c66a590386671fba925081900360600190a3505050505050565b6001600160a01b0383166109b1576040805162461bcd60e51b815260206004820152601760248201527f746f6b656e206d757374206e6f7420626520656d707479000000000000000000604482015290519081900360640190fd5b806001600160a01b0316826001600160a01b03161415610a025760405162461bcd60e51b815260040180806020018281038252602f815260200180611c62602f913960400191505060405180910390fd5b6001600160a01b038216610a5d576040805162461bcd60e51b815260206004820152601b60248201527f696e69746961746f72206d757374206e6f7420626520656d7074790000000000604482015290519081900360640190fd5b6001600160a01b038116610ab8576040805162461bcd60e51b815260206004820152601e60248201527f636f756e7465727061727479206d757374206e6f7420626520656d7074790000604482015290519081900360640190fd5b6000806000610ac785856115e1565b935050925092506000610add8260030154611623565b90506002816002811115610aed57fe5b14610b3f576040805162461bcd60e51b815260206004820181905260248201527f6368616e6e656c206d7573742062652070656e64696e6720746f20636c6f7365604482015290519081900360640190fd5b600482015460ff168015610b645750836001600160a01b0316866001600160a01b0316145b80610b905750600482015460ff16158015610b905750826001600160a01b0316866001600160a01b0316145b15610bed5742826002015410610bed576040805162461bcd60e51b815260206004820152601e60248201527f636c6f7375726554696d65206d757374206265206265666f7265206e6f770000604482015290519081900360640190fd5b600182015482548190038115610c8a57886001600160a01b031663a9059cbb87846040518363ffffffff1660e01b815260040180836001600160a01b03166001600160a01b0316815260200182815260200192505050602060405180830381600087803b158015610c5d57600080fd5b505af1158015610c71573d6000803e3d6000fd5b505050506040513d6020811015610c8757600080fd5b50505b8015610d1d57886001600160a01b031663a9059cbb86836040518363ffffffff1660e01b815260040180836001600160a01b03166001600160a01b0316815260200182815260200192505050602060405180830381600087803b158015610cf057600080fd5b505af1158015610d04573d6000803e3d6000fd5b505050506040513d6020811015610d1a57600080fd5b50505b6003840180546008019055600080855560018501819055600285015560048401805460ff19169055604080518381526020810183905281516001600160a01b03808b1693908c16927f8e096653b2e51f16fbc2f7c554ace94c1938ee5da0815dbcce55d3d03e319260929081900390910190a3505050505050505050565b806001600160a01b0316826001600160a01b03161415610dec5760405162461bcd60e51b815260040180806020018281038252602c815260200180611c91602c913960400191505060405180910390fd5b6001600160a01b038216610e47576040805162461bcd60e51b815260206004820152601860248201527f6f70656e6572206d757374206e6f7420626520656d7074790000000000000000604482015290519081900360640190fd5b6001600160a01b038116610ea2576040805162461bcd60e51b815260206004820152601e60248201527f636f756e7465727061727479206d757374206e6f7420626520656d7074790000604482015290519081900360640190fd5b6000610eae83836115e1565b93505050506000816000015411610f05576040805162461bcd60e51b815260206004820152601660248201527518da185b9b995b081b5d5cdd08189948199d5b99195960521b604482015290519081900360640190fd5b6000610f148260030154611623565b90506000816002811115610f2457fe5b14610f605760405162461bcd60e51b8152600401808060200182810382526027815260200180611baf6027913960400191505060405180910390fd5b60038201805460010190556040516001600160a01b0380851691908616907fdd90f938230335e59dc925c57ecb0e27a28c2d87356e31f00cd5554abd6c1b2d90600090a350505050565b836001600160a01b0316610fbe848461163a565b6001600160a01b0316146110035760405162461bcd60e51b8152600401808060200182810382526021815260200180611b376021913960400191505060405180910390fd5b61100d8482611056565b604080518481526020810184905281516001600160a01b038716927f2b22861a1ef88f6a07c435dd5b2979a60ebb1c487b1f2e5498d78c07dcd787ef928290030190a250505050565b806110a8576040805162461bcd60e51b815260206004820152601860248201527f736563726574206d757374206e6f7420626520656d7074790000000000000000604482015290519081900360640190fd5b6001600160a01b038216600090815260016020526040902080548214156111005760405162461bcd60e51b8152600401808060200182810382526025815260200180611c1a6025913960400191505060405180910390fd5b8181556001808201805490910190556040805183815290516001600160a01b038516917fde6c2e081309e5fa1ad76048c881e5c55a38b51661915a26b58ce40065fc66af919081900360200190a2505050565b806001600160a01b0316826001600160a01b031614156111a45760405162461bcd60e51b815260040180806020018281038252602f815260200180611c62602f913960400191505060405180910390fd5b6001600160a01b0382166111ff576040805162461bcd60e51b815260206004820152601b60248201527f696e69746961746f72206d757374206e6f7420626520656d7074790000000000604482015290519081900360640190fd5b6001600160a01b03811661125a576040805162461bcd60e51b815260206004820152601e60248201527f636f756e7465727061727479206d757374206e6f7420626520656d7074790000604482015290519081900360640190fd5b600061126683836115e1565b9350505050600061127a8260030154611623565b9050600181600281111561128a57fe5b146112d3576040805162461bcd60e51b815260206004820152601460248201527331b430b73732b61036bab9ba1031329037b832b760611b604482015290519081900360640190fd5b60028054420190830155600382018054600101905560006112f485856116cd565b9050801561130c5760048301805460ff191660011790555b836001600160a01b0316856001600160a01b03167fd69791bd3750bf9f659220208e4228b8170380f08ffbfc5b88b37c1d594bf94485600201546040518082815260200191505060405180910390a35050505050565b6001600160a01b03891660009081526001602090815260409182902082518083018b9052835180820384018152908401909352825192909101919091208154146113dd5760405162461bcd60e51b8152600401808060200182810382526035815260200180611b7a6035913960400191505060405180910390fd5b60006113e98b8b6115e1565b9350600092506113f7915050565b6114048260030154611623565b600281111561140f57fe5b141561144c5760405162461bcd60e51b8152600401808060200182810382526028815260200180611b0f6028913960400191505060405180910390fd5b600061147461146f8d85600101548c61146887600301546116de565b8d8d6116e8565b611760565b60008181526004602052604090205490915060ff16156114db576040805162461bcd60e51b815260206004820152601d60248201527f7469636b6574206d757374206e6f742062652075736564207477696365000000604482015290519081900360640190fd5b8a6001600160a01b03166114f182888888611787565b6001600160a01b0316146115365760405162461bcd60e51b8152600401808060200182810382526022815260200180611bf86022913960400191505060405180910390fd5b86611543828c8c84611905565b111561158d576040805162461bcd60e51b81526020600482015260146024820152733a34b1b5b2ba1036bab9ba1031329030903bb4b760611b604482015290519081900360640190fd5b8983556000818152600460205260409020805460ff191660011790556115b38c8c6116cd565b156115c757600182018054890190556115d3565b60018201805489900390555b505050505050505050505050565b6000806000806000806115f48888611943565b915091506000611604838361196c565b6000818152600360205260409020939a92995097509195509350505050565b6000600a8206600281111561163457fe5b92915050565b600061164683836119b3565b611697576040805162461bcd60e51b815260206004820152601b60248201527f506f696e74206d757374206265206f6e207468652063757276652e0000000000604482015290519081900360640190fd5b5060408051602080820194909452808201929092528051808303820181526060909201905280519101206001600160a01b031690565b6001600160a01b0390811691161090565b600a900460010190565b6040805160208082019690965281518082038701815281830183528051960195909520606097881b6bffffffffffffffffffffffff1916978601979097526074850196909652609484019490945260b483015260d482019290925260f480820192909252825180820390920182526101140190915290565b60006116346040518060400160405280600381526020016231383760e81b815250836119e7565b60007f7fffffffffffffffffffffffffffffff5d576e7357a4501ddfe92f46681b20a08311156117e85760405162461bcd60e51b8152600401808060200182810382526022815260200180611b586022913960400191505060405180910390fd5b8160ff16601b1415801561180057508160ff16601c14155b1561183c5760405162461bcd60e51b8152600401808060200182810382526022815260200180611bd66022913960400191505060405180910390fd5b604080516000808252602080830180855289905260ff86168385015260608301889052608083018790529251909260019260a080820193601f1981019281900390910190855afa158015611894573d6000803e3d6000fd5b5050604051601f1901519150506001600160a01b0381166118fc576040805162461bcd60e51b815260206004820152601860248201527f45434453413a20696e76616c6964207369676e61747572650000000000000000604482015290519081900360640190fd5b95945050505050565b604080516020808201969096528082019490945260608401929092526080808401919091528151808403909101815260a09092019052805191012090565b60008061195084846116cd565b1561195f575082905081611965565b50819050825b9250929050565b604080516bffffffffffffffffffffffff19606094851b81166020808401919091529390941b90931660348401528051602881850301815260489093019052815191012090565b6000806401000003d01980856401000003d01987880909600708905060006401000003d01984850991909114949350505050565b6000828260405160200180807f19457468657265756d205369676e6564204d6573736167653a0a000000000000815250601a0183805190602001908083835b60208310611a455780518252601f199092019160209182019101611a26565b51815160209384036101000a6000190180199092169116179052661213d4149b995d60ca1b919093019081528451600790910192850191508083835b60208310611aa05780518252601f199092019160209182019101611a81565b6001836020036101000a038019825116818451168082178552505050505050905001925050506040516020818303038152906040528051906020012090509291505056fe6163636f756e744120616e64206163636f756e7442206d757374206e6f74206265207468652073616d656368616e6e656c206d757374206265206f70656e206f722070656e64696e6720746f20636c6f73657075626c6963206b657920646f6573206e6f74206d61746368206163636f756e7445434453413a20696e76616c6964207369676e6174757265202773272076616c7565736563726574507265496d616765206d757374206265207468652068617368206f6620726563697069656e742773207365637265746368616e6e656c206d75737420626520636c6f73656420696e206f7264657220746f206f70656e45434453413a20696e76616c6964207369676e6174757265202776272076616c75657369676e6572206d757374206d617463682074686520636f756e7465727061727479736563726574206d757374206e6f74206265207468652073616d65206173206265666f72656f70656e6572206d757374206265206163636f756e7441206f72206163636f756e7442696e69746961746f7220616e6420636f756e7465727061727479206d757374206e6f74206265207468652073616d656f70656e657220616e6420636f756e7465727061727479206d757374206e6f74206265207468652073616d65616d6f756e7441206f7220616d6f756e7442206d7573742062652067726561746572207468616e2030a26469706673582212209bf38bd7c0acdfa2ac248ba3d8b1622969399ead817f5197a962dfaf86848e8d64736f6c63430006060033",
  "devdoc": {
    "methods": {
      "constructor": {
        "params": {
          "_secsClosure": "seconds until a channel can be closed",
          "_token": "HoprToken address"
        }
      },
      "finalizeChannelClosure(address)": {
        "details": "Finalize channel closure, if cool-off period is over it will close the channel and transfer funds to the parties involved, then emits {ChannelClosed} event.",
        "params": {
          "counterparty": "the address of the counterparty"
        }
      },
      "fundAndOpenChannel(address,address,uint256,uint256)": {
        "details": "Fund channel and then open it, then emits {ChannelFunded} and {ChannelOpened} events.",
        "params": {
          "accountA": "the address of accountA",
          "accountB": "the address of accountB",
          "amountA": "amount to fund accountA",
          "amountB": "amount to fund accountB"
        }
      },
      "fundChannel(address,address,uint256,uint256)": {
        "details": "Funds a channel, then emits {ChannelFunded} event.",
        "params": {
          "accountA": "the address of accountA",
          "accountB": "the address of accountB",
          "amountA": "amount to fund accountA",
          "amountB": "amount to fund accountB"
        }
      },
      "initializeAccount(bytes32,uint256,uint256)": {
        "details": "Initializes an account, stores it's public key, secret and counter, then emits {AccountInitialized} and {AccountSecretUpdated} events.",
        "params": {
          "pubKeyFirstHalf": "first half of the public key",
          "pubKeySecondHalf": "second half of the public key",
          "secret": "account's secret"
        }
      },
      "initiateChannelClosure(address)": {
        "details": "Initialize channel closure, updates channel's closure time, when the cool-off period is over, user may finalize closure, then emits {ChannelPendingToClose} event.",
        "params": {
          "counterparty": "the address of the counterparty"
        }
      },
      "openChannel(address)": {
        "details": "Opens a channel, then emits {ChannelOpened} event.",
        "params": {
          "counterparty": "the address of the counterparty"
        }
      },
      "tokensReceived(address,address,address,uint256,bytes,bytes)": {
        "params": {
          "amount": "uint256 amount of tokens to transfer",
          "from": "address token holder address",
          "operator": "address operator requesting the transfer",
          "operatorData": "bytes extra information provided by the operator (if any)",
          "to": "address recipient address",
          "userData": "bytes extra information provided by the token holder (if any)"
        }
      },
      "updateAccount(bytes32)": {
        "details": "Updates account's secret and counter, then emits {AccountSecretUpdated} event.",
        "params": {
          "secret": "account's secret"
        }
      }
    }
  },
  "userdoc": {
    "methods": {
      "canImplementInterfaceForAddress(bytes32,address)": {
        "notice": "See {IERC1820Implementer-canImplementInterfaceForAddress}."
      },
      "tokensReceived(address,address,address,uint256,bytes,bytes)": {
        "notice": "A hook triggered when HOPR tokens are send to this contract."
      }
    }
  },
  "storageLayout": {
    "storage": [
      {
        "astId": 325,
        "contract": "contracts/HoprChannels/HoprChannels.sol:HoprChannels",
        "label": "_supportedInterfaces",
        "offset": 0,
        "slot": "0",
        "type": "t_mapping(t_bytes32,t_mapping(t_address,t_bool))"
      },
      {
        "astId": 3310,
        "contract": "contracts/HoprChannels/HoprChannels.sol:HoprChannels",
        "label": "accounts",
        "offset": 0,
        "slot": "1",
        "type": "t_mapping(t_address,t_struct(Account)3306_storage)"
      },
      {
        "astId": 3431,
        "contract": "contracts/HoprChannels/HoprChannels.sol:HoprChannels",
        "label": "secsClosure",
        "offset": 0,
        "slot": "2",
        "type": "t_uint256"
      },
      {
        "astId": 3435,
        "contract": "contracts/HoprChannels/HoprChannels.sol:HoprChannels",
        "label": "channels",
        "offset": 0,
        "slot": "3",
        "type": "t_mapping(t_bytes32,t_struct(Channel)3429_storage)"
      },
      {
        "astId": 4365,
        "contract": "contracts/HoprChannels/HoprChannels.sol:HoprChannels",
        "label": "tickets",
        "offset": 0,
        "slot": "4",
        "type": "t_mapping(t_bytes32,t_bool)"
      },
      {
        "astId": 4073,
        "contract": "contracts/HoprChannels/HoprChannels.sol:HoprChannels",
        "label": "token",
        "offset": 0,
        "slot": "5",
        "type": "t_contract(IERC20)818"
      }
    ],
    "types": {
      "t_address": {
        "encoding": "inplace",
        "label": "address",
        "numberOfBytes": "20"
      },
      "t_bool": {
        "encoding": "inplace",
        "label": "bool",
        "numberOfBytes": "1"
      },
      "t_bytes32": {
        "encoding": "inplace",
        "label": "bytes32",
        "numberOfBytes": "32"
      },
      "t_contract(IERC20)818": {
        "encoding": "inplace",
        "label": "contract IERC20",
        "numberOfBytes": "20"
      },
      "t_mapping(t_address,t_bool)": {
        "encoding": "mapping",
        "key": "t_address",
        "label": "mapping(address => bool)",
        "numberOfBytes": "32",
        "value": "t_bool"
      },
      "t_mapping(t_address,t_struct(Account)3306_storage)": {
        "encoding": "mapping",
        "key": "t_address",
        "label": "mapping(address => struct Accounts.Account)",
        "numberOfBytes": "32",
        "value": "t_struct(Account)3306_storage"
      },
      "t_mapping(t_bytes32,t_bool)": {
        "encoding": "mapping",
        "key": "t_bytes32",
        "label": "mapping(bytes32 => bool)",
        "numberOfBytes": "32",
        "value": "t_bool"
      },
      "t_mapping(t_bytes32,t_mapping(t_address,t_bool))": {
        "encoding": "mapping",
        "key": "t_bytes32",
        "label": "mapping(bytes32 => mapping(address => bool))",
        "numberOfBytes": "32",
        "value": "t_mapping(t_address,t_bool)"
      },
      "t_mapping(t_bytes32,t_struct(Channel)3429_storage)": {
        "encoding": "mapping",
        "key": "t_bytes32",
        "label": "mapping(bytes32 => struct Channels.Channel)",
        "numberOfBytes": "32",
        "value": "t_struct(Channel)3429_storage"
      },
      "t_struct(Account)3306_storage": {
        "encoding": "inplace",
        "label": "struct Accounts.Account",
        "members": [
          {
            "astId": 3303,
            "contract": "contracts/HoprChannels/HoprChannels.sol:HoprChannels",
            "label": "secret",
            "offset": 0,
            "slot": "0",
            "type": "t_bytes32"
          },
          {
            "astId": 3305,
            "contract": "contracts/HoprChannels/HoprChannels.sol:HoprChannels",
            "label": "counter",
            "offset": 0,
            "slot": "1",
            "type": "t_uint256"
          }
        ],
        "numberOfBytes": "64"
      },
      "t_struct(Channel)3429_storage": {
        "encoding": "inplace",
        "label": "struct Channels.Channel",
        "members": [
          {
            "astId": 3420,
            "contract": "contracts/HoprChannels/HoprChannels.sol:HoprChannels",
            "label": "deposit",
            "offset": 0,
            "slot": "0",
            "type": "t_uint256"
          },
          {
            "astId": 3422,
            "contract": "contracts/HoprChannels/HoprChannels.sol:HoprChannels",
            "label": "partyABalance",
            "offset": 0,
            "slot": "1",
            "type": "t_uint256"
          },
          {
            "astId": 3424,
            "contract": "contracts/HoprChannels/HoprChannels.sol:HoprChannels",
            "label": "closureTime",
            "offset": 0,
            "slot": "2",
            "type": "t_uint256"
          },
          {
            "astId": 3426,
            "contract": "contracts/HoprChannels/HoprChannels.sol:HoprChannels",
            "label": "status",
            "offset": 0,
            "slot": "3",
            "type": "t_uint256"
          },
          {
            "astId": 3428,
            "contract": "contracts/HoprChannels/HoprChannels.sol:HoprChannels",
            "label": "closureByPartyA",
            "offset": 0,
            "slot": "4",
            "type": "t_bool"
          }
        ],
        "numberOfBytes": "160"
      },
      "t_uint256": {
        "encoding": "inplace",
        "label": "uint256",
        "numberOfBytes": "32"
      }
    }
  }
}