{
  "address": "0x902602174a9cEb452f60c09043BE5EBC52096200",
  "abi": [
    {
      "inputs": [
        {
          "internalType": "address",
          "name": "_token",
          "type": "address"
        },
        {
          "internalType": "uint32",
          "name": "_secsClosure",
          "type": "uint32"
        }
      ],
      "stateMutability": "nonpayable",
      "type": "constructor"
    },
    {
      "anonymous": false,
      "inputs": [
        {
          "indexed": true,
          "internalType": "address",
          "name": "account",
          "type": "address"
        },
        {
          "indexed": false,
          "internalType": "uint256",
          "name": "pubKeyFirstHalf",
          "type": "uint256"
        },
        {
          "indexed": false,
          "internalType": "uint256",
          "name": "pubKeySecondHalf",
          "type": "uint256"
        }
      ],
      "name": "AccountInitialized",
      "type": "event"
    },
    {
      "anonymous": false,
      "inputs": [
        {
          "indexed": true,
          "internalType": "address",
          "name": "account",
          "type": "address"
        },
        {
          "indexed": false,
          "internalType": "bytes32",
          "name": "secret",
          "type": "bytes32"
        }
      ],
      "name": "AccountSecretUpdated",
      "type": "event"
    },
    {
      "anonymous": false,
      "inputs": [
        {
          "indexed": true,
          "internalType": "address",
          "name": "initiator",
          "type": "address"
        },
        {
          "indexed": true,
          "internalType": "address",
          "name": "counterparty",
          "type": "address"
        },
        {
          "indexed": false,
          "internalType": "uint256",
          "name": "partyAAmount",
          "type": "uint256"
        },
        {
          "indexed": false,
          "internalType": "uint256",
          "name": "partyBAmount",
          "type": "uint256"
        }
      ],
      "name": "ChannelClosed",
      "type": "event"
    },
    {
      "anonymous": false,
      "inputs": [
        {
          "indexed": true,
          "internalType": "address",
          "name": "accountA",
          "type": "address"
        },
        {
          "indexed": true,
          "internalType": "address",
          "name": "accountB",
          "type": "address"
        },
        {
          "indexed": false,
          "internalType": "address",
          "name": "funder",
          "type": "address"
        },
        {
          "indexed": false,
          "internalType": "uint256",
          "name": "deposit",
          "type": "uint256"
        },
        {
          "indexed": false,
          "internalType": "uint256",
          "name": "partyABalance",
          "type": "uint256"
        }
      ],
      "name": "ChannelFunded",
      "type": "event"
    },
    {
      "anonymous": false,
      "inputs": [
        {
          "indexed": true,
          "internalType": "address",
          "name": "opener",
          "type": "address"
        },
        {
          "indexed": true,
          "internalType": "address",
          "name": "counterparty",
          "type": "address"
        }
      ],
      "name": "ChannelOpened",
      "type": "event"
    },
    {
      "anonymous": false,
      "inputs": [
        {
          "indexed": true,
          "internalType": "address",
          "name": "initiator",
          "type": "address"
        },
        {
          "indexed": true,
          "internalType": "address",
          "name": "counterparty",
          "type": "address"
        },
        {
          "indexed": false,
          "internalType": "uint256",
          "name": "closureTime",
          "type": "uint256"
        }
      ],
      "name": "ChannelPendingToClose",
      "type": "event"
    },
    {
      "inputs": [],
      "name": "FUND_CHANNEL_MULTI_SIZE",
      "outputs": [
        {
          "internalType": "uint256",
          "name": "",
          "type": "uint256"
        }
      ],
      "stateMutability": "view",
      "type": "function"
    },
    {
      "inputs": [],
      "name": "FUND_CHANNEL_SIZE",
      "outputs": [
        {
          "internalType": "uint256",
          "name": "",
          "type": "uint256"
        }
      ],
      "stateMutability": "view",
      "type": "function"
    },
    {
      "inputs": [],
      "name": "TOKENS_RECIPIENT_INTERFACE_HASH",
      "outputs": [
        {
          "internalType": "bytes32",
          "name": "",
          "type": "bytes32"
        }
      ],
      "stateMutability": "view",
      "type": "function"
    },
    {
      "inputs": [
        {
          "internalType": "address",
          "name": "",
          "type": "address"
        }
      ],
      "name": "accounts",
      "outputs": [
        {
          "internalType": "bytes32",
          "name": "secret",
          "type": "bytes32"
        },
        {
          "internalType": "uint256",
          "name": "counter",
          "type": "uint256"
        }
      ],
      "stateMutability": "view",
      "type": "function"
    },
    {
      "inputs": [
        {
          "internalType": "bytes32",
          "name": "interfaceHash",
          "type": "bytes32"
        },
        {
          "internalType": "address",
          "name": "account",
          "type": "address"
        }
      ],
      "name": "canImplementInterfaceForAddress",
      "outputs": [
        {
          "internalType": "bytes32",
          "name": "",
          "type": "bytes32"
        }
      ],
      "stateMutability": "view",
      "type": "function"
    },
    {
      "inputs": [
        {
          "internalType": "bytes32",
          "name": "",
          "type": "bytes32"
        }
      ],
      "name": "channels",
      "outputs": [
        {
          "internalType": "uint256",
          "name": "deposit",
          "type": "uint256"
        },
        {
          "internalType": "uint256",
          "name": "partyABalance",
          "type": "uint256"
        },
        {
          "internalType": "uint32",
          "name": "closureTime",
          "type": "uint32"
        },
        {
          "internalType": "uint24",
          "name": "status",
          "type": "uint24"
        },
        {
          "internalType": "bool",
          "name": "closureByPartyA",
          "type": "bool"
        }
      ],
      "stateMutability": "view",
      "type": "function"
    },
    {
      "inputs": [
        {
          "internalType": "address",
          "name": "counterparty",
          "type": "address"
        }
      ],
      "name": "finalizeChannelClosure",
      "outputs": [],
      "stateMutability": "nonpayable",
      "type": "function"
    },
    {
      "inputs": [
        {
          "internalType": "address",
          "name": "accountA",
          "type": "address"
        },
        {
          "internalType": "address",
          "name": "accountB",
          "type": "address"
        },
        {
          "internalType": "uint256",
          "name": "amountA",
          "type": "uint256"
        },
        {
          "internalType": "uint256",
          "name": "amountB",
          "type": "uint256"
        }
      ],
      "name": "fundAndOpenChannel",
      "outputs": [],
      "stateMutability": "nonpayable",
      "type": "function"
    },
    {
      "inputs": [
        {
          "internalType": "address",
          "name": "account",
          "type": "address"
        },
        {
          "internalType": "address",
          "name": "counterparty",
          "type": "address"
        },
        {
          "internalType": "uint256",
          "name": "amount",
          "type": "uint256"
        }
      ],
      "name": "fundChannel",
      "outputs": [],
      "stateMutability": "nonpayable",
      "type": "function"
    },
    {
      "inputs": [
        {
          "internalType": "address",
          "name": "accountA",
          "type": "address"
        },
        {
          "internalType": "address",
          "name": "accountB",
          "type": "address"
        },
        {
          "internalType": "uint256",
          "name": "amountA",
          "type": "uint256"
        },
        {
          "internalType": "uint256",
          "name": "amountB",
          "type": "uint256"
        }
      ],
      "name": "fundChannelMulti",
      "outputs": [],
      "stateMutability": "nonpayable",
      "type": "function"
    },
    {
      "inputs": [
        {
          "internalType": "bytes32",
          "name": "secret",
          "type": "bytes32"
        },
        {
          "internalType": "uint256",
          "name": "pubKeyFirstHalf",
          "type": "uint256"
        },
        {
          "internalType": "uint256",
          "name": "pubKeySecondHalf",
          "type": "uint256"
        }
      ],
      "name": "initializeAccount",
      "outputs": [],
      "stateMutability": "nonpayable",
      "type": "function"
    },
    {
      "inputs": [
        {
          "internalType": "address",
          "name": "counterparty",
          "type": "address"
        }
      ],
      "name": "initiateChannelClosure",
      "outputs": [],
      "stateMutability": "nonpayable",
      "type": "function"
    },
    {
      "inputs": [
        {
          "internalType": "address",
          "name": "counterparty",
          "type": "address"
        }
      ],
      "name": "openChannel",
      "outputs": [],
      "stateMutability": "nonpayable",
      "type": "function"
    },
    {
      "inputs": [
        {
          "internalType": "address",
          "name": "counterparty",
          "type": "address"
        },
        {
          "internalType": "bytes32",
          "name": "secretPreImage",
          "type": "bytes32"
        },
        {
          "internalType": "bytes32",
          "name": "proofOfRelaySecret",
          "type": "bytes32"
        },
        {
          "internalType": "uint256",
          "name": "amount",
          "type": "uint256"
        },
        {
          "internalType": "bytes32",
          "name": "winProb",
          "type": "bytes32"
        },
        {
          "internalType": "bytes32",
          "name": "r",
          "type": "bytes32"
        },
        {
          "internalType": "bytes32",
          "name": "s",
          "type": "bytes32"
        },
        {
          "internalType": "uint8",
          "name": "v",
          "type": "uint8"
        }
      ],
      "name": "redeemTicket",
      "outputs": [],
      "stateMutability": "nonpayable",
      "type": "function"
    },
    {
      "inputs": [],
      "name": "secsClosure",
      "outputs": [
        {
          "internalType": "uint32",
          "name": "",
          "type": "uint32"
        }
      ],
      "stateMutability": "view",
      "type": "function"
    },
    {
      "inputs": [
        {
          "internalType": "bytes32",
          "name": "",
          "type": "bytes32"
        }
      ],
      "name": "tickets",
      "outputs": [
        {
          "internalType": "bool",
          "name": "",
          "type": "bool"
        }
      ],
      "stateMutability": "view",
      "type": "function"
    },
    {
      "inputs": [],
      "name": "token",
      "outputs": [
        {
          "internalType": "contract IERC20",
          "name": "",
          "type": "address"
        }
      ],
      "stateMutability": "view",
      "type": "function"
    },
    {
      "inputs": [
        {
          "internalType": "address",
          "name": "operator",
          "type": "address"
        },
        {
          "internalType": "address",
          "name": "from",
          "type": "address"
        },
        {
          "internalType": "address",
          "name": "to",
          "type": "address"
        },
        {
          "internalType": "uint256",
          "name": "amount",
          "type": "uint256"
        },
        {
          "internalType": "bytes",
          "name": "userData",
          "type": "bytes"
        },
        {
          "internalType": "bytes",
          "name": "operatorData",
          "type": "bytes"
        }
      ],
      "name": "tokensReceived",
      "outputs": [],
      "stateMutability": "nonpayable",
      "type": "function"
    },
    {
      "inputs": [
        {
          "internalType": "bytes32",
          "name": "secret",
          "type": "bytes32"
        }
      ],
      "name": "updateAccount",
      "outputs": [],
      "stateMutability": "nonpayable",
      "type": "function"
    }
  ],
  "transactionHash": "0xea7abcbff31a7cdb923fb22b3bf819c63ec262c72f4ee99fdfdd6e0efa21f1c8",
  "args": [
    "0x66DB78F4ADD912a6Cb92b672Dfa09028ecc3085E",
    60
  ],
  "solcInputHash": "3e60fb29f59a517239c7feab733834c8",
  "bytecode": "0x600060a081815260c082905260e0829052606060808190526005556101208290526101408290526101608290526101808290526101a0919091526101008190526101c060405260065534801561005457600080fd5b50604051612cc0380380612cc08339818101604052604081101561007757600080fd5b508051602090910151600780546001600160a01b0319166001600160a01b0384161790556002805463ffffffff191663ffffffff8316179055604080516329965a1d60e01b815230600482018190527fb281fc8c12954d22544db45de3159a39272895b169a852b314f9cc762e44c53b602483015260448201529051731820a4b7618bde71dce8cdc73aab6c95905fad24916329965a1d91606480830192600092919082900301818387803b15801561012f57600080fd5b505af1158015610143573d6000803e3d6000fd5b505050505050612b68806101586000396000f3fe608060405234801561001057600080fd5b50600436106101205760003560e01c80635e5c06e2116100ad578063ada8ee0d11610071578063ada8ee0d1461044f578063b4037e8014610457578063c8cb8df51461047d578063df0dd0d5146104d1578063fc0c546a1461050257610120565b80635e5c06e21461035b5780636c49a38e1461039a57806372581cc0146103d65780637a7ebd7b146103de5780637c2101ca1461043257610120565b8063249cb3fa116100f4578063249cb3fa14610283578063275621d1146102af5780632abb5e9d146102d05780633da79ce8146102f65780634341abdd1461031f57610120565b806223de2914610125578063048a097d1461020d578063075e389f1461022757806311428ad41461024d575b600080fd5b61020b600480360360c081101561013b57600080fd5b6001600160a01b03823581169260208101358216926040820135909216916060820135919081019060a081016080820135600160201b81111561017d57600080fd5b82018360208201111561018f57600080fd5b803590602001918460018302840111600160201b831117156101b057600080fd5b919390929091602081019035600160201b8111156101cd57600080fd5b8201836020820111156101df57600080fd5b803590602001918460018302840111600160201b8311171561020057600080fd5b509092509050610526565b005b610215610764565b60408051918252519081900360200190f35b61020b6004803603602081101561023d57600080fd5b50356001600160a01b031661076a565b61020b6004803603606081101561026357600080fd5b506001600160a01b03813581169160208101359091169060400135610784565b6102156004803603604081101561029957600080fd5b50803590602001356001600160a01b03166107af565b6102b7610824565b6040805163ffffffff9092168252519081900360200190f35b61020b600480360360208110156102e657600080fd5b50356001600160a01b0316610830565b61020b6004803603606081101561030c57600080fd5b508035906020810135906040013561083a565b61020b6004803603608081101561033557600080fd5b506001600160a01b03813581169160208101359091169060408101359060600135610846565b6103816004803603602081101561037157600080fd5b50356001600160a01b031661087c565b6040805192835260208301919091528051918290030190f35b61020b600480360360808110156103b057600080fd5b506001600160a01b03813581169160208101359091169060408101359060600135610895565b61021561094d565b6103fb600480360360208110156103f457600080fd5b5035610971565b60408051958652602086019490945263ffffffff9092168484015262ffffff16606084015215156080830152519081900360a00190f35b61020b6004803603602081101561044857600080fd5b50356109b1565b6102156109bb565b61020b6004803603602081101561046d57600080fd5b50356001600160a01b03166109c1565b61020b600480360361010081101561049457600080fd5b5080356001600160a01b03169060208101359060408101359060608101359060808101359060a08101359060c08101359060e0013560ff166109cb565b6104ee600480360360208110156104e757600080fd5b50356109dc565b604080519115158252519081900360200190f35b61050a6109f1565b604080516001600160a01b039092168252519081900360200190f35b6007546001600160a01b03163314610585576040805162461bcd60e51b815260206004820152601860248201527f63616c6c6572206d75737420626520486f7072546f6b656e0000000000000000604482015290519081900360640190fd5b6001600160a01b0388163014806105a357506001600160a01b038716155b156105ad5761075a565b6005548314806105be575060065483145b6105f95760405162461bcd60e51b815260040180806020018281038252603281526020018061293b6032913960400191505060405180910390fd5b6000806000806000600554898990501415610647578888606081101561061e57600080fd5b508035151595506001600160a01b036020820135811695506040909101351692508991506106cb565b888860a081101561065757600080fd5b508035151595506001600160a01b0360208201358116955060408201351693506060810135925060800135905061068e8282610a00565b8a146106cb5760405162461bcd60e51b815260040180806020018281038252602d815260200180612870602d913960400191505060405180910390fd5b6106d88c85858585610a5a565b841561075457836001600160a01b03168c6001600160a01b0316148061070f5750826001600160a01b03168c6001600160a01b0316145b61074a5760405162461bcd60e51b815260040180806020018281038252602a8152602001806127fc602a913960400191505060405180910390fd5b6107548484610cb8565b50505050505b5050505050505050565b60065481565b600754610781906001600160a01b03163383610efb565b50565b60075461079c906001600160a01b0316333084611385565b6107aa338484846000610a5a565b505050565b6000828152602081815260408083206001600160a01b038516845290915281205460ff166107de57600061081d565b604051602001808073455243313832305f4143434550545f4d4147494360601b8152506014019050604051602081830303815290604052805190602001205b9392505050565b60025463ffffffff1681565b6107813382610cb8565b6107aa338383866113df565b61086933306108558585610a00565b6007546001600160a01b0316929190611385565b6108763385858585610a5a565b50505050565b6001602081905260009182526040909120805491015482565b336001600160a01b0385168114806108be5750836001600160a01b0316816001600160a01b0316145b6108f95760405162461bcd60e51b8152600401808060200182810382526023815260200180612a8c6023913960400191505060405180910390fd5b61090833306108558686610a00565b6000856001600160a01b0316826001600160a01b0316141561092b57508361092e565b50845b61093b8287878787610a5a565b6109458282610cb8565b505050505050565b7fb281fc8c12954d22544db45de3159a39272895b169a852b314f9cc762e44c53b81565b60036020526000908152604090208054600182015460029092015490919063ffffffff811690600160201b810462ffffff1690600160381b900460ff1685565b610781338261155e565b60055481565b610781338261165b565b61075a3389898989898989896118c7565b60046020526000908152604090205460ff1681565b6007546001600160a01b031681565b60008282018381101561081d576040805162461bcd60e51b815260206004820152601b60248201527f536166654d6174683a206164646974696f6e206f766572666c6f770000000000604482015290519081900360640190fd5b6001600160a01b038516610ab5576040805162461bcd60e51b815260206004820152601860248201527f66756e646572206d757374206e6f7420626520656d7074790000000000000000604482015290519081900360640190fd5b826001600160a01b0316846001600160a01b03161415610b065760405162461bcd60e51b815260040180806020018281038252602a8152602001806127d2602a913960400191505060405180910390fd5b6001600160a01b038416610b61576040805162461bcd60e51b815260206004820152601a60248201527f6163636f756e7441206d757374206e6f7420626520656d707479000000000000604482015290519081900360640190fd5b6001600160a01b038316610bbc576040805162461bcd60e51b815260206004820152601a60248201527f6163636f756e7442206d757374206e6f7420626520656d707479000000000000604482015290519081900360640190fd5b6000821180610bcb5750600081115b610c065760405162461bcd60e51b8152600401808060200182810382526029815260200180612b0a6029913960400191505060405180910390fd5b6000610c128585611dd4565b8054909450610c309350859250610c2a915086610a00565b90610a00565b8155610c3c8585611e16565b15610c56576001810154610c509084610a00565b60018201555b80546001820154604080516001600160a01b038a8116825260208201949094528082019290925251828716928816917f074d4367955152e97ae53474f3e30b8042462b3dd1169333c66a590386671fba919081900360600190a3505050505050565b806001600160a01b0316826001600160a01b03161415610d095760405162461bcd60e51b815260040180806020018281038252602c815260200180612ade602c913960400191505060405180910390fd5b6001600160a01b038216610d64576040805162461bcd60e51b815260206004820152601860248201527f6f70656e6572206d757374206e6f7420626520656d7074790000000000000000604482015290519081900360640190fd5b6001600160a01b038116610dad576040805162461bcd60e51b815260206004820152601e602482015260008051602061296d833981519152604482015290519081900360640190fd5b6000610db98383611dd4565b93505050506000816000015411610e10576040805162461bcd60e51b815260206004820152601660248201527518da185b9b995b081b5d5cdd08189948199d5b99195960521b604482015290519081900360640190fd5b6002810154600090610e2d90600160201b900462ffffff16611e27565b90506000816002811115610e3d57fe5b14610e795760405162461bcd60e51b815260040180806020018281038252602781526020018061298d6027913960400191505060405180910390fd5b6002820154610e9590600160201b900462ffffff166001611e4f565b8260020160046101000a81548162ffffff021916908362ffffff160217905550826001600160a01b0316846001600160a01b03167fdd90f938230335e59dc925c57ecb0e27a28c2d87356e31f00cd5554abd6c1b2d60405160405180910390a350505050565b6001600160a01b038316610f56576040805162461bcd60e51b815260206004820152601760248201527f746f6b656e206d757374206e6f7420626520656d707479000000000000000000604482015290519081900360640190fd5b806001600160a01b0316826001600160a01b03161415610fa75760405162461bcd60e51b815260040180806020018281038252602f815260200180612aaf602f913960400191505060405180910390fd5b6001600160a01b038216611002576040805162461bcd60e51b815260206004820152601b60248201527f696e69746961746f72206d757374206e6f7420626520656d7074790000000000604482015290519081900360640190fd5b6001600160a01b03811661104b576040805162461bcd60e51b815260206004820152601e602482015260008051602061296d833981519152604482015290519081900360640190fd5b600080600061105a8585611dd4565b93505092509250600061107f8260020160049054906101000a900462ffffff16611e27565b9050600281600281111561108f57fe5b146110e1576040805162461bcd60e51b815260206004820181905260248201527f6368616e6e656c206d7573742062652070656e64696e6720746f20636c6f7365604482015290519081900360640190fd5b6002820154600160381b900460ff16801561110d5750836001600160a01b0316866001600160a01b0316145b8061114057506002820154600160381b900460ff161580156111405750826001600160a01b0316866001600160a01b0316145b156111ae5761114d611eb1565b600283015463ffffffff9182169116106111ae576040805162461bcd60e51b815260206004820152601e60248201527f636c6f7375726554696d65206d757374206265206265666f7265206e6f770000604482015290519081900360640190fd5b600182015482546000906111c29083611ebb565b9050811561124e57886001600160a01b031663a9059cbb87846040518363ffffffff1660e01b815260040180836001600160a01b0316815260200182815260200192505050602060405180830381600087803b15801561122157600080fd5b505af1158015611235573d6000803e3d6000fd5b505050506040513d602081101561124b57600080fd5b50505b80156112d857886001600160a01b031663a9059cbb86836040518363ffffffff1660e01b815260040180836001600160a01b0316815260200182815260200192505050602060405180830381600087803b1580156112ab57600080fd5b505af11580156112bf573d6000803e3d6000fd5b505050506040513d60208110156112d557600080fd5b50505b60028401546112f490600160201b900462ffffff166008611e4f565b6002850180546000808855600188015567ff000000ffffffff1962ffffff93909316600160201b0266ffffff000000001990911617919091169055604080518381526020810183905281516001600160a01b03808b1693908c16927f8e096653b2e51f16fbc2f7c554ace94c1938ee5da0815dbcce55d3d03e319260929081900390910190a3505050505050505050565b604080516001600160a01b0380861660248301528416604482015260648082018490528251808303909101815260849091019091526020810180516001600160e01b03166323b872dd60e01b179052610876908590611efd565b6001600160a01b03841661143a576040805162461bcd60e51b815260206004820152601960248201527f6163636f756e74206d757374206e6f7420626520656d70747900000000000000604482015290519081900360640190fd5b826114765760405162461bcd60e51b8152600401808060200182810382526021815260200180612a416021913960400191505060405180910390fd5b816114b25760405162461bcd60e51b815260040180806020018281038252602281526020018061284e6022913960400191505060405180910390fd5b836001600160a01b03166114c68484611fae565b6001600160a01b03161461150b5760405162461bcd60e51b815260040180806020018281038252602181526020018061289d6021913960400191505060405180910390fd5b611515848261155e565b604080518481526020810184905281516001600160a01b038716927f2b22861a1ef88f6a07c435dd5b2979a60ebb1c487b1f2e5498d78c07dcd787ef928290030190a250505050565b806115b0576040805162461bcd60e51b815260206004820152601860248201527f736563726574206d757374206e6f7420626520656d7074790000000000000000604482015290519081900360640190fd5b6001600160a01b038216600090815260016020526040902080548214156116085760405162461bcd60e51b8152600401808060200182810382526025815260200180612a1c6025913960400191505060405180910390fd5b8181556001808201805490910190556040805183815290516001600160a01b038516917fde6c2e081309e5fa1ad76048c881e5c55a38b51661915a26b58ce40065fc66af919081900360200190a2505050565b806001600160a01b0316826001600160a01b031614156116ac5760405162461bcd60e51b815260040180806020018281038252602f815260200180612aaf602f913960400191505060405180910390fd5b6001600160a01b038216611707576040805162461bcd60e51b815260206004820152601b60248201527f696e69746961746f72206d757374206e6f7420626520656d7074790000000000604482015290519081900360640190fd5b6001600160a01b038116611750576040805162461bcd60e51b815260206004820152601e602482015260008051602061296d833981519152604482015290519081900360640190fd5b600061175c8383611dd4565b9350505050600061177f8260020160049054906101000a900462ffffff16611e27565b9050600181600281111561178f57fe5b146117d8576040805162461bcd60e51b815260206004820152601460248201527331b430b73732b61036bab9ba1031329037b832b760611b604482015290519081900360640190fd5b60025463ffffffff166117e9611eb1565b60028401805463ffffffff19169190920163ffffffff908116919091179182905561182491600160201b900462ffffff1690600190611e4f16565b8260020160046101000a81548162ffffff021916908362ffffff16021790555060006118508585611e16565b905080156118725760028301805467ff000000000000001916600160381b1790555b60028301546040805163ffffffff9092168252516001600160a01b0380871692908816917fd69791bd3750bf9f659220208e4228b8170380f08ffbfc5b88b37c1d594bf9449181900360200190a35050505050565b6001600160a01b038916611922576040805162461bcd60e51b815260206004820152601b60248201527f726563697069656e74206d757374206e6f7420626520656d7074790000000000604482015290519081900360640190fd5b6001600160a01b03881661196b576040805162461bcd60e51b815260206004820152601e602482015260008051602061296d833981519152604482015290519081900360640190fd5b866119bd576040805162461bcd60e51b815260206004820181905260248201527f736563726574507265496d616765206d757374206e6f7420626520656d707479604482015290519081900360640190fd5b856119f95760405162461bcd60e51b81526004018080602001828103825260248152602001806129f86024913960400191505060405180910390fd5b84611a4b576040805162461bcd60e51b815260206004820152601860248201527f616d6f756e74206d757374206e6f7420626520656d7074790000000000000000604482015290519081900360640190fd5b82611a93576040805162461bcd60e51b815260206004820152601360248201527272206d757374206e6f7420626520656d70747960681b604482015290519081900360640190fd5b81611adb576040805162461bcd60e51b815260206004820152601360248201527273206d757374206e6f7420626520656d70747960681b604482015290519081900360640190fd5b60ff8116611b26576040805162461bcd60e51b815260206004820152601360248201527276206d757374206e6f7420626520656d70747960681b604482015290519081900360640190fd5b6001600160a01b03891660009081526001602090815260409182902082518083018b905283518082038401815290840190935282519290910191909120815414611ba15760405162461bcd60e51b81526004018080602001828103825260358152602001806129066035913960400191505060405180910390fd5b6000611bad8b8b611dd4565b935060009250611bbb915050565b6002820154611bd590600160201b900462ffffff16611e27565b6002811115611be057fe5b1415611c1d5760405162461bcd60e51b81526004018080602001828103825260288152602001806128266028913960400191505060405180910390fd5b6000611c54611c4f8d85600101548c611c488760020160049054906101000a900462ffffff16612041565b8d8d61206e565b6120e6565b60008181526004602052604090205490915060ff1615611cbb576040805162461bcd60e51b815260206004820152601d60248201527f7469636b6574206d757374206e6f742062652075736564207477696365000000604482015290519081900360640190fd5b8a6001600160a01b0316611cd18288888861210d565b6001600160a01b031614611d165760405162461bcd60e51b81526004018080602001828103825260228152602001806129d66022913960400191505060405180910390fd5b86611d23828c8c8461228f565b1115611d6d576040805162461bcd60e51b81526020600482015260146024820152733a34b1b5b2ba1036bab9ba1031329030903bb4b760611b604482015290519081900360640190fd5b8983556000818152600460205260409020805460ff19166001179055611d938c8c611e16565b15611db1576001820154611da79089610a00565b6001830155611dc6565b6001820154611dc09089611ebb565b60018301555b505050505050505050505050565b600080600080600080611de788886122cd565b915091506000611df783836122f6565b6000818152600360205260409020939a92995097509195509350505050565b6001600160a01b0390811691161090565b6000611e3962ffffff8316600a61233d565b62ffffff166002811115611e4957fe5b92915050565b600082820162ffffff808516908216101561081d576040805162461bcd60e51b815260206004820152601d60248201527f5361666555696e7432343a206164646974696f6e206f766572666c6f77000000604482015290519081900360640190fd5b63ffffffff421690565b600061081d83836040518060400160405280601e81526020017f536166654d6174683a207375627472616374696f6e206f766572666c6f7700008152506123b1565b6060611f52826040518060400160405280602081526020017f5361666545524332303a206c6f772d6c6576656c2063616c6c206661696c6564815250856001600160a01b03166124489092919063ffffffff16565b8051909150156107aa57808060200190516020811015611f7157600080fd5b50516107aa5760405162461bcd60e51b815260040180806020018281038252602a815260200180612a62602a913960400191505060405180910390fd5b6000611fba838361245f565b61200b576040805162461bcd60e51b815260206004820152601b60248201527f506f696e74206d757374206265206f6e207468652063757276652e0000000000604482015290519081900360640190fd5b5060408051602080820194909452808201929092528051808303820181526060909201905280519101206001600160a01b031690565b6000612063600161205862ffffff8516600a612493565b62ffffff1690611e4f565b62ffffff1692915050565b6040805160208082019690965281518082038701815281830183528051960195909520606097881b6bffffffffffffffffffffffff1916978601979097526074850196909652609484019490945260b483015260d482019290925260f480820192909252825180820390920182526101140190915290565b6000611e496040518060400160405280600381526020016231383760e81b8152508361250c565b60007f7fffffffffffffffffffffffffffffff5d576e7357a4501ddfe92f46681b20a083111561216e5760405162461bcd60e51b81526004018080602001828103825260228152602001806128be6022913960400191505060405180910390fd5b8160ff16601b1415801561218657508160ff16601c14155b156121c25760405162461bcd60e51b81526004018080602001828103825260228152602001806129b46022913960400191505060405180910390fd5b600060018684878760405160008152602001604052604051808581526020018460ff1681526020018381526020018281526020019450505050506020604051602081039080840390855afa15801561221e573d6000803e3d6000fd5b5050604051601f1901519150506001600160a01b038116612286576040805162461bcd60e51b815260206004820152601860248201527f45434453413a20696e76616c6964207369676e61747572650000000000000000604482015290519081900360640190fd5b95945050505050565b604080516020808201969096528082019490945260608401929092526080808401919091528151808403909101815260a09092019052805191012090565b6000806122da8484611e16565b156122e95750829050816122ef565b50819050825b9250929050565b604080516bffffffffffffffffffffffff19606094851b81166020808401919091529390941b90931660348401528051602881850301815260489093019052815191012090565b600062ffffff8216612396576040805162461bcd60e51b815260206004820152601a60248201527f5361666555696e7432343a206d6f64756c6f206279207a65726f000000000000604482015290519081900360640190fd5b8162ffffff168362ffffff16816123a957fe5b069392505050565b600081848411156124405760405162461bcd60e51b81526004018080602001828103825283818151815260200191508051906020019080838360005b838110156124055781810151838201526020016123ed565b50505050905090810190601f1680156124325780820380516001836020036101000a031916815260200191505b509250505060405180910390fd5b505050900390565b60606124578484600085612609565b949350505050565b6000806401000003d01980856401000003d01987880909600708905060006401000003d01984850991909114949350505050565b6000808262ffffff16116124ee576040805162461bcd60e51b815260206004820152601c60248201527f5361666555696e7432343a206469766973696f6e206279207a65726f00000000604482015290519081900360640190fd5b60008262ffffff168462ffffff168161250357fe5b04949350505050565b6000828260405160200180807f19457468657265756d205369676e6564204d6573736167653a0a000000000000815250601a0183805190602001908083835b6020831061256a5780518252601f19909201916020918201910161254b565b51815160209384036101000a6000190180199092169116179052661213d4149b995d60ca1b919093019081528451600790910192850191508083835b602083106125c55780518252601f1990920191602091820191016125a6565b6001836020036101000a0380198251168184511680821785525050505050509050019250505060405160208183030381529060405280519060200120905092915050565b60608247101561264a5760405162461bcd60e51b81526004018080602001828103825260268152602001806128e06026913960400191505060405180910390fd5b61265385612765565b6126a4576040805162461bcd60e51b815260206004820152601d60248201527f416464726573733a2063616c6c20746f206e6f6e2d636f6e7472616374000000604482015290519081900360640190fd5b60006060866001600160a01b031685876040518082805190602001908083835b602083106126e35780518252601f1990920191602091820191016126c4565b6001836020036101000a03801982511681845116808217855250505050505090500191505060006040518083038185875af1925050503d8060008114612745576040519150601f19603f3d011682016040523d82523d6000602084013e61274a565b606091505b509150915061275a82828661276b565b979650505050505050565b3b151590565b6060831561277a57508161081d565b82511561278a5782518084602001fd5b60405162461bcd60e51b81526020600482018181528451602484015284518593919283926044019190850190808383600083156124055781810151838201526020016123ed56fe6163636f756e744120616e64206163636f756e7442206d757374206e6f74206265207468652073616d6566756e646572206d75737420626520656974686572206163636f756e7441206f72206163636f756e74426368616e6e656c206d757374206265206f70656e206f722070656e64696e6720746f20636c6f73657075624b65795365636f6e6448616c66206d757374206e6f7420626520656d707479616d6f756e742073656e74206d75737420626520657175616c20746f20616d6f756e74207370656369666965647075626c6963206b657920646f6573206e6f74206d61746368206163636f756e7445434453413a20696e76616c6964207369676e6174757265202773272076616c7565416464726573733a20696e73756666696369656e742062616c616e636520666f722063616c6c736563726574507265496d616765206d757374206265207468652068617368206f6620726563697069656e742773207365637265747573657244617461206d757374206d61746368206f6e65206f66206f757220737570706f727465642066756e6374696f6e73636f756e7465727061727479206d757374206e6f7420626520656d70747900006368616e6e656c206d75737420626520636c6f73656420696e206f7264657220746f206f70656e45434453413a20696e76616c6964207369676e6174757265202776272076616c75657369676e6572206d757374206d617463682074686520636f756e746572706172747970726f6f664f6652656c6179536563726574206d757374206e6f7420626520656d707479736563726574206d757374206e6f74206265207468652073616d65206173206265666f72657075624b6579466972737448616c66206d757374206e6f7420626520656d7074795361666545524332303a204552433230206f7065726174696f6e20646964206e6f7420737563636565646f70656e6572206d757374206265206163636f756e7441206f72206163636f756e7442696e69746961746f7220616e6420636f756e7465727061727479206d757374206e6f74206265207468652073616d656f70656e657220616e6420636f756e7465727061727479206d757374206e6f74206265207468652073616d65616d6f756e7441206f7220616d6f756e7442206d7573742062652067726561746572207468616e2030a2646970667358221220db176f5ef75fd94388977f6a1865301dd057bcac8e5d653589d20f499147f21b64736f6c63430007050033",
  "devdoc": {
    "kind": "dev",
    "methods": {
      "constructor": {
        "params": {
          "_secsClosure": "seconds until a channel can be closed",
          "_token": "HoprToken address"
        }
      },
      "finalizeChannelClosure(address)": {
        "details": "Finalize channel closure, if cool-off period is over it will close the channel and transfer funds to the parties involved, then emits {ChannelClosed} event.",
        "params": {
          "counterparty": "the address of the counterparty"
        }
      },
      "fundAndOpenChannel(address,address,uint256,uint256)": {
        "details": "Fund channel and then open it, then emits {ChannelFunded} and {ChannelOpened} events.",
        "params": {
          "accountA": "the address of accountA",
          "accountB": "the address of accountB",
          "amountA": "amount to fund accountA",
          "amountB": "amount to fund accountB"
        }
      },
      "fundChannel(address,address,uint256)": {
        "details": "Funds a channel in one direction, then emits {ChannelFunded} event.",
        "params": {
          "account": "the address of the recipient",
          "amount": "amount to fund",
          "counterparty": "the address of the counterparty"
        }
      },
      "fundChannelMulti(address,address,uint256,uint256)": {
        "details": "Funds a channel, in both directions, then emits {ChannelFunded} event.",
        "params": {
          "accountA": "the address of accountA",
          "accountB": "the address of accountB",
          "amountA": "amount to fund accountA",
          "amountB": "amount to fund accountB"
        }
      },
      "initializeAccount(bytes32,uint256,uint256)": {
        "details": "Initializes an account, stores it's public key, secret and counter, then emits {AccountInitialized} and {AccountSecretUpdated} events.",
        "params": {
          "pubKeyFirstHalf": "first half of the public key",
          "pubKeySecondHalf": "second half of the public key",
          "secret": "account's secret"
        }
      },
      "initiateChannelClosure(address)": {
        "details": "Initialize channel closure, updates channel's closure time, when the cool-off period is over, user may finalize closure, then emits {ChannelPendingToClose} event.",
        "params": {
          "counterparty": "the address of the counterparty"
        }
      },
      "openChannel(address)": {
        "details": "Opens a channel, then emits {ChannelOpened} event.",
        "params": {
          "counterparty": "the address of the counterparty"
        }
      },
      "tokensReceived(address,address,address,uint256,bytes,bytes)": {
        "params": {
          "amount": "uint256 amount of tokens to transfer",
          "from": "address token holder address",
          "operator": "address operator requesting the transfer",
          "operatorData": "bytes extra information provided by the operator (if any)",
          "to": "address recipient address",
          "userData": "bytes extra information provided by the token holder (if any)"
        }
      },
      "updateAccount(bytes32)": {
        "details": "Updates account's secret and counter, then emits {AccountSecretUpdated} event.",
        "params": {
          "secret": "account's secret"
        }
      }
    },
    "stateVariables": {
      "token": {
        "details": "HoprToken, the token that will be used to settle payments"
      }
    },
    "version": 1
  },
  "userdoc": {
    "kind": "user",
    "methods": {
      "canImplementInterfaceForAddress(bytes32,address)": {
        "notice": "See {IERC1820Implementer-canImplementInterfaceForAddress}."
      },
      "tokensReceived(address,address,address,uint256,bytes,bytes)": {
        "notice": "A hook triggered when HOPR tokens are send to this contract."
      }
    },
    "version": 1
  },
  "storageLayout": {
    "storage": [
      {
        "astId": 325,
        "contract": "contracts/HoprChannels/HoprChannels.sol:HoprChannels",
        "label": "_supportedInterfaces",
        "offset": 0,
        "slot": "0",
        "type": "t_mapping(t_bytes32,t_mapping(t_address,t_bool))"
      },
      {
        "astId": 3524,
        "contract": "contracts/HoprChannels/HoprChannels.sol:HoprChannels",
        "label": "accounts",
        "offset": 0,
        "slot": "1",
        "type": "t_mapping(t_address,t_struct(Account)3519_storage)"
      },
      {
        "astId": 3684,
        "contract": "contracts/HoprChannels/HoprChannels.sol:HoprChannels",
        "label": "secsClosure",
        "offset": 0,
        "slot": "2",
        "type": "t_uint32"
      },
      {
        "astId": 3689,
        "contract": "contracts/HoprChannels/HoprChannels.sol:HoprChannels",
        "label": "channels",
        "offset": 0,
        "slot": "3",
        "type": "t_mapping(t_bytes32,t_struct(Channel)3681_storage)"
      },
      {
        "astId": 4893,
        "contract": "contracts/HoprChannels/HoprChannels.sol:HoprChannels",
        "label": "tickets",
        "offset": 0,
        "slot": "4",
        "type": "t_mapping(t_bytes32,t_bool)"
      },
      {
        "astId": 4406,
        "contract": "contracts/HoprChannels/HoprChannels.sol:HoprChannels",
        "label": "FUND_CHANNEL_SIZE",
        "offset": 0,
        "slot": "5",
        "type": "t_uint256"
      },
      {
        "astId": 4429,
        "contract": "contracts/HoprChannels/HoprChannels.sol:HoprChannels",
        "label": "FUND_CHANNEL_MULTI_SIZE",
        "offset": 0,
        "slot": "6",
        "type": "t_uint256"
      },
      {
        "astId": 4432,
        "contract": "contracts/HoprChannels/HoprChannels.sol:HoprChannels",
        "label": "token",
        "offset": 0,
        "slot": "7",
        "type": "t_contract(IERC20)818"
      }
    ],
    "types": {
      "t_address": {
        "encoding": "inplace",
        "label": "address",
        "numberOfBytes": "20"
      },
      "t_bool": {
        "encoding": "inplace",
        "label": "bool",
        "numberOfBytes": "1"
      },
      "t_bytes32": {
        "encoding": "inplace",
        "label": "bytes32",
        "numberOfBytes": "32"
      },
      "t_contract(IERC20)818": {
        "encoding": "inplace",
        "label": "contract IERC20",
        "numberOfBytes": "20"
      },
      "t_mapping(t_address,t_bool)": {
        "encoding": "mapping",
        "key": "t_address",
        "label": "mapping(address => bool)",
        "numberOfBytes": "32",
        "value": "t_bool"
      },
      "t_mapping(t_address,t_struct(Account)3519_storage)": {
        "encoding": "mapping",
        "key": "t_address",
        "label": "mapping(address => struct Accounts.Account)",
        "numberOfBytes": "32",
        "value": "t_struct(Account)3519_storage"
      },
      "t_mapping(t_bytes32,t_bool)": {
        "encoding": "mapping",
        "key": "t_bytes32",
        "label": "mapping(bytes32 => bool)",
        "numberOfBytes": "32",
        "value": "t_bool"
      },
      "t_mapping(t_bytes32,t_mapping(t_address,t_bool))": {
        "encoding": "mapping",
        "key": "t_bytes32",
        "label": "mapping(bytes32 => mapping(address => bool))",
        "numberOfBytes": "32",
        "value": "t_mapping(t_address,t_bool)"
      },
      "t_mapping(t_bytes32,t_struct(Channel)3681_storage)": {
        "encoding": "mapping",
        "key": "t_bytes32",
        "label": "mapping(bytes32 => struct Channels.Channel)",
        "numberOfBytes": "32",
        "value": "t_struct(Channel)3681_storage"
      },
      "t_struct(Account)3519_storage": {
        "encoding": "inplace",
        "label": "struct Accounts.Account",
        "members": [
          {
            "astId": 3516,
            "contract": "contracts/HoprChannels/HoprChannels.sol:HoprChannels",
            "label": "secret",
            "offset": 0,
            "slot": "0",
            "type": "t_bytes32"
          },
          {
            "astId": 3518,
            "contract": "contracts/HoprChannels/HoprChannels.sol:HoprChannels",
            "label": "counter",
            "offset": 0,
            "slot": "1",
            "type": "t_uint256"
          }
        ],
        "numberOfBytes": "64"
      },
      "t_struct(Channel)3681_storage": {
        "encoding": "inplace",
        "label": "struct Channels.Channel",
        "members": [
          {
            "astId": 3672,
            "contract": "contracts/HoprChannels/HoprChannels.sol:HoprChannels",
            "label": "deposit",
            "offset": 0,
            "slot": "0",
            "type": "t_uint256"
          },
          {
            "astId": 3674,
            "contract": "contracts/HoprChannels/HoprChannels.sol:HoprChannels",
            "label": "partyABalance",
            "offset": 0,
            "slot": "1",
            "type": "t_uint256"
          },
          {
            "astId": 3676,
            "contract": "contracts/HoprChannels/HoprChannels.sol:HoprChannels",
            "label": "closureTime",
            "offset": 0,
            "slot": "2",
            "type": "t_uint32"
          },
          {
            "astId": 3678,
            "contract": "contracts/HoprChannels/HoprChannels.sol:HoprChannels",
            "label": "status",
            "offset": 4,
            "slot": "2",
            "type": "t_uint24"
          },
          {
            "astId": 3680,
            "contract": "contracts/HoprChannels/HoprChannels.sol:HoprChannels",
            "label": "closureByPartyA",
            "offset": 7,
            "slot": "2",
            "type": "t_bool"
          }
        ],
        "numberOfBytes": "96"
      },
      "t_uint24": {
        "encoding": "inplace",
        "label": "uint24",
        "numberOfBytes": "3"
      },
      "t_uint256": {
        "encoding": "inplace",
        "label": "uint256",
        "numberOfBytes": "32"
      },
      "t_uint32": {
        "encoding": "inplace",
        "label": "uint32",
        "numberOfBytes": "4"
      }
    }
  }
}