{
  "address": "0x52C7c5AC7d0570eF03d274E2644974fa0097089e",
  "abi": [
    {
      "inputs": [
        {
          "internalType": "address",
          "name": "newAdmin",
          "type": "address"
        },
        {
          "internalType": "string",
          "name": "baseTokenURI",
          "type": "string"
        }
      ],
      "stateMutability": "nonpayable",
      "type": "constructor"
    },
    {
      "anonymous": false,
      "inputs": [
        {
          "indexed": true,
          "internalType": "address",
          "name": "owner",
          "type": "address"
        },
        {
          "indexed": true,
          "internalType": "address",
          "name": "approved",
          "type": "address"
        },
        {
          "indexed": true,
          "internalType": "uint256",
          "name": "tokenId",
          "type": "uint256"
        }
      ],
      "name": "Approval",
      "type": "event"
    },
    {
      "anonymous": false,
      "inputs": [
        {
          "indexed": true,
          "internalType": "address",
          "name": "owner",
          "type": "address"
        },
        {
          "indexed": true,
          "internalType": "address",
          "name": "operator",
          "type": "address"
        },
        {
          "indexed": false,
          "internalType": "bool",
          "name": "approved",
          "type": "bool"
        }
      ],
      "name": "ApprovalForAll",
      "type": "event"
    },
    {
      "anonymous": false,
      "inputs": [
        {
          "indexed": true,
          "internalType": "uint256",
          "name": "boostTypeIndex",
          "type": "uint256"
        },
        {
          "indexed": true,
          "internalType": "uint256",
          "name": "boostNumerator",
          "type": "uint256"
        },
        {
          "indexed": true,
          "internalType": "uint256",
          "name": "redeemDeadline",
          "type": "uint256"
        }
      ],
      "name": "BoostMinted",
      "type": "event"
    },
    {
      "anonymous": false,
      "inputs": [
        {
          "indexed": true,
          "internalType": "bytes32",
          "name": "role",
          "type": "bytes32"
        },
        {
          "indexed": true,
          "internalType": "bytes32",
          "name": "previousAdminRole",
          "type": "bytes32"
        },
        {
          "indexed": true,
          "internalType": "bytes32",
          "name": "newAdminRole",
          "type": "bytes32"
        }
      ],
      "name": "RoleAdminChanged",
      "type": "event"
    },
    {
      "anonymous": false,
      "inputs": [
        {
          "indexed": true,
          "internalType": "bytes32",
          "name": "role",
          "type": "bytes32"
        },
        {
          "indexed": true,
          "internalType": "address",
          "name": "account",
          "type": "address"
        },
        {
          "indexed": true,
          "internalType": "address",
          "name": "sender",
          "type": "address"
        }
      ],
      "name": "RoleGranted",
      "type": "event"
    },
    {
      "anonymous": false,
      "inputs": [
        {
          "indexed": true,
          "internalType": "bytes32",
          "name": "role",
          "type": "bytes32"
        },
        {
          "indexed": true,
          "internalType": "address",
          "name": "account",
          "type": "address"
        },
        {
          "indexed": true,
          "internalType": "address",
          "name": "sender",
          "type": "address"
        }
      ],
      "name": "RoleRevoked",
      "type": "event"
    },
    {
      "anonymous": false,
      "inputs": [
        {
          "indexed": true,
          "internalType": "address",
          "name": "from",
          "type": "address"
        },
        {
          "indexed": true,
          "internalType": "address",
          "name": "to",
          "type": "address"
        },
        {
          "indexed": true,
          "internalType": "uint256",
          "name": "tokenId",
          "type": "uint256"
        }
      ],
      "name": "Transfer",
      "type": "event"
    },
    {
      "inputs": [],
      "name": "DEFAULT_ADMIN_ROLE",
      "outputs": [
        {
          "internalType": "bytes32",
          "name": "",
          "type": "bytes32"
        }
      ],
      "stateMutability": "view",
      "type": "function"
    },
    {
      "inputs": [],
      "name": "MINTER_ROLE",
      "outputs": [
        {
          "internalType": "bytes32",
          "name": "",
          "type": "bytes32"
        }
      ],
      "stateMutability": "view",
      "type": "function"
    },
    {
      "inputs": [
        {
          "internalType": "address",
          "name": "to",
          "type": "address"
        },
        {
          "internalType": "uint256",
          "name": "tokenId",
          "type": "uint256"
        }
      ],
      "name": "approve",
      "outputs": [],
      "stateMutability": "nonpayable",
      "type": "function"
    },
    {
      "inputs": [
        {
          "internalType": "address",
          "name": "owner",
          "type": "address"
        }
      ],
      "name": "balanceOf",
      "outputs": [
        {
          "internalType": "uint256",
          "name": "",
          "type": "uint256"
        }
      ],
      "stateMutability": "view",
      "type": "function"
    },
    {
      "inputs": [
        {
          "internalType": "address[]",
          "name": "to",
          "type": "address[]"
        },
        {
          "internalType": "string",
          "name": "boostType",
          "type": "string"
        },
        {
          "internalType": "string",
          "name": "boostRank",
          "type": "string"
        },
        {
          "internalType": "uint256",
          "name": "boostNumerator",
          "type": "uint256"
        },
        {
          "internalType": "uint256",
          "name": "redeemDeadline",
          "type": "uint256"
        }
      ],
      "name": "batchMint",
      "outputs": [],
      "stateMutability": "nonpayable",
      "type": "function"
    },
    {
      "inputs": [
        {
          "internalType": "uint256",
          "name": "tokenId",
          "type": "uint256"
        }
      ],
      "name": "boostOf",
      "outputs": [
        {
          "internalType": "uint256",
          "name": "",
          "type": "uint256"
        },
        {
          "internalType": "uint256",
          "name": "",
          "type": "uint256"
        }
      ],
      "stateMutability": "view",
      "type": "function"
    },
    {
      "inputs": [
        {
          "internalType": "uint256",
          "name": "tokenId",
          "type": "uint256"
        }
      ],
      "name": "getApproved",
      "outputs": [
        {
          "internalType": "address",
          "name": "",
          "type": "address"
        }
      ],
      "stateMutability": "view",
      "type": "function"
    },
    {
      "inputs": [
        {
          "internalType": "bytes32",
          "name": "role",
          "type": "bytes32"
        }
      ],
      "name": "getRoleAdmin",
      "outputs": [
        {
          "internalType": "bytes32",
          "name": "",
          "type": "bytes32"
        }
      ],
      "stateMutability": "view",
      "type": "function"
    },
    {
      "inputs": [
        {
          "internalType": "bytes32",
          "name": "role",
          "type": "bytes32"
        },
        {
          "internalType": "uint256",
          "name": "index",
          "type": "uint256"
        }
      ],
      "name": "getRoleMember",
      "outputs": [
        {
          "internalType": "address",
          "name": "",
          "type": "address"
        }
      ],
      "stateMutability": "view",
      "type": "function"
    },
    {
      "inputs": [
        {
          "internalType": "bytes32",
          "name": "role",
          "type": "bytes32"
        }
      ],
      "name": "getRoleMemberCount",
      "outputs": [
        {
          "internalType": "uint256",
          "name": "",
          "type": "uint256"
        }
      ],
      "stateMutability": "view",
      "type": "function"
    },
    {
      "inputs": [
        {
          "internalType": "bytes32",
          "name": "role",
          "type": "bytes32"
        },
        {
          "internalType": "address",
          "name": "account",
          "type": "address"
        }
      ],
      "name": "grantRole",
      "outputs": [],
      "stateMutability": "nonpayable",
      "type": "function"
    },
    {
      "inputs": [
        {
          "internalType": "bytes32",
          "name": "role",
          "type": "bytes32"
        },
        {
          "internalType": "address",
          "name": "account",
          "type": "address"
        }
      ],
      "name": "hasRole",
      "outputs": [
        {
          "internalType": "bool",
          "name": "",
          "type": "bool"
        }
      ],
      "stateMutability": "view",
      "type": "function"
    },
    {
      "inputs": [
        {
          "internalType": "address",
          "name": "owner",
          "type": "address"
        },
        {
          "internalType": "address",
          "name": "operator",
          "type": "address"
        }
      ],
      "name": "isApprovedForAll",
      "outputs": [
        {
          "internalType": "bool",
          "name": "",
          "type": "bool"
        }
      ],
      "stateMutability": "view",
      "type": "function"
    },
    {
      "inputs": [
        {
          "internalType": "address",
          "name": "to",
          "type": "address"
        },
        {
          "internalType": "string",
          "name": "boostType",
          "type": "string"
        },
        {
          "internalType": "string",
          "name": "boostRank",
          "type": "string"
        },
        {
          "internalType": "uint256",
          "name": "boostNumerator",
          "type": "uint256"
        },
        {
          "internalType": "uint256",
          "name": "redeemDeadline",
          "type": "uint256"
        }
      ],
      "name": "mint",
      "outputs": [],
      "stateMutability": "nonpayable",
      "type": "function"
    },
    {
      "inputs": [],
      "name": "name",
      "outputs": [
        {
          "internalType": "string",
          "name": "",
          "type": "string"
        }
      ],
      "stateMutability": "view",
      "type": "function"
    },
    {
      "inputs": [
        {
          "internalType": "uint256",
          "name": "tokenId",
          "type": "uint256"
        }
      ],
      "name": "ownerOf",
      "outputs": [
        {
          "internalType": "address",
          "name": "",
          "type": "address"
        }
      ],
      "stateMutability": "view",
      "type": "function"
    },
    {
      "inputs": [
        {
          "internalType": "address",
          "name": "tokenAddress",
          "type": "address"
        }
      ],
      "name": "reclaimErc20Tokens",
      "outputs": [],
      "stateMutability": "nonpayable",
      "type": "function"
    },
    {
      "inputs": [
        {
          "internalType": "address",
          "name": "tokenAddress",
          "type": "address"
        },
        {
          "internalType": "uint256",
          "name": "tokenId",
          "type": "uint256"
        }
      ],
      "name": "reclaimErc721Tokens",
      "outputs": [],
      "stateMutability": "nonpayable",
      "type": "function"
    },
    {
      "inputs": [
        {
          "internalType": "bytes32",
          "name": "role",
          "type": "bytes32"
        },
        {
          "internalType": "address",
          "name": "account",
          "type": "address"
        }
      ],
      "name": "renounceRole",
      "outputs": [],
      "stateMutability": "nonpayable",
      "type": "function"
    },
    {
      "inputs": [
        {
          "internalType": "bytes32",
          "name": "role",
          "type": "bytes32"
        },
        {
          "internalType": "address",
          "name": "account",
          "type": "address"
        }
      ],
      "name": "revokeRole",
      "outputs": [],
      "stateMutability": "nonpayable",
      "type": "function"
    },
    {
      "inputs": [
        {
          "internalType": "address",
          "name": "from",
          "type": "address"
        },
        {
          "internalType": "address",
          "name": "to",
          "type": "address"
        },
        {
          "internalType": "uint256",
          "name": "tokenId",
          "type": "uint256"
        }
      ],
      "name": "safeTransferFrom",
      "outputs": [],
      "stateMutability": "nonpayable",
      "type": "function"
    },
    {
      "inputs": [
        {
          "internalType": "address",
          "name": "from",
          "type": "address"
        },
        {
          "internalType": "address",
          "name": "to",
          "type": "address"
        },
        {
          "internalType": "uint256",
          "name": "tokenId",
          "type": "uint256"
        },
        {
          "internalType": "bytes",
          "name": "_data",
          "type": "bytes"
        }
      ],
      "name": "safeTransferFrom",
      "outputs": [],
      "stateMutability": "nonpayable",
      "type": "function"
    },
    {
      "inputs": [
        {
          "internalType": "address",
          "name": "operator",
          "type": "address"
        },
        {
          "internalType": "bool",
          "name": "approved",
          "type": "bool"
        }
      ],
      "name": "setApprovalForAll",
      "outputs": [],
      "stateMutability": "nonpayable",
      "type": "function"
    },
    {
      "inputs": [
        {
          "internalType": "bytes4",
          "name": "interfaceId",
          "type": "bytes4"
        }
      ],
      "name": "supportsInterface",
      "outputs": [
        {
          "internalType": "bool",
          "name": "",
          "type": "bool"
        }
      ],
      "stateMutability": "view",
      "type": "function"
    },
    {
      "inputs": [],
      "name": "symbol",
      "outputs": [
        {
          "internalType": "string",
          "name": "",
          "type": "string"
        }
      ],
      "stateMutability": "view",
      "type": "function"
    },
    {
      "inputs": [
        {
          "internalType": "uint256",
          "name": "index",
          "type": "uint256"
        }
      ],
      "name": "tokenByIndex",
      "outputs": [
        {
          "internalType": "uint256",
          "name": "",
          "type": "uint256"
        }
      ],
      "stateMutability": "view",
      "type": "function"
    },
    {
      "inputs": [
        {
          "internalType": "address",
          "name": "owner",
          "type": "address"
        },
        {
          "internalType": "uint256",
          "name": "index",
          "type": "uint256"
        }
      ],
      "name": "tokenOfOwnerByIndex",
      "outputs": [
        {
          "internalType": "uint256",
          "name": "",
          "type": "uint256"
        }
      ],
      "stateMutability": "view",
      "type": "function"
    },
    {
      "inputs": [
        {
          "internalType": "uint256",
          "name": "tokenId",
          "type": "uint256"
        }
      ],
      "name": "tokenURI",
      "outputs": [
        {
          "internalType": "string",
          "name": "",
          "type": "string"
        }
      ],
      "stateMutability": "view",
      "type": "function"
    },
    {
      "inputs": [],
      "name": "totalSupply",
      "outputs": [
        {
          "internalType": "uint256",
          "name": "",
          "type": "uint256"
        }
      ],
      "stateMutability": "view",
      "type": "function"
    },
    {
      "inputs": [
        {
          "internalType": "address",
          "name": "from",
          "type": "address"
        },
        {
          "internalType": "address",
          "name": "to",
          "type": "address"
        },
        {
          "internalType": "uint256",
          "name": "tokenId",
          "type": "uint256"
        }
      ],
      "name": "transferFrom",
      "outputs": [],
      "stateMutability": "nonpayable",
      "type": "function"
    },
    {
      "inputs": [
        {
          "internalType": "uint256",
          "name": "typeIndex",
          "type": "uint256"
        }
      ],
      "name": "typeAt",
      "outputs": [
        {
          "internalType": "string",
          "name": "",
          "type": "string"
        }
      ],
      "stateMutability": "view",
      "type": "function"
    },
    {
      "inputs": [
        {
          "internalType": "uint256",
          "name": "tokenId",
          "type": "uint256"
        }
      ],
      "name": "typeIndexOf",
      "outputs": [
        {
          "internalType": "uint256",
          "name": "",
          "type": "uint256"
        }
      ],
      "stateMutability": "view",
      "type": "function"
    },
    {
      "inputs": [
        {
          "internalType": "uint256",
          "name": "tokenId",
          "type": "uint256"
        }
      ],
      "name": "typeOf",
      "outputs": [
        {
          "internalType": "string",
          "name": "",
          "type": "string"
        }
      ],
      "stateMutability": "view",
      "type": "function"
    },
    {
      "inputs": [
        {
          "internalType": "string",
          "name": "baseTokenURI",
          "type": "string"
        }
      ],
      "name": "updateBaseURI",
      "outputs": [],
      "stateMutability": "nonpayable",
      "type": "function"
    }
  ],
  "transactionHash": "0x10f486a1bcbc663d544b081540944f431e94aefacd00763295b50d139b792981",
  "args": [
    "0xA18732DC751BE0dB04157eb92C92BA9d0fC09FC5",
    ""
  ],
  "numDeployments": 3,
  "solcInputHash": "0f39b801ca05a1c3d01aa72b5ad60876",
  "bytecode": "0x60806040523480156200001157600080fd5b506040516200347738038062003477833981016040819052620000349162000322565b604080518082018252600e81526d1213d41488109bdbdcdd0813919560921b60208083019182528351808501909452600a8452691213d41488109bdbdcdd60b21b9084015281519192916200008c9160029162000266565b508051620000a290600390602084019062000266565b50506001600d55508051620000bf90600e90602084019062000266565b50620000cd60008362000101565b620000f97f9f2df0fed2c77648de5860a4cc508cd0818c85b8b8a1ab4ceeef8d981c8956a68362000101565b50506200045f565b6200010d828262000111565b5050565b6200012882826200015460201b62000fc91760201c565b60008281526001602090815260409091206200014f9183906200104d620001f4821b17901c565b505050565b6000828152602081815260408083206001600160a01b038516845290915290205460ff166200010d576000828152602081815260408083206001600160a01b03851684529091529020805460ff19166001179055620001b03390565b6001600160a01b0316816001600160a01b0316837f2f8788117e7eff1d82e926ec794901d17c78024a50270940304540a733656f0d60405160405180910390a45050565b60006200020b836001600160a01b03841662000214565b90505b92915050565b60008181526001830160205260408120546200025d575081546001818101845560008481526020808220909301849055845484825282860190935260409020919091556200020e565b5060006200020e565b828054620002749062000422565b90600052602060002090601f016020900481019282620002985760008555620002e3565b82601f10620002b357805160ff1916838001178555620002e3565b82800160010185558215620002e3579182015b82811115620002e3578251825591602001919060010190620002c6565b50620002f1929150620002f5565b5090565b5b80821115620002f15760008155600101620002f6565b634e487b7160e01b600052604160045260246000fd5b600080604083850312156200033657600080fd5b82516001600160a01b03811681146200034e57600080fd5b602084810151919350906001600160401b03808211156200036e57600080fd5b818601915086601f8301126200038357600080fd5b8151818111156200039857620003986200030c565b604051601f8201601f19908116603f01168101908382118183101715620003c357620003c36200030c565b816040528281528986848701011115620003dc57600080fd5b600093505b82841015620004005784840186015181850187015292850192620003e1565b82841115620004125760008684830101525b8096505050505050509250929050565b600181811c908216806200043757607f821691505b602082108114156200045957634e487b7160e01b600052602260045260246000fd5b50919050565b613008806200046f6000396000f3fe608060405234801561001057600080fd5b50600436106102065760003560e01c806370a082311161011a578063a22cb465116100ad578063c87b56dd1161007c578063c87b56dd14610498578063ca15c873146104ab578063d5391393146104be578063d547741f146104e5578063e985e9c5146104f857600080fd5b8063a22cb4651461044c578063b5185a881461045f578063b88d4fde14610472578063c588ff8b1461048557600080fd5b8063931688cb116100e9578063931688cb146104165780639365c5331461042957806395d89b411461043c578063a217fddf1461044457600080fd5b806370a082311461039b578063896cddf4146103ae5780639010d07c146103f057806391d148541461040357600080fd5b80632f2ff15d1161019d57806348c64e411161016c57806348c64e411461032f5780634f6ccce714610342578063562317c5146103555780636067bc15146103755780636352211e1461038857600080fd5b80632f2ff15d146102e35780632f745c59146102f657806336568abe1461030957806342842e0e1461031c57600080fd5b806318160ddd116101d957806318160ddd1461028857806323b872dd1461029a578063248a9ca3146102ad57806329867dac146102d057600080fd5b806301ffc9a71461020b57806306fdde0314610233578063081812fc14610248578063095ea7b314610273575b600080fd5b61021e61021936600461273d565b610534565b60405190151581526020015b60405180910390f35b61023b61055f565b60405161022a91906127b2565b61025b6102563660046127c5565b6105f1565b6040516001600160a01b03909116815260200161022a565b6102866102813660046127fa565b61067e565b005b600b545b60405190815260200161022a565b6102866102a8366004612824565b610794565b61028c6102bb3660046127c5565b60009081526020819052604090206001015490565b6102866102de36600461290c565b6107c5565b6102866102f1366004612992565b610877565b61028c6103043660046127fa565b61089d565b610286610317366004612992565b610933565b61028661032a366004612824565b6109b1565b61028661033d3660046127fa565b6109cc565b61028c6103503660046127c5565b610aa6565b61028c6103633660046127c5565b60009081526013602052604090205490565b6102866103833660046129be565b610b39565b61025b6103963660046127c5565b610c32565b61028c6103a93660046129be565b610ca9565b6103db6103bc3660046127c5565b6000908152601160209081526040808320546012909252909120549091565b6040805192835260208301919091520161022a565b61025b6103fe3660046129d9565b610d30565b61021e610411366004612992565b610d4f565b6102866104243660046129fb565b610d78565b610286610437366004612a79565b610d97565b61023b610f04565b61028c600081565b61028661045a366004612b5e565b610f13565b61023b61046d3660046127c5565b610f1e565b610286610480366004612b95565b610f2b565b61023b6104933660046127c5565b610f63565b61023b6104a63660046127c5565b610f81565b61028c6104b93660046127c5565b610f8c565b61028c7f9f2df0fed2c77648de5860a4cc508cd0818c85b8b8a1ab4ceeef8d981c8956a681565b6102866104f3366004612992565b610fa3565b61021e610506366004612c11565b6001600160a01b03918216600090815260076020908152604080832093909416825291909152205460ff1690565b60006001600160e01b03198216630d639add60e11b1480610559575061055982611062565b92915050565b60606002805461056e90612c3b565b80601f016020809104026020016040519081016040528092919081815260200182805461059a90612c3b565b80156105e75780601f106105bc576101008083540402835291602001916105e7565b820191906000526020600020905b8154815290600101906020018083116105ca57829003601f168201915b5050505050905090565b60006105fc82611087565b6106625760405162461bcd60e51b815260206004820152602c60248201527f4552433732313a20617070726f76656420717565727920666f72206e6f6e657860448201526b34b9ba32b73a103a37b5b2b760a11b60648201526084015b60405180910390fd5b506000908152600660205260409020546001600160a01b031690565b600061068982610c32565b9050806001600160a01b0316836001600160a01b031614156106f75760405162461bcd60e51b815260206004820152602160248201527f4552433732313a20617070726f76616c20746f2063757272656e74206f776e656044820152603960f91b6064820152608401610659565b336001600160a01b038216148061071357506107138133610506565b6107855760405162461bcd60e51b815260206004820152603860248201527f4552433732313a20617070726f76652063616c6c6572206973206e6f74206f7760448201527f6e6572206e6f7220617070726f76656420666f7220616c6c00000000000000006064820152608401610659565b61078f83836110a4565b505050565b61079e3382611112565b6107ba5760405162461bcd60e51b815260040161065990612c76565b61078f8383836111fc565b7f9f2df0fed2c77648de5860a4cc508cd0818c85b8b8a1ab4ceeef8d981c8956a66107f081336113a7565b6107fb600f8661140b565b506000610809600f876114c2565b905060008686604051602001610820929190612cc7565b604051602081830303815290604052905061083e88868685856114ed565b8385837f735e5eb5afdd72cc64657ded7e5de390af3708afb5b9a80b0e5c911a0499d98f60405160405180910390a45050505050505050565b60008281526020819052604090206001015461089381336113a7565b61078f838361153e565b60006108a883610ca9565b821061090a5760405162461bcd60e51b815260206004820152602b60248201527f455243373231456e756d657261626c653a206f776e657220696e646578206f7560448201526a74206f6620626f756e647360a81b6064820152608401610659565b506001600160a01b03919091166000908152600960209081526040808320938352929052205490565b6001600160a01b03811633146109a35760405162461bcd60e51b815260206004820152602f60248201527f416363657373436f6e74726f6c3a2063616e206f6e6c792072656e6f756e636560448201526e103937b632b9903337b91039b2b63360891b6064820152608401610659565b6109ad8282611560565b5050565b61078f83838360405180602001604052806000815250610f2b565b60006109d881336113a7565b6002600d541415610a2b5760405162461bcd60e51b815260206004820152601f60248201527f5265656e7472616e637947756172643a207265656e7472616e742063616c6c006044820152606401610659565b6002600d55604080516323b872dd60e01b81523060048201523360248201526044810184905290516001600160a01b038516916323b872dd91606480830192600092919082900301818387803b158015610a8457600080fd5b505af1158015610a98573d6000803e3d6000fd5b50506001600d555050505050565b6000610ab1600b5490565b8210610b145760405162461bcd60e51b815260206004820152602c60248201527f455243373231456e756d657261626c653a20676c6f62616c20696e646578206f60448201526b7574206f6620626f756e647360a01b6064820152608401610659565b600b8281548110610b2757610b27612d03565b90600052602060002001549050919050565b6000610b4581336113a7565b6002600d541415610b985760405162461bcd60e51b815260206004820152601f60248201527f5265656e7472616e637947756172643a207265656e7472616e742063616c6c006044820152606401610659565b6002600d55610c29336040516370a0823160e01b81523060048201526001600160a01b038516906370a082319060240160206040518083038186803b158015610be057600080fd5b505afa158015610bf4573d6000803e3d6000fd5b505050506040513d601f19601f82011682018060405250810190610c189190612d19565b6001600160a01b0385169190611582565b50506001600d55565b6000818152600460205260408120546001600160a01b0316806105595760405162461bcd60e51b815260206004820152602960248201527f4552433732313a206f776e657220717565727920666f72206e6f6e657869737460448201526832b73a103a37b5b2b760b91b6064820152608401610659565b60006001600160a01b038216610d145760405162461bcd60e51b815260206004820152602a60248201527f4552433732313a2062616c616e636520717565727920666f7220746865207a65604482015269726f206164647265737360b01b6064820152608401610659565b506001600160a01b031660009081526005602052604090205490565b6000828152600160205260408120610d4890836115d4565b9392505050565b6000918252602082815260408084206001600160a01b0393909316845291905290205460ff1690565b6000610d8481336113a7565b815161078f90600e90602085019061268b565b7f9f2df0fed2c77648de5860a4cc508cd0818c85b8b8a1ab4ceeef8d981c8956a6610dc281336113a7565b610e0587878080601f016020809104026020016040519081016040528093929190818152602001838380828437600092019190915250600f9392505061140b9050565b506000610e4b88888080601f016020809104026020016040519081016040528093929190818152602001838380828437600092019190915250600f939250506114c29050565b9050600088888888604051602001610e669493929190612d32565b604051602081830303815290604052905060005b8a811015610ec757610eb58c8c83818110610e9757610e97612d03565b9050602002016020810190610eac91906129be565b878786866114ed565b80610ebf81612d75565b915050610e7a565b508385837f735e5eb5afdd72cc64657ded7e5de390af3708afb5b9a80b0e5c911a0499d98f60405160405180910390a45050505050505050505050565b60606003805461056e90612c3b565b6109ad3383836115e0565b6060610559600f836116af565b610f353383611112565b610f515760405162461bcd60e51b815260040161065990612c76565b610f5d84848484611768565b50505050565b60008181526013602052604090205460609061055990600f906116af565b60606105598261179b565b6000818152600160205260408120610559906118fd565b600082815260208190526040902060010154610fbf81336113a7565b61078f8383611560565b610fd38282610d4f565b6109ad576000828152602081815260408083206001600160a01b03851684529091529020805460ff191660011790556110093390565b6001600160a01b0316816001600160a01b0316837f2f8788117e7eff1d82e926ec794901d17c78024a50270940304540a733656f0d60405160405180910390a45050565b6000610d48836001600160a01b038416611907565b60006001600160e01b0319821663780e9d6360e01b148061055957506105598261194e565b6000908152600460205260409020546001600160a01b0316151590565b600081815260066020526040902080546001600160a01b0319166001600160a01b03841690811790915581906110d982610c32565b6001600160a01b03167f8c5be1e5ebec7d5bd14f71427d1e84f3dd0314c0f7b2291e5b200ac8c7c3b92560405160405180910390a45050565b600061111d82611087565b61117e5760405162461bcd60e51b815260206004820152602c60248201527f4552433732313a206f70657261746f7220717565727920666f72206e6f6e657860448201526b34b9ba32b73a103a37b5b2b760a11b6064820152608401610659565b600061118983610c32565b9050806001600160a01b0316846001600160a01b031614806111c45750836001600160a01b03166111b9846105f1565b6001600160a01b0316145b806111f457506001600160a01b0380821660009081526007602090815260408083209388168352929052205460ff165b949350505050565b826001600160a01b031661120f82610c32565b6001600160a01b0316146112775760405162461bcd60e51b815260206004820152602960248201527f4552433732313a207472616e73666572206f6620746f6b656e2074686174206960448201526839903737ba1037bbb760b91b6064820152608401610659565b6001600160a01b0382166112d95760405162461bcd60e51b8152602060048201526024808201527f4552433732313a207472616e7366657220746f20746865207a65726f206164646044820152637265737360e01b6064820152608401610659565b6112e483838361198e565b6112ef6000826110a4565b6001600160a01b0383166000908152600560205260408120805460019290611318908490612d90565b90915550506001600160a01b0382166000908152600560205260408120805460019290611346908490612da7565b909155505060008181526004602052604080822080546001600160a01b0319166001600160a01b0386811691821790925591518493918716917fddf252ad1be2c89b69c2b068fc378daa952ba7f163c4a11628f55a4df523b3ef91a4505050565b6113b18282610d4f565b6109ad576113c9816001600160a01b03166014611999565b6113d4836020611999565b6040516020016113e5929190612dbf565b60408051601f198184030181529082905262461bcd60e51b8252610659916004016127b2565b60006114178383611b35565b6114ba5782546001810184556000848152602090819020845161144193919091019185019061268b565b5082546040516001850190611457908590612e34565b908152602001604051809103902081905550826001018260405161147b9190612e34565b90815260405190819003602001812054907f11497a834951095469930ec62e1641f0dcf3617d9cd7579b6da76e54df3000a790600090a2506001610559565b506000610559565b600082600101826040516114d69190612e34565b908152602001604051809103902054905092915050565b60006114f8600b5490565b90506115048682611b62565b600081815260116020908152604080832088905560128252808320879055601390915290208390556115368183611ca1565b505050505050565b6115488282610fc9565b600082815260016020526040902061078f908261104d565b61156a8282611d2c565b600082815260016020526040902061078f9082611d91565b604080516001600160a01b038416602482015260448082018490528251808303909101815260649091019091526020810180516001600160e01b031663a9059cbb60e01b17905261078f908490611da6565b6000610d488383611e78565b816001600160a01b0316836001600160a01b031614156116425760405162461bcd60e51b815260206004820152601960248201527f4552433732313a20617070726f766520746f2063616c6c6572000000000000006044820152606401610659565b6001600160a01b03838116600081815260076020908152604080832094871680845294825291829020805460ff191686151590811790915591519182527f17307eab39ab6107e8899845ad3d59bd9653f200f220920489ca2b5937696c31910160405180910390a3505050565b6060826116bd600184612d90565b815481106116cd576116cd612d03565b9060005260206000200180546116e290612c3b565b80601f016020809104026020016040519081016040528092919081815260200182805461170e90612c3b565b801561175b5780601f106117305761010080835404028352916020019161175b565b820191906000526020600020905b81548152906001019060200180831161173e57829003601f168201915b5050505050905092915050565b6117738484846111fc565b61177f84848484611ea2565b610f5d5760405162461bcd60e51b815260040161065990612e50565b60606117a682611087565b61180c5760405162461bcd60e51b815260206004820152603160248201527f45524337323155524953746f726167653a2055524920717565727920666f72206044820152703737b732bc34b9ba32b73a103a37b5b2b760791b6064820152608401610659565b6000828152600860205260408120805461182590612c3b565b80601f016020809104026020016040519081016040528092919081815260200182805461185190612c3b565b801561189e5780601f106118735761010080835404028352916020019161189e565b820191906000526020600020905b81548152906001019060200180831161188157829003601f168201915b5050505050905060006118af611faf565b90508051600014156118c2575092915050565b8151156118f45780826040516020016118dc929190612ea2565b60405160208183030381529060405292505050919050565b6111f484611fbe565b6000610559825490565b60008181526001830160205260408120546114ba57508154600181810184556000848152602080822090930184905584548482528286019093526040902091909155610559565b60006001600160e01b031982166380ac58cd60e01b148061197f57506001600160e01b03198216635b5e139f60e01b145b80610559575061055982612088565b61078f8383836120ad565b606060006119a8836002612ed1565b6119b3906002612da7565b67ffffffffffffffff8111156119cb576119cb612860565b6040519080825280601f01601f1916602001820160405280156119f5576020820181803683370190505b509050600360fc1b81600081518110611a1057611a10612d03565b60200101906001600160f81b031916908160001a905350600f60fb1b81600181518110611a3f57611a3f612d03565b60200101906001600160f81b031916908160001a9053506000611a63846002612ed1565b611a6e906001612da7565b90505b6001811115611ae6576f181899199a1a9b1b9c1cb0b131b232b360811b85600f1660108110611aa257611aa2612d03565b1a60f81b828281518110611ab857611ab8612d03565b60200101906001600160f81b031916908160001a90535060049490941c93611adf81612ef0565b9050611a71565b508315610d485760405162461bcd60e51b815260206004820181905260248201527f537472696e67733a20686578206c656e67746820696e73756666696369656e746044820152606401610659565b60008260010182604051611b499190612e34565b9081526040519081900360200190205415159392505050565b6001600160a01b038216611bb85760405162461bcd60e51b815260206004820181905260248201527f4552433732313a206d696e7420746f20746865207a65726f20616464726573736044820152606401610659565b611bc181611087565b15611c0e5760405162461bcd60e51b815260206004820152601c60248201527f4552433732313a20746f6b656e20616c7265616479206d696e746564000000006044820152606401610659565b611c1a6000838361198e565b6001600160a01b0382166000908152600560205260408120805460019290611c43908490612da7565b909155505060008181526004602052604080822080546001600160a01b0319166001600160a01b03861690811790915590518392907fddf252ad1be2c89b69c2b068fc378daa952ba7f163c4a11628f55a4df523b3ef908290a45050565b611caa82611087565b611d0d5760405162461bcd60e51b815260206004820152602e60248201527f45524337323155524953746f726167653a2055524920736574206f66206e6f6e60448201526d32bc34b9ba32b73a103a37b5b2b760911b6064820152608401610659565b6000828152600860209081526040909120825161078f9284019061268b565b611d368282610d4f565b156109ad576000828152602081815260408083206001600160a01b0385168085529252808320805460ff1916905551339285917ff6391f5c32d9c69d2a47ea670b442974b53935d1edc7fd64eb21e047a839171b9190a45050565b6000610d48836001600160a01b038416612165565b6000611dfb826040518060400160405280602081526020017f5361666545524332303a206c6f772d6c6576656c2063616c6c206661696c6564815250856001600160a01b03166122589092919063ffffffff16565b80519091501561078f5780806020019051810190611e199190612f07565b61078f5760405162461bcd60e51b815260206004820152602a60248201527f5361666545524332303a204552433230206f7065726174696f6e20646964206e6044820152691bdd081cdd58d8d9595960b21b6064820152608401610659565b6000826000018281548110611e8f57611e8f612d03565b9060005260206000200154905092915050565b60006001600160a01b0384163b15611fa457604051630a85bd0160e11b81526001600160a01b0385169063150b7a0290611ee6903390899088908890600401612f24565b602060405180830381600087803b158015611f0057600080fd5b505af1925050508015611f30575060408051601f3d908101601f19168201909252611f2d91810190612f61565b60015b611f8a573d808015611f5e576040519150601f19603f3d011682016040523d82523d6000602084013e611f63565b606091505b508051611f825760405162461bcd60e51b815260040161065990612e50565b805181602001fd5b6001600160e01b031916630a85bd0160e11b1490506111f4565b506001949350505050565b6060600e805461056e90612c3b565b6060611fc982611087565b61202d5760405162461bcd60e51b815260206004820152602f60248201527f4552433732314d657461646174613a2055524920717565727920666f72206e6f60448201526e3732bc34b9ba32b73a103a37b5b2b760891b6064820152608401610659565b6000612037611faf565b905060008151116120575760405180602001604052806000815250610d48565b8061206184612267565b604051602001612072929190612ea2565b6040516020818303038152906040529392505050565b60006001600160e01b03198216635a05180f60e01b1480610559575061055982612365565b6001600160a01b0383166121085761210381600b80546000838152600c60205260408120829055600182018355919091527f0175b7a638427703f0dbe7bb9bbf987a2551717b34e79f33b5b1008d1fa01db90155565b61212b565b816001600160a01b0316836001600160a01b03161461212b5761212b838261239a565b6001600160a01b0382166121425761078f81612437565b826001600160a01b0316826001600160a01b03161461078f5761078f82826124e6565b6000818152600183016020526040812054801561224e576000612189600183612d90565b855490915060009061219d90600190612d90565b90508181146122025760008660000182815481106121bd576121bd612d03565b90600052602060002001549050808760000184815481106121e0576121e0612d03565b6000918252602080832090910192909255918252600188019052604090208390555b855486908061221357612213612f7e565b600190038181906000526020600020016000905590558560010160008681526020019081526020016000206000905560019350505050610559565b6000915050610559565b60606111f4848460008561252a565b60608161228b5750506040805180820190915260018152600360fc1b602082015290565b8160005b81156122b5578061229f81612d75565b91506122ae9050600a83612faa565b915061228f565b60008167ffffffffffffffff8111156122d0576122d0612860565b6040519080825280601f01601f1916602001820160405280156122fa576020820181803683370190505b5090505b84156111f45761230f600183612d90565b915061231c600a86612fbe565b612327906030612da7565b60f81b81838151811061233c5761233c612d03565b60200101906001600160f81b031916908160001a90535061235e600a86612faa565b94506122fe565b60006001600160e01b03198216637965db0b60e01b148061055957506301ffc9a760e01b6001600160e01b0319831614610559565b600060016123a784610ca9565b6123b19190612d90565b6000838152600a6020526040902054909150808214612404576001600160a01b03841660009081526009602090815260408083208584528252808320548484528184208190558352600a90915290208190555b506000918252600a602090815260408084208490556001600160a01b039094168352600981528383209183525290812055565b600b5460009061244990600190612d90565b6000838152600c6020526040812054600b805493945090928490811061247157612471612d03565b9060005260206000200154905080600b838154811061249257612492612d03565b6000918252602080832090910192909255828152600c9091526040808220849055858252812055600b8054806124ca576124ca612f7e565b6001900381819060005260206000200160009055905550505050565b60006124f183610ca9565b6001600160a01b0390931660009081526009602090815260408083208684528252808320859055938252600a9052919091209190915550565b60608247101561258b5760405162461bcd60e51b815260206004820152602660248201527f416464726573733a20696e73756666696369656e742062616c616e636520666f6044820152651c8818d85b1b60d21b6064820152608401610659565b843b6125d95760405162461bcd60e51b815260206004820152601d60248201527f416464726573733a2063616c6c20746f206e6f6e2d636f6e74726163740000006044820152606401610659565b600080866001600160a01b031685876040516125f59190612e34565b60006040518083038185875af1925050503d8060008114612632576040519150601f19603f3d011682016040523d82523d6000602084013e612637565b606091505b5091509150612647828286612652565b979650505050505050565b60608315612661575081610d48565b8251156126715782518084602001fd5b8160405162461bcd60e51b815260040161065991906127b2565b82805461269790612c3b565b90600052602060002090601f0160209004810192826126b957600085556126ff565b82601f106126d257805160ff19168380011785556126ff565b828001600101855582156126ff579182015b828111156126ff5782518255916020019190600101906126e4565b5061270b92915061270f565b5090565b5b8082111561270b5760008155600101612710565b6001600160e01b03198116811461273a57600080fd5b50565b60006020828403121561274f57600080fd5b8135610d4881612724565b60005b8381101561277557818101518382015260200161275d565b83811115610f5d5750506000910152565b6000815180845261279e81602086016020860161275a565b601f01601f19169290920160200192915050565b602081526000610d486020830184612786565b6000602082840312156127d757600080fd5b5035919050565b80356001600160a01b03811681146127f557600080fd5b919050565b6000806040838503121561280d57600080fd5b612816836127de565b946020939093013593505050565b60008060006060848603121561283957600080fd5b612842846127de565b9250612850602085016127de565b9150604084013590509250925092565b634e487b7160e01b600052604160045260246000fd5b600067ffffffffffffffff8084111561289157612891612860565b604051601f8501601f19908116603f011681019082821181831017156128b9576128b9612860565b816040528093508581528686860111156128d257600080fd5b858560208301376000602087830101525050509392505050565b600082601f8301126128fd57600080fd5b610d4883833560208501612876565b600080600080600060a0868803121561292457600080fd5b61292d866127de565b9450602086013567ffffffffffffffff8082111561294a57600080fd5b61295689838a016128ec565b9550604088013591508082111561296c57600080fd5b50612979888289016128ec565b9598949750949560608101359550608001359392505050565b600080604083850312156129a557600080fd5b823591506129b5602084016127de565b90509250929050565b6000602082840312156129d057600080fd5b610d48826127de565b600080604083850312156129ec57600080fd5b50508035926020909101359150565b600060208284031215612a0d57600080fd5b813567ffffffffffffffff811115612a2457600080fd5b6111f4848285016128ec565b60008083601f840112612a4257600080fd5b50813567ffffffffffffffff811115612a5a57600080fd5b602083019150836020828501011115612a7257600080fd5b9250929050565b60008060008060008060008060a0898b031215612a9557600080fd5b883567ffffffffffffffff80821115612aad57600080fd5b818b0191508b601f830112612ac157600080fd5b813581811115612ad057600080fd5b8c60208260051b8501011115612ae557600080fd5b60209283019a509850908a01359080821115612b0057600080fd5b612b0c8c838d01612a30565b909850965060408b0135915080821115612b2557600080fd5b50612b328b828c01612a30565b999c989b509699959896976060870135966080013595509350505050565b801515811461273a57600080fd5b60008060408385031215612b7157600080fd5b612b7a836127de565b91506020830135612b8a81612b50565b809150509250929050565b60008060008060808587031215612bab57600080fd5b612bb4856127de565b9350612bc2602086016127de565b925060408501359150606085013567ffffffffffffffff811115612be557600080fd5b8501601f81018713612bf657600080fd5b612c0587823560208401612876565b91505092959194509250565b60008060408385031215612c2457600080fd5b612c2d836127de565b91506129b5602084016127de565b600181811c90821680612c4f57607f821691505b60208210811415612c7057634e487b7160e01b600052602260045260246000fd5b50919050565b60208082526031908201527f4552433732313a207472616e736665722063616c6c6572206973206e6f74206f6040820152701ddb995c881b9bdc88185c1c1c9bdd9959607a1b606082015260800190565b60008351612cd981846020880161275a565b602f60f81b9083019081528351612cf781600184016020880161275a565b01600101949350505050565b634e487b7160e01b600052603260045260246000fd5b600060208284031215612d2b57600080fd5b5051919050565b83858237602f60f81b81850190815260009083856001830137600093016001019283525090949350505050565b634e487b7160e01b600052601160045260246000fd5b6000600019821415612d8957612d89612d5f565b5060010190565b600082821015612da257612da2612d5f565b500390565b60008219821115612dba57612dba612d5f565b500190565b7f416363657373436f6e74726f6c3a206163636f756e7420000000000000000000815260008351612df781601785016020880161275a565b7001034b99036b4b9b9b4b733903937b6329607d1b6017918401918201528351612e2881602884016020880161275a565b01602801949350505050565b60008251612e4681846020870161275a565b9190910192915050565b60208082526032908201527f4552433732313a207472616e7366657220746f206e6f6e20455243373231526560408201527131b2b4bb32b91034b6b83632b6b2b73a32b960711b606082015260800190565b60008351612eb481846020880161275a565b835190830190612ec881836020880161275a565b01949350505050565b6000816000190483118215151615612eeb57612eeb612d5f565b500290565b600081612eff57612eff612d5f565b506000190190565b600060208284031215612f1957600080fd5b8151610d4881612b50565b6001600160a01b0385811682528416602082015260408101839052608060608201819052600090612f5790830184612786565b9695505050505050565b600060208284031215612f7357600080fd5b8151610d4881612724565b634e487b7160e01b600052603160045260246000fd5b634e487b7160e01b600052601260045260246000fd5b600082612fb957612fb9612f94565b500490565b600082612fcd57612fcd612f94565b50069056fea26469706673582212201ec1472657ad50abca4405b0351eeb8f58e9a1144231030e9046c4ee8bc0969664736f6c63430008090033",
  "devdoc": {
    "kind": "dev",
    "methods": {
      "approve(address,uint256)": {
        "details": "See {IERC721-approve}."
      },
      "balanceOf(address)": {
        "details": "See {IERC721-balanceOf}."
      },
      "batchMint(address[],string,string,uint256,uint256)": {
        "details": "Minter creates new tokens for `to` array. Its token ID will be automatically assigned based on current `totalSupply`. (and available on the emitted {IERC721-Transfer} event). Provide boost factor, boost type and boost rank. If needed, register a new class of boost, with its \"type\", \"rank\" and \"boost factor (numerator)\" The token URI is generated based on the base URI, boostType and boostRank.",
        "params": {
          "boostNumerator": "uint256 Numerator of the boost factor. Its denominator is 1e12.",
          "boostRank": "string Rank of the boost",
          "boostType": "string Type of the boost",
          "redeemDeadline": "uint256 Deadline for redeem a boost. Epoch Unix Timestamp",
          "to": "address[] Addresses of token holder that will receive the NFT token of the given \"type\""
        }
      },
      "boostOf(uint256)": {
        "details": "Returns the boost factor and the redeem deadline associated with ``tokenId``.",
        "params": {
          "tokenId": "uint256 token Id of the boost."
        }
      },
      "constructor": {
        "details": "Set a new admin role. Set the new admin as a minter. Provide name and symbol for ERC721. Update the ``_baseTokenURI``.",
        "params": {
          "newAdmin": "address Address of the new admin account"
        }
      },
      "getApproved(uint256)": {
        "details": "See {IERC721-getApproved}."
      },
      "getRoleAdmin(bytes32)": {
        "details": "Returns the admin role that controls `role`. See {grantRole} and {revokeRole}. To change a role's admin, use {_setRoleAdmin}."
      },
      "getRoleMember(bytes32,uint256)": {
        "details": "Returns one of the accounts that have `role`. `index` must be a value between 0 and {getRoleMemberCount}, non-inclusive. Role bearers are not sorted in any particular way, and their ordering may change at any point. WARNING: When using {getRoleMember} and {getRoleMemberCount}, make sure you perform all queries on the same block. See the following https://forum.openzeppelin.com/t/iterating-over-elements-on-enumerableset-in-openzeppelin-contracts/2296[forum post] for more information."
      },
      "getRoleMemberCount(bytes32)": {
        "details": "Returns the number of accounts that have `role`. Can be used together with {getRoleMember} to enumerate all bearers of a role."
      },
      "grantRole(bytes32,address)": {
        "details": "Grants `role` to `account`. If `account` had not been already granted `role`, emits a {RoleGranted} event. Requirements: - the caller must have ``role``'s admin role."
      },
      "hasRole(bytes32,address)": {
        "details": "Returns `true` if `account` has been granted `role`."
      },
      "isApprovedForAll(address,address)": {
        "details": "See {IERC721-isApprovedForAll}."
      },
      "mint(address,string,string,uint256,uint256)": {
        "details": "Minter creates a new token for `to`. Its token ID will be automatically assigned based on current `totalSupply`. (and available on the emitted {IERC721-Transfer} event). Provide boost factor, boost type and boost rank. If needed, register a new class of boost, with its \"type\", \"rank\" and \"boost factor (numerator)\" The token URI is generated based on the base URI, boostType and boostRank.",
        "params": {
          "boostNumerator": "uint256 Numerator of the boost factor. Its denominator is 1e12.",
          "boostRank": "string Rank of the boost",
          "boostType": "string Type of the boost",
          "redeemDeadline": "uint256 Deadline for redeem a boost. Epoch Unix Timestamp.",
          "to": "address Address of token holder that will receive the NFT token of the given \"type\""
        }
      },
      "name()": {
        "details": "See {IERC721Metadata-name}."
      },
      "ownerOf(uint256)": {
        "details": "See {IERC721-ownerOf}."
      },
      "reclaimErc20Tokens(address)": {
        "details": "Reclaim any ERC20 token being accidentally sent to the contract.",
        "params": {
          "tokenAddress": "address ERC20 token address."
        }
      },
      "reclaimErc721Tokens(address,uint256)": {
        "details": "Reclaim any ERC721 token being accidentally sent to the contract.",
        "params": {
          "tokenAddress": "address ERC721 token address."
        }
      },
      "renounceRole(bytes32,address)": {
        "details": "Revokes `role` from the calling account. Roles are often managed via {grantRole} and {revokeRole}: this function's purpose is to provide a mechanism for accounts to lose their privileges if they are compromised (such as when a trusted device is misplaced). If the calling account had been revoked `role`, emits a {RoleRevoked} event. Requirements: - the caller must be `account`."
      },
      "revokeRole(bytes32,address)": {
        "details": "Revokes `role` from `account`. If `account` had been granted `role`, emits a {RoleRevoked} event. Requirements: - the caller must have ``role``'s admin role."
      },
      "safeTransferFrom(address,address,uint256)": {
        "details": "See {IERC721-safeTransferFrom}."
      },
      "safeTransferFrom(address,address,uint256,bytes)": {
        "details": "See {IERC721-safeTransferFrom}."
      },
      "setApprovalForAll(address,bool)": {
        "details": "See {IERC721-setApprovalForAll}."
      },
      "supportsInterface(bytes4)": {
        "details": "See {IERC165-supportsInterface}."
      },
      "symbol()": {
        "details": "See {IERC721Metadata-symbol}."
      },
      "tokenByIndex(uint256)": {
        "details": "See {IERC721Enumerable-tokenByIndex}."
      },
      "tokenOfOwnerByIndex(address,uint256)": {
        "details": "See {IERC721Enumerable-tokenOfOwnerByIndex}."
      },
      "tokenURI(uint256)": {
        "details": "Inherit tokenURI from {ERC721} and {ERC721URIStorage}"
      },
      "totalSupply()": {
        "details": "See {IERC721Enumerable-totalSupply}."
      },
      "transferFrom(address,address,uint256)": {
        "details": "See {IERC721-transferFrom}."
      },
      "typeAt(uint256)": {
        "details": "Returns the boost type name associated with ``typeIndex``.",
        "params": {
          "typeIndex": "uint256 Index of the type."
        }
      },
      "typeIndexOf(uint256)": {
        "details": "Returns the boost type index associated with ``tokenId``.",
        "params": {
          "tokenId": "uint256 token Id of the boost."
        }
      },
      "typeOf(uint256)": {
        "details": "Returns the boost type associated with ``tokenId``.",
        "params": {
          "tokenId": "uint256 token Id of the boost."
        }
      },
      "updateBaseURI(string)": {
        "details": "Admin can update the new base URI at any time.",
        "params": {
          "baseTokenURI": "string Basic URI of the token."
        }
      }
    },
    "version": 1
  },
  "userdoc": {
    "kind": "user",
    "methods": {},
    "version": 1
  },
  "storageLayout": {
    "storage": [
      {
        "astId": 24,
        "contract": "contracts/stake/HoprBoost.sol:HoprBoost",
        "label": "_roles",
        "offset": 0,
        "slot": "0",
        "type": "t_mapping(t_bytes32,t_struct(RoleData)19_storage)"
      },
      {
        "astId": 327,
        "contract": "contracts/stake/HoprBoost.sol:HoprBoost",
        "label": "_roleMembers",
        "offset": 0,
        "slot": "1",
        "type": "t_mapping(t_bytes32,t_struct(AddressSet)5940_storage)"
      },
      {
        "astId": 1575,
        "contract": "contracts/stake/HoprBoost.sol:HoprBoost",
        "label": "_name",
        "offset": 0,
        "slot": "2",
        "type": "t_string_storage"
      },
      {
        "astId": 1577,
        "contract": "contracts/stake/HoprBoost.sol:HoprBoost",
        "label": "_symbol",
        "offset": 0,
        "slot": "3",
        "type": "t_string_storage"
      },
      {
        "astId": 1581,
        "contract": "contracts/stake/HoprBoost.sol:HoprBoost",
        "label": "_owners",
        "offset": 0,
        "slot": "4",
        "type": "t_mapping(t_uint256,t_address)"
      },
      {
        "astId": 1585,
        "contract": "contracts/stake/HoprBoost.sol:HoprBoost",
        "label": "_balances",
        "offset": 0,
        "slot": "5",
        "type": "t_mapping(t_address,t_uint256)"
      },
      {
        "astId": 1589,
        "contract": "contracts/stake/HoprBoost.sol:HoprBoost",
        "label": "_tokenApprovals",
        "offset": 0,
        "slot": "6",
        "type": "t_mapping(t_uint256,t_address)"
      },
      {
        "astId": 1595,
        "contract": "contracts/stake/HoprBoost.sol:HoprBoost",
        "label": "_operatorApprovals",
        "offset": 0,
        "slot": "7",
        "type": "t_mapping(t_address,t_mapping(t_address,t_bool))"
      },
      {
        "astId": 2865,
        "contract": "contracts/stake/HoprBoost.sol:HoprBoost",
        "label": "_tokenURIs",
        "offset": 0,
        "slot": "8",
        "type": "t_mapping(t_uint256,t_string_storage)"
      },
      {
        "astId": 2529,
        "contract": "contracts/stake/HoprBoost.sol:HoprBoost",
        "label": "_ownedTokens",
        "offset": 0,
        "slot": "9",
        "type": "t_mapping(t_address,t_mapping(t_uint256,t_uint256))"
      },
      {
        "astId": 2533,
        "contract": "contracts/stake/HoprBoost.sol:HoprBoost",
        "label": "_ownedTokensIndex",
        "offset": 0,
        "slot": "10",
        "type": "t_mapping(t_uint256,t_uint256)"
      },
      {
        "astId": 2536,
        "contract": "contracts/stake/HoprBoost.sol:HoprBoost",
        "label": "_allTokens",
        "offset": 0,
        "slot": "11",
        "type": "t_array(t_uint256)dyn_storage"
      },
      {
        "astId": 2540,
        "contract": "contracts/stake/HoprBoost.sol:HoprBoost",
        "label": "_allTokensIndex",
        "offset": 0,
        "slot": "12",
        "type": "t_mapping(t_uint256,t_uint256)"
      },
      {
        "astId": 647,
        "contract": "contracts/stake/HoprBoost.sol:HoprBoost",
        "label": "_status",
        "offset": 0,
        "slot": "13",
        "type": "t_uint256"
      },
      {
        "astId": 10249,
        "contract": "contracts/stake/HoprBoost.sol:HoprBoost",
        "label": "_baseTokenURI",
        "offset": 0,
        "slot": "14",
        "type": "t_string_storage"
      },
      {
        "astId": 10252,
        "contract": "contracts/stake/HoprBoost.sol:HoprBoost",
        "label": "_boostType",
        "offset": 0,
        "slot": "15",
        "type": "t_struct(StringSet)16385_storage"
      },
      {
        "astId": 10256,
        "contract": "contracts/stake/HoprBoost.sol:HoprBoost",
        "label": "_boostNumerator",
        "offset": 0,
        "slot": "17",
        "type": "t_mapping(t_uint256,t_uint256)"
      },
      {
        "astId": 10260,
        "contract": "contracts/stake/HoprBoost.sol:HoprBoost",
        "label": "_redeemDeadline",
        "offset": 0,
        "slot": "18",
        "type": "t_mapping(t_uint256,t_uint256)"
      },
      {
        "astId": 10264,
        "contract": "contracts/stake/HoprBoost.sol:HoprBoost",
        "label": "_boostTypeIndexOfId",
        "offset": 0,
        "slot": "19",
        "type": "t_mapping(t_uint256,t_uint256)"
      }
    ],
    "types": {
      "t_address": {
        "encoding": "inplace",
        "label": "address",
        "numberOfBytes": "20"
      },
      "t_array(t_bytes32)dyn_storage": {
        "base": "t_bytes32",
        "encoding": "dynamic_array",
        "label": "bytes32[]",
        "numberOfBytes": "32"
      },
      "t_array(t_string_storage)dyn_storage": {
        "base": "t_string_storage",
        "encoding": "dynamic_array",
        "label": "string[]",
        "numberOfBytes": "32"
      },
      "t_array(t_uint256)dyn_storage": {
        "base": "t_uint256",
        "encoding": "dynamic_array",
        "label": "uint256[]",
        "numberOfBytes": "32"
      },
      "t_bool": {
        "encoding": "inplace",
        "label": "bool",
        "numberOfBytes": "1"
      },
      "t_bytes32": {
        "encoding": "inplace",
        "label": "bytes32",
        "numberOfBytes": "32"
      },
      "t_mapping(t_address,t_bool)": {
        "encoding": "mapping",
        "key": "t_address",
        "label": "mapping(address => bool)",
        "numberOfBytes": "32",
        "value": "t_bool"
      },
      "t_mapping(t_address,t_mapping(t_address,t_bool))": {
        "encoding": "mapping",
        "key": "t_address",
        "label": "mapping(address => mapping(address => bool))",
        "numberOfBytes": "32",
        "value": "t_mapping(t_address,t_bool)"
      },
      "t_mapping(t_address,t_mapping(t_uint256,t_uint256))": {
        "encoding": "mapping",
        "key": "t_address",
        "label": "mapping(address => mapping(uint256 => uint256))",
        "numberOfBytes": "32",
        "value": "t_mapping(t_uint256,t_uint256)"
      },
      "t_mapping(t_address,t_uint256)": {
        "encoding": "mapping",
        "key": "t_address",
        "label": "mapping(address => uint256)",
        "numberOfBytes": "32",
        "value": "t_uint256"
      },
      "t_mapping(t_bytes32,t_struct(AddressSet)5940_storage)": {
        "encoding": "mapping",
        "key": "t_bytes32",
        "label": "mapping(bytes32 => struct EnumerableSet.AddressSet)",
        "numberOfBytes": "32",
        "value": "t_struct(AddressSet)5940_storage"
      },
      "t_mapping(t_bytes32,t_struct(RoleData)19_storage)": {
        "encoding": "mapping",
        "key": "t_bytes32",
        "label": "mapping(bytes32 => struct AccessControl.RoleData)",
        "numberOfBytes": "32",
        "value": "t_struct(RoleData)19_storage"
      },
      "t_mapping(t_bytes32,t_uint256)": {
        "encoding": "mapping",
        "key": "t_bytes32",
        "label": "mapping(bytes32 => uint256)",
        "numberOfBytes": "32",
        "value": "t_uint256"
      },
      "t_mapping(t_string_memory_ptr,t_uint256)": {
        "encoding": "mapping",
        "key": "t_string_memory_ptr",
        "label": "mapping(string => uint256)",
        "numberOfBytes": "32",
        "value": "t_uint256"
      },
      "t_mapping(t_uint256,t_address)": {
        "encoding": "mapping",
        "key": "t_uint256",
        "label": "mapping(uint256 => address)",
        "numberOfBytes": "32",
        "value": "t_address"
      },
      "t_mapping(t_uint256,t_string_storage)": {
        "encoding": "mapping",
        "key": "t_uint256",
        "label": "mapping(uint256 => string)",
        "numberOfBytes": "32",
        "value": "t_string_storage"
      },
      "t_mapping(t_uint256,t_uint256)": {
        "encoding": "mapping",
        "key": "t_uint256",
        "label": "mapping(uint256 => uint256)",
        "numberOfBytes": "32",
        "value": "t_uint256"
      },
      "t_string_memory_ptr": {
        "encoding": "bytes",
        "label": "string",
        "numberOfBytes": "32"
      },
      "t_string_storage": {
        "encoding": "bytes",
        "label": "string",
        "numberOfBytes": "32"
      },
      "t_struct(AddressSet)5940_storage": {
        "encoding": "inplace",
        "label": "struct EnumerableSet.AddressSet",
        "members": [
          {
            "astId": 5939,
            "contract": "contracts/stake/HoprBoost.sol:HoprBoost",
            "label": "_inner",
            "offset": 0,
            "slot": "0",
            "type": "t_struct(Set)5639_storage"
          }
        ],
        "numberOfBytes": "64"
      },
      "t_struct(RoleData)19_storage": {
        "encoding": "inplace",
        "label": "struct AccessControl.RoleData",
        "members": [
          {
            "astId": 16,
            "contract": "contracts/stake/HoprBoost.sol:HoprBoost",
            "label": "members",
            "offset": 0,
            "slot": "0",
            "type": "t_mapping(t_address,t_bool)"
          },
          {
            "astId": 18,
            "contract": "contracts/stake/HoprBoost.sol:HoprBoost",
            "label": "adminRole",
            "offset": 0,
            "slot": "1",
            "type": "t_bytes32"
          }
        ],
        "numberOfBytes": "64"
      },
      "t_struct(Set)5639_storage": {
        "encoding": "inplace",
        "label": "struct EnumerableSet.Set",
        "members": [
          {
            "astId": 5634,
            "contract": "contracts/stake/HoprBoost.sol:HoprBoost",
            "label": "_values",
            "offset": 0,
            "slot": "0",
            "type": "t_array(t_bytes32)dyn_storage"
          },
          {
            "astId": 5638,
            "contract": "contracts/stake/HoprBoost.sol:HoprBoost",
            "label": "_indexes",
            "offset": 0,
            "slot": "1",
            "type": "t_mapping(t_bytes32,t_uint256)"
          }
        ],
        "numberOfBytes": "64"
      },
      "t_struct(StringSet)16385_storage": {
        "encoding": "inplace",
        "label": "struct EnumerableStringSet.StringSet",
        "members": [
          {
            "astId": 16380,
            "contract": "contracts/stake/HoprBoost.sol:HoprBoost",
            "label": "_values",
            "offset": 0,
            "slot": "0",
            "type": "t_array(t_string_storage)dyn_storage"
          },
          {
            "astId": 16384,
            "contract": "contracts/stake/HoprBoost.sol:HoprBoost",
            "label": "_indexes",
            "offset": 0,
            "slot": "1",
            "type": "t_mapping(t_string_memory_ptr,t_uint256)"
          }
        ],
        "numberOfBytes": "64"
      },
      "t_uint256": {
        "encoding": "inplace",
        "label": "uint256",
        "numberOfBytes": "32"
      }
    }
  }
}