{
  "address": "0xBEf9de8A8EA1f6c18205E4c68DeC5f19Eb725C03",
  "abi": [
    {
      "inputs": [
        {
          "internalType": "address",
          "name": "_stakeContract",
          "type": "address"
        },
        {
          "internalType": "address",
          "name": "_newOwner",
          "type": "address"
        },
        {
          "internalType": "uint256",
          "name": "_minStake",
          "type": "uint256"
        }
      ],
      "stateMutability": "nonpayable",
      "type": "constructor"
    },
    {
      "anonymous": false,
      "inputs": [
        {
          "indexed": true,
          "internalType": "uint256",
          "name": "nftType",
          "type": "uint256"
        },
        {
          "indexed": false,
          "internalType": "string",
          "name": "nftRank",
          "type": "string"
        }
      ],
      "name": "NftTypeAndRankAdded",
      "type": "event"
    },
    {
      "anonymous": false,
      "inputs": [
        {
          "indexed": true,
          "internalType": "uint256",
          "name": "nftType",
          "type": "uint256"
        },
        {
          "indexed": false,
          "internalType": "string",
          "name": "nftRank",
          "type": "string"
        }
      ],
      "name": "NftTypeAndRankRemoved",
      "type": "event"
    },
    {
      "anonymous": false,
      "inputs": [
        {
          "indexed": true,
          "internalType": "address",
          "name": "previousOwner",
          "type": "address"
        },
        {
          "indexed": true,
          "internalType": "address",
          "name": "newOwner",
          "type": "address"
        }
      ],
      "name": "OwnershipTransferred",
      "type": "event"
    },
    {
      "anonymous": false,
      "inputs": [
        {
          "indexed": true,
          "internalType": "uint256",
          "name": "nftType",
          "type": "uint256"
        },
        {
          "indexed": false,
          "internalType": "string",
          "name": "nftRank",
          "type": "string"
        },
        {
          "indexed": true,
          "internalType": "uint256",
          "name": "maxRegistration",
          "type": "uint256"
        }
      ],
      "name": "SpecialNftTypeAndRankAdded",
      "type": "event"
    },
    {
      "anonymous": false,
      "inputs": [
        {
          "indexed": true,
          "internalType": "uint256",
          "name": "nftType",
          "type": "uint256"
        },
        {
          "indexed": false,
          "internalType": "string",
          "name": "nftRank",
          "type": "string"
        }
      ],
      "name": "SpecialNftTypeAndRankRemoved",
      "type": "event"
    },
    {
      "anonymous": false,
      "inputs": [
        {
          "indexed": true,
          "internalType": "address",
          "name": "stakeContract",
          "type": "address"
        }
      ],
      "name": "StakeContractUpdated",
      "type": "event"
    },
    {
      "anonymous": false,
      "inputs": [
        {
          "indexed": true,
          "internalType": "uint256",
          "name": "threshold",
          "type": "uint256"
        }
      ],
      "name": "ThresholdUpdated",
      "type": "event"
    },
    {
      "inputs": [
        {
          "internalType": "uint256",
          "name": "",
          "type": "uint256"
        }
      ],
      "name": "eligibleNftTypeAndRank",
      "outputs": [
        {
          "internalType": "uint256",
          "name": "nftType",
          "type": "uint256"
        },
        {
          "internalType": "string",
          "name": "nftRank",
          "type": "string"
        }
      ],
      "stateMutability": "view",
      "type": "function"
    },
    {
      "inputs": [
        {
          "internalType": "address",
          "name": "account",
          "type": "address"
        }
      ],
      "name": "maxAllowedRegistrations",
      "outputs": [
        {
          "internalType": "uint256",
          "name": "",
          "type": "uint256"
        }
      ],
      "stateMutability": "view",
      "type": "function"
    },
    {
      "inputs": [
        {
          "internalType": "uint256",
          "name": "",
          "type": "uint256"
        }
      ],
      "name": "maxRegistrationsPerSpecialNft",
      "outputs": [
        {
          "internalType": "uint256",
          "name": "",
          "type": "uint256"
        }
      ],
      "stateMutability": "view",
      "type": "function"
    },
    {
      "inputs": [],
      "name": "owner",
      "outputs": [
        {
          "internalType": "address",
          "name": "",
          "type": "address"
        }
      ],
      "stateMutability": "view",
      "type": "function"
    },
    {
      "inputs": [
        {
          "internalType": "uint256",
          "name": "nftType",
          "type": "uint256"
        },
        {
          "internalType": "string",
          "name": "nftRank",
          "type": "string"
        }
      ],
      "name": "ownerAddNftTypeAndRank",
      "outputs": [],
      "stateMutability": "nonpayable",
      "type": "function"
    },
    {
      "inputs": [
        {
          "internalType": "uint256[]",
          "name": "nftTypes",
          "type": "uint256[]"
        },
        {
          "internalType": "string[]",
          "name": "nftRanks",
          "type": "string[]"
        }
      ],
      "name": "ownerBatchAddNftTypeAndRank",
      "outputs": [],
      "stateMutability": "nonpayable",
      "type": "function"
    },
    {
      "inputs": [
        {
          "internalType": "uint256[]",
          "name": "nftTypes",
          "type": "uint256[]"
        },
        {
          "internalType": "string[]",
          "name": "nftRanks",
          "type": "string[]"
        },
        {
          "internalType": "uint256[]",
          "name": "maxRegistrations",
          "type": "uint256[]"
        }
      ],
      "name": "ownerBatchAddSpecialNftTypeAndRank",
      "outputs": [],
      "stateMutability": "nonpayable",
      "type": "function"
    },
    {
      "inputs": [
        {
          "internalType": "uint256[]",
          "name": "nftTypes",
          "type": "uint256[]"
        },
        {
          "internalType": "string[]",
          "name": "nftRanks",
          "type": "string[]"
        }
      ],
      "name": "ownerBatchRemoveNftTypeAndRank",
      "outputs": [],
      "stateMutability": "nonpayable",
      "type": "function"
    },
    {
      "inputs": [
        {
          "internalType": "uint256[]",
          "name": "nftTypes",
          "type": "uint256[]"
        },
        {
          "internalType": "string[]",
          "name": "nftRanks",
          "type": "string[]"
        }
      ],
      "name": "ownerBatchRemoveSpecialNftTypeAndRank",
      "outputs": [],
      "stateMutability": "nonpayable",
      "type": "function"
    },
    {
      "inputs": [
        {
          "internalType": "uint256",
          "name": "nftType",
          "type": "uint256"
        },
        {
          "internalType": "string",
          "name": "nftRank",
          "type": "string"
        }
      ],
      "name": "ownerRemoveNftTypeAndRank",
      "outputs": [],
      "stateMutability": "nonpayable",
      "type": "function"
    },
    {
      "inputs": [
        {
          "internalType": "uint256",
          "name": "newThreshold",
          "type": "uint256"
        }
      ],
      "name": "ownerUpdateThreshold",
      "outputs": [],
      "stateMutability": "nonpayable",
      "type": "function"
    },
    {
      "inputs": [],
      "name": "renounceOwnership",
      "outputs": [],
      "stateMutability": "nonpayable",
      "type": "function"
    },
    {
      "inputs": [
        {
          "internalType": "uint256",
          "name": "",
          "type": "uint256"
        }
      ],
      "name": "specialNftTypeAndRank",
      "outputs": [
        {
          "internalType": "uint256",
          "name": "nftType",
          "type": "uint256"
        },
        {
          "internalType": "string",
          "name": "nftRank",
          "type": "string"
        }
      ],
      "stateMutability": "view",
      "type": "function"
    },
    {
      "inputs": [],
      "name": "stakeContract",
      "outputs": [
        {
          "internalType": "contract IHoprStake",
          "name": "",
          "type": "address"
        }
      ],
      "stateMutability": "view",
      "type": "function"
    },
    {
      "inputs": [],
      "name": "stakeThreshold",
      "outputs": [
        {
          "internalType": "uint256",
          "name": "",
          "type": "uint256"
        }
      ],
      "stateMutability": "view",
      "type": "function"
    },
    {
      "inputs": [
        {
          "internalType": "address",
          "name": "newOwner",
          "type": "address"
        }
      ],
      "name": "transferOwnership",
      "outputs": [],
      "stateMutability": "nonpayable",
      "type": "function"
    },
    {
      "inputs": [
        {
          "internalType": "address",
          "name": "_stakeContract",
          "type": "address"
        }
      ],
      "name": "updateStakeContract",
      "outputs": [],
      "stateMutability": "nonpayable",
      "type": "function"
    }
  ],
  "transactionHash": "0xb36500fa79f85d8aaaf60363aecaa5498260fb3e0b16ec5402e778380278c24a",
  "args": [
    "0x8CF4c5e0e1A9DB314a959DFDFB488DdF66d5B23f",
    "0xA18732DC751BE0dB04157eb92C92BA9d0fC09FC5",
    "1000000000000000000000"
  ],
  "numDeployments": 3,
  "solcInputHash": "0f39b801ca05a1c3d01aa72b5ad60876",
  "bytecode": "0x60806040523480156200001157600080fd5b5060405162001eeb38038062001eeb833981016040819052620000349162000145565b6200003f336200008e565b6200004a83620000de565b62000055826200008e565b600281905560405181907fadfa8ecb21b6962ebcd0adbd9ab985b7b4c5b5eb3b0dead683171565c7bfe17190600090a250505062000186565b600080546001600160a01b038381166001600160a01b0319831681178455604051919092169283917f8be0079c531659141344cd1fd0a4f28419497f9722a3daafe3b4186f6b6457e09190a35050565b600180546001600160a01b0319166001600160a01b0383169081179091556040517f573bbfa679af6fdcdbd9cf191c5ef3e526599ac2bf75e9177d47adb8530b9c6990600090a250565b80516001600160a01b03811681146200014057600080fd5b919050565b6000806000606084860312156200015b57600080fd5b620001668462000128565b9250620001766020850162000128565b9150604084015190509250925092565b611d5580620001966000396000f3fe608060405234801561001057600080fd5b506004361061010b5760003560e01c80639b97076f116100a2578063de626c0e11610071578063de626c0e14610222578063ee50c7c414610235578063f11f77f914610248578063f2fde38b14610251578063fb66ac571461026457600080fd5b80639b97076f146101c8578063b05e8ba9146101db578063b3544e82146101ee578063ba1cef231461020f57600080fd5b80636a3b64b6116100de5780636a3b64b614610189578063715018a61461019c578063830c6cc2146101a45780638da5cb5b146101b757600080fd5b80631a186227146101105780632c3ec80b14610140578063506472cc14610161578063654251eb14610176575b600080fd5b600154610123906001600160a01b031681565b6040516001600160a01b0390911681526020015b60405180910390f35b61015361014e3660046117c4565b610277565b60405161013792919061182a565b61017461016f366004611897565b61032f565b005b610174610184366004611919565b61047c565b6101746101973660046119d4565b6104b4565b6101746106df565b6101746101b2366004611a6e565b610715565b6000546001600160a01b0316610123565b6101746101d6366004611919565b610721565b6101746101e9366004611897565b610755565b6102016101fc366004611a6e565b61089f565b604051908152602001610137565b61020161021d3660046117c4565b610c81565b6101536102303660046117c4565b610ca2565b6101746102433660046117c4565b610cb2565b61020160025481565b61017461025f366004611a6e565b610d8f565b610174610272366004611897565b610e27565b6005818154811061028757600080fd5b600091825260209091206002909102018054600182018054919350906102ac90611a97565b80601f01602080910402602001604051908101604052809291908181526020018280546102d890611a97565b80156103255780601f106102fa57610100808354040283529160200191610325565b820191906000526020600020905b81548152906001019060200180831161030857829003601f168201915b5050505050905082565b6000546001600160a01b031633146103625760405162461bcd60e51b815260040161035990611ad2565b60405180910390fd5b8281146103de5760405162461bcd60e51b81526020600482015260506024820152600080516020611d0083398151915260448201527f72793a206f776e657242617463684164644e667454797065416e6452616e6b2060648201526f0d8cadccee8d0e640dad2e6dac2e8c6d60831b608482015260a401610359565b60005b83811015610475576104638585838181106103fe576103fe611b07565b9050602002013584848481811061041757610417611b07565b90506020028101906104299190611b1d565b8080601f016020809104026020016040519081016040528093929190818152602001838380828437600092019190915250610f6792505050565b8061046d81611b7a565b9150506103e1565b5050505050565b6000546001600160a01b031633146104a65760405162461bcd60e51b815260040161035990611ad2565b6104b082826110c8565b5050565b6000546001600160a01b031633146104de5760405162461bcd60e51b815260040161035990611ad2565b84831461057d5760405162461bcd60e51b815260206004820152606d6024820152600080516020611d0083398151915260448201527f72793a206f776e657242617463684164645370656369616c4e6674547970654160648201527f6e6452616e6b206e6674547970657320616e64206e667452616e6b73206c656e60848201526c0cee8d0e640dad2e6dac2e8c6d609b1b60a482015260c401610359565b8481146106245760405162461bcd60e51b81526020600482015260756024820152600080516020611d0083398151915260448201527f72793a206f776e657242617463684164645370656369616c4e6674547970654160648201527f6e6452616e6b206e6674547970657320616e64206d61785265676973747261746084820152740d2dedce640d8cadccee8d0e640dad2e6dac2e8c6d605b1b60a482015260c401610359565b60005b858110156106d6576106c487878381811061064457610644611b07565b9050602002013586868481811061065d5761065d611b07565b905060200281019061066f9190611b1d565b8080601f0160208091040260200160405190810160405280939291908181526020018383808284376000920191909152508892508791508690508181106106b8576106b8611b07565b90506020020135611252565b806106ce81611b7a565b915050610627565b50505050505050565b6000546001600160a01b031633146107095760405162461bcd60e51b815260040161035990611ad2565b61071360006113d1565b565b61071e81611421565b50565b6000546001600160a01b0316331461074b5760405162461bcd60e51b815260040161035990611ad2565b6104b08282610f67565b6000546001600160a01b0316331461077f5760405162461bcd60e51b815260040161035990611ad2565b8281146108085760405162461bcd60e51b815260206004820152605a6024820152600080516020611d0083398151915260448201527f72793a206f776e6572426174636852656d6f76655370656369616c4e6674547960648201527f7065416e6452616e6b206c656e67746873206d69736d61746368000000000000608482015260a401610359565b60005b838110156104755761088d85858381811061082857610828611b07565b9050602002013584848481811061084157610841611b07565b90506020028101906108539190611b1d565b8080601f01602080910402602001604051908101604052809392919081815260200183838082843760009201919091525061146b92505050565b8061089781611b7a565b91505061080b565b60008060005b600554811015610a50576000600582815481106108c4576108c4611b07565b9060005260206000209060020201604051806040016040529081600082015481526020016001820180546108f790611a97565b80601f016020809104026020016040519081016040528092919081815260200182805461092390611a97565b80156109705780601f1061094557610100808354040283529160200191610970565b820191906000526020600020905b81548152906001019060200180831161095357829003601f168201915b505050919092525050600154825160208401516040516396a9cd7d60e01b81529495506001600160a01b03909216936396a9cd7d93506109b592908a90600401611b95565b60206040518083038186803b1580156109cd57600080fd5b505afa1580156109e1573d6000803e3d6000fd5b505050506040513d601f19601f82011682018060405250810190610a059190611bc6565b15610a3d57610a3a60048381548110610a2057610a20611b07565b90600052602060002001548461166190919063ffffffff16565b92505b5080610a4881611b7a565b9150506108a5565b5060015460405163f978fff160e01b81526001600160a01b038581166004830152600092169063f978fff19060240160206040518083038186803b158015610a9757600080fd5b505afa158015610aab573d6000803e3d6000fd5b505050506040513d601f19601f82011682018060405250810190610acf9190611be8565b9050600254811015610ae2575092915050565b60005b600354811015610c7857600060038281548110610b0457610b04611b07565b906000526020600020906002020160405180604001604052908160008201548152602001600182018054610b3790611a97565b80601f0160208091040260200160405190810160405280929190818152602001828054610b6390611a97565b8015610bb05780601f10610b8557610100808354040283529160200191610bb0565b820191906000526020600020905b815481529060010190602001808311610b9357829003601f168201915b505050919092525050600154825160208401516040516396a9cd7d60e01b81529495506001600160a01b03909216936396a9cd7d9350610bf592908b90600401611b95565b60206040518083038186803b158015610c0d57600080fd5b505afa158015610c21573d6000803e3d6000fd5b505050506040513d601f19601f82011682018060405250810190610c459190611bc6565b15610c6557610c6260025484610c5b9190611c01565b8590611661565b93505b5080610c7081611b7a565b915050610ae5565b50909392505050565b60048181548110610c9157600080fd5b600091825260209091200154905081565b6003818154811061028757600080fd5b6000546001600160a01b03163314610cdc5760405162461bcd60e51b815260040161035990611ad2565b806002541415610d5c5760405162461bcd60e51b81526020600482015260516024820152600080516020611d0083398151915260448201527f72793a2074727920746f207570646174652077697468207468652073616d65206064820152701cdd185ada5b99c81d1a1c995cda1bdb19607a1b608482015260a401610359565b600281905560405181907fadfa8ecb21b6962ebcd0adbd9ab985b7b4c5b5eb3b0dead683171565c7bfe17190600090a250565b6000546001600160a01b03163314610db95760405162461bcd60e51b815260040161035990611ad2565b6001600160a01b038116610e1e5760405162461bcd60e51b815260206004820152602660248201527f4f776e61626c653a206e6577206f776e657220697320746865207a65726f206160448201526564647265737360d01b6064820152608401610359565b61071e816113d1565b6000546001600160a01b03163314610e515760405162461bcd60e51b815260040161035990611ad2565b828114610ed05760405162461bcd60e51b81526020600482015260536024820152600080516020611d0083398151915260448201527f72793a206f776e6572426174636852656d6f76654e667454797065416e6452616064820152720dcd640d8cadccee8d0e640dad2e6dac2e8c6d606b1b608482015260a401610359565b60005b8381101561047557610f55858583818110610ef057610ef0611b07565b90506020020135848484818110610f0957610f09611b07565b9050602002810190610f1b9190611b1d565b8080601f0160208091040260200160405190810160405280939291908181526020018383808284376000920191909152506110c892505050565b80610f5f81611b7a565b915050610ed3565b60005b600354811015611001578260038281548110610f8857610f88611b07565b906000526020600020906002020160000154148015610fe55750818051906020012060038281548110610fbd57610fbd611b07565b9060005260206000209060020201600101604051610fdb9190611c23565b6040518091039020145b15610fef57505050565b80610ff981611b7a565b915050610f6a565b60408051808201909152838152602080820184815260038054600181018255600091909152835160029091027fc2575a0e9e593c00f959f8c92f12db2869c3395a3b0502d05e2516446f71f85b8101918255915180519193611088937fc2575a0e9e593c00f959f8c92f12db2869c3395a3b0502d05e2516446f71f85c019291019061167a565b505050827f2360ee3e77485441cfa07e30e8dc5b031fac38455647c89a763434f58733fcc1836040516110bb9190611cbf565b60405180910390a2505050565b60005b60035481101561124d5782600382815481106110e9576110e9611b07565b906000526020600020906002020160000154148015611146575081805190602001206003828154811061111e5761111e611b07565b906000526020600020906002020160010160405161113c9190611c23565b6040518091039020145b1561123b576003805461115b90600190611cd2565b8154811061116b5761116b611b07565b90600052602060002090600202016003828154811061118c5761118c611b07565b90600052602060002090600202016000820154816000015560018201816001019080546111b890611a97565b6111c39291906116fe565b5090505060038054806111d8576111d8611ce9565b600082815260208120600260001990930192830201818155906111fe6001830182611779565b50509055827fb1323e42d97b2b3d45f9d4641bf4b6b3f9d0d01e90832ae7b7413109b7a5d347836040516112329190611cbf565b60405180910390a25b8061124581611b7a565b9150506110cb565b505050565b60005b60055481101561130857836005828154811061127357611273611b07565b9060005260206000209060020201600001541480156112d057508280519060200120600582815481106112a8576112a8611b07565b90600052602060002090600202016001016040516112c69190611c23565b6040518091039020145b156112f65781600482815481106112e9576112e9611b07565b6000918252602090912001555b8061130081611b7a565b915050611255565b60408051808201909152848152602080820185815260058054600181018255600091909152835160029091027f036b6384b5eca791c62761152d0c79bb0604c104a5fb6f4eb0703f3154bb3db0810191825591518051919361138f937f036b6384b5eca791c62761152d0c79bb0604c104a5fb6f4eb0703f3154bb3db1019291019061167a565b50505081847fe43bf5f5f8a1211930e5726ba0abceacb1748f97b2966db30a818ba10961cbcc856040516113c39190611cbf565b60405180910390a350505050565b600080546001600160a01b038381166001600160a01b0319831681178455604051919092169283917f8be0079c531659141344cd1fd0a4f28419497f9722a3daafe3b4186f6b6457e09190a35050565b600180546001600160a01b0319166001600160a01b0383169081179091556040517f573bbfa679af6fdcdbd9cf191c5ef3e526599ac2bf75e9177d47adb8530b9c6990600090a250565b60005b60055481101561124d57826005828154811061148c5761148c611b07565b9060005260206000209060020201600001541480156114e957508180519060200120600582815481106114c1576114c1611b07565b90600052602060002090600202016001016040516114df9190611c23565b6040518091039020145b1561164f57600580546114fe90600190611cd2565b8154811061150e5761150e611b07565b90600052602060002090600202016005828154811061152f5761152f611b07565b906000526020600020906002020160008201548160000155600182018160010190805461155b90611a97565b6115669291906116fe565b50905050600580548061157b5761157b611ce9565b600082815260208120600260001990930192830201818155906115a16001830182611779565b50509055600480546115b590600190611cd2565b815481106115c5576115c5611b07565b9060005260206000200154600482815481106115e3576115e3611b07565b600091825260209091200155600480548061160057611600611ce9565b60019003818190600052602060002001600090559055827fdb75199103504bd1d3653de758d4295bf00d4587e1d53dfc114464cc47ed97b7836040516116469190611cbf565b60405180910390a25b8061165981611b7a565b91505061146e565b6000818310156116715781611673565b825b9392505050565b82805461168690611a97565b90600052602060002090601f0160209004810192826116a857600085556116ee565b82601f106116c157805160ff19168380011785556116ee565b828001600101855582156116ee579182015b828111156116ee5782518255916020019190600101906116d3565b506116fa9291506117af565b5090565b82805461170a90611a97565b90600052602060002090601f01602090048101928261172c57600085556116ee565b82601f1061173d57805485556116ee565b828001600101855582156116ee57600052602060002091601f016020900482015b828111156116ee57825482559160010191906001019061175e565b50805461178590611a97565b6000825580601f10611795575050565b601f01602090049060005260206000209081019061071e91905b5b808211156116fa57600081556001016117b0565b6000602082840312156117d657600080fd5b5035919050565b6000815180845260005b81811015611803576020818501810151868301820152016117e7565b81811115611815576000602083870101525b50601f01601f19169290920160200192915050565b82815260406020820152600061184360408301846117dd565b949350505050565b60008083601f84011261185d57600080fd5b50813567ffffffffffffffff81111561187557600080fd5b6020830191508360208260051b850101111561189057600080fd5b9250929050565b600080600080604085870312156118ad57600080fd5b843567ffffffffffffffff808211156118c557600080fd5b6118d18883890161184b565b909650945060208701359150808211156118ea57600080fd5b506118f78782880161184b565b95989497509550505050565b634e487b7160e01b600052604160045260246000fd5b6000806040838503121561192c57600080fd5b82359150602083013567ffffffffffffffff8082111561194b57600080fd5b818501915085601f83011261195f57600080fd5b81358181111561197157611971611903565b604051601f8201601f19908116603f0116810190838211818310171561199957611999611903565b816040528281528860208487010111156119b257600080fd5b8260208601602083013760006020848301015280955050505050509250929050565b600080600080600080606087890312156119ed57600080fd5b863567ffffffffffffffff80821115611a0557600080fd5b611a118a838b0161184b565b90985096506020890135915080821115611a2a57600080fd5b611a368a838b0161184b565b90965094506040890135915080821115611a4f57600080fd5b50611a5c89828a0161184b565b979a9699509497509295939492505050565b600060208284031215611a8057600080fd5b81356001600160a01b038116811461167357600080fd5b600181811c90821680611aab57607f821691505b60208210811415611acc57634e487b7160e01b600052602260045260246000fd5b50919050565b6020808252818101527f4f776e61626c653a2063616c6c6572206973206e6f7420746865206f776e6572604082015260600190565b634e487b7160e01b600052603260045260246000fd5b6000808335601e19843603018112611b3457600080fd5b83018035915067ffffffffffffffff821115611b4f57600080fd5b60200191503681900382131561189057600080fd5b634e487b7160e01b600052601160045260246000fd5b6000600019821415611b8e57611b8e611b64565b5060010190565b838152606060208201526000611bae60608301856117dd565b905060018060a01b0383166040830152949350505050565b600060208284031215611bd857600080fd5b8151801515811461167357600080fd5b600060208284031215611bfa57600080fd5b5051919050565b600082611c1e57634e487b7160e01b600052601260045260246000fd5b500490565b600080835481600182811c915080831680611c3f57607f831692505b6020808410821415611c5f57634e487b7160e01b86526022600452602486fd5b818015611c735760018114611c8457611cb1565b60ff19861689528489019650611cb1565b60008a81526020902060005b86811015611ca95781548b820152908501908301611c90565b505084890196505b509498975050505050505050565b60208152600061167360208301846117dd565b600082821015611ce457611ce4611b64565b500390565b634e487b7160e01b600052603160045260246000fdfe486f70725374616b696e6750726f7879466f724e6574776f726b526567697374a2646970667358221220ca9b298a3166e1ebb0bc0250034709c2265326a02811171d6e8fca5230c2897b64736f6c63430008090033",
  "devdoc": {
    "details": "Proxy for staking (v2/v3/v4) contract, which an \"HoprNetworkRegistry requirement\" is implemented Two types of accounts are considered eligible: 1) Accounts with HoprBoost NFTs that are of the type and rank in the `eligibleNftTypeAndRank` array are considered as eligible, when their stake is also above the `stakeThreshold`. The maximum allowed registration of these accounts are defined by their stake. 2) Acounts with HoprBoost NFTs of `specialNftTypeAndRank`. Its maximum allowed registration is set by the owner.",
    "kind": "dev",
    "methods": {
      "constructor": {
        "details": "Set stake contract address, transfer ownership, and set the maximum registrations per special NFT to the default value: upperbound of of uint256."
      },
      "maxAllowedRegistrations(address)": {
        "details": "Returns the maximum allowed registration a) for each special NFTs staked, consider their `maxRegistrationsPerSpecialNft` b) if NFT of eligibleNftTypeAndRank are redeemed, consider floor(`stake`/`threshold`) returns the maximum of the above mentioned categories",
        "params": {
          "account": "staker address that has a hopr nodes running"
        }
      },
      "owner()": {
        "details": "Returns the address of the current owner."
      },
      "ownerAddNftTypeAndRank(uint256,string)": {
        "details": "Owner adds/updates NFT type and rank to the list of eligibles NFTs.",
        "params": {
          "nftRank": "HoprBoost rank which is associated to the eligible NFT, in string",
          "nftType": "Type index of the eligible HoprBoost NFT"
        }
      },
      "ownerBatchAddNftTypeAndRank(uint256[],string[])": {
        "details": "Owner adds/updates NFT type and rank to the list of eligibles NFTs in batch.",
        "params": {
          "nftRanks": "Array of HOPR boost rank, which is associated to the eligible NFT, in string[]",
          "nftTypes": "Array of type indexes of the eligible HoprBoost NFT"
        }
      },
      "ownerBatchAddSpecialNftTypeAndRank(uint256[],string[],uint256[])": {
        "details": "Owner adds/updates NFT type and rank to the list of special NFTs in batch.",
        "params": {
          "maxRegistrations": "Array of maximum registration per special NFT type",
          "nftRanks": "Array of HOPR boost rank, which is associated to the special NFT, in string[]",
          "nftTypes": "Array of type indexes of the special HoprBoost NFT"
        }
      },
      "ownerBatchRemoveNftTypeAndRank(uint256[],string[])": {
        "details": "Owner removes from list of eligible NFTs in batch.",
        "params": {
          "nftRanks": "Array of HOPR boost rank, which is associated to the eligible NFT, in string[]",
          "nftTypes": "Array of type index of the eligible HoprBoost NFT"
        }
      },
      "ownerBatchRemoveSpecialNftTypeAndRank(uint256[],string[])": {
        "details": "Owner removes from list of special NFTs in batch.",
        "params": {
          "nftRanks": "Array of HOPR boost rank, which is associated to the special NFT, in string[]",
          "nftTypes": "Array of type index of the special HoprBoost NFT"
        }
      },
      "ownerRemoveNftTypeAndRank(uint256,string)": {
        "details": "Owner removes from list of eligible NFTs",
        "params": {
          "nftRank": "HoprBoost rank which is associated to the eligible NFT, in string",
          "nftType": "Type index of the eligible HoprBoost NFT"
        }
      },
      "ownerUpdateThreshold(uint256)": {
        "details": "Owner updates the minimal staking amount required for users to add themselves onto the HoprNetworkRegistry",
        "params": {
          "newThreshold": "Minimum stake of HOPR token"
        }
      },
      "renounceOwnership()": {
        "details": "Leaves the contract without owner. It will not be possible to call `onlyOwner` functions anymore. Can only be called by the current owner. NOTE: Renouncing ownership will leave the contract without an owner, thereby removing any functionality that is only available to the owner."
      },
      "transferOwnership(address)": {
        "details": "Transfers ownership of the contract to a new account (`newOwner`). Can only be called by the current owner."
      },
      "updateStakeContract(address)": {
        "details": "update linked stake contract",
        "params": {
          "_stakeContract": "address of the staking contract from which registration info is obtained."
        }
      }
    },
    "version": 1
  },
  "userdoc": {
    "kind": "user",
    "methods": {},
    "version": 1
  },
  "storageLayout": {
    "storage": [
      {
        "astId": 539,
        "contract": "contracts/proxy/HoprStakingProxyForNetworkRegistry.sol:HoprStakingProxyForNetworkRegistry",
        "label": "_owner",
        "offset": 0,
        "slot": "0",
        "type": "t_address"
      },
      {
        "astId": 9469,
        "contract": "contracts/proxy/HoprStakingProxyForNetworkRegistry.sol:HoprStakingProxyForNetworkRegistry",
        "label": "stakeContract",
        "offset": 0,
        "slot": "1",
        "type": "t_contract(IHoprStake)9453"
      },
      {
        "astId": 9471,
        "contract": "contracts/proxy/HoprStakingProxyForNetworkRegistry.sol:HoprStakingProxyForNetworkRegistry",
        "label": "stakeThreshold",
        "offset": 0,
        "slot": "2",
        "type": "t_uint256"
      },
      {
        "astId": 9475,
        "contract": "contracts/proxy/HoprStakingProxyForNetworkRegistry.sol:HoprStakingProxyForNetworkRegistry",
        "label": "eligibleNftTypeAndRank",
        "offset": 0,
        "slot": "3",
        "type": "t_array(t_struct(NftTypeAndRank)9466_storage)dyn_storage"
      },
      {
        "astId": 9478,
        "contract": "contracts/proxy/HoprStakingProxyForNetworkRegistry.sol:HoprStakingProxyForNetworkRegistry",
        "label": "maxRegistrationsPerSpecialNft",
        "offset": 0,
        "slot": "4",
        "type": "t_array(t_uint256)dyn_storage"
      },
      {
        "astId": 9482,
        "contract": "contracts/proxy/HoprStakingProxyForNetworkRegistry.sol:HoprStakingProxyForNetworkRegistry",
        "label": "specialNftTypeAndRank",
        "offset": 0,
        "slot": "5",
        "type": "t_array(t_struct(NftTypeAndRank)9466_storage)dyn_storage"
      }
    ],
    "types": {
      "t_address": {
        "encoding": "inplace",
        "label": "address",
        "numberOfBytes": "20"
      },
      "t_array(t_struct(NftTypeAndRank)9466_storage)dyn_storage": {
        "base": "t_struct(NftTypeAndRank)9466_storage",
        "encoding": "dynamic_array",
        "label": "struct HoprStakingProxyForNetworkRegistry.NftTypeAndRank[]",
        "numberOfBytes": "32"
      },
      "t_array(t_uint256)dyn_storage": {
        "base": "t_uint256",
        "encoding": "dynamic_array",
        "label": "uint256[]",
        "numberOfBytes": "32"
      },
      "t_contract(IHoprStake)9453": {
        "encoding": "inplace",
        "label": "contract IHoprStake",
        "numberOfBytes": "20"
      },
      "t_string_storage": {
        "encoding": "bytes",
        "label": "string",
        "numberOfBytes": "32"
      },
      "t_struct(NftTypeAndRank)9466_storage": {
        "encoding": "inplace",
        "label": "struct HoprStakingProxyForNetworkRegistry.NftTypeAndRank",
        "members": [
          {
            "astId": 9463,
            "contract": "contracts/proxy/HoprStakingProxyForNetworkRegistry.sol:HoprStakingProxyForNetworkRegistry",
            "label": "nftType",
            "offset": 0,
            "slot": "0",
            "type": "t_uint256"
          },
          {
            "astId": 9465,
            "contract": "contracts/proxy/HoprStakingProxyForNetworkRegistry.sol:HoprStakingProxyForNetworkRegistry",
            "label": "nftRank",
            "offset": 0,
            "slot": "1",
            "type": "t_string_storage"
          }
        ],
        "numberOfBytes": "64"
      },
      "t_uint256": {
        "encoding": "inplace",
        "label": "uint256",
        "numberOfBytes": "32"
      }
    }
  }
}