{
  "address": "0x8CF4c5e0e1A9DB314a959DFDFB488DdF66d5B23f",
  "abi": [
    {
      "inputs": [
        {
          "internalType": "address",
          "name": "_nftAddress",
          "type": "address"
        },
        {
          "internalType": "address",
          "name": "_newOwner",
          "type": "address"
        },
        {
          "internalType": "address",
          "name": "_lockToken",
          "type": "address"
        },
        {
          "internalType": "address",
          "name": "_rewardToken",
          "type": "address"
        }
      ],
      "stateMutability": "nonpayable",
      "type": "constructor"
    },
    {
      "anonymous": false,
      "inputs": [
        {
          "indexed": true,
          "internalType": "address",
          "name": "account",
          "type": "address"
        },
        {
          "indexed": true,
          "internalType": "uint256",
          "name": "rewardAmount",
          "type": "uint256"
        }
      ],
      "name": "Claimed",
      "type": "event"
    },
    {
      "anonymous": false,
      "inputs": [
        {
          "indexed": true,
          "internalType": "uint256",
          "name": "typeIndex",
          "type": "uint256"
        }
      ],
      "name": "NftAllowed",
      "type": "event"
    },
    {
      "anonymous": false,
      "inputs": [
        {
          "indexed": true,
          "internalType": "uint256",
          "name": "typeIndex",
          "type": "uint256"
        }
      ],
      "name": "NftBlocked",
      "type": "event"
    },
    {
      "anonymous": false,
      "inputs": [
        {
          "indexed": true,
          "internalType": "address",
          "name": "previousOwner",
          "type": "address"
        },
        {
          "indexed": true,
          "internalType": "address",
          "name": "newOwner",
          "type": "address"
        }
      ],
      "name": "OwnershipTransferred",
      "type": "event"
    },
    {
      "anonymous": false,
      "inputs": [
        {
          "indexed": true,
          "internalType": "address",
          "name": "account",
          "type": "address"
        },
        {
          "indexed": true,
          "internalType": "uint256",
          "name": "boostTokenId",
          "type": "uint256"
        },
        {
          "indexed": true,
          "internalType": "bool",
          "name": "factorRegistered",
          "type": "bool"
        }
      ],
      "name": "Redeemed",
      "type": "event"
    },
    {
      "anonymous": false,
      "inputs": [
        {
          "indexed": true,
          "internalType": "address",
          "name": "account",
          "type": "address"
        },
        {
          "indexed": true,
          "internalType": "uint256",
          "name": "actualAmount",
          "type": "uint256"
        }
      ],
      "name": "Released",
      "type": "event"
    },
    {
      "anonymous": false,
      "inputs": [
        {
          "indexed": true,
          "internalType": "uint256",
          "name": "amount",
          "type": "uint256"
        }
      ],
      "name": "RewardFueled",
      "type": "event"
    },
    {
      "anonymous": false,
      "inputs": [
        {
          "indexed": true,
          "internalType": "address",
          "name": "account",
          "type": "address"
        },
        {
          "indexed": true,
          "internalType": "uint256",
          "name": "actualAmount",
          "type": "uint256"
        }
      ],
      "name": "Staked",
      "type": "event"
    },
    {
      "anonymous": false,
      "inputs": [
        {
          "indexed": true,
          "internalType": "address",
          "name": "account",
          "type": "address"
        },
        {
          "indexed": true,
          "internalType": "uint256",
          "name": "increment",
          "type": "uint256"
        }
      ],
      "name": "Sync",
      "type": "event"
    },
    {
      "inputs": [],
      "name": "BASIC_FACTOR_NUMERATOR",
      "outputs": [
        {
          "internalType": "uint256",
          "name": "",
          "type": "uint256"
        }
      ],
      "stateMutability": "view",
      "type": "function"
    },
    {
      "inputs": [],
      "name": "BOOST_CAP",
      "outputs": [
        {
          "internalType": "uint256",
          "name": "",
          "type": "uint256"
        }
      ],
      "stateMutability": "view",
      "type": "function"
    },
    {
      "inputs": [],
      "name": "FACTOR_DENOMINATOR",
      "outputs": [
        {
          "internalType": "uint256",
          "name": "",
          "type": "uint256"
        }
      ],
      "stateMutability": "view",
      "type": "function"
    },
    {
      "inputs": [],
      "name": "LOCK_TOKEN",
      "outputs": [
        {
          "internalType": "address",
          "name": "",
          "type": "address"
        }
      ],
      "stateMutability": "view",
      "type": "function"
    },
    {
      "inputs": [],
      "name": "NFT_CONTRACT",
      "outputs": [
        {
          "internalType": "contract IHoprBoost",
          "name": "",
          "type": "address"
        }
      ],
      "stateMutability": "view",
      "type": "function"
    },
    {
      "inputs": [],
      "name": "PROGRAM_END",
      "outputs": [
        {
          "internalType": "uint256",
          "name": "",
          "type": "uint256"
        }
      ],
      "stateMutability": "view",
      "type": "function"
    },
    {
      "inputs": [],
      "name": "PROGRAM_START",
      "outputs": [
        {
          "internalType": "uint256",
          "name": "",
          "type": "uint256"
        }
      ],
      "stateMutability": "view",
      "type": "function"
    },
    {
      "inputs": [],
      "name": "REWARD_TOKEN",
      "outputs": [
        {
          "internalType": "address",
          "name": "",
          "type": "address"
        }
      ],
      "stateMutability": "view",
      "type": "function"
    },
    {
      "inputs": [
        {
          "internalType": "address",
          "name": "",
          "type": "address"
        }
      ],
      "name": "accounts",
      "outputs": [
        {
          "internalType": "uint256",
          "name": "actualLockedTokenAmount",
          "type": "uint256"
        },
        {
          "internalType": "uint256",
          "name": "lastSyncTimestamp",
          "type": "uint256"
        },
        {
          "internalType": "uint256",
          "name": "cumulatedRewards",
          "type": "uint256"
        },
        {
          "internalType": "uint256",
          "name": "claimedRewards",
          "type": "uint256"
        }
      ],
      "stateMutability": "view",
      "type": "function"
    },
    {
      "inputs": [],
      "name": "availableReward",
      "outputs": [
        {
          "internalType": "uint256",
          "name": "",
          "type": "uint256"
        }
      ],
      "stateMutability": "view",
      "type": "function"
    },
    {
      "inputs": [
        {
          "internalType": "address",
          "name": "account",
          "type": "address"
        }
      ],
      "name": "claimRewards",
      "outputs": [],
      "stateMutability": "nonpayable",
      "type": "function"
    },
    {
      "inputs": [
        {
          "internalType": "address",
          "name": "_account",
          "type": "address"
        }
      ],
      "name": "getCumulatedRewardsIncrement",
      "outputs": [
        {
          "internalType": "uint256",
          "name": "",
          "type": "uint256"
        }
      ],
      "stateMutability": "view",
      "type": "function"
    },
    {
      "inputs": [
        {
          "internalType": "uint256",
          "name": "",
          "type": "uint256"
        }
      ],
      "name": "isBlockedNft",
      "outputs": [
        {
          "internalType": "bool",
          "name": "",
          "type": "bool"
        }
      ],
      "stateMutability": "view",
      "type": "function"
    },
    {
      "inputs": [
        {
          "internalType": "string",
          "name": "nftType",
          "type": "string"
        },
        {
          "internalType": "string",
          "name": "nftRank",
          "type": "string"
        },
        {
          "internalType": "address",
          "name": "hodler",
          "type": "address"
        }
      ],
      "name": "isNftTypeAndRankRedeemed1",
      "outputs": [
        {
          "internalType": "bool",
          "name": "",
          "type": "bool"
        }
      ],
      "stateMutability": "view",
      "type": "function"
    },
    {
      "inputs": [
        {
          "internalType": "uint256",
          "name": "nftTypeIndex",
          "type": "uint256"
        },
        {
          "internalType": "string",
          "name": "nftRank",
          "type": "string"
        },
        {
          "internalType": "address",
          "name": "hodler",
          "type": "address"
        }
      ],
      "name": "isNftTypeAndRankRedeemed2",
      "outputs": [
        {
          "internalType": "bool",
          "name": "",
          "type": "bool"
        }
      ],
      "stateMutability": "view",
      "type": "function"
    },
    {
      "inputs": [
        {
          "internalType": "uint256",
          "name": "nftTypeIndex",
          "type": "uint256"
        },
        {
          "internalType": "uint256",
          "name": "boostNumerator",
          "type": "uint256"
        },
        {
          "internalType": "address",
          "name": "hodler",
          "type": "address"
        }
      ],
      "name": "isNftTypeAndRankRedeemed3",
      "outputs": [
        {
          "internalType": "bool",
          "name": "",
          "type": "bool"
        }
      ],
      "stateMutability": "view",
      "type": "function"
    },
    {
      "inputs": [
        {
          "internalType": "string",
          "name": "nftType",
          "type": "string"
        },
        {
          "internalType": "uint256",
          "name": "boostNumerator",
          "type": "uint256"
        },
        {
          "internalType": "address",
          "name": "hodler",
          "type": "address"
        }
      ],
      "name": "isNftTypeAndRankRedeemed4",
      "outputs": [
        {
          "internalType": "bool",
          "name": "",
          "type": "bool"
        }
      ],
      "stateMutability": "view",
      "type": "function"
    },
    {
      "inputs": [
        {
          "internalType": "address",
          "name": "operator",
          "type": "address"
        },
        {
          "internalType": "address",
          "name": "from",
          "type": "address"
        },
        {
          "internalType": "uint256",
          "name": "tokenId",
          "type": "uint256"
        },
        {
          "internalType": "bytes",
          "name": "data",
          "type": "bytes"
        }
      ],
      "name": "onERC721Received",
      "outputs": [
        {
          "internalType": "bytes4",
          "name": "",
          "type": "bytes4"
        }
      ],
      "stateMutability": "nonpayable",
      "type": "function"
    },
    {
      "inputs": [
        {
          "internalType": "address",
          "name": "_from",
          "type": "address"
        },
        {
          "internalType": "uint256",
          "name": "_value",
          "type": "uint256"
        },
        {
          "internalType": "bytes",
          "name": "_data",
          "type": "bytes"
        }
      ],
      "name": "onTokenTransfer",
      "outputs": [
        {
          "internalType": "bool",
          "name": "",
          "type": "bool"
        }
      ],
      "stateMutability": "nonpayable",
      "type": "function"
    },
    {
      "inputs": [],
      "name": "owner",
      "outputs": [
        {
          "internalType": "address",
          "name": "",
          "type": "address"
        }
      ],
      "stateMutability": "view",
      "type": "function"
    },
    {
      "inputs": [
        {
          "internalType": "uint256",
          "name": "typeIndex",
          "type": "uint256"
        }
      ],
      "name": "ownerBlockNftType",
      "outputs": [],
      "stateMutability": "nonpayable",
      "type": "function"
    },
    {
      "inputs": [
        {
          "internalType": "uint256",
          "name": "typeIndex",
          "type": "uint256"
        }
      ],
      "name": "ownerUnblockNftType",
      "outputs": [],
      "stateMutability": "nonpayable",
      "type": "function"
    },
    {
      "inputs": [
        {
          "internalType": "address",
          "name": "tokenAddress",
          "type": "address"
        }
      ],
      "name": "reclaimErc20Tokens",
      "outputs": [],
      "stateMutability": "nonpayable",
      "type": "function"
    },
    {
      "inputs": [
        {
          "internalType": "address",
          "name": "tokenAddress",
          "type": "address"
        },
        {
          "internalType": "uint256",
          "name": "tokenId",
          "type": "uint256"
        }
      ],
      "name": "reclaimErc721Tokens",
      "outputs": [],
      "stateMutability": "nonpayable",
      "type": "function"
    },
    {
      "inputs": [
        {
          "internalType": "address",
          "name": "",
          "type": "address"
        },
        {
          "internalType": "uint256",
          "name": "",
          "type": "uint256"
        }
      ],
      "name": "redeemedFactor",
      "outputs": [
        {
          "internalType": "uint256",
          "name": "",
          "type": "uint256"
        }
      ],
      "stateMutability": "view",
      "type": "function"
    },
    {
      "inputs": [
        {
          "internalType": "address",
          "name": "",
          "type": "address"
        }
      ],
      "name": "redeemedFactorIndex",
      "outputs": [
        {
          "internalType": "uint256",
          "name": "",
          "type": "uint256"
        }
      ],
      "stateMutability": "view",
      "type": "function"
    },
    {
      "inputs": [
        {
          "internalType": "address",
          "name": "",
          "type": "address"
        },
        {
          "internalType": "uint256",
          "name": "",
          "type": "uint256"
        }
      ],
      "name": "redeemedNft",
      "outputs": [
        {
          "internalType": "uint256",
          "name": "",
          "type": "uint256"
        }
      ],
      "stateMutability": "view",
      "type": "function"
    },
    {
      "inputs": [
        {
          "internalType": "address",
          "name": "",
          "type": "address"
        }
      ],
      "name": "redeemedNftIndex",
      "outputs": [
        {
          "internalType": "uint256",
          "name": "",
          "type": "uint256"
        }
      ],
      "stateMutability": "view",
      "type": "function"
    },
    {
      "inputs": [],
      "name": "renounceOwnership",
      "outputs": [],
      "stateMutability": "nonpayable",
      "type": "function"
    },
    {
      "inputs": [
        {
          "internalType": "address",
          "name": "_account",
          "type": "address"
        }
      ],
      "name": "stakedHoprTokens",
      "outputs": [
        {
          "internalType": "uint256",
          "name": "",
          "type": "uint256"
        }
      ],
      "stateMutability": "view",
      "type": "function"
    },
    {
      "inputs": [
        {
          "internalType": "address",
          "name": "account",
          "type": "address"
        }
      ],
      "name": "sync",
      "outputs": [],
      "stateMutability": "nonpayable",
      "type": "function"
    },
    {
      "inputs": [
        {
          "internalType": "address",
          "name": "operator",
          "type": "address"
        },
        {
          "internalType": "address",
          "name": "from",
          "type": "address"
        },
        {
          "internalType": "address",
          "name": "to",
          "type": "address"
        },
        {
          "internalType": "uint256",
          "name": "amount",
          "type": "uint256"
        },
        {
          "internalType": "bytes",
          "name": "userData",
          "type": "bytes"
        },
        {
          "internalType": "bytes",
          "name": "operatorData",
          "type": "bytes"
        }
      ],
      "name": "tokensReceived",
      "outputs": [],
      "stateMutability": "nonpayable",
      "type": "function"
    },
    {
      "inputs": [],
      "name": "totalLocked",
      "outputs": [
        {
          "internalType": "uint256",
          "name": "",
          "type": "uint256"
        }
      ],
      "stateMutability": "view",
      "type": "function"
    },
    {
      "inputs": [
        {
          "internalType": "address",
          "name": "newOwner",
          "type": "address"
        }
      ],
      "name": "transferOwnership",
      "outputs": [],
      "stateMutability": "nonpayable",
      "type": "function"
    },
    {
      "inputs": [],
      "name": "unlock",
      "outputs": [],
      "stateMutability": "nonpayable",
      "type": "function"
    },
    {
      "inputs": [
        {
          "internalType": "address",
          "name": "account",
          "type": "address"
        }
      ],
      "name": "unlockFor",
      "outputs": [],
      "stateMutability": "nonpayable",
      "type": "function"
    }
  ],
  "transactionHash": "0x3ed1b39d5db43fb33904a4839ea5d96f7187143062570455300ad89d0d448548",
  "args": [
    "0x52C7c5AC7d0570eF03d274E2644974fa0097089e",
    "0xA18732DC751BE0dB04157eb92C92BA9d0fC09FC5",
    "0xe8aD2ac347dA7549Aaca8F5B1c5Bf979d85bC78F",
    "0xa3C8f4044b30Fb3071F5b3b02913DE524F1041dc"
  ],
  "numDeployments": 6,
  "solcInputHash": "0f39b801ca05a1c3d01aa72b5ad60876",
  "bytecode": "0x6080604052600280546001600160a01b031990811673d057604a14982fe8d88c5fc25aac3267ea142a081790915560038054821673d4fdec44db9d44b8f2b6d529620f9c0c7066a2c1179055600480549091167343d13d7b83607f14335cf2cb75e87da369d056c71790553480156200007757600080fd5b5060405162002e0138038062002e018339810160408190526200009a9162000373565b620000a533620001ee565b600180554660648114620000f157600280546001600160a01b038086166001600160a01b0319928316179092556003805485841690831617905560048054928816929091169190911790555b620000fd60026200023e565b6200010960036200023e565b6200011560046200023e565b6200012160076200023e565b6200012d60086200023e565b6200013960096200023e565b62000145600a6200023e565b620001508462000281565b6040516329965a1d60e01b815230600482018190527fb281fc8c12954d22544db45de3159a39272895b169a852b314f9cc762e44c53b60248301526044820152731820a4b7618bde71dce8cdc73aab6c95905fad24906329965a1d90606401600060405180830381600087803b158015620001ca57600080fd5b505af1158015620001df573d6000803e3d6000fd5b505050505050505050620003d0565b600080546001600160a01b038381166001600160a01b0319831681178455604051919092169283917f8be0079c531659141344cd1fd0a4f28419497f9722a3daafe3b4186f6b6457e09190a35050565b600081815260096020526040808220805460ff191660011790555182917f620d09c7c7f3c5c41d8b5ea7f274622ddd6ac6b801f035fc741205d113199c0c91a250565b6000546001600160a01b03163314620002e15760405162461bcd60e51b815260206004820181905260248201527f4f776e61626c653a2063616c6c6572206973206e6f7420746865206f776e657260448201526064015b60405180910390fd5b6001600160a01b038116620003485760405162461bcd60e51b815260206004820152602660248201527f4f776e61626c653a206e6577206f776e657220697320746865207a65726f206160448201526564647265737360d01b6064820152608401620002d8565b6200035381620001ee565b50565b80516001600160a01b03811681146200036e57600080fd5b919050565b600080600080608085870312156200038a57600080fd5b620003958562000356565b9350620003a56020860162000356565b9250620003b56040860162000356565b9150620003c56060860162000356565b905092959194509250565b612a2180620003e06000396000f3fe608060405234801561001057600080fd5b506004361061021b5760003560e01c806381128c1d11610125578063cbffa3c7116100ad578063dde499791161007c578063dde4997914610512578063ef0526a214610525578063ef5cfb8c14610536578063f2fde38b14610549578063f978fff11461055c57600080fd5b8063cbffa3c7146104c1578063ce23177e146104cc578063d0c02d63146104df578063d0da6801146104ff57600080fd5b806399248ea7116100f457806399248ea71461046d578063a4c0ed3614610480578063a584119414610493578063a69df4b5146104a6578063a83d1ed6146104ae57600080fd5b806381128c1d1461040b5780638c24add4146104365780638da5cb5b1461044957806396a9cd7d1461045a57600080fd5b806356891412116101a85780635ef73d58116101775780635ef73d58146103c85780636067bc15146103d45780636aa8d4cf146103e757806370af0934146103f0578063715018a61461040357600080fd5b8063568914121461034c5780635bbb63a6146103555780635e4c0e15146103605780635e5c06e21461037357600080fd5b80631fda9a02116101ef5780631fda9a02146102bf57806321cf85ba146102ea57806342c93361146102fd57806348c64e41146103305780634ad84b341461034357600080fd5b806223de29146102205780630a1a257a14610235578063150b7a02146102735780631f014d831461029f575b600080fd5b61023361022e36600461236a565b610585565b005b610260610243366004612415565b600560209081526000928352604080842090915290825290205481565b6040519081526020015b60405180910390f35b61028661028136600461243f565b610732565b6040516001600160e01b0319909116815260200161026a565b6102606102ad3660046124ae565b60086020526000908152604090205481565b6004546102d2906001600160a01b031681565b6040516001600160a01b03909116815260200161026a565b6102336102f83660046124c9565b610ce3565b61032061030b3660046124c9565b60096020526000908152604090205460ff1681565b604051901515815260200161026a565b61023361033e366004612415565b610db6565b610260600c5481565b610260600b5481565b6102606362dfd74081565b61023361036e3660046124c9565b610f35565b6103a86103813660046124ae565b600a6020526000908152604090208054600182015460028301546003909301549192909184565b60408051948552602085019390935291830152606082015260800161026a565b61026064e8d4a5100081565b6102336103e23660046124ae565b610fd9565b610260610c6381565b6102606103fe3660046124ae565b6111ab565b6102336111bc565b610260610419366004612415565b600760209081526000928352604080842090915290825290205481565b6103206104443660046125af565b6111f2565b6000546001600160a01b03166102d2565b610320610468366004612606565b611382565b6003546102d2906001600160a01b031681565b61032061048e366004612654565b6114fd565b6102336104a13660046124ae565b61166a565b610233611673565b6103206104bc3660046126bf565b61167c565b610260636359214081565b6103206104da3660046126eb565b6117ed565b6102606104ed3660046124ae565b60066020526000908152604090205481565b6002546102d2906001600160a01b031681565b6102336105203660046124ae565b611916565b610260691fc3842bd1f071c0000081565b6102336105443660046124ae565b61191f565b6102336105573660046124ae565b611931565b61026061056a3660046124ae565b6001600160a01b03166000908152600a602052604090205490565b6003546001600160a01b031633146105f35760405162461bcd60e51b815260206004820152602660248201527f486f70725374616b653a2053656e646572206d757374206265207778484f5052604482015265103a37b5b2b760d11b60648201526084015b60405180910390fd5b6001600160a01b03861630146106715760405162461bcd60e51b815260206004820152603760248201527f486f70725374616b653a204d7573742062652073656e64696e6720746f6b656e60448201527f7320746f20486f70725374616b6520636f6e747261637400000000000000000060648201526084016105ea565b6000546001600160a01b038881169116146106e65760405162461bcd60e51b815260206004820152602f60248201527f486f70725374616b653a204f6e6c7920616363657074206f776e657220746f2060448201526e70726f76696465207265776172647360881b60648201526084016105ea565b84600c60008282546106f8919061275d565b909155505060405185907f2bf52bcae319602514e02ff69bbe4b89a19718b96e7867044128ec872419437c90600090a25050505050505050565b6004546000906001600160a01b0316336001600160a01b0316146107be5760405162461bcd60e51b815260206004820152603f60248201527f486f70725374616b653a2043616e6e6f7420536166655472616e73666572467260448201527f6f6d20746f6b656e73206f74686572207468616e20486f7072426f6f73742e0060648201526084016105ea565b636359214042111561082a5760405162461bcd60e51b815260206004820152602f60248201527f486f70725374616b653a2050726f6772616d20656e6465642c2063616e6e6f7460448201526e103932b232b2b6903137b7b9ba399760891b60648201526084016105ea565b610833856119c9565b6001600160a01b038516600081815260056020908152604080832060068084528285208054865291845291842089905593835290528154600192919061087a90849061275d565b90915550506004805460405163562317c560e01b81529182018690526000916001600160a01b039091169063562317c59060240160206040518083038186803b1580156108c657600080fd5b505afa1580156108da573d6000803e3d6000fd5b505050506040513d601f19601f820116820180604052508101906108fe9190612775565b6004805460405163225b377d60e21b81529182018890529192506000916001600160a01b03169063896cddf490602401604080518083038186803b15801561094557600080fd5b505afa158015610959573d6000803e3d6000fd5b505050506040513d601f19601f8201168201806040525081019061097d919061278e565b5060008381526009602052604090205490915060ff16156109fa5760405162461bcd60e51b815260206004820152603160248201527f486f70725374616b653a2043616e206f6e6c792072656465656d204e4654732060448201527037b31030b63637bbb2b2103a3cb832b99760791b60648201526084016105ea565b6001600160a01b038716600090815260086020526040812054905b81811015610c45576001600160a01b0389811660009081526007602090815260408083208584529091528082205460048054925163562317c560e01b81529081018290529093919091169063562317c59060240160206040518083038186803b158015610a8157600080fd5b505afa158015610a95573d6000803e3d6000fd5b505050506040513d601f19601f82011682018060405250810190610ab99190612775565b6004805460405163225b377d60e21b81529182018590529192506000916001600160a01b03169063896cddf490602401604080518083038186803b158015610b0057600080fd5b505afa158015610b14573d6000803e3d6000fd5b505050506040513d601f19601f82011682018060405250810190610b38919061278e565b506004805460405163562317c560e01b815291820186905291925088916001600160a01b03169063562317c59060240160206040518083038186803b158015610b8057600080fd5b505afa158015610b94573d6000803e3d6000fd5b505050506040513d601f19601f82011682018060405250810190610bb89190612775565b1415610c2f5785811015610bed576001600160a01b038c16600090815260076020908152604080832087845290915290208b90555b604051868210908c906001600160a01b038f16907f066d96cb280fccf3a0a3a5686966a801b2690a32ec98fd2711a4e09f345d935d90600090a4505050610c45565b5050508080610c3d906127b2565b915050610a15565b81811415610ccd576001600160a01b038916600081815260076020908152604080832086845282528083208c905592825260089052908120805460019290610c8e90849061275d565b909155505060405160019089906001600160a01b038c16907f066d96cb280fccf3a0a3a5686966a801b2690a32ec98fd2711a4e09f345d935d90600090a45b50630a85bd0160e11b9998505050505050505050565b6000546001600160a01b03163314610d0d5760405162461bcd60e51b81526004016105ea906127cd565b60008181526009602052604090205460ff16610d765760405162461bcd60e51b815260206004820152602260248201527f486f70725374616b653a204e46542074797065206973206e6f7420626c6f636b604482015261195960f21b60648201526084016105ea565b600081815260096020526040808220805460ff191690555182917ff78f7266ab985ddb2782b52fc236b9d2f22ff251a37a336a296ed4b188f7a92691a250565b6000546001600160a01b03163314610de05760405162461bcd60e51b81526004016105ea906127cd565b60026001541415610e335760405162461bcd60e51b815260206004820152601f60248201527f5265656e7472616e637947756172643a207265656e7472616e742063616c6c0060448201526064016105ea565b60026001556004546001600160a01b0383811691161415610ea45760405162461bcd60e51b815260206004820152602560248201527f486f70725374616b653a2043616e6e6f7420636c61696d20486f7072426f6f736044820152641d0813919560da1b60648201526084016105ea565b816001600160a01b03166323b872dd30610ec66000546001600160a01b031690565b6040516001600160e01b031960e085901b1681526001600160a01b0392831660048201529116602482015260448101849052606401600060405180830381600087803b158015610f1557600080fd5b505af1158015610f29573d6000803e3d6000fd5b50506001805550505050565b6000546001600160a01b03163314610f5f5760405162461bcd60e51b81526004016105ea906127cd565b60008181526009602052604090205460ff1615610fcd5760405162461bcd60e51b815260206004820152602660248201527f486f70725374616b653a204e4654207479706520697320616c726561647920626044820152651b1bd8dad95960d21b60648201526084016105ea565b610fd681611a54565b50565b6000546001600160a01b031633146110035760405162461bcd60e51b81526004016105ea906127cd565b600260015414156110565760405162461bcd60e51b815260206004820152601f60248201527f5265656e7472616e637947756172643a207265656e7472616e742063616c6c0060448201526064016105ea565b60026001819055546000906001600160a01b038381169116141561110357600b546002546040516370a0823160e01b81523060048201526001600160a01b03909116906370a082319060240160206040518083038186803b1580156110ba57600080fd5b505afa1580156110ce573d6000803e3d6000fd5b505050506040513d601f19601f820116820180604052508101906110f29190612775565b6110fc9190612802565b905061117d565b6040516370a0823160e01b81523060048201526001600160a01b038316906370a082319060240160206040518083038186803b15801561114257600080fd5b505afa158015611156573d6000803e3d6000fd5b505050506040513d601f19601f8201168201806040525081019061117a9190612775565b90505b6111a36111926000546001600160a01b031690565b6001600160a01b0384169083611a97565b505060018055565b60006111b682611aee565b92915050565b6000546001600160a01b031633146111e65760405162461bcd60e51b81526004016105ea906127cd565b6111f06000611ce4565b565b6000805b6001600160a01b038316600090815260066020526040902054811015611375576001600160a01b0383811660009081526005602090815260408083208584529091528082205460048054925163225b377d60e21b81529081018290529093919091169063896cddf490602401604080518083038186803b15801561127957600080fd5b505afa15801561128d573d6000803e3d6000fd5b505050506040513d601f19601f820116820180604052508101906112b1919061278e565b50875160208901206004805460405163c588ff8b60e01b815291820186905292935090916001600160a01b03169063c588ff8b9060240160006040518083038186803b15801561130057600080fd5b505afa158015611314573d6000803e3d6000fd5b505050506040513d6000823e601f3d908101601f1916820160405261133c9190810190612849565b8051906020012014801561134f57508086145b15611360576001935050505061137b565b5050808061136d906127b2565b9150506111f6565b50600090505b9392505050565b6000805b6001600160a01b038316600090815260066020526040902054811015611375576001600160a01b0383811660009081526005602090815260408083208584529091528082205460048054925163c87b56dd60e01b81529081018290529093919091169063c87b56dd9060240160006040518083038186803b15801561140a57600080fd5b505afa15801561141e573d6000803e3d6000fd5b505050506040513d6000823e601f3d908101601f191682016040526114469190810190612849565b6004805460405163562317c560e01b815291820185905291925088916001600160a01b03169063562317c59060240160206040518083038186803b15801561148d57600080fd5b505afa1580156114a1573d6000803e3d6000fd5b505050506040513d601f19601f820116820180604052508101906114c59190612775565b1480156114d757506114d78187611d34565b156114e8576001935050505061137b565b505080806114f5906127b2565b915050611386565b6002546000906001600160a01b0316331461156f5760405162461bcd60e51b815260206004820152602c60248201527f486f70725374616b653a204f6e6c7920616363657074204c4f434b5f544f4b4560448201526b4e20696e207374616b696e6760a01b60648201526084016105ea565b63635921404211156115db5760405162461bcd60e51b815260206004820152602f60248201527f486f70725374616b653a2050726f6772616d20656e6465642c2063616e6e6f7460448201526e1039ba30b5b29030b73cb6b7b9329760891b60648201526084016105ea565b6115e4846119c9565b6001600160a01b0384166000908152600a60205260408120805485929061160c90849061275d565b9250508190555082600b6000828254611625919061275d565b909155505060405183906001600160a01b038616907f9e71bc8eea02a63969f509818f2dafb9254532904319f9dbda79b67bd34a5f3d90600090a35060019392505050565b610fd6816119c9565b6111f033611ddd565b6000805b6001600160a01b038316600090815260066020526040902054811015611375576001600160a01b0383811660009081526005602090815260408083208584529091528082205460048054925163225b377d60e21b81529081018290529093919091169063896cddf490602401604080518083038186803b15801561170357600080fd5b505afa158015611717573d6000803e3d6000fd5b505050506040513d601f19601f8201168201806040525081019061173b919061278e565b506004805460405163562317c560e01b815291820185905291925088916001600160a01b03169063562317c59060240160206040518083038186803b15801561178357600080fd5b505afa158015611797573d6000803e3d6000fd5b505050506040513d601f19601f820116820180604052508101906117bb9190612775565b1480156117c757508086145b156117d8576001935050505061137b565b505080806117e5906127b2565b915050611680565b60008084846040516020016118039291906128c0565b604051602081830303815290604052905060005b6001600160a01b03841660009081526006602052604090205481101561190a576001600160a01b0384811660009081526005602090815260408083208584529091528082205460048054925163c87b56dd60e01b81529081018290529093919091169063c87b56dd9060240160006040518083038186803b15801561189b57600080fd5b505afa1580156118af573d6000803e3d6000fd5b505050506040513d6000823e601f3d908101601f191682016040526118d79190810190612849565b90506118e38185611d34565b156118f557600194505050505061137b565b50508080611902906127b2565b915050611817565b50600095945050505050565b610fd681611ddd565b611928816119c9565b610fd681611fbb565b6000546001600160a01b0316331461195b5760405162461bcd60e51b81526004016105ea906127cd565b6001600160a01b0381166119c05760405162461bcd60e51b815260206004820152602660248201527f4f776e61626c653a206e6577206f776e657220697320746865207a65726f206160448201526564647265737360d01b60648201526084016105ea565b610fd681611ce4565b60006119d482611aee565b6001600160a01b0383166000908152600a6020526040812060020180549293508392909190611a0490849061275d565b90915550506001600160a01b0382166000818152600a602052604080822042600190910155518392917f99869d968ca3581a661f31abb3a6aa70ccec5cdc49855eab174cf9e00a2462db91a35050565b600081815260096020526040808220805460ff191660011790555182917f620d09c7c7f3c5c41d8b5ea7f274622ddd6ac6b801f035fc741205d113199c0c91a250565b604080516001600160a01b038416602482015260448082018490528251808303909101815260649091019091526020810180516001600160e01b031663a9059cbb60e01b179052611ae9908490612102565b505050565b6001600160a01b0381166000908152600a602090815260408083208151608081018352815481526001820154938101939093526002810154918301919091526003015460608201526362dfd74042111580611b5157506363592140816020015110155b15611b5f5750600092915050565b8051600090611b7190610c63906128fc565b905060005b6001600160a01b038516600090815260086020526040902054811015611c78576001600160a01b0385811660009081526007602090815260408083208584529091528082205460048054925163225b377d60e21b81529081018290529093919091169063896cddf490602401604080518083038186803b158015611bf957600080fd5b505afa158015611c0d573d6000803e3d6000fd5b505050506040513d601f19601f82011682018060405250810190611c31919061278e565b5085519091508190611c4d90691fc3842bd1f071c000006121d4565b611c5791906128fc565b611c61908561275d565b935050508080611c70906127b2565b915050611b76565b5064e8d4a51000611ca86363592140611ca26362dfd74086602001516121ea90919063ffffffff16565b906121d4565b611cbe6363592140611ca2426362dfd7406121ea565b611cc89190612802565b611cd290836128fc565b611cdc919061291b565b949350505050565b600080546001600160a01b038381166001600160a01b0319831681178455604051919092169283917f8be0079c531659141344cd1fd0a4f28419497f9722a3daafe3b4186f6b6457e09190a35050565b8051825160009184918491908490611d4d908390612802565b9050600084611d5d600184612802565b81518110611d6d57611d6d61293d565b01602001516001600160f81b0319169050602f60f81b8114611d97576000955050505050506111b6565b6000611da4846020612802565b611daf9060086128fc565b9050600080611dbd87612953565b979094016020015196821c9690911c959095149550505050505092915050565b63635921404211611e4c5760405162461bcd60e51b815260206004820152603360248201527f486f70725374616b653a2050726f6772616d206973206f6e676f696e672c206360448201527230b73737ba103ab73637b1b59039ba30b5b29760691b60648201526084016105ea565b6001600160a01b0381166000908152600a6020526040902054611e6e826119c9565b6001600160a01b0382166000908152600a60205260408120819055600b8054839290611e9b908490612802565b90915550611eaa905082611fbb565b600254611ec1906001600160a01b03168383611a97565b60005b6001600160a01b038316600090815260066020526040902054811015611f8057600480546001600160a01b038581166000818152600560209081526040808320888452909152908190205490516323b872dd60e01b815230958101959095526024850191909152604484015216906323b872dd90606401600060405180830381600087803b158015611f5557600080fd5b505af1158015611f69573d6000803e3d6000fd5b505050508080611f78906127b2565b915050611ec4565b5060405181906001600160a01b038416907fb21fb52d5749b80f3182f8c6992236b5e5576681880914484d7f4c9b062e619e90600090a35050565b6001600160a01b0381166000908152600a602090815260408083208151608081018352815481526001820154938101939093526002810154918301829052600301546060830181905291929161201091612802565b90508015611ae9576001600160a01b0383166000908152600a602052604090206002810154600390910155600c548111156120995760405162461bcd60e51b8152602060048201526024808201527f486f70725374616b653a20496e73756666696369656e7420726577617264207060448201526337b7b61760e11b60648201526084016105ea565b80600c60008282546120ab9190612802565b90915550506003546120c7906001600160a01b03168483611a97565b60405181906001600160a01b038516907fd8138f8a3f377c5259ca548e70e4c2de94f129f5a11036a15b69513cba2b426a90600090a3505050565b6000612157826040518060400160405280602081526020017f5361666545524332303a206c6f772d6c6576656c2063616c6c206661696c6564815250856001600160a01b03166121fa9092919063ffffffff16565b805190915015611ae95780806020019051810190612175919061297a565b611ae95760405162461bcd60e51b815260206004820152602a60248201527f5361666545524332303a204552433230206f7065726174696f6e20646964206e6044820152691bdd081cdd58d8d9595960b21b60648201526084016105ea565b60008183106121e3578161137b565b5090919050565b6000818310156121e3578161137b565b6060611cdc848460008585843b6122535760405162461bcd60e51b815260206004820152601d60248201527f416464726573733a2063616c6c20746f206e6f6e2d636f6e747261637400000060448201526064016105ea565b600080866001600160a01b0316858760405161226f919061299c565b60006040518083038185875af1925050503d80600081146122ac576040519150601f19603f3d011682016040523d82523d6000602084013e6122b1565b606091505b50915091506122c18282866122cc565b979650505050505050565b606083156122db57508161137b565b8251156122eb5782518084602001fd5b8160405162461bcd60e51b81526004016105ea91906129b8565b80356001600160a01b038116811461231c57600080fd5b919050565b60008083601f84011261233357600080fd5b50813567ffffffffffffffff81111561234b57600080fd5b60208301915083602082850101111561236357600080fd5b9250929050565b60008060008060008060008060c0898b03121561238657600080fd5b61238f89612305565b975061239d60208a01612305565b96506123ab60408a01612305565b955060608901359450608089013567ffffffffffffffff808211156123cf57600080fd5b6123db8c838d01612321565b909650945060a08b01359150808211156123f457600080fd5b506124018b828c01612321565b999c989b5096995094979396929594505050565b6000806040838503121561242857600080fd5b61243183612305565b946020939093013593505050565b60008060008060006080868803121561245757600080fd5b61246086612305565b945061246e60208701612305565b935060408601359250606086013567ffffffffffffffff81111561249157600080fd5b61249d88828901612321565b969995985093965092949392505050565b6000602082840312156124c057600080fd5b61137b82612305565b6000602082840312156124db57600080fd5b5035919050565b634e487b7160e01b600052604160045260246000fd5b604051601f8201601f1916810167ffffffffffffffff81118282101715612521576125216124e2565b604052919050565b600067ffffffffffffffff821115612543576125436124e2565b50601f01601f191660200190565b600061256461255f84612529565b6124f8565b905082815283838301111561257857600080fd5b828260208301376000602084830101529392505050565b600082601f8301126125a057600080fd5b61137b83833560208501612551565b6000806000606084860312156125c457600080fd5b833567ffffffffffffffff8111156125db57600080fd5b6125e78682870161258f565b935050602084013591506125fd60408501612305565b90509250925092565b60008060006060848603121561261b57600080fd5b83359250602084013567ffffffffffffffff81111561263957600080fd5b6126458682870161258f565b9250506125fd60408501612305565b60008060006060848603121561266957600080fd5b61267284612305565b925060208401359150604084013567ffffffffffffffff81111561269557600080fd5b8401601f810186136126a657600080fd5b6126b586823560208401612551565b9150509250925092565b6000806000606084860312156126d457600080fd5b83359250602084013591506125fd60408501612305565b60008060006060848603121561270057600080fd5b833567ffffffffffffffff8082111561271857600080fd5b6127248783880161258f565b9450602086013591508082111561273a57600080fd5b506126458682870161258f565b634e487b7160e01b600052601160045260246000fd5b6000821982111561277057612770612747565b500190565b60006020828403121561278757600080fd5b5051919050565b600080604083850312156127a157600080fd5b505080516020909101519092909150565b60006000198214156127c6576127c6612747565b5060010190565b6020808252818101527f4f776e61626c653a2063616c6c6572206973206e6f7420746865206f776e6572604082015260600190565b60008282101561281457612814612747565b500390565b60005b8381101561283457818101518382015260200161281c565b83811115612843576000848401525b50505050565b60006020828403121561285b57600080fd5b815167ffffffffffffffff81111561287257600080fd5b8201601f8101841361288357600080fd5b805161289161255f82612529565b8181528560208385010111156128a657600080fd5b6128b7826020830160208601612819565b95945050505050565b600083516128d2818460208801612819565b602f60f81b90830190815283516128f0816001840160208801612819565b01600101949350505050565b600081600019048311821515161561291657612916612747565b500290565b60008261293857634e487b7160e01b600052601260045260246000fd5b500490565b634e487b7160e01b600052603260045260246000fd5b80516020808301519190811015612974576000198160200360031b1b821691505b50919050565b60006020828403121561298c57600080fd5b8151801515811461137b57600080fd5b600082516129ae818460208701612819565b9190910192915050565b60208152600082518060208401526129d7816040850160208701612819565b601f01601f1916919091016040019291505056fea2646970667358221220997ec9f64edf53280a0b0eb191ce39942a215ebcb2413d0490e44ae070c1c72f64736f6c63430008090033",
  "devdoc": {
    "kind": "dev",
    "methods": {
      "claimRewards(address)": {
        "details": "Sync rewards and claim them",
        "params": {
          "account": "address Account whose stake rewards will be synced and claimed."
        }
      },
      "constructor": {
        "details": "Provide NFT contract address. Transfer owner role to the new owner address. At deployment, it also registers the lock contract as an ERC777 recipient. Also, it blocks HODLr, DAO_v2, Surveyor, Wildhorn_v2, PuzzleHunt_v1, PuzzleHunt_v2 NFTs",
        "params": {
          "_lockToken": "address Address of the stake token xHOPR.",
          "_newOwner": "address Address of the new owner. This new owner can reclaim any ERC20 and ERC721 token being accidentally sent to the lock contract.",
          "_nftAddress": "address Address of the NFT contract.",
          "_rewardToken": "address Address of the reward token wxHOPR."
        }
      },
      "getCumulatedRewardsIncrement(address)": {
        "details": "Returns the increment of cumulated rewards during the lastSyncTimestamp and current block.timestamp.",
        "params": {
          "_account": "address Address of the account whose rewards will be calculated."
        }
      },
      "isNftTypeAndRankRedeemed1(string,string,address)": {
        "details": "Given NFT name type and rank name (as in HoprBoost) returns if the hodler has redeemed such an NFT",
        "params": {
          "hodler": "address Address of an account that stakes xHOPR tokens and/or redeems its HoprBoost NFT.",
          "nftRank": "string Rank name of the HoprBoost NFT.",
          "nftType": "string Type name of the HoprBoost NFT."
        }
      },
      "isNftTypeAndRankRedeemed2(uint256,string,address)": {
        "details": "Given NFT type index and rank name (as in HoprBoost) returns if the hodler has redeemed such an NFT",
        "params": {
          "hodler": "address Address of an account that stakes xHOPR tokens and/or redeems its HoprBoost NFT.",
          "nftRank": "string Rank name of the HoprBoost NFT.",
          "nftTypeIndex": "uint256 Type index of the HoprBoost NFT."
        }
      },
      "isNftTypeAndRankRedeemed3(uint256,uint256,address)": {
        "details": "Given NFT type index and the boost numerator (as in HoprBoost) returns if the hodler has redeemed such an NFT",
        "params": {
          "boostNumerator": "uint256 Boost numerator of the HoprBoost NFT.",
          "hodler": "address Address of an account that stakes xHOPR tokens and/or redeems its HoprBoost NFT.",
          "nftTypeIndex": "uint256 Type index of the HoprBoost NFT."
        }
      },
      "isNftTypeAndRankRedeemed4(string,uint256,address)": {
        "details": "Given NFT type name and the boost numerator (as in HoprBoost) returns if the hodler has redeemed such an NFT",
        "params": {
          "boostNumerator": "uint256 Boost numerator of the HoprBoost NFT.",
          "hodler": "address Address of an account that stakes xHOPR tokens and/or redeems its HoprBoost NFT.",
          "nftType": "string Type name of the HoprBoost NFT."
        }
      },
      "onERC721Received(address,address,uint256,bytes)": {
        "details": "Whenever a boost `tokenId` token is transferred to this contract via {IERC721-safeTransferFrom} when redeeming, this function is called. Boost factor associated with the It must return its Solidity selector to confirm the token transfer upon success.",
        "params": {
          "data": "bytes hex information provided by the token holder (if any)",
          "from": "address token holder address",
          "operator": "address operator requesting the transfer",
          "tokenId": "uint256 amount of tokens to transfer"
        }
      },
      "onTokenTransfer(address,uint256,bytes)": {
        "details": "ERC677 hook. Token holders can send their tokens with `transferAndCall` to the stake contract. After PROGRAM_END, it refuses tokens; Before PROGRAM_END, it accepts tokens xHOPR token, sync Account state, and update totalLocked.",
        "params": {
          "_data": "bytes Data being sent along with token transfer",
          "_from": "address Address of tokens sender",
          "_value": "uint256 token amount being transferred"
        }
      },
      "owner()": {
        "details": "Returns the address of the current owner."
      },
      "ownerBlockNftType(uint256)": {
        "details": "Owner can block NFTs from being redeemed in the current staking contract by its type name (as in HoprBoost)",
        "params": {
          "typeIndex": "integer Type index to be blocked"
        }
      },
      "ownerUnblockNftType(uint256)": {
        "details": "Owner can allow blocked NFTs to be redeemable.",
        "params": {
          "typeIndex": "integer Type index to be allowed"
        }
      },
      "reclaimErc20Tokens(address)": {
        "details": "Reclaim any ERC20 token being accidentally sent to the contract.",
        "params": {
          "tokenAddress": "address ERC20 token address."
        }
      },
      "reclaimErc721Tokens(address,uint256)": {
        "details": "Reclaim any ERC721 token being accidentally sent to the contract.",
        "params": {
          "tokenAddress": "address ERC721 token address."
        }
      },
      "renounceOwnership()": {
        "details": "Leaves the contract without owner. It will not be possible to call `onlyOwner` functions anymore. Can only be called by the current owner. NOTE: Renouncing ownership will leave the contract without an owner, thereby removing any functionality that is only available to the owner."
      },
      "stakedHoprTokens(address)": {
        "details": "Shortcut that returns the actual stake of an account.",
        "params": {
          "_account": "address Address of the staker account."
        }
      },
      "sync(address)": {
        "details": "Manually sync account's reward states",
        "params": {
          "account": "address Account whose stake rewards will be synced."
        }
      },
      "tokensReceived(address,address,address,uint256,bytes,bytes)": {
        "details": "ERC777 hook. To receive wxHOPR to fuel the reward pool with `send()` method. It updates the availableReward by tokenAmount.",
        "params": {
          "amount": "uint256 amount of tokens to transfer",
          "from": "address token holder address",
          "operator": "address operator requesting the transfer",
          "operatorData": "bytes extra information provided by the operator (if any)",
          "to": "address recipient address",
          "userData": "bytes hex information provided by the token holder (if any)"
        }
      },
      "transferOwnership(address)": {
        "details": "Transfers ownership of the contract to a new account (`newOwner`). Can only be called by the current owner."
      },
      "unlock()": {
        "details": "Unlock staking for caller"
      },
      "unlockFor(address)": {
        "details": "Unlock staking for a given account",
        "params": {
          "account": "address Account that staked tokens."
        }
      }
    },
    "version": 1
  },
  "userdoc": {
    "kind": "user",
    "methods": {
      "claimRewards(address)": {
        "notice": "public function of ``_sync`` + ``_claim``"
      },
      "sync(address)": {
        "notice": "public function of ``_sync``."
      }
    },
    "version": 1
  },
  "storageLayout": {
    "storage": [
      {
        "astId": 539,
        "contract": "contracts/stake/HoprStakeSeason4.sol:HoprStakeSeason4",
        "label": "_owner",
        "offset": 0,
        "slot": "0",
        "type": "t_address"
      },
      {
        "astId": 647,
        "contract": "contracts/stake/HoprStakeSeason4.sol:HoprStakeSeason4",
        "label": "_status",
        "offset": 0,
        "slot": "1",
        "type": "t_uint256"
      },
      {
        "astId": 14315,
        "contract": "contracts/stake/HoprStakeSeason4.sol:HoprStakeSeason4",
        "label": "LOCK_TOKEN",
        "offset": 0,
        "slot": "2",
        "type": "t_address"
      },
      {
        "astId": 14318,
        "contract": "contracts/stake/HoprStakeSeason4.sol:HoprStakeSeason4",
        "label": "REWARD_TOKEN",
        "offset": 0,
        "slot": "3",
        "type": "t_address"
      },
      {
        "astId": 14324,
        "contract": "contracts/stake/HoprStakeSeason4.sol:HoprStakeSeason4",
        "label": "NFT_CONTRACT",
        "offset": 0,
        "slot": "4",
        "type": "t_contract(IHoprBoost)16374"
      },
      {
        "astId": 14330,
        "contract": "contracts/stake/HoprStakeSeason4.sol:HoprStakeSeason4",
        "label": "redeemedNft",
        "offset": 0,
        "slot": "5",
        "type": "t_mapping(t_address,t_mapping(t_uint256,t_uint256))"
      },
      {
        "astId": 14334,
        "contract": "contracts/stake/HoprStakeSeason4.sol:HoprStakeSeason4",
        "label": "redeemedNftIndex",
        "offset": 0,
        "slot": "6",
        "type": "t_mapping(t_address,t_uint256)"
      },
      {
        "astId": 14340,
        "contract": "contracts/stake/HoprStakeSeason4.sol:HoprStakeSeason4",
        "label": "redeemedFactor",
        "offset": 0,
        "slot": "7",
        "type": "t_mapping(t_address,t_mapping(t_uint256,t_uint256))"
      },
      {
        "astId": 14344,
        "contract": "contracts/stake/HoprStakeSeason4.sol:HoprStakeSeason4",
        "label": "redeemedFactorIndex",
        "offset": 0,
        "slot": "8",
        "type": "t_mapping(t_address,t_uint256)"
      },
      {
        "astId": 14348,
        "contract": "contracts/stake/HoprStakeSeason4.sol:HoprStakeSeason4",
        "label": "isBlockedNft",
        "offset": 0,
        "slot": "9",
        "type": "t_mapping(t_uint256,t_bool)"
      },
      {
        "astId": 14353,
        "contract": "contracts/stake/HoprStakeSeason4.sol:HoprStakeSeason4",
        "label": "accounts",
        "offset": 0,
        "slot": "10",
        "type": "t_mapping(t_address,t_struct(Account)14297_storage)"
      },
      {
        "astId": 14355,
        "contract": "contracts/stake/HoprStakeSeason4.sol:HoprStakeSeason4",
        "label": "totalLocked",
        "offset": 0,
        "slot": "11",
        "type": "t_uint256"
      },
      {
        "astId": 14357,
        "contract": "contracts/stake/HoprStakeSeason4.sol:HoprStakeSeason4",
        "label": "availableReward",
        "offset": 0,
        "slot": "12",
        "type": "t_uint256"
      }
    ],
    "types": {
      "t_address": {
        "encoding": "inplace",
        "label": "address",
        "numberOfBytes": "20"
      },
      "t_bool": {
        "encoding": "inplace",
        "label": "bool",
        "numberOfBytes": "1"
      },
      "t_contract(IHoprBoost)16374": {
        "encoding": "inplace",
        "label": "contract IHoprBoost",
        "numberOfBytes": "20"
      },
      "t_mapping(t_address,t_mapping(t_uint256,t_uint256))": {
        "encoding": "mapping",
        "key": "t_address",
        "label": "mapping(address => mapping(uint256 => uint256))",
        "numberOfBytes": "32",
        "value": "t_mapping(t_uint256,t_uint256)"
      },
      "t_mapping(t_address,t_struct(Account)14297_storage)": {
        "encoding": "mapping",
        "key": "t_address",
        "label": "mapping(address => struct HoprStakeSeason4.Account)",
        "numberOfBytes": "32",
        "value": "t_struct(Account)14297_storage"
      },
      "t_mapping(t_address,t_uint256)": {
        "encoding": "mapping",
        "key": "t_address",
        "label": "mapping(address => uint256)",
        "numberOfBytes": "32",
        "value": "t_uint256"
      },
      "t_mapping(t_uint256,t_bool)": {
        "encoding": "mapping",
        "key": "t_uint256",
        "label": "mapping(uint256 => bool)",
        "numberOfBytes": "32",
        "value": "t_bool"
      },
      "t_mapping(t_uint256,t_uint256)": {
        "encoding": "mapping",
        "key": "t_uint256",
        "label": "mapping(uint256 => uint256)",
        "numberOfBytes": "32",
        "value": "t_uint256"
      },
      "t_struct(Account)14297_storage": {
        "encoding": "inplace",
        "label": "struct HoprStakeSeason4.Account",
        "members": [
          {
            "astId": 14290,
            "contract": "contracts/stake/HoprStakeSeason4.sol:HoprStakeSeason4",
            "label": "actualLockedTokenAmount",
            "offset": 0,
            "slot": "0",
            "type": "t_uint256"
          },
          {
            "astId": 14292,
            "contract": "contracts/stake/HoprStakeSeason4.sol:HoprStakeSeason4",
            "label": "lastSyncTimestamp",
            "offset": 0,
            "slot": "1",
            "type": "t_uint256"
          },
          {
            "astId": 14294,
            "contract": "contracts/stake/HoprStakeSeason4.sol:HoprStakeSeason4",
            "label": "cumulatedRewards",
            "offset": 0,
            "slot": "2",
            "type": "t_uint256"
          },
          {
            "astId": 14296,
            "contract": "contracts/stake/HoprStakeSeason4.sol:HoprStakeSeason4",
            "label": "claimedRewards",
            "offset": 0,
            "slot": "3",
            "type": "t_uint256"
          }
        ],
        "numberOfBytes": "128"
      },
      "t_uint256": {
        "encoding": "inplace",
        "label": "uint256",
        "numberOfBytes": "32"
      }
    }
  }
}