{
  "address": "0xc252E13B41c0618e3764425Cc8385Aa01ced5449",
  "abi": [
    {
      "inputs": [],
      "stateMutability": "nonpayable",
      "type": "constructor"
    },
    {
      "anonymous": false,
      "inputs": [
        {
          "indexed": true,
          "internalType": "address",
          "name": "owner",
          "type": "address"
        },
        {
          "indexed": true,
          "internalType": "address",
          "name": "spender",
          "type": "address"
        },
        {
          "indexed": false,
          "internalType": "uint256",
          "name": "value",
          "type": "uint256"
        }
      ],
      "name": "Approval",
      "type": "event"
    },
    {
      "anonymous": false,
      "inputs": [
        {
          "indexed": true,
          "internalType": "address",
          "name": "from",
          "type": "address"
        },
        {
          "indexed": true,
          "internalType": "address",
          "name": "to",
          "type": "address"
        },
        {
          "indexed": false,
          "internalType": "uint256",
          "name": "value",
          "type": "uint256"
        },
        {
          "indexed": false,
          "internalType": "bytes",
          "name": "data",
          "type": "bytes"
        }
      ],
      "name": "Transfer",
      "type": "event"
    },
    {
      "anonymous": false,
      "inputs": [
        {
          "indexed": true,
          "internalType": "address",
          "name": "from",
          "type": "address"
        },
        {
          "indexed": true,
          "internalType": "address",
          "name": "to",
          "type": "address"
        },
        {
          "indexed": false,
          "internalType": "uint256",
          "name": "value",
          "type": "uint256"
        }
      ],
      "name": "Transfer",
      "type": "event"
    },
    {
      "inputs": [
        {
          "internalType": "address",
          "name": "owner",
          "type": "address"
        },
        {
          "internalType": "address",
          "name": "spender",
          "type": "address"
        }
      ],
      "name": "allowance",
      "outputs": [
        {
          "internalType": "uint256",
          "name": "",
          "type": "uint256"
        }
      ],
      "stateMutability": "view",
      "type": "function"
    },
    {
      "inputs": [
        {
          "internalType": "address",
          "name": "spender",
          "type": "address"
        },
        {
          "internalType": "uint256",
          "name": "amount",
          "type": "uint256"
        }
      ],
      "name": "approve",
      "outputs": [
        {
          "internalType": "bool",
          "name": "",
          "type": "bool"
        }
      ],
      "stateMutability": "nonpayable",
      "type": "function"
    },
    {
      "inputs": [
        {
          "internalType": "address",
          "name": "account",
          "type": "address"
        }
      ],
      "name": "balanceOf",
      "outputs": [
        {
          "internalType": "uint256",
          "name": "",
          "type": "uint256"
        }
      ],
      "stateMutability": "view",
      "type": "function"
    },
    {
      "inputs": [
        {
          "internalType": "address[]",
          "name": "_to",
          "type": "address[]"
        },
        {
          "internalType": "uint256",
          "name": "_value",
          "type": "uint256"
        }
      ],
      "name": "batchMintInternal",
      "outputs": [],
      "stateMutability": "nonpayable",
      "type": "function"
    },
    {
      "inputs": [],
      "name": "decimals",
      "outputs": [
        {
          "internalType": "uint8",
          "name": "",
          "type": "uint8"
        }
      ],
      "stateMutability": "view",
      "type": "function"
    },
    {
      "inputs": [
        {
          "internalType": "address",
          "name": "spender",
          "type": "address"
        },
        {
          "internalType": "uint256",
          "name": "subtractedValue",
          "type": "uint256"
        }
      ],
      "name": "decreaseAllowance",
      "outputs": [
        {
          "internalType": "bool",
          "name": "",
          "type": "bool"
        }
      ],
      "stateMutability": "nonpayable",
      "type": "function"
    },
    {
      "inputs": [
        {
          "internalType": "address",
          "name": "spender",
          "type": "address"
        },
        {
          "internalType": "uint256",
          "name": "addedValue",
          "type": "uint256"
        }
      ],
      "name": "increaseAllowance",
      "outputs": [
        {
          "internalType": "bool",
          "name": "",
          "type": "bool"
        }
      ],
      "stateMutability": "nonpayable",
      "type": "function"
    },
    {
      "inputs": [],
      "name": "name",
      "outputs": [
        {
          "internalType": "string",
          "name": "",
          "type": "string"
        }
      ],
      "stateMutability": "view",
      "type": "function"
    },
    {
      "inputs": [],
      "name": "symbol",
      "outputs": [
        {
          "internalType": "string",
          "name": "",
          "type": "string"
        }
      ],
      "stateMutability": "view",
      "type": "function"
    },
    {
      "inputs": [],
      "name": "totalSupply",
      "outputs": [
        {
          "internalType": "uint256",
          "name": "",
          "type": "uint256"
        }
      ],
      "stateMutability": "view",
      "type": "function"
    },
    {
      "inputs": [
        {
          "internalType": "address",
          "name": "_to",
          "type": "address"
        },
        {
          "internalType": "uint256",
          "name": "_value",
          "type": "uint256"
        }
      ],
      "name": "transfer",
      "outputs": [
        {
          "internalType": "bool",
          "name": "",
          "type": "bool"
        }
      ],
      "stateMutability": "nonpayable",
      "type": "function"
    },
    {
      "inputs": [
        {
          "internalType": "address",
          "name": "_to",
          "type": "address"
        },
        {
          "internalType": "uint256",
          "name": "_value",
          "type": "uint256"
        },
        {
          "internalType": "bytes",
          "name": "_data",
          "type": "bytes"
        }
      ],
      "name": "transferAndCall",
      "outputs": [
        {
          "internalType": "bool",
          "name": "",
          "type": "bool"
        }
      ],
      "stateMutability": "nonpayable",
      "type": "function"
    },
    {
      "inputs": [
        {
          "internalType": "address",
          "name": "_from",
          "type": "address"
        },
        {
          "internalType": "address",
          "name": "_to",
          "type": "address"
        },
        {
          "internalType": "uint256",
          "name": "_value",
          "type": "uint256"
        }
      ],
      "name": "transferFrom",
      "outputs": [
        {
          "internalType": "bool",
          "name": "",
          "type": "bool"
        }
      ],
      "stateMutability": "nonpayable",
      "type": "function"
    }
  ],
  "transactionHash": "0x2a99fb246d1fd682e5b28aa0b6c60015c40d74fee9ec9ecce5739548834623cd",
  "args": [],
  "solcInputHash": "38fc2190ccf57616284f5e0aa38db4b5",
  "bytecode": "0x60806040523480156200001157600080fd5b50604080518082018252600a8152694552433637374d6f636b60b01b6020808301918252835180850190945260048452634d36373760e01b90840152815191929162000060916003916200007f565b508051620000769060049060208401906200007f565b50505062000162565b8280546200008d9062000125565b90600052602060002090601f016020900481019282620000b15760008555620000fc565b82601f10620000cc57805160ff1916838001178555620000fc565b82800160010185558215620000fc579182015b82811115620000fc578251825591602001919060010190620000df565b506200010a9291506200010e565b5090565b5b808211156200010a57600081556001016200010f565b600181811c908216806200013a57607f821691505b602082108114156200015c57634e487b7160e01b600052602260045260246000fd5b50919050565b610fb580620001726000396000f3fe608060405234801561001057600080fd5b50600436106100cf5760003560e01c80634000aea01161008c57806395d89b411161006657806395d89b41146101ad578063a457c2d7146101b5578063a9059cbb146101c8578063dd62ed3e146101db57600080fd5b80634000aea01461015c57806370a082311461016f57806383d277521461019857600080fd5b806306fdde03146100d4578063095ea7b3146100f257806318160ddd1461011557806323b872dd14610127578063313ce5671461013a5780633950935114610149575b600080fd5b6100dc610214565b6040516100e99190610e3e565b60405180910390f35b610105610100366004610c33565b6102a6565b60405190151581526020016100e9565b6002545b6040519081526020016100e9565b610105610135366004610bf7565b6102bc565b604051601281526020016100e9565b610105610157366004610c33565b6103a0565b61010561016a366004610c5d565b6103dc565b61011961017d366004610ba2565b6001600160a01b031660009081526020819052604090205490565b6101ab6101a6366004610d0c565b61053c565b005b6100dc610582565b6101056101c3366004610c33565b610591565b6101056101d6366004610c33565b61062f565b6101196101e9366004610bc4565b6001600160a01b03918216600090815260016020908152604080832093909416825291909152205490565b60606003805461022390610ee7565b80601f016020809104026020016040519081016040528092919081815260200182805461024f90610ee7565b801561029c5780601f106102715761010080835404028352916020019161029c565b820191906000526020600020905b81548152906001019060200180831161027f57829003601f168201915b5050505050905090565b60006102b3338484610707565b50600192915050565b60006102c984848461082b565b6102d257600080fd5b604080516000808252602082019092526001600160a01b03851690635260769b60e11b90610307903390879060448101610e0e565b60408051601f198184030181529181526020820180516001600160e01b03166001600160e01b03199094169390931790925290516103459190610df2565b6000604051808303816000865af19150503d8060008114610382576040519150601f19603f3d011682016040523d82523d6000602084013e610387565b606091505b505090508061039557600080fd5b506001949350505050565b3360008181526001602090815260408083206001600160a01b038716845290915281205490916102b39185906103d7908690610ea3565b610707565b6000836001600160a01b0381161580159061040057506001600160a01b0381163014155b61040957600080fd5b61041385856108ca565b61041c57600080fd5b846001600160a01b0316336001600160a01b03167fe19260aff97b920c7df27010903aeb9c8d2be5d310a2c67824cf3f15396e4c168686604051610461929190610e51565b60405180910390a36001600160a01b0385163b15610395576000856001600160a01b031663a4c0ed3660e01b3387876040516024016104a293929190610e0e565b60408051601f198184030181529181526020820180516001600160e01b03166001600160e01b03199094169390931790925290516104e09190610df2565b6000604051808303816000865af19150503d806000811461051d576040519150601f19603f3d011682016040523d82523d6000602084013e610522565b606091505b505090508061053057600080fd5b50600195945050505050565b60005b825181101561057d5761056b83828151811061055d5761055d610f53565b6020026020010151836108d7565b8061057581610f22565b91505061053f565b505050565b60606004805461022390610ee7565b3360009081526001602090815260408083206001600160a01b0386168452909152812054828110156106185760405162461bcd60e51b815260206004820152602560248201527f45524332303a2064656372656173656420616c6c6f77616e63652062656c6f77604482015264207a65726f60d81b60648201526084015b60405180910390fd5b6106253385858403610707565b5060019392505050565b600061063b83836108ca565b61064457600080fd5b604080516000808252602082019092526001600160a01b03851690635260769b60e11b90610679903390879060448101610e0e565b60408051601f198184030181529181526020820180516001600160e01b03166001600160e01b03199094169390931790925290516106b79190610df2565b6000604051808303816000865af19150503d80600081146106f4576040519150601f19603f3d011682016040523d82523d6000602084013e6106f9565b606091505b505090508061062557600080fd5b6001600160a01b0383166107695760405162461bcd60e51b8152602060048201526024808201527f45524332303a20617070726f76652066726f6d20746865207a65726f206164646044820152637265737360e01b606482015260840161060f565b6001600160a01b0382166107ca5760405162461bcd60e51b815260206004820152602260248201527f45524332303a20617070726f766520746f20746865207a65726f206164647265604482015261737360f01b606482015260840161060f565b6001600160a01b0383811660008181526001602090815260408083209487168084529482529182902085905590518481527f8c5be1e5ebec7d5bd14f71427d1e84f3dd0314c0f7b2291e5b200ac8c7c3b925910160405180910390a3505050565b60006108388484846109b6565b6001600160a01b0384166000908152600160209081526040808320338452909152902054828110156108bd5760405162461bcd60e51b815260206004820152602860248201527f45524332303a207472616e7366657220616d6f756e74206578636565647320616044820152676c6c6f77616e636560c01b606482015260840161060f565b6103958533858403610707565b60006102b33384846109b6565b6001600160a01b03821661092d5760405162461bcd60e51b815260206004820152601f60248201527f45524332303a206d696e7420746f20746865207a65726f206164647265737300604482015260640161060f565b806002600082825461093f9190610ea3565b90915550506001600160a01b0382166000908152602081905260408120805483929061096c908490610ea3565b90915550506040518181526001600160a01b038316906000907fddf252ad1be2c89b69c2b068fc378daa952ba7f163c4a11628f55a4df523b3ef9060200160405180910390a35050565b6001600160a01b038316610a1a5760405162461bcd60e51b815260206004820152602560248201527f45524332303a207472616e736665722066726f6d20746865207a65726f206164604482015264647265737360d81b606482015260840161060f565b6001600160a01b038216610a7c5760405162461bcd60e51b815260206004820152602360248201527f45524332303a207472616e7366657220746f20746865207a65726f206164647260448201526265737360e81b606482015260840161060f565b6001600160a01b03831660009081526020819052604090205481811015610af45760405162461bcd60e51b815260206004820152602660248201527f45524332303a207472616e7366657220616d6f756e7420657863656564732062604482015265616c616e636560d01b606482015260840161060f565b6001600160a01b03808516600090815260208190526040808220858503905591851681529081208054849290610b2b908490610ea3565b92505081905550826001600160a01b0316846001600160a01b03167fddf252ad1be2c89b69c2b068fc378daa952ba7f163c4a11628f55a4df523b3ef84604051610b7791815260200190565b60405180910390a35b50505050565b80356001600160a01b0381168114610b9d57600080fd5b919050565b600060208284031215610bb457600080fd5b610bbd82610b86565b9392505050565b60008060408385031215610bd757600080fd5b610be083610b86565b9150610bee60208401610b86565b90509250929050565b600080600060608486031215610c0c57600080fd5b610c1584610b86565b9250610c2360208501610b86565b9150604084013590509250925092565b60008060408385031215610c4657600080fd5b610c4f83610b86565b946020939093013593505050565b600080600060608486031215610c7257600080fd5b610c7b84610b86565b92506020808501359250604085013567ffffffffffffffff80821115610ca057600080fd5b818701915087601f830112610cb457600080fd5b813581811115610cc657610cc6610f69565b610cd8601f8201601f19168501610e72565b91508082528884828501011115610cee57600080fd5b80848401858401376000848284010152508093505050509250925092565b60008060408385031215610d1f57600080fd5b823567ffffffffffffffff80821115610d3757600080fd5b818501915085601f830112610d4b57600080fd5b8135602082821115610d5f57610d5f610f69565b8160051b9250610d70818401610e72565b8281528181019085830185870184018b1015610d8b57600080fd5b600096505b84871015610db557610da181610b86565b835260019690960195918301918301610d90565b509997909101359750505050505050565b60008151808452610dde816020860160208601610ebb565b601f01601f19169290920160200192915050565b60008251610e04818460208701610ebb565b9190910192915050565b60018060a01b0384168152826020820152606060408201526000610e356060830184610dc6565b95945050505050565b602081526000610bbd6020830184610dc6565b828152604060208201526000610e6a6040830184610dc6565b949350505050565b604051601f8201601f1916810167ffffffffffffffff81118282101715610e9b57610e9b610f69565b604052919050565b60008219821115610eb657610eb6610f3d565b500190565b60005b83811015610ed6578181015183820152602001610ebe565b83811115610b805750506000910152565b600181811c90821680610efb57607f821691505b60208210811415610f1c57634e487b7160e01b600052602260045260246000fd5b50919050565b6000600019821415610f3657610f36610f3d565b5060010190565b634e487b7160e01b600052601160045260246000fd5b634e487b7160e01b600052603260045260246000fd5b634e487b7160e01b600052604160045260246000fdfea2646970667358221220cda2c2259f7510d7b9756e50c7e517079c2b62acdfedf7e37dd5d3f155397b0464736f6c63430008060033",
  "devdoc": {
    "details": "The basic implementation of a bridgeable ERC677-compatible token",
    "kind": "dev",
    "methods": {
      "allowance(address,address)": {
        "details": "See {IERC20-allowance}."
      },
      "approve(address,uint256)": {
        "details": "See {IERC20-approve}. Requirements: - `spender` cannot be the zero address."
      },
      "balanceOf(address)": {
        "details": "See {IERC20-balanceOf}."
      },
      "decimals()": {
        "details": "Returns the number of decimals used to get its user representation. For example, if `decimals` equals `2`, a balance of `505` tokens should be displayed to a user as `5,05` (`505 / 10 ** 2`). Tokens usually opt for a value of 18, imitating the relationship between Ether and Wei. This is the value {ERC20} uses, unless this function is overridden; NOTE: This information is only used for _display_ purposes: it in no way affects any of the arithmetic of the contract, including {IERC20-balanceOf} and {IERC20-transfer}."
      },
      "decreaseAllowance(address,uint256)": {
        "details": "Atomically decreases the allowance granted to `spender` by the caller. This is an alternative to {approve} that can be used as a mitigation for problems described in {IERC20-approve}. Emits an {Approval} event indicating the updated allowance. Requirements: - `spender` cannot be the zero address. - `spender` must have allowance for the caller of at least `subtractedValue`."
      },
      "increaseAllowance(address,uint256)": {
        "details": "Atomically increases the allowance granted to `spender` by the caller. This is an alternative to {approve} that can be used as a mitigation for problems described in {IERC20-approve}. Emits an {Approval} event indicating the updated allowance. Requirements: - `spender` cannot be the zero address."
      },
      "name()": {
        "details": "Returns the name of the token."
      },
      "symbol()": {
        "details": "Returns the symbol of the token, usually a shorter version of the name."
      },
      "totalSupply()": {
        "details": "See {IERC20-totalSupply}."
      }
    },
    "title": "ERC677BridgeToken",
    "version": 1
  },
  "userdoc": {
    "kind": "user",
    "methods": {},
    "version": 1
  },
  "storageLayout": {
    "storage": [
      {
        "astId": 717,
        "contract": "contracts/mocks/ERC677Mock.sol:ERC677Mock",
        "label": "_balances",
        "offset": 0,
        "slot": "0",
        "type": "t_mapping(t_address,t_uint256)"
      },
      {
        "astId": 723,
        "contract": "contracts/mocks/ERC677Mock.sol:ERC677Mock",
        "label": "_allowances",
        "offset": 0,
        "slot": "1",
        "type": "t_mapping(t_address,t_mapping(t_address,t_uint256))"
      },
      {
        "astId": 725,
        "contract": "contracts/mocks/ERC677Mock.sol:ERC677Mock",
        "label": "_totalSupply",
        "offset": 0,
        "slot": "2",
        "type": "t_uint256"
      },
      {
        "astId": 727,
        "contract": "contracts/mocks/ERC677Mock.sol:ERC677Mock",
        "label": "_name",
        "offset": 0,
        "slot": "3",
        "type": "t_string_storage"
      },
      {
        "astId": 729,
        "contract": "contracts/mocks/ERC677Mock.sol:ERC677Mock",
        "label": "_symbol",
        "offset": 0,
        "slot": "4",
        "type": "t_string_storage"
      }
    ],
    "types": {
      "t_address": {
        "encoding": "inplace",
        "label": "address",
        "numberOfBytes": "20"
      },
      "t_mapping(t_address,t_mapping(t_address,t_uint256))": {
        "encoding": "mapping",
        "key": "t_address",
        "label": "mapping(address => mapping(address => uint256))",
        "numberOfBytes": "32",
        "value": "t_mapping(t_address,t_uint256)"
      },
      "t_mapping(t_address,t_uint256)": {
        "encoding": "mapping",
        "key": "t_address",
        "label": "mapping(address => uint256)",
        "numberOfBytes": "32",
        "value": "t_uint256"
      },
      "t_string_storage": {
        "encoding": "bytes",
        "label": "string",
        "numberOfBytes": "32"
      },
      "t_uint256": {
        "encoding": "inplace",
        "label": "uint256",
        "numberOfBytes": "32"
      }
    }
  }
}