{
  "address": "0xe8aD2ac347dA7549Aaca8F5B1c5Bf979d85bC78F",
  "blockNumber": 6907086,
  "abi": [
    {
      "inputs": [],
      "stateMutability": "nonpayable",
      "type": "constructor"
    },
    {
      "anonymous": false,
      "inputs": [
        {
          "indexed": true,
          "internalType": "address",
          "name": "owner",
          "type": "address"
        },
        {
          "indexed": true,
          "internalType": "address",
          "name": "spender",
          "type": "address"
        },
        {
          "indexed": false,
          "internalType": "uint256",
          "name": "value",
          "type": "uint256"
        }
      ],
      "name": "Approval",
      "type": "event"
    },
    {
      "anonymous": false,
      "inputs": [
        {
          "indexed": true,
          "internalType": "address",
          "name": "from",
          "type": "address"
        },
        {
          "indexed": true,
          "internalType": "address",
          "name": "to",
          "type": "address"
        },
        {
          "indexed": false,
          "internalType": "uint256",
          "name": "value",
          "type": "uint256"
        }
      ],
      "name": "Transfer",
      "type": "event"
    },
    {
      "anonymous": false,
      "inputs": [
        {
          "indexed": true,
          "internalType": "address",
          "name": "from",
          "type": "address"
        },
        {
          "indexed": true,
          "internalType": "address",
          "name": "to",
          "type": "address"
        },
        {
          "indexed": false,
          "internalType": "uint256",
          "name": "value",
          "type": "uint256"
        },
        {
          "indexed": false,
          "internalType": "bytes",
          "name": "data",
          "type": "bytes"
        }
      ],
      "name": "TransferAndCall",
      "type": "event"
    },
    {
      "inputs": [
        {
          "internalType": "address",
          "name": "owner",
          "type": "address"
        },
        {
          "internalType": "address",
          "name": "spender",
          "type": "address"
        }
      ],
      "name": "allowance",
      "outputs": [
        {
          "internalType": "uint256",
          "name": "",
          "type": "uint256"
        }
      ],
      "stateMutability": "view",
      "type": "function"
    },
    {
      "inputs": [
        {
          "internalType": "address",
          "name": "spender",
          "type": "address"
        },
        {
          "internalType": "uint256",
          "name": "amount",
          "type": "uint256"
        }
      ],
      "name": "approve",
      "outputs": [
        {
          "internalType": "bool",
          "name": "",
          "type": "bool"
        }
      ],
      "stateMutability": "nonpayable",
      "type": "function"
    },
    {
      "inputs": [
        {
          "internalType": "address",
          "name": "account",
          "type": "address"
        }
      ],
      "name": "balanceOf",
      "outputs": [
        {
          "internalType": "uint256",
          "name": "",
          "type": "uint256"
        }
      ],
      "stateMutability": "view",
      "type": "function"
    },
    {
      "inputs": [
        {
          "internalType": "address[]",
          "name": "_to",
          "type": "address[]"
        },
        {
          "internalType": "uint256",
          "name": "_value",
          "type": "uint256"
        }
      ],
      "name": "batchMintInternal",
      "outputs": [],
      "stateMutability": "nonpayable",
      "type": "function"
    },
    {
      "inputs": [],
      "name": "decimals",
      "outputs": [
        {
          "internalType": "uint8",
          "name": "",
          "type": "uint8"
        }
      ],
      "stateMutability": "view",
      "type": "function"
    },
    {
      "inputs": [
        {
          "internalType": "address",
          "name": "spender",
          "type": "address"
        },
        {
          "internalType": "uint256",
          "name": "subtractedValue",
          "type": "uint256"
        }
      ],
      "name": "decreaseAllowance",
      "outputs": [
        {
          "internalType": "bool",
          "name": "",
          "type": "bool"
        }
      ],
      "stateMutability": "nonpayable",
      "type": "function"
    },
    {
      "inputs": [
        {
          "internalType": "address",
          "name": "spender",
          "type": "address"
        },
        {
          "internalType": "uint256",
          "name": "addedValue",
          "type": "uint256"
        }
      ],
      "name": "increaseAllowance",
      "outputs": [
        {
          "internalType": "bool",
          "name": "",
          "type": "bool"
        }
      ],
      "stateMutability": "nonpayable",
      "type": "function"
    },
    {
      "inputs": [],
      "name": "name",
      "outputs": [
        {
          "internalType": "string",
          "name": "",
          "type": "string"
        }
      ],
      "stateMutability": "view",
      "type": "function"
    },
    {
      "inputs": [],
      "name": "symbol",
      "outputs": [
        {
          "internalType": "string",
          "name": "",
          "type": "string"
        }
      ],
      "stateMutability": "view",
      "type": "function"
    },
    {
      "inputs": [],
      "name": "totalSupply",
      "outputs": [
        {
          "internalType": "uint256",
          "name": "",
          "type": "uint256"
        }
      ],
      "stateMutability": "view",
      "type": "function"
    },
    {
      "inputs": [
        {
          "internalType": "address",
          "name": "_to",
          "type": "address"
        },
        {
          "internalType": "uint256",
          "name": "_value",
          "type": "uint256"
        }
      ],
      "name": "transfer",
      "outputs": [
        {
          "internalType": "bool",
          "name": "",
          "type": "bool"
        }
      ],
      "stateMutability": "nonpayable",
      "type": "function"
    },
    {
      "inputs": [
        {
          "internalType": "address",
          "name": "_to",
          "type": "address"
        },
        {
          "internalType": "uint256",
          "name": "_value",
          "type": "uint256"
        },
        {
          "internalType": "bytes",
          "name": "_data",
          "type": "bytes"
        }
      ],
      "name": "transferAndCall",
      "outputs": [
        {
          "internalType": "bool",
          "name": "",
          "type": "bool"
        }
      ],
      "stateMutability": "nonpayable",
      "type": "function"
    },
    {
      "inputs": [
        {
          "internalType": "address",
          "name": "_from",
          "type": "address"
        },
        {
          "internalType": "address",
          "name": "_to",
          "type": "address"
        },
        {
          "internalType": "uint256",
          "name": "_value",
          "type": "uint256"
        }
      ],
      "name": "transferFrom",
      "outputs": [
        {
          "internalType": "bool",
          "name": "",
          "type": "bool"
        }
      ],
      "stateMutability": "nonpayable",
      "type": "function"
    }
  ],
  "transactionHash": "0xc7f512b4db7d7ca7b2f539784bfa487e51349053fffb7a618e645495ad1f2dc5",
  "args": [],
  "numDeployments": 2,
  "solcInputHash": "13475db8c61e58a2de5656803f8dc334",
  "bytecode": "0x60806040523480156200001157600080fd5b50604080518082018252600a8152694552433637374d6f636b60b01b6020808301918252835180850190945260048452634d36373760e01b90840152815191929162000060916003916200007f565b508051620000769060049060208401906200007f565b50505062000162565b8280546200008d9062000125565b90600052602060002090601f016020900481019282620000b15760008555620000fc565b82601f10620000cc57805160ff1916838001178555620000fc565b82800160010185558215620000fc579182015b82811115620000fc578251825591602001919060010190620000df565b506200010a9291506200010e565b5090565b5b808211156200010a57600081556001016200010f565b600181811c908216806200013a57607f821691505b602082108114156200015c57634e487b7160e01b600052602260045260246000fd5b50919050565b61100980620001726000396000f3fe608060405234801561001057600080fd5b50600436106100cf5760003560e01c80634000aea01161008c57806395d89b411161006657806395d89b41146101ad578063a457c2d7146101b5578063a9059cbb146101c8578063dd62ed3e146101db57600080fd5b80634000aea01461015c57806370a082311461016f57806383d277521461019857600080fd5b806306fdde03146100d4578063095ea7b3146100f257806318160ddd1461011557806323b872dd14610127578063313ce5671461013a5780633950935114610149575b600080fd5b6100dc610214565b6040516100e99190610c39565b60405180910390f35b610105610100366004610c6f565b6102a6565b60405190151581526020016100e9565b6002545b6040519081526020016100e9565b610105610135366004610c99565b6102bc565b604051601281526020016100e9565b610105610157366004610c6f565b6103a0565b61010561016a366004610d1c565b6103dc565b61011961017d366004610dcb565b6001600160a01b031660009081526020819052604090205490565b6101ab6101a6366004610de6565b61059c565b005b6100dc6105e2565b6101056101c3366004610c6f565b6105f1565b6101056101d6366004610c6f565b61068a565b6101196101e9366004610e99565b6001600160a01b03918216600090815260016020908152604080832093909416825291909152205490565b60606003805461022390610ecc565b80601f016020809104026020016040519081016040528092919081815260200182805461024f90610ecc565b801561029c5780601f106102715761010080835404028352916020019161029c565b820191906000526020600020905b81548152906001019060200180831161027f57829003601f168201915b5050505050905090565b60006102b3338484610762565b50600192915050565b60006102c9848484610886565b6102d257600080fd5b604080516000808252602082019092526001600160a01b03851690635260769b60e11b90610307903390879060448101610f07565b60408051601f198184030181529181526020820180516001600160e01b03166001600160e01b03199094169390931790925290516103459190610f37565b6000604051808303816000865af19150503d8060008114610382576040519150601f19603f3d011682016040523d82523d6000602084013e610387565b606091505b505090508061039557600080fd5b506001949350505050565b3360008181526001602090815260408083206001600160a01b038716845290915281205490916102b39185906103d7908690610f69565b610762565b6000836001600160a01b0381161580159061040057506001600160a01b0381163014155b61040957600080fd5b6104138585610925565b61041c57600080fd5b846001600160a01b0316336001600160a01b03167fce8124fd2ae9fd7904103e5a9ebe88b527b9ca0e32a32fd497845c82706542d38686604051610461929190610f81565b60405180910390a36001600160a01b0385163b15610395576000856001600160a01b031663a4c0ed3660e01b3387876040516024016104a293929190610f07565b60408051601f198184030181529181526020820180516001600160e01b03166001600160e01b03199094169390931790925290516104e09190610f37565b6000604051808303816000865af19150503d806000811461051d576040519150601f19603f3d011682016040523d82523d6000602084013e610522565b606091505b50509050806105905760405162461bcd60e51b815260206004820152602f60248201527f4552433637374d6f636b3a206661696c6564207768656e2063616c6c696e672060448201526e37b72a37b5b2b72a3930b739b332b960891b60648201526084015b60405180910390fd5b50600195945050505050565b60005b82518110156105dd576105cb8382815181106105bd576105bd610fa2565b602002602001015183610932565b806105d581610fb8565b91505061059f565b505050565b60606004805461022390610ecc565b3360009081526001602090815260408083206001600160a01b0386168452909152812054828110156106735760405162461bcd60e51b815260206004820152602560248201527f45524332303a2064656372656173656420616c6c6f77616e63652062656c6f77604482015264207a65726f60d81b6064820152608401610587565b6106803385858403610762565b5060019392505050565b60006106968383610925565b61069f57600080fd5b604080516000808252602082019092526001600160a01b03851690635260769b60e11b906106d4903390879060448101610f07565b60408051601f198184030181529181526020820180516001600160e01b03166001600160e01b03199094169390931790925290516107129190610f37565b6000604051808303816000865af19150503d806000811461074f576040519150601f19603f3d011682016040523d82523d6000602084013e610754565b606091505b505090508061068057600080fd5b6001600160a01b0383166107c45760405162461bcd60e51b8152602060048201526024808201527f45524332303a20617070726f76652066726f6d20746865207a65726f206164646044820152637265737360e01b6064820152608401610587565b6001600160a01b0382166108255760405162461bcd60e51b815260206004820152602260248201527f45524332303a20617070726f766520746f20746865207a65726f206164647265604482015261737360f01b6064820152608401610587565b6001600160a01b0383811660008181526001602090815260408083209487168084529482529182902085905590518481527f8c5be1e5ebec7d5bd14f71427d1e84f3dd0314c0f7b2291e5b200ac8c7c3b925910160405180910390a3505050565b6000610893848484610a11565b6001600160a01b0384166000908152600160209081526040808320338452909152902054828110156109185760405162461bcd60e51b815260206004820152602860248201527f45524332303a207472616e7366657220616d6f756e74206578636565647320616044820152676c6c6f77616e636560c01b6064820152608401610587565b6103958533858403610762565b60006102b3338484610a11565b6001600160a01b0382166109885760405162461bcd60e51b815260206004820152601f60248201527f45524332303a206d696e7420746f20746865207a65726f2061646472657373006044820152606401610587565b806002600082825461099a9190610f69565b90915550506001600160a01b038216600090815260208190526040812080548392906109c7908490610f69565b90915550506040518181526001600160a01b038316906000907fddf252ad1be2c89b69c2b068fc378daa952ba7f163c4a11628f55a4df523b3ef9060200160405180910390a35050565b6001600160a01b038316610a755760405162461bcd60e51b815260206004820152602560248201527f45524332303a207472616e736665722066726f6d20746865207a65726f206164604482015264647265737360d81b6064820152608401610587565b6001600160a01b038216610ad75760405162461bcd60e51b815260206004820152602360248201527f45524332303a207472616e7366657220746f20746865207a65726f206164647260448201526265737360e81b6064820152608401610587565b6001600160a01b03831660009081526020819052604090205481811015610b4f5760405162461bcd60e51b815260206004820152602660248201527f45524332303a207472616e7366657220616d6f756e7420657863656564732062604482015265616c616e636560d01b6064820152608401610587565b6001600160a01b03808516600090815260208190526040808220858503905591851681529081208054849290610b86908490610f69565b92505081905550826001600160a01b0316846001600160a01b03167fddf252ad1be2c89b69c2b068fc378daa952ba7f163c4a11628f55a4df523b3ef84604051610bd291815260200190565b60405180910390a35b50505050565b60005b83811015610bfc578181015183820152602001610be4565b83811115610bdb5750506000910152565b60008151808452610c25816020860160208601610be1565b601f01601f19169290920160200192915050565b602081526000610c4c6020830184610c0d565b9392505050565b80356001600160a01b0381168114610c6a57600080fd5b919050565b60008060408385031215610c8257600080fd5b610c8b83610c53565b946020939093013593505050565b600080600060608486031215610cae57600080fd5b610cb784610c53565b9250610cc560208501610c53565b9150604084013590509250925092565b634e487b7160e01b600052604160045260246000fd5b604051601f8201601f1916810167ffffffffffffffff81118282101715610d1457610d14610cd5565b604052919050565b600080600060608486031215610d3157600080fd5b610d3a84610c53565b92506020808501359250604085013567ffffffffffffffff80821115610d5f57600080fd5b818701915087601f830112610d7357600080fd5b813581811115610d8557610d85610cd5565b610d97601f8201601f19168501610ceb565b91508082528884828501011115610dad57600080fd5b80848401858401376000848284010152508093505050509250925092565b600060208284031215610ddd57600080fd5b610c4c82610c53565b60008060408385031215610df957600080fd5b823567ffffffffffffffff80821115610e1157600080fd5b818501915085601f830112610e2557600080fd5b8135602082821115610e3957610e39610cd5565b8160051b9250610e4a818401610ceb565b8281529284018101928181019089851115610e6457600080fd5b948201945b84861015610e8957610e7a86610c53565b82529482019490820190610e69565b9997909101359750505050505050565b60008060408385031215610eac57600080fd5b610eb583610c53565b9150610ec360208401610c53565b90509250929050565b600181811c90821680610ee057607f821691505b60208210811415610f0157634e487b7160e01b600052602260045260246000fd5b50919050565b60018060a01b0384168152826020820152606060408201526000610f2e6060830184610c0d565b95945050505050565b60008251610f49818460208701610be1565b9190910192915050565b634e487b7160e01b600052601160045260246000fd5b60008219821115610f7c57610f7c610f53565b500190565b828152604060208201526000610f9a6040830184610c0d565b949350505050565b634e487b7160e01b600052603260045260246000fd5b6000600019821415610fcc57610fcc610f53565b506001019056fea26469706673582212205c2d533d91d633bbeb9ddaa0e2fd5c203783a67beecc44c7e02477dbf12ea7d964736f6c63430008090033",
  "devdoc": {
    "details": "The basic implementation of a bridgeable ERC677-compatible token",
    "kind": "dev",
    "methods": {
      "allowance(address,address)": {
        "details": "See {IERC20-allowance}."
      },
      "approve(address,uint256)": {
        "details": "See {IERC20-approve}. Requirements: - `spender` cannot be the zero address."
      },
      "balanceOf(address)": {
        "details": "See {IERC20-balanceOf}."
      },
      "decimals()": {
        "details": "Returns the number of decimals used to get its user representation. For example, if `decimals` equals `2`, a balance of `505` tokens should be displayed to a user as `5.05` (`505 / 10 ** 2`). Tokens usually opt for a value of 18, imitating the relationship between Ether and Wei. This is the value {ERC20} uses, unless this function is overridden; NOTE: This information is only used for _display_ purposes: it in no way affects any of the arithmetic of the contract, including {IERC20-balanceOf} and {IERC20-transfer}."
      },
      "decreaseAllowance(address,uint256)": {
        "details": "Atomically decreases the allowance granted to `spender` by the caller. This is an alternative to {approve} that can be used as a mitigation for problems described in {IERC20-approve}. Emits an {Approval} event indicating the updated allowance. Requirements: - `spender` cannot be the zero address. - `spender` must have allowance for the caller of at least `subtractedValue`."
      },
      "increaseAllowance(address,uint256)": {
        "details": "Atomically increases the allowance granted to `spender` by the caller. This is an alternative to {approve} that can be used as a mitigation for problems described in {IERC20-approve}. Emits an {Approval} event indicating the updated allowance. Requirements: - `spender` cannot be the zero address."
      },
      "name()": {
        "details": "Returns the name of the token."
      },
      "symbol()": {
        "details": "Returns the symbol of the token, usually a shorter version of the name."
      },
      "totalSupply()": {
        "details": "See {IERC20-totalSupply}."
      }
    },
    "title": "ERC677BridgeToken",
    "version": 1
  },
  "userdoc": {
    "kind": "user",
    "methods": {},
    "version": 1
  },
  "storageLayout": {
    "storage": [
      {
        "astId": 692,
        "contract": "contracts/mocks/ERC677Mock.sol:ERC677Mock",
        "label": "_balances",
        "offset": 0,
        "slot": "0",
        "type": "t_mapping(t_address,t_uint256)"
      },
      {
        "astId": 698,
        "contract": "contracts/mocks/ERC677Mock.sol:ERC677Mock",
        "label": "_allowances",
        "offset": 0,
        "slot": "1",
        "type": "t_mapping(t_address,t_mapping(t_address,t_uint256))"
      },
      {
        "astId": 700,
        "contract": "contracts/mocks/ERC677Mock.sol:ERC677Mock",
        "label": "_totalSupply",
        "offset": 0,
        "slot": "2",
        "type": "t_uint256"
      },
      {
        "astId": 702,
        "contract": "contracts/mocks/ERC677Mock.sol:ERC677Mock",
        "label": "_name",
        "offset": 0,
        "slot": "3",
        "type": "t_string_storage"
      },
      {
        "astId": 704,
        "contract": "contracts/mocks/ERC677Mock.sol:ERC677Mock",
        "label": "_symbol",
        "offset": 0,
        "slot": "4",
        "type": "t_string_storage"
      }
    ],
    "types": {
      "t_address": {
        "encoding": "inplace",
        "label": "address",
        "numberOfBytes": "20"
      },
      "t_mapping(t_address,t_mapping(t_address,t_uint256))": {
        "encoding": "mapping",
        "key": "t_address",
        "label": "mapping(address => mapping(address => uint256))",
        "numberOfBytes": "32",
        "value": "t_mapping(t_address,t_uint256)"
      },
      "t_mapping(t_address,t_uint256)": {
        "encoding": "mapping",
        "key": "t_address",
        "label": "mapping(address => uint256)",
        "numberOfBytes": "32",
        "value": "t_uint256"
      },
      "t_string_storage": {
        "encoding": "bytes",
        "label": "string",
        "numberOfBytes": "32"
      },
      "t_uint256": {
        "encoding": "inplace",
        "label": "uint256",
        "numberOfBytes": "32"
      }
    }
  }
}