{
  "address": "0xBf10C05E12D032a2700B7d0A578F159f6ecd1F6a",
  "abi": [
    {
      "inputs": [
        {
          "internalType": "address",
          "name": "_token",
          "type": "address"
        },
        {
          "internalType": "uint32",
          "name": "_secsClosure",
          "type": "uint32"
        }
      ],
      "stateMutability": "nonpayable",
      "type": "constructor"
    },
    {
      "anonymous": false,
      "inputs": [
        {
          "indexed": true,
          "internalType": "address",
          "name": "account",
          "type": "address"
        },
        {
          "indexed": false,
          "internalType": "bytes",
          "name": "multiaddr",
          "type": "bytes"
        }
      ],
      "name": "Announcement",
      "type": "event"
    },
    {
      "anonymous": false,
      "inputs": [
        {
          "indexed": true,
          "internalType": "address",
          "name": "source",
          "type": "address"
        },
        {
          "indexed": true,
          "internalType": "address",
          "name": "destination",
          "type": "address"
        },
        {
          "indexed": false,
          "internalType": "bytes32",
          "name": "newCommitment",
          "type": "bytes32"
        },
        {
          "indexed": false,
          "internalType": "uint256",
          "name": "ticketEpoch",
          "type": "uint256"
        },
        {
          "indexed": false,
          "internalType": "uint256",
          "name": "channelBalance",
          "type": "uint256"
        }
      ],
      "name": "ChannelBumped",
      "type": "event"
    },
    {
      "anonymous": false,
      "inputs": [
        {
          "indexed": true,
          "internalType": "address",
          "name": "source",
          "type": "address"
        },
        {
          "indexed": true,
          "internalType": "address",
          "name": "destination",
          "type": "address"
        },
        {
          "indexed": false,
          "internalType": "uint32",
          "name": "closureFinalizationTime",
          "type": "uint32"
        },
        {
          "indexed": false,
          "internalType": "uint256",
          "name": "channelBalance",
          "type": "uint256"
        }
      ],
      "name": "ChannelClosureFinalized",
      "type": "event"
    },
    {
      "anonymous": false,
      "inputs": [
        {
          "indexed": true,
          "internalType": "address",
          "name": "source",
          "type": "address"
        },
        {
          "indexed": true,
          "internalType": "address",
          "name": "destination",
          "type": "address"
        },
        {
          "indexed": false,
          "internalType": "uint32",
          "name": "closureInitiationTime",
          "type": "uint32"
        }
      ],
      "name": "ChannelClosureInitiated",
      "type": "event"
    },
    {
      "anonymous": false,
      "inputs": [
        {
          "indexed": true,
          "internalType": "address",
          "name": "source",
          "type": "address"
        },
        {
          "indexed": true,
          "internalType": "address",
          "name": "destination",
          "type": "address"
        },
        {
          "components": [
            {
              "internalType": "uint256",
              "name": "balance",
              "type": "uint256"
            },
            {
              "internalType": "bytes32",
              "name": "commitment",
              "type": "bytes32"
            },
            {
              "internalType": "uint256",
              "name": "ticketEpoch",
              "type": "uint256"
            },
            {
              "internalType": "uint256",
              "name": "ticketIndex",
              "type": "uint256"
            },
            {
              "internalType": "enum HoprChannels.ChannelStatus",
              "name": "status",
              "type": "uint8"
            },
            {
              "internalType": "uint256",
              "name": "channelEpoch",
              "type": "uint256"
            },
            {
              "internalType": "uint32",
              "name": "closureTime",
              "type": "uint32"
            }
          ],
          "indexed": false,
          "internalType": "struct HoprChannels.Channel",
          "name": "newState",
          "type": "tuple"
        }
      ],
      "name": "ChannelUpdate",
      "type": "event"
    },
    {
      "anonymous": false,
      "inputs": [
        {
          "indexed": true,
          "internalType": "address",
          "name": "source",
          "type": "address"
        },
        {
          "indexed": true,
          "internalType": "address",
          "name": "destination",
          "type": "address"
        },
        {
          "indexed": false,
          "internalType": "bytes32",
          "name": "nextCommitment",
          "type": "bytes32"
        },
        {
          "indexed": false,
          "internalType": "uint256",
          "name": "ticketEpoch",
          "type": "uint256"
        },
        {
          "indexed": false,
          "internalType": "uint256",
          "name": "ticketIndex",
          "type": "uint256"
        },
        {
          "indexed": false,
          "internalType": "bytes32",
          "name": "proofOfRelaySecret",
          "type": "bytes32"
        },
        {
          "indexed": false,
          "internalType": "uint256",
          "name": "amount",
          "type": "uint256"
        },
        {
          "indexed": false,
          "internalType": "uint256",
          "name": "winProb",
          "type": "uint256"
        },
        {
          "indexed": false,
          "internalType": "bytes",
          "name": "signature",
          "type": "bytes"
        }
      ],
      "name": "TicketRedeemed",
      "type": "event"
    },
    {
      "anonymous": false,
      "inputs": [
        {
          "indexed": true,
          "internalType": "address",
          "name": "from",
          "type": "address"
        },
        {
          "indexed": true,
          "internalType": "address",
          "name": "account1",
          "type": "address"
        },
        {
          "indexed": true,
          "internalType": "address",
          "name": "account2",
          "type": "address"
        },
        {
          "indexed": false,
          "internalType": "uint256",
          "name": "amount1",
          "type": "uint256"
        },
        {
          "indexed": false,
          "internalType": "uint256",
          "name": "amount2",
          "type": "uint256"
        }
      ],
      "name": "TokensReceived",
      "type": "event"
    },
    {
      "inputs": [],
      "name": "FUND_CHANNEL_MULTI_SIZE",
      "outputs": [
        {
          "internalType": "uint256",
          "name": "",
          "type": "uint256"
        }
      ],
      "stateMutability": "view",
      "type": "function"
    },
    {
      "inputs": [],
      "name": "TOKENS_RECIPIENT_INTERFACE_HASH",
      "outputs": [
        {
          "internalType": "bytes32",
          "name": "",
          "type": "bytes32"
        }
      ],
      "stateMutability": "view",
      "type": "function"
    },
    {
      "inputs": [
        {
          "internalType": "bytes",
          "name": "multiaddr",
          "type": "bytes"
        }
      ],
      "name": "announce",
      "outputs": [],
      "stateMutability": "nonpayable",
      "type": "function"
    },
    {
      "inputs": [
        {
          "internalType": "address",
          "name": "source",
          "type": "address"
        },
        {
          "internalType": "bytes32",
          "name": "newCommitment",
          "type": "bytes32"
        }
      ],
      "name": "bumpChannel",
      "outputs": [],
      "stateMutability": "nonpayable",
      "type": "function"
    },
    {
      "inputs": [
        {
          "internalType": "bytes32",
          "name": "interfaceHash",
          "type": "bytes32"
        },
        {
          "internalType": "address",
          "name": "account",
          "type": "address"
        }
      ],
      "name": "canImplementInterfaceForAddress",
      "outputs": [
        {
          "internalType": "bytes32",
          "name": "",
          "type": "bytes32"
        }
      ],
      "stateMutability": "view",
      "type": "function"
    },
    {
      "inputs": [
        {
          "internalType": "bytes32",
          "name": "",
          "type": "bytes32"
        }
      ],
      "name": "channels",
      "outputs": [
        {
          "internalType": "uint256",
          "name": "balance",
          "type": "uint256"
        },
        {
          "internalType": "bytes32",
          "name": "commitment",
          "type": "bytes32"
        },
        {
          "internalType": "uint256",
          "name": "ticketEpoch",
          "type": "uint256"
        },
        {
          "internalType": "uint256",
          "name": "ticketIndex",
          "type": "uint256"
        },
        {
          "internalType": "enum HoprChannels.ChannelStatus",
          "name": "status",
          "type": "uint8"
        },
        {
          "internalType": "uint256",
          "name": "channelEpoch",
          "type": "uint256"
        },
        {
          "internalType": "uint32",
          "name": "closureTime",
          "type": "uint32"
        }
      ],
      "stateMutability": "view",
      "type": "function"
    },
    {
      "inputs": [
        {
          "internalType": "address",
          "name": "destination",
          "type": "address"
        }
      ],
      "name": "finalizeChannelClosure",
      "outputs": [],
      "stateMutability": "nonpayable",
      "type": "function"
    },
    {
      "inputs": [
        {
          "internalType": "address",
          "name": "account1",
          "type": "address"
        },
        {
          "internalType": "address",
          "name": "account2",
          "type": "address"
        },
        {
          "internalType": "uint256",
          "name": "amount1",
          "type": "uint256"
        },
        {
          "internalType": "uint256",
          "name": "amount2",
          "type": "uint256"
        }
      ],
      "name": "fundChannelMulti",
      "outputs": [],
      "stateMutability": "nonpayable",
      "type": "function"
    },
    {
      "inputs": [
        {
          "internalType": "address",
          "name": "destination",
          "type": "address"
        }
      ],
      "name": "initiateChannelClosure",
      "outputs": [],
      "stateMutability": "nonpayable",
      "type": "function"
    },
    {
      "inputs": [
        {
          "internalType": "bytes[]",
          "name": "data",
          "type": "bytes[]"
        }
      ],
      "name": "multicall",
      "outputs": [
        {
          "internalType": "bytes[]",
          "name": "results",
          "type": "bytes[]"
        }
      ],
      "stateMutability": "nonpayable",
      "type": "function"
    },
    {
      "inputs": [
        {
          "internalType": "address",
          "name": "source",
          "type": "address"
        },
        {
          "internalType": "bytes32",
          "name": "nextCommitment",
          "type": "bytes32"
        },
        {
          "internalType": "uint256",
          "name": "ticketEpoch",
          "type": "uint256"
        },
        {
          "internalType": "uint256",
          "name": "ticketIndex",
          "type": "uint256"
        },
        {
          "internalType": "bytes32",
          "name": "proofOfRelaySecret",
          "type": "bytes32"
        },
        {
          "internalType": "uint256",
          "name": "amount",
          "type": "uint256"
        },
        {
          "internalType": "uint256",
          "name": "winProb",
          "type": "uint256"
        },
        {
          "internalType": "bytes",
          "name": "signature",
          "type": "bytes"
        }
      ],
      "name": "redeemTicket",
      "outputs": [],
      "stateMutability": "nonpayable",
      "type": "function"
    },
    {
      "inputs": [],
      "name": "secsClosure",
      "outputs": [
        {
          "internalType": "uint32",
          "name": "",
          "type": "uint32"
        }
      ],
      "stateMutability": "view",
      "type": "function"
    },
    {
      "inputs": [],
      "name": "token",
      "outputs": [
        {
          "internalType": "contract IERC20",
          "name": "",
          "type": "address"
        }
      ],
      "stateMutability": "view",
      "type": "function"
    },
    {
      "inputs": [
        {
          "internalType": "address",
          "name": "operator",
          "type": "address"
        },
        {
          "internalType": "address",
          "name": "from",
          "type": "address"
        },
        {
          "internalType": "address",
          "name": "to",
          "type": "address"
        },
        {
          "internalType": "uint256",
          "name": "amount",
          "type": "uint256"
        },
        {
          "internalType": "bytes",
          "name": "userData",
          "type": "bytes"
        },
        {
          "internalType": "bytes",
          "name": "operatorData",
          "type": "bytes"
        }
      ],
      "name": "tokensReceived",
      "outputs": [],
      "stateMutability": "nonpayable",
      "type": "function"
    }
  ],
  "transactionHash": "0x0b80633644cf44f32f87d80cc651ece78e4681e39f16ef1ab71a8e5959a936f4",
  "args": [
    "0xe7f1725E7734CE288F8367e1Bb143E90bb3F0512",
    60
  ],
  "solcInputHash": "f1947744b32f649c531c4256debbb11c",
  "bytecode": "0x600060a081905260c081905260e08190526101005260808080526101206040526001553480156200002f57600080fd5b506040516200279938038062002799833981016040819052620000529162000173565b6001600160a01b038216620000ad5760405162461bcd60e51b815260206004820152601760248201527f746f6b656e206d757374206e6f7420626520656d707479000000000000000000604482015260640160405180910390fd5b600380546001600160a01b0384166001600160c01b031990911617600160a01b63ffffffff8416021790556040516329965a1d60e01b815230600482018190527fb281fc8c12954d22544db45de3159a39272895b169a852b314f9cc762e44c53b60248301526044820152731820a4b7618bde71dce8cdc73aab6c95905fad24906329965a1d90606401600060405180830381600087803b1580156200015257600080fd5b505af115801562000167573d6000803e3d6000fd5b505050505050620001c2565b6000806040838503121562000186578182fd5b82516001600160a01b03811681146200019d578283fd5b602084015190925063ffffffff81168114620001b7578182fd5b809150509250929050565b6125c780620001d26000396000f3fe608060405234801561001057600080fd5b50600436106100e95760003560e01c806372581cc01161008c578063b216706c11610066578063b216706c14610246578063b4037e8014610259578063b7bbca8a1461026c578063fc0c546a1461027f576100e9565b806372581cc0146101975780637a7ebd7b146101be578063ac9650d814610226576100e9565b8063249cb3fa116100c8578063249cb3fa14610132578063275621d1146101455780632bcead2f146101715780634341abdd14610184576100e9565b806223de29146100ee578063048a097d14610103578063075e389f1461011f575b600080fd5b6101016100fc366004611e27565b6102aa565b005b61010c60015481565b6040519081526020015b60405180910390f35b61010161012d366004611dc6565b610494565b61010c6101403660046120b6565b61072a565b60035461015c90600160a01b900463ffffffff1681565b60405163ffffffff9091168152602001610116565b61010161017f366004611f15565b610784565b610101610192366004611ed5565b610d21565b61010c7fb281fc8c12954d22544db45de3159a39272895b169a852b314f9cc762e44c53b81565b6102136101cc36600461209e565b600260208190526000918252604090912080546001820154928201546003830154600484015460058501546006909501549395949293919260ff9091169163ffffffff1687565b60405161011697969594939291906123db565b61023961023436600461200e565b610dc5565b604051610116919061218f565b6101016102543660046120e5565b610ee4565b610101610267366004611dc6565b610f2b565b61010161027a366004611eea565b611133565b600354610292906001600160a01b031681565b6040516001600160a01b039091168152602001610116565b6003546001600160a01b031633146103095760405162461bcd60e51b815260206004820152601860248201527f63616c6c6572206d75737420626520486f7072546f6b656e000000000000000060448201526064015b60405180910390fd5b6001600160a01b03861630146103705760405162461bcd60e51b815260206004820152602660248201527f6d7573742062652073656e64696e6720746f6b656e7320746f20486f70724368604482015265616e6e656c7360d01b6064820152608401610300565b60015483141561048a57600080808061038b87890189611de2565b9296509094509250905061039f8183612468565b89146104035760405162461bcd60e51b815260206004820152602d60248201527f616d6f756e742073656e74206d75737420626520657175616c20746f20616d6f60448201526c1d5b9d081cdc1958da599a5959609a1b6064820152608401610300565b8115610414576104148484846112f3565b8015610425576104258385836112f3565b826001600160a01b0316846001600160a01b03168c6001600160a01b03167fb14b8ac0155b501e4b97b5aadf1d932deefc2e2faf4d532b6df002cfd47da64d858560405161047d929190918252602082015260400190565b60405180910390a4505050505b5050505050505050565b33816001600160a01b0381168214156104bf5760405162461bcd60e51b815260040161030090612334565b6001600160a01b0382166104e55760405162461bcd60e51b8152600401610300906122ad565b6001600160a01b03811661050b5760405162461bcd60e51b815260040161030090612276565b60006105173385611517565b915060039050600482015460ff16600381111561054457634e487b7160e01b600052602160045260246000fd5b146105915760405162461bcd60e51b815260206004820181905260248201527f6368616e6e656c206d7573742062652070656e64696e6720746f20636c6f73656044820152606401610300565b600681015463ffffffff4281169116106105ed5760405162461bcd60e51b815260206004820152601e60248201527f636c6f7375726554696d65206d757374206265206265666f7265206e6f7700006044820152606401610300565b80541561067d57600354815460405163a9059cbb60e01b815233600482015260248101919091526001600160a01b039091169063a9059cbb90604401602060405180830381600087803b15801561064357600080fd5b505af1158015610657573d6000803e3d6000fd5b505050506040513d601f19601f8201168201806040525081019061067b919061207e565b505b600681015481546040805163ffffffff909316835260208301919091526001600160a01b0386169133917fe685c05e0c2d3e8915b3dc7cd37e2aac94887e856025d6295360af16183c9f9c910160405180910390a36000815560068101805463ffffffff1916905560048101805460ff191690556040516001600160a01b0385169033906000805160206125728339815191529061071c90859061237f565b60405180910390a350505050565b6000828152602081815260408083206001600160a01b038516845290915281205460ff1661075957600061077b565b7fa2ef4600d742022d532d4747cb3547474667d6f13804902513b2ec01c848f4b45b90505b92915050565b87336001600160a01b0382168114156107af5760405162461bcd60e51b815260040161030090612334565b6001600160a01b0382166107d55760405162461bcd60e51b8152600401610300906122ad565b6001600160a01b0381166107fb5760405162461bcd60e51b815260040161030090612276565b886108485760405162461bcd60e51b815260206004820181905260248201527f6e657874436f6d6d69746d656e74206d757374206e6f7420626520656d7074796044820152606401610300565b846108955760405162461bcd60e51b815260206004820152601860248201527f616d6f756e74206d757374206e6f7420626520656d70747900000000000000006044820152606401610300565b60006108a18b33611517565b915060029050600482015460ff1660038111156108ce57634e487b7160e01b600052602160045260246000fd5b148061090057506003600482015460ff1660038111156108fe57634e487b7160e01b600052602160045260246000fd5b145b6109665760405162461bcd60e51b815260206004820152603160248201527f7370656e64696e67206368616e6e656c206d757374206265206f70656e206f726044820152702070656e64696e6720746f20636c6f736560781b6064820152608401610300565b60408051602081018c905201604051602081830303815290604052805190602001208160010154146109ed5760405162461bcd60e51b815260206004820152602a60248201527f636f6d6d69746d656e74206d7573742062652068617368206f66206e6578742060448201526918dbdb5b5a5d1b595b9d60b21b6064820152608401610300565b88816002015414610a405760405162461bcd60e51b815260206004820152601760248201527f7469636b65742065706f6368206d757374206d617463680000000000000000006044820152606401610300565b87816003015410610a935760405162461bcd60e51b815260206004820152601c60248201527f726564656d7074696f6e73206d75737420626520696e206f72646572000000006044820152606401610300565b6000610b00610aaf3384600201548b86600501548c8f8d611587565b8051602091820120604080517f19457468657265756d205369676e6564204d6573736167653a0a33320000000081850152603c8082019390935281518082039093018352605c019052805191012090565b90508b6001600160a01b0316610b168287611600565b6001600160a01b031614610b775760405162461bcd60e51b815260206004820152602260248201527f7369676e6572206d757374206d617463682074686520636f756e746572706172604482015261747960f01b6064820152608401610300565b85610b83828d8b6116a4565b1115610bc85760405162461bcd60e51b81526020600482015260146024820152733a34b1b5b2ba1036bab9ba1031329030903bb4b760611b6044820152606401610300565b60038201899055600182018b90558154610be39088906124a8565b82556000610bf1338e611517565b915060029050600482015460ff166003811115610c1e57634e487b7160e01b600052602160045260246000fd5b1415610c6b578054610c31908990612468565b81556040516001600160a01b038e1690339060008051602061257283398151915290610c5e90859061237f565b60405180910390a3610c82565b600354610c82906001600160a01b0316338a6116dd565b336001600160a01b03168d6001600160a01b031660008051602061257283398151915285604051610cb3919061237f565b60405180910390a3336001600160a01b03168d6001600160a01b03167f862117d954cb13fb5dbae8b4bdb5dc0d551725fc3af4c0e34350c194ba3588218e8e8e8e8e8e8e604051610d0a97969594939291906121f0565b60405180910390a350505050505050505050505050565b6000610d2d8284612468565b11610d7a5760405162461bcd60e51b815260206004820152601d60248201527f616d6f756e74206d7573742062652067726561746572207468616e20300000006044820152606401610300565b610d9d3330610d898486612468565b6003546001600160a01b0316929190611745565b8115610dae57610dae8484846112f3565b8015610dbf57610dbf8385836112f3565b50505050565b60608167ffffffffffffffff811115610dee57634e487b7160e01b600052604160045260246000fd5b604051908082528060200260200182016040528015610e2157816020015b6060815260200190600190039081610e0c5790505b50905060005b82811015610edd57610e9f30858584818110610e5357634e487b7160e01b600052603260045260246000fd5b9050602002810190610e659190612423565b8080601f01602080910402602001604051908101604052809392919081815260200183838082843760009201919091525061177d92505050565b828281518110610ebf57634e487b7160e01b600052603260045260246000fd5b60200260200101819052508080610ed5906124eb565b915050610e27565b5092915050565b336001600160a01b03167f7463de96ba8fbb96ef3e622fddfff321bdbdfef94b95cbcf27f6bfcac8fe83aa8383604051610f1f929190612234565b60405180910390a25050565b33816001600160a01b038116821415610f565760405162461bcd60e51b815260040161030090612334565b6001600160a01b038216610f7c5760405162461bcd60e51b8152600401610300906122ad565b6001600160a01b038116610fa25760405162461bcd60e51b815260040161030090612276565b6000610fae3385611517565b915060029050600482015460ff166003811115610fdb57634e487b7160e01b600052602160045260246000fd5b148061100d57506001600482015460ff16600381111561100b57634e487b7160e01b600052602160045260246000fd5b145b6110705760405162461bcd60e51b815260206004820152602e60248201527f6368616e6e656c206d757374206265206f70656e206f722077616974696e672060448201526d199bdc8818dbdb5b5a5d1b595b9d60921b6064820152608401610300565b600354600160a01b900463ffffffff166110874290565b6110919190612480565b60068201805463ffffffff9290921663ffffffff1990921691909117905560048101805460ff191660031790556040516001600160a01b038516903390600080516020612572833981519152906110e990859061237f565b60405180910390a36001600160a01b038416337f33fa346a7a012d012279164042f6783bf49d701f28b0d8cd0103ef57f9919f0f4260405163ffffffff909116815260200161071c565b81336001600160a01b03821681141561115e5760405162461bcd60e51b815260040161030090612334565b6001600160a01b0382166111845760405162461bcd60e51b8152600401610300906122ad565b6001600160a01b0381166111aa5760405162461bcd60e51b815260040161030090612276565b60006111b68533611517565b915050836112065760405162461bcd60e51b815260206004820152601b60248201527f43616e6e6f742073657420656d70747920636f6d6d69746d656e7400000000006044820152606401610300565b6001808201859055600282015461121c91612468565b60028201556001600482015460ff16600381111561124a57634e487b7160e01b600052602160045260246000fd5b14156112605760048101805460ff191660021790555b336001600160a01b0316856001600160a01b031660008051602061257283398151915283604051611291919061237f565b60405180910390a36002810154815460408051878152602081019390935282015233906001600160a01b038716907f3ed4218941b780517f978f5c9b88cd51f7010c9468cf3ea55422098c81755a7e9060600160405180910390a35050505050565b8282806001600160a01b0316826001600160a01b031614156113275760405162461bcd60e51b815260040161030090612334565b6001600160a01b03821661134d5760405162461bcd60e51b8152600401610300906122ad565b6001600160a01b0381166113735760405162461bcd60e51b815260040161030090612276565b600083116113c35760405162461bcd60e51b815260206004820152601d60248201527f616d6f756e74206d7573742062652067726561746572207468616e20300000006044820152606401610300565b60006113cf8686611517565b915060039050600482015460ff1660038111156113fc57634e487b7160e01b600052602160045260246000fd5b141561144a5760405162461bcd60e51b815260206004820152601d60248201527f43616e6e6f742066756e64206120636c6f73696e67206368616e6e656c0000006044820152606401610300565b6000600482015460ff16600381111561147357634e487b7160e01b600052602160045260246000fd5b14156114ca576005810154611489906001612468565b600582015560006002820181905560038201556001810154156114ba5760048101805460ff191660021790556114ca565b60048101805460ff191660011790555b80546114d7908590612468565b81556040516001600160a01b0380871691908816906000805160206125728339815191529061150790859061237f565b60405180910390a3505050505050565b600080600061156b85856040516bffffffffffffffffffffffff19606084811b8216602084015283901b16603482015260009060480160405160208183030381529060405280519060200120905092915050565b60008181526002602052604090209093509150505b9250929050565b60606000611594876117a2565b6040516bffffffffffffffffffffffff1960608c811b8216602084015283901b166034820152604881018a9052606881018790526088810185905260a8810186905260c8810188905290915060e801604051602081830303815290604052915050979650505050505050565b60008151604114156116345760208201516040830151606084015160001a61162a8682858561189f565b935050505061077e565b81516040141561165c5760208201516040830151611653858383611a48565b9250505061077e565b60405162461bcd60e51b815260206004820152601f60248201527f45434453413a20696e76616c6964207369676e6174757265206c656e677468006044820152606401610300565b604080516020808201869052818301859052606080830185905283518084039091018152608090920190925280519101205b9392505050565b6040516001600160a01b03831660248201526044810182905261174090849063a9059cbb60e01b906064015b60408051601f198184030181529190526020810180516001600160e01b03166001600160e01b031990931692909217909152611a72565b505050565b6040516001600160a01b0380851660248301528316604482015260648101829052610dbf9085906323b872dd60e01b90608401611709565b606061077b838360405180606001604052806027815260200161254b60279139611b44565b600070014551231950b75fc4402da1732fc9bebe19826117d45760405162461bcd60e51b8152600401610300906122e4565b8083106117f35760405162461bcd60e51b8152600401610300906122e4565b7f79be667ef9dcbbac55a06295ce870b07029bfcdb2dce28d959f2815b16f81798601b60006001818385878061183957634e487b7160e01b600052601260045260246000fd5b878b096040805160008152602081018083529590955260ff909316928401929092526060830152608082015260a0016020604051602081039080840390855afa15801561188a573d6000803e3d6000fd5b5050604051601f190151979650505050505050565b60007f7fffffffffffffffffffffffffffffff5d576e7357a4501ddfe92f46681b20a082111561191c5760405162461bcd60e51b815260206004820152602260248201527f45434453413a20696e76616c6964207369676e6174757265202773272076616c604482015261756560f01b6064820152608401610300565b8360ff16601b148061193157508360ff16601c145b6119885760405162461bcd60e51b815260206004820152602260248201527f45434453413a20696e76616c6964207369676e6174757265202776272076616c604482015261756560f01b6064820152608401610300565b6040805160008082526020820180845288905260ff871692820192909252606081018590526080810184905260019060a0016020604051602081039080840390855afa1580156119dc573d6000803e3d6000fd5b5050604051601f1901519150506001600160a01b038116611a3f5760405162461bcd60e51b815260206004820152601860248201527f45434453413a20696e76616c6964207369676e617475726500000000000000006044820152606401610300565b95945050505050565b60006001600160ff1b03821660ff83901c601b01611a688682878561189f565b9695505050505050565b6000611ac7826040518060400160405280602081526020017f5361666545524332303a206c6f772d6c6576656c2063616c6c206661696c6564815250856001600160a01b0316611c0e9092919063ffffffff16565b8051909150156117405780806020019051810190611ae5919061207e565b6117405760405162461bcd60e51b815260206004820152602a60248201527f5361666545524332303a204552433230206f7065726174696f6e20646964206e6044820152691bdd081cdd58d8d9595960b21b6064820152608401610300565b6060833b611ba35760405162461bcd60e51b815260206004820152602660248201527f416464726573733a2064656c65676174652063616c6c20746f206e6f6e2d636f6044820152651b9d1c9858dd60d21b6064820152608401610300565b600080856001600160a01b031685604051611bbe9190612173565b600060405180830381855af49150503d8060008114611bf9576040519150601f19603f3d011682016040523d82523d6000602084013e611bfe565b606091505b5091509150611a68828286611c25565b6060611c1d8484600085611c5e565b949350505050565b60608315611c345750816116d6565b825115611c445782518084602001fd5b8160405162461bcd60e51b81526004016103009190612263565b606082471015611cbf5760405162461bcd60e51b815260206004820152602660248201527f416464726573733a20696e73756666696369656e742062616c616e636520666f6044820152651c8818d85b1b60d21b6064820152608401610300565b843b611d0d5760405162461bcd60e51b815260206004820152601d60248201527f416464726573733a2063616c6c20746f206e6f6e2d636f6e74726163740000006044820152606401610300565b600080866001600160a01b03168587604051611d299190612173565b60006040518083038185875af1925050503d8060008114611d66576040519150601f19603f3d011682016040523d82523d6000602084013e611d6b565b606091505b5091509150611d7b828286611c25565b979650505050505050565b60008083601f840112611d97578182fd5b50813567ffffffffffffffff811115611dae578182fd5b60208301915083602082850101111561158057600080fd5b600060208284031215611dd7578081fd5b81356116d681612532565b60008060008060808587031215611df7578283fd5b8435611e0281612532565b93506020850135611e1281612532565b93969395505050506040820135916060013590565b60008060008060008060008060c0898b031215611e42578384fd5b8835611e4d81612532565b97506020890135611e5d81612532565b96506040890135611e6d81612532565b955060608901359450608089013567ffffffffffffffff80821115611e90578586fd5b611e9c8c838d01611d86565b909650945060a08b0135915080821115611eb4578384fd5b50611ec18b828c01611d86565b999c989b5096995094979396929594505050565b60008060008060808587031215611df7578384fd5b60008060408385031215611efc578182fd5b8235611f0781612532565b946020939093013593505050565b600080600080600080600080610100898b031215611f31578384fd5b8835611f3c81612532565b97506020890135965060408901359550606089013594506080890135935060a0890135925060c0890135915060e089013567ffffffffffffffff80821115611f82578283fd5b818b0191508b601f830112611f95578283fd5b813581811115611fa757611fa761251c565b604051601f8201601f19908116603f01168101908382118183101715611fcf57611fcf61251c565b816040528281528e6020848701011115611fe7578586fd5b82602086016020830137856020848301015280955050505050509295985092959890939650565b60008060208385031215612020578182fd5b823567ffffffffffffffff80821115612037578384fd5b818501915085601f83011261204a578384fd5b813581811115612058578485fd5b8660208260051b850101111561206c578485fd5b60209290920196919550909350505050565b60006020828403121561208f578081fd5b815180151581146116d6578182fd5b6000602082840312156120af578081fd5b5035919050565b600080604083850312156120c8578182fd5b8235915060208301356120da81612532565b809150509250929050565b600080602083850312156120f7578182fd5b823567ffffffffffffffff81111561210d578283fd5b61211985828601611d86565b90969095509350505050565b6000815180845261213d8160208601602086016124bf565b601f01601f19169290920160200192915050565b6004811061216f57634e487b7160e01b600052602160045260246000fd5b9052565b600082516121858184602087016124bf565b9190910192915050565b6000602080830181845280855180835260408601915060408160051b8701019250838701855b828110156121e357603f198886030184526121d1858351612125565b945092850192908501906001016121b5565b5092979650505050505050565b60008882528760208301528660408301528560608301528460808301528360a083015260e060c083015261222760e0830184612125565b9998505050505050505050565b60006020825282602083015282846040840137818301604090810191909152601f909201601f19160101919050565b60006020825261077b6020830184612125565b6020808252601d908201527f64657374696e6174696f6e206d757374206e6f7420626520656d707479000000604082015260600190565b60208082526018908201527f736f75726365206d757374206e6f7420626520656d7074790000000000000000604082015260600190565b60208082526030908201527f496e76616c696420726573706f6e73652e2056616c7565206d7573742062652060408201526f1dda5d1a1a5b881d1a1948199a595b1960821b606082015260800190565b6020808252602b908201527f736f7572636520616e642064657374696e6174696f6e206d757374206e6f742060408201526a6265207468652073616d6560a81b606082015260800190565b81548152600182015460208201526002820154604082015260038201546060820152600482015460e082019060ff166123bb6080840182612151565b50600583015460a083015260069092015463ffffffff1660c09091015290565b600060e0820190508882528760208301528660408301528560608301526124056080830186612151565b8360a083015263ffffffff831660c083015298975050505050505050565b6000808335601e19843603018112612439578283fd5b83018035915067ffffffffffffffff821115612453578283fd5b60200191503681900382131561158057600080fd5b6000821982111561247b5761247b612506565b500190565b600063ffffffff80831681851680830382111561249f5761249f612506565b01949350505050565b6000828210156124ba576124ba612506565b500390565b60005b838110156124da5781810151838201526020016124c2565b83811115610dbf5750506000910152565b60006000198214156124ff576124ff612506565b5060010190565b634e487b7160e01b600052601160045260246000fd5b634e487b7160e01b600052604160045260246000fd5b6001600160a01b038116811461254757600080fd5b5056fe416464726573733a206c6f772d6c6576656c2064656c65676174652063616c6c206661696c6564b0fae9222801d23860fa9f81dacb7ea0c915476694d699c3208bfea6a207e573a26469706673582212206397b8760000148d93550db41cd4d29de71d6bc23b733584666b94526ae1ec7b64736f6c63430008030033",
  "devdoc": {
    "kind": "dev",
    "methods": {
      "announce(bytes)": {
        "details": "Announces msg.sender's multiaddress. Confirmation should be done off-chain.",
        "params": {
          "multiaddr": "the multiaddress"
        }
      },
      "bumpChannel(address,bytes32)": {
        "details": "Request a channelIteration bump, so we can make a new set of commitments Implies that msg.sender is the destination of the channel.",
        "params": {
          "newCommitment": ", a secret derived from this new commitment",
          "source": "the address of the channel source"
        }
      },
      "canImplementInterfaceForAddress(bytes32,address)": {
        "details": "See {IERC1820Implementer-canImplementInterfaceForAddress}."
      },
      "constructor": {
        "params": {
          "_secsClosure": "seconds until a channel can be closed",
          "_token": "HoprToken address"
        }
      },
      "finalizeChannelClosure(address)": {
        "details": "Finalize the channel closure, if cool-off period is over it will close the channel and transfer funds to the sender. Then emits {ChannelUpdate} and the {ChannelClosureFinalized} event.",
        "params": {
          "destination": "the address of the counterparty"
        }
      },
      "fundChannelMulti(address,address,uint256,uint256)": {
        "details": "Funds channels, in both directions, between 2 parties. then emits {ChannelUpdate} event, for each channel.",
        "params": {
          "account1": "the address of account1",
          "account2": "the address of account2",
          "amount1": "amount to fund account1",
          "amount2": "amount to fund account2"
        }
      },
      "initiateChannelClosure(address)": {
        "details": "Initialize channel closure. When a channel owner (the 'source' of the channel) wants to 'cash out', they must notify the counterparty (the 'destination') that they will do so, and provide enough time for them to redeem any outstanding tickets before-hand. This notice period is called the 'cool-off' period. The channel 'destination' should be monitoring blockchain events, thus they should be aware that the closure has been triggered, as this method triggers a {ChannelUpdate} and an {ChannelClosureInitiated} event. After the cool-off period expires, the 'source' can call 'finalizeChannelClosure' which withdraws the stake.",
        "params": {
          "destination": "the address of the destination"
        }
      },
      "multicall(bytes[])": {
        "details": "Receives and executes a batch of function calls on this contract."
      },
      "redeemTicket(address,bytes32,uint256,uint256,bytes32,uint256,uint256,bytes)": {
        "details": "redeem a ticket. If the sender has a channel to the source, the amount will be transferred to that channel, otherwise it will be sent to their address directly.",
        "params": {
          "amount": "the amount in the ticket",
          "nextCommitment": "the commitment that hashes to the redeemers previous commitment",
          "proofOfRelaySecret": "the proof of relay secret",
          "signature": "signature",
          "source": "the source of the ticket",
          "winProb": "the winning probability of the ticket"
        }
      },
      "tokensReceived(address,address,address,uint256,bytes,bytes)": {
        "params": {
          "amount": "uint256 amount of tokens to transfer",
          "from": "address token holder address",
          "operator": "address operator requesting the transfer",
          "operatorData": "bytes extra information provided by the operator (if any)",
          "to": "address recipient address",
          "userData": "bytes extra information provided by the token holder (if any)"
        }
      }
    },
    "stateVariables": {
      "channels": {
        "details": "Stored channels keyed by their channel ids"
      },
      "secsClosure": {
        "details": "Seconds it takes until we can finalize channel closure once, channel closure has been initialized."
      },
      "token": {
        "details": "HoprToken, the token that will be used to settle payments"
      }
    },
    "version": 1
  },
  "userdoc": {
    "kind": "user",
    "methods": {
      "tokensReceived(address,address,address,uint256,bytes,bytes)": {
        "notice": "A hook triggered when HOPR tokens are sent to this contract."
      }
    },
    "version": 1
  },
  "storageLayout": {
    "storage": [
      {
        "astId": 997,
        "contract": "contracts/HoprChannels.sol:HoprChannels",
        "label": "_supportedInterfaces",
        "offset": 0,
        "slot": "0",
        "type": "t_mapping(t_bytes32,t_mapping(t_address,t_bool))"
      },
      {
        "astId": 1197,
        "contract": "contracts/HoprChannels.sol:HoprChannels",
        "label": "FUND_CHANNEL_MULTI_SIZE",
        "offset": 0,
        "slot": "1",
        "type": "t_uint256"
      },
      {
        "astId": 1224,
        "contract": "contracts/HoprChannels.sol:HoprChannels",
        "label": "channels",
        "offset": 0,
        "slot": "2",
        "type": "t_mapping(t_bytes32,t_struct(Channel)1218_storage)"
      },
      {
        "astId": 1228,
        "contract": "contracts/HoprChannels.sol:HoprChannels",
        "label": "token",
        "offset": 0,
        "slot": "3",
        "type": "t_contract(IERC20)181"
      },
      {
        "astId": 1231,
        "contract": "contracts/HoprChannels.sol:HoprChannels",
        "label": "secsClosure",
        "offset": 20,
        "slot": "3",
        "type": "t_uint32"
      }
    ],
    "types": {
      "t_address": {
        "encoding": "inplace",
        "label": "address",
        "numberOfBytes": "20"
      },
      "t_bool": {
        "encoding": "inplace",
        "label": "bool",
        "numberOfBytes": "1"
      },
      "t_bytes32": {
        "encoding": "inplace",
        "label": "bytes32",
        "numberOfBytes": "32"
      },
      "t_contract(IERC20)181": {
        "encoding": "inplace",
        "label": "contract IERC20",
        "numberOfBytes": "20"
      },
      "t_enum(ChannelStatus)1202": {
        "encoding": "inplace",
        "label": "enum HoprChannels.ChannelStatus",
        "numberOfBytes": "1"
      },
      "t_mapping(t_address,t_bool)": {
        "encoding": "mapping",
        "key": "t_address",
        "label": "mapping(address => bool)",
        "numberOfBytes": "32",
        "value": "t_bool"
      },
      "t_mapping(t_bytes32,t_mapping(t_address,t_bool))": {
        "encoding": "mapping",
        "key": "t_bytes32",
        "label": "mapping(bytes32 => mapping(address => bool))",
        "numberOfBytes": "32",
        "value": "t_mapping(t_address,t_bool)"
      },
      "t_mapping(t_bytes32,t_struct(Channel)1218_storage)": {
        "encoding": "mapping",
        "key": "t_bytes32",
        "label": "mapping(bytes32 => struct HoprChannels.Channel)",
        "numberOfBytes": "32",
        "value": "t_struct(Channel)1218_storage"
      },
      "t_struct(Channel)1218_storage": {
        "encoding": "inplace",
        "label": "struct HoprChannels.Channel",
        "members": [
          {
            "astId": 1204,
            "contract": "contracts/HoprChannels.sol:HoprChannels",
            "label": "balance",
            "offset": 0,
            "slot": "0",
            "type": "t_uint256"
          },
          {
            "astId": 1206,
            "contract": "contracts/HoprChannels.sol:HoprChannels",
            "label": "commitment",
            "offset": 0,
            "slot": "1",
            "type": "t_bytes32"
          },
          {
            "astId": 1208,
            "contract": "contracts/HoprChannels.sol:HoprChannels",
            "label": "ticketEpoch",
            "offset": 0,
            "slot": "2",
            "type": "t_uint256"
          },
          {
            "astId": 1210,
            "contract": "contracts/HoprChannels.sol:HoprChannels",
            "label": "ticketIndex",
            "offset": 0,
            "slot": "3",
            "type": "t_uint256"
          },
          {
            "astId": 1213,
            "contract": "contracts/HoprChannels.sol:HoprChannels",
            "label": "status",
            "offset": 0,
            "slot": "4",
            "type": "t_enum(ChannelStatus)1202"
          },
          {
            "astId": 1215,
            "contract": "contracts/HoprChannels.sol:HoprChannels",
            "label": "channelEpoch",
            "offset": 0,
            "slot": "5",
            "type": "t_uint256"
          },
          {
            "astId": 1217,
            "contract": "contracts/HoprChannels.sol:HoprChannels",
            "label": "closureTime",
            "offset": 0,
            "slot": "6",
            "type": "t_uint32"
          }
        ],
        "numberOfBytes": "224"
      },
      "t_uint256": {
        "encoding": "inplace",
        "label": "uint256",
        "numberOfBytes": "32"
      },
      "t_uint32": {
        "encoding": "inplace",
        "label": "uint32",
        "numberOfBytes": "4"
      }
    }
  }
}