{
  "address": "0xe7f1725E7734CE288F8367e1Bb143E90bb3F0512",
  "abi": [
    {
      "inputs": [],
      "stateMutability": "nonpayable",
      "type": "constructor"
    },
    {
      "anonymous": false,
      "inputs": [
        {
          "indexed": true,
          "internalType": "address",
          "name": "owner",
          "type": "address"
        },
        {
          "indexed": true,
          "internalType": "address",
          "name": "spender",
          "type": "address"
        },
        {
          "indexed": false,
          "internalType": "uint256",
          "name": "value",
          "type": "uint256"
        }
      ],
      "name": "Approval",
      "type": "event"
    },
    {
      "anonymous": false,
      "inputs": [
        {
          "indexed": true,
          "internalType": "address",
          "name": "operator",
          "type": "address"
        },
        {
          "indexed": true,
          "internalType": "address",
          "name": "tokenHolder",
          "type": "address"
        }
      ],
      "name": "AuthorizedOperator",
      "type": "event"
    },
    {
      "anonymous": false,
      "inputs": [
        {
          "indexed": true,
          "internalType": "address",
          "name": "operator",
          "type": "address"
        },
        {
          "indexed": true,
          "internalType": "address",
          "name": "from",
          "type": "address"
        },
        {
          "indexed": false,
          "internalType": "uint256",
          "name": "amount",
          "type": "uint256"
        },
        {
          "indexed": false,
          "internalType": "bytes",
          "name": "data",
          "type": "bytes"
        },
        {
          "indexed": false,
          "internalType": "bytes",
          "name": "operatorData",
          "type": "bytes"
        }
      ],
      "name": "Burned",
      "type": "event"
    },
    {
      "anonymous": false,
      "inputs": [
        {
          "indexed": true,
          "internalType": "address",
          "name": "operator",
          "type": "address"
        },
        {
          "indexed": true,
          "internalType": "address",
          "name": "to",
          "type": "address"
        },
        {
          "indexed": false,
          "internalType": "uint256",
          "name": "amount",
          "type": "uint256"
        },
        {
          "indexed": false,
          "internalType": "bytes",
          "name": "data",
          "type": "bytes"
        },
        {
          "indexed": false,
          "internalType": "bytes",
          "name": "operatorData",
          "type": "bytes"
        }
      ],
      "name": "Minted",
      "type": "event"
    },
    {
      "anonymous": false,
      "inputs": [
        {
          "indexed": true,
          "internalType": "address",
          "name": "operator",
          "type": "address"
        },
        {
          "indexed": true,
          "internalType": "address",
          "name": "tokenHolder",
          "type": "address"
        }
      ],
      "name": "RevokedOperator",
      "type": "event"
    },
    {
      "anonymous": false,
      "inputs": [
        {
          "indexed": true,
          "internalType": "bytes32",
          "name": "role",
          "type": "bytes32"
        },
        {
          "indexed": true,
          "internalType": "address",
          "name": "account",
          "type": "address"
        },
        {
          "indexed": true,
          "internalType": "address",
          "name": "sender",
          "type": "address"
        }
      ],
      "name": "RoleGranted",
      "type": "event"
    },
    {
      "anonymous": false,
      "inputs": [
        {
          "indexed": true,
          "internalType": "bytes32",
          "name": "role",
          "type": "bytes32"
        },
        {
          "indexed": true,
          "internalType": "address",
          "name": "account",
          "type": "address"
        },
        {
          "indexed": true,
          "internalType": "address",
          "name": "sender",
          "type": "address"
        }
      ],
      "name": "RoleRevoked",
      "type": "event"
    },
    {
      "anonymous": false,
      "inputs": [
        {
          "indexed": true,
          "internalType": "address",
          "name": "operator",
          "type": "address"
        },
        {
          "indexed": true,
          "internalType": "address",
          "name": "from",
          "type": "address"
        },
        {
          "indexed": true,
          "internalType": "address",
          "name": "to",
          "type": "address"
        },
        {
          "indexed": false,
          "internalType": "uint256",
          "name": "amount",
          "type": "uint256"
        },
        {
          "indexed": false,
          "internalType": "bytes",
          "name": "data",
          "type": "bytes"
        },
        {
          "indexed": false,
          "internalType": "bytes",
          "name": "operatorData",
          "type": "bytes"
        }
      ],
      "name": "Sent",
      "type": "event"
    },
    {
      "anonymous": false,
      "inputs": [
        {
          "indexed": true,
          "internalType": "address",
          "name": "from",
          "type": "address"
        },
        {
          "indexed": true,
          "internalType": "address",
          "name": "to",
          "type": "address"
        },
        {
          "indexed": false,
          "internalType": "uint256",
          "name": "value",
          "type": "uint256"
        }
      ],
      "name": "Transfer",
      "type": "event"
    },
    {
      "inputs": [],
      "name": "DEFAULT_ADMIN_ROLE",
      "outputs": [
        {
          "internalType": "bytes32",
          "name": "",
          "type": "bytes32"
        }
      ],
      "stateMutability": "view",
      "type": "function"
    },
    {
      "inputs": [],
      "name": "MINTER_ROLE",
      "outputs": [
        {
          "internalType": "bytes32",
          "name": "",
          "type": "bytes32"
        }
      ],
      "stateMutability": "view",
      "type": "function"
    },
    {
      "inputs": [
        {
          "internalType": "address",
          "name": "",
          "type": "address"
        },
        {
          "internalType": "uint256",
          "name": "",
          "type": "uint256"
        }
      ],
      "name": "accountSnapshots",
      "outputs": [
        {
          "internalType": "uint128",
          "name": "fromBlock",
          "type": "uint128"
        },
        {
          "internalType": "uint128",
          "name": "value",
          "type": "uint128"
        }
      ],
      "stateMutability": "view",
      "type": "function"
    },
    {
      "inputs": [
        {
          "internalType": "address",
          "name": "holder",
          "type": "address"
        },
        {
          "internalType": "address",
          "name": "spender",
          "type": "address"
        }
      ],
      "name": "allowance",
      "outputs": [
        {
          "internalType": "uint256",
          "name": "",
          "type": "uint256"
        }
      ],
      "stateMutability": "view",
      "type": "function"
    },
    {
      "inputs": [
        {
          "internalType": "address",
          "name": "spender",
          "type": "address"
        },
        {
          "internalType": "uint256",
          "name": "value",
          "type": "uint256"
        }
      ],
      "name": "approve",
      "outputs": [
        {
          "internalType": "bool",
          "name": "",
          "type": "bool"
        }
      ],
      "stateMutability": "nonpayable",
      "type": "function"
    },
    {
      "inputs": [
        {
          "internalType": "address",
          "name": "operator",
          "type": "address"
        }
      ],
      "name": "authorizeOperator",
      "outputs": [],
      "stateMutability": "nonpayable",
      "type": "function"
    },
    {
      "inputs": [
        {
          "internalType": "address",
          "name": "tokenHolder",
          "type": "address"
        }
      ],
      "name": "balanceOf",
      "outputs": [
        {
          "internalType": "uint256",
          "name": "",
          "type": "uint256"
        }
      ],
      "stateMutability": "view",
      "type": "function"
    },
    {
      "inputs": [
        {
          "internalType": "address",
          "name": "_owner",
          "type": "address"
        },
        {
          "internalType": "uint128",
          "name": "_blockNumber",
          "type": "uint128"
        }
      ],
      "name": "balanceOfAt",
      "outputs": [
        {
          "internalType": "uint256",
          "name": "",
          "type": "uint256"
        }
      ],
      "stateMutability": "view",
      "type": "function"
    },
    {
      "inputs": [
        {
          "internalType": "uint256",
          "name": "amount",
          "type": "uint256"
        },
        {
          "internalType": "bytes",
          "name": "data",
          "type": "bytes"
        }
      ],
      "name": "burn",
      "outputs": [],
      "stateMutability": "nonpayable",
      "type": "function"
    },
    {
      "inputs": [],
      "name": "decimals",
      "outputs": [
        {
          "internalType": "uint8",
          "name": "",
          "type": "uint8"
        }
      ],
      "stateMutability": "pure",
      "type": "function"
    },
    {
      "inputs": [],
      "name": "defaultOperators",
      "outputs": [
        {
          "internalType": "address[]",
          "name": "",
          "type": "address[]"
        }
      ],
      "stateMutability": "view",
      "type": "function"
    },
    {
      "inputs": [
        {
          "internalType": "bytes32",
          "name": "role",
          "type": "bytes32"
        }
      ],
      "name": "getRoleAdmin",
      "outputs": [
        {
          "internalType": "bytes32",
          "name": "",
          "type": "bytes32"
        }
      ],
      "stateMutability": "view",
      "type": "function"
    },
    {
      "inputs": [
        {
          "internalType": "bytes32",
          "name": "role",
          "type": "bytes32"
        },
        {
          "internalType": "uint256",
          "name": "index",
          "type": "uint256"
        }
      ],
      "name": "getRoleMember",
      "outputs": [
        {
          "internalType": "address",
          "name": "",
          "type": "address"
        }
      ],
      "stateMutability": "view",
      "type": "function"
    },
    {
      "inputs": [
        {
          "internalType": "bytes32",
          "name": "role",
          "type": "bytes32"
        }
      ],
      "name": "getRoleMemberCount",
      "outputs": [
        {
          "internalType": "uint256",
          "name": "",
          "type": "uint256"
        }
      ],
      "stateMutability": "view",
      "type": "function"
    },
    {
      "inputs": [
        {
          "internalType": "bytes32",
          "name": "role",
          "type": "bytes32"
        },
        {
          "internalType": "address",
          "name": "account",
          "type": "address"
        }
      ],
      "name": "grantRole",
      "outputs": [],
      "stateMutability": "nonpayable",
      "type": "function"
    },
    {
      "inputs": [],
      "name": "granularity",
      "outputs": [
        {
          "internalType": "uint256",
          "name": "",
          "type": "uint256"
        }
      ],
      "stateMutability": "view",
      "type": "function"
    },
    {
      "inputs": [
        {
          "internalType": "bytes32",
          "name": "role",
          "type": "bytes32"
        },
        {
          "internalType": "address",
          "name": "account",
          "type": "address"
        }
      ],
      "name": "hasRole",
      "outputs": [
        {
          "internalType": "bool",
          "name": "",
          "type": "bool"
        }
      ],
      "stateMutability": "view",
      "type": "function"
    },
    {
      "inputs": [
        {
          "internalType": "address",
          "name": "operator",
          "type": "address"
        },
        {
          "internalType": "address",
          "name": "tokenHolder",
          "type": "address"
        }
      ],
      "name": "isOperatorFor",
      "outputs": [
        {
          "internalType": "bool",
          "name": "",
          "type": "bool"
        }
      ],
      "stateMutability": "view",
      "type": "function"
    },
    {
      "inputs": [
        {
          "internalType": "address",
          "name": "account",
          "type": "address"
        },
        {
          "internalType": "uint256",
          "name": "amount",
          "type": "uint256"
        },
        {
          "internalType": "bytes",
          "name": "userData",
          "type": "bytes"
        },
        {
          "internalType": "bytes",
          "name": "operatorData",
          "type": "bytes"
        }
      ],
      "name": "mint",
      "outputs": [],
      "stateMutability": "nonpayable",
      "type": "function"
    },
    {
      "inputs": [],
      "name": "name",
      "outputs": [
        {
          "internalType": "string",
          "name": "",
          "type": "string"
        }
      ],
      "stateMutability": "view",
      "type": "function"
    },
    {
      "inputs": [
        {
          "internalType": "address",
          "name": "account",
          "type": "address"
        },
        {
          "internalType": "uint256",
          "name": "amount",
          "type": "uint256"
        },
        {
          "internalType": "bytes",
          "name": "data",
          "type": "bytes"
        },
        {
          "internalType": "bytes",
          "name": "operatorData",
          "type": "bytes"
        }
      ],
      "name": "operatorBurn",
      "outputs": [],
      "stateMutability": "nonpayable",
      "type": "function"
    },
    {
      "inputs": [
        {
          "internalType": "address",
          "name": "sender",
          "type": "address"
        },
        {
          "internalType": "address",
          "name": "recipient",
          "type": "address"
        },
        {
          "internalType": "uint256",
          "name": "amount",
          "type": "uint256"
        },
        {
          "internalType": "bytes",
          "name": "data",
          "type": "bytes"
        },
        {
          "internalType": "bytes",
          "name": "operatorData",
          "type": "bytes"
        }
      ],
      "name": "operatorSend",
      "outputs": [],
      "stateMutability": "nonpayable",
      "type": "function"
    },
    {
      "inputs": [
        {
          "internalType": "bytes32",
          "name": "role",
          "type": "bytes32"
        },
        {
          "internalType": "address",
          "name": "account",
          "type": "address"
        }
      ],
      "name": "renounceRole",
      "outputs": [],
      "stateMutability": "nonpayable",
      "type": "function"
    },
    {
      "inputs": [
        {
          "internalType": "address",
          "name": "operator",
          "type": "address"
        }
      ],
      "name": "revokeOperator",
      "outputs": [],
      "stateMutability": "nonpayable",
      "type": "function"
    },
    {
      "inputs": [
        {
          "internalType": "bytes32",
          "name": "role",
          "type": "bytes32"
        },
        {
          "internalType": "address",
          "name": "account",
          "type": "address"
        }
      ],
      "name": "revokeRole",
      "outputs": [],
      "stateMutability": "nonpayable",
      "type": "function"
    },
    {
      "inputs": [
        {
          "internalType": "address",
          "name": "recipient",
          "type": "address"
        },
        {
          "internalType": "uint256",
          "name": "amount",
          "type": "uint256"
        },
        {
          "internalType": "bytes",
          "name": "data",
          "type": "bytes"
        }
      ],
      "name": "send",
      "outputs": [],
      "stateMutability": "nonpayable",
      "type": "function"
    },
    {
      "inputs": [],
      "name": "symbol",
      "outputs": [
        {
          "internalType": "string",
          "name": "",
          "type": "string"
        }
      ],
      "stateMutability": "view",
      "type": "function"
    },
    {
      "inputs": [],
      "name": "totalSupply",
      "outputs": [
        {
          "internalType": "uint256",
          "name": "",
          "type": "uint256"
        }
      ],
      "stateMutability": "view",
      "type": "function"
    },
    {
      "inputs": [
        {
          "internalType": "uint128",
          "name": "_blockNumber",
          "type": "uint128"
        }
      ],
      "name": "totalSupplyAt",
      "outputs": [
        {
          "internalType": "uint256",
          "name": "",
          "type": "uint256"
        }
      ],
      "stateMutability": "view",
      "type": "function"
    },
    {
      "inputs": [
        {
          "internalType": "uint256",
          "name": "",
          "type": "uint256"
        }
      ],
      "name": "totalSupplySnapshots",
      "outputs": [
        {
          "internalType": "uint128",
          "name": "fromBlock",
          "type": "uint128"
        },
        {
          "internalType": "uint128",
          "name": "value",
          "type": "uint128"
        }
      ],
      "stateMutability": "view",
      "type": "function"
    },
    {
      "inputs": [
        {
          "internalType": "address",
          "name": "recipient",
          "type": "address"
        },
        {
          "internalType": "uint256",
          "name": "amount",
          "type": "uint256"
        }
      ],
      "name": "transfer",
      "outputs": [
        {
          "internalType": "bool",
          "name": "",
          "type": "bool"
        }
      ],
      "stateMutability": "nonpayable",
      "type": "function"
    },
    {
      "inputs": [
        {
          "internalType": "address",
          "name": "holder",
          "type": "address"
        },
        {
          "internalType": "address",
          "name": "recipient",
          "type": "address"
        },
        {
          "internalType": "uint256",
          "name": "amount",
          "type": "uint256"
        }
      ],
      "name": "transferFrom",
      "outputs": [
        {
          "internalType": "bool",
          "name": "",
          "type": "bool"
        }
      ],
      "stateMutability": "nonpayable",
      "type": "function"
    }
  ],
  "transactionHash": "0xcac976c022a5c0011b976019af2065b0ccd6aaf53f5a3150b9b52fd06e01ed6e",
  "args": [],
  "solcInputHash": "fe234ee3a6c7f49f4bc3074b288cd6ec",
  "bytecode": "0x60806040523480156200001157600080fd5b50604080518082018252600a8152692427a829102a37b5b2b760b11b60208083019182528351808501855260048152632427a82960e11b81830152845160008152918201909452825192939290916200006e91600391906200037f565b508151620000849060049060208501906200037f565b5080516200009a90600590602084019062000404565b5060005b600554811015620000fa5760016006600060058481548110620000bd57fe5b6000918252602080832091909101546001600160a01b031683528201929092526040019020805460ff19169115159190911790556001016200009e565b50604080516a22a9219b9b9baa37b5b2b760a91b8152815190819003600b0181206329965a1d60e01b82523060048301819052602483019190915260448201529051731820a4b7618bde71dce8cdc73aab6c95905fad24916329965a1d91606480830192600092919082900301818387803b1580156200017957600080fd5b505af11580156200018e573d6000803e3d6000fd5b5050604080516922a92199182a37b5b2b760b11b8152815190819003600a0181206329965a1d60e01b82523060048301819052602483019190915260448201529051731820a4b7618bde71dce8cdc73aab6c95905fad2493506329965a1d9250606480830192600092919082900301818387803b1580156200020f57600080fd5b505af115801562000224573d6000803e3d6000fd5b50505050505050620002406000801b336200024660201b60201c565b620004ae565b6200025b82826001600160e01b036200025f16565b5050565b6000828152602081815260409091206200028491839062002948620002e1821b17901c565b156200025b576200029d6001600160e01b036200030a16565b6001600160a01b0316816001600160a01b0316837f2f8788117e7eff1d82e926ec794901d17c78024a50270940304540a733656f0d60405160405180910390a45050565b600062000301836001600160a01b0384166001600160e01b036200030f16565b90505b92915050565b335b90565b60006200032683836001600160e01b036200036716565b6200035e5750815460018181018455600084815260208082209093018490558454848252828601909352604090209190915562000304565b50600062000304565b60009081526001919091016020526040902054151590565b828054600181600116156101000203166002900490600052602060002090601f016020900481019282601f10620003c257805160ff1916838001178555620003f2565b82800160010185558215620003f2579182015b82811115620003f2578251825591602001919060010190620003d5565b50620004009291506200046a565b5090565b8280548282559060005260206000209081019282156200045c579160200282015b828111156200045c57825182546001600160a01b0319166001600160a01b0390911617825560209092019160019091019062000425565b506200040092915062000487565b6200030c91905b8082111562000400576000815560010162000471565b6200030c91905b80821115620004005780546001600160a01b03191681556001016200048e565b612f5d80620004be6000396000f3fe608060405234801561001057600080fd5b50600436106101f05760003560e01c8063959b8c3f1161010f578063d547741f116100a2578063f772a09211610071578063f772a0921461096c578063fad8b32a146109a1578063fc673c4f146109c7578063fe9d930314610b05576101f0565b8063d547741f146107a6578063d95b6371146107d2578063dcdc7dd014610800578063dd62ed3e1461093e576101f0565b8063a9059cbb116100de578063a9059cbb14610738578063b7d78b1a14610764578063ca15c87314610781578063d53913931461079e576101f0565b8063959b8c3f1461064957806395d89b411461066f5780639bd9bbc614610677578063a217fddf14610730576101f0565b8063313ce5671161018757806370a082311161015657806370a08231146105925780639010d07c146105b857806391d14854146105f7578063947975d914610623576101f0565b8063313ce567146103f757806336568abe14610415578063556f0dc71461044157806362ad1b8314610449576101f0565b806323b872dd116101c357806323b872dd14610324578063248a9ca31461035a5780632497aee6146103775780632f2ff15d146103c9576101f0565b806306e48538146101f557806306fdde031461024d578063095ea7b3146102ca57806318160ddd1461030a575b600080fd5b6101fd610bb0565b60408051602080825283518183015283519192839290830191858101910280838360005b83811015610239578181015183820152602001610221565b505050509050019250505060405180910390f35b610255610c12565b6040805160208082528351818301528351919283929083019185019080838360005b8381101561028f578181015183820152602001610277565b50505050905090810190601f1680156102bc5780820380516001836020036101000a031916815260200191505b509250505060405180910390f35b6102f6600480360360408110156102e057600080fd5b506001600160a01b038135169060200135610c9f565b604080519115158252519081900360200190f35b610312610cc3565b60408051918252519081900360200190f35b6102f66004803603606081101561033a57600080fd5b506001600160a01b03813581169160208101359091169060400135610cc9565b6103126004803603602081101561037057600080fd5b5035610e4c565b6103a36004803603604081101561038d57600080fd5b506001600160a01b038135169060200135610e61565b604080516001600160801b03938416815291909216602082015281519081900390910190f35b6103f5600480360360408110156103df57600080fd5b50803590602001356001600160a01b0316610ea1565b005b6103ff610f0d565b6040805160ff9092168252519081900360200190f35b6103f56004803603604081101561042b57600080fd5b50803590602001356001600160a01b0316610f12565b610312610f73565b6103f5600480360360a081101561045f57600080fd5b6001600160a01b03823581169260208101359091169160408201359190810190608081016060820135600160201b81111561049957600080fd5b8201836020820111156104ab57600080fd5b803590602001918460018302840111600160201b831117156104cc57600080fd5b91908080601f0160208091040260200160405190810160405280939291908181526020018383808284376000920191909152509295949360208101935035915050600160201b81111561051e57600080fd5b82018360208201111561053057600080fd5b803590602001918460018302840111600160201b8311171561055157600080fd5b91908080601f016020809104026020016040519081016040528093929190818152602001838380828437600092019190915250929550610f78945050505050565b610312600480360360208110156105a857600080fd5b50356001600160a01b0316610fda565b6105db600480360360408110156105ce57600080fd5b5080359060200135610ff5565b604080516001600160a01b039092168252519081900360200190f35b6102f66004803603604081101561060d57600080fd5b50803590602001356001600160a01b031661101a565b6103126004803603602081101561063957600080fd5b50356001600160801b0316611038565b6103f56004803603602081101561065f57600080fd5b50356001600160a01b0316611045565b610255611191565b6103f56004803603606081101561068d57600080fd5b6001600160a01b0382351691602081013591810190606081016040820135600160201b8111156106bc57600080fd5b8201836020820111156106ce57600080fd5b803590602001918460018302840111600160201b831117156106ef57600080fd5b91908080601f0160208091040260200160405190810160405280939291908181526020018383808284376000920191909152509295506111f2945050505050565b61031261121c565b6102f66004803603604081101561074e57600080fd5b506001600160a01b038135169060200135611221565b6103a36004803603602081101561077a57600080fd5b50356112fa565b6103126004803603602081101561079757600080fd5b503561132c565b610312611343565b6103f5600480360360408110156107bc57600080fd5b50803590602001356001600160a01b0316611366565b6102f6600480360360408110156107e857600080fd5b506001600160a01b03813581169160200135166113bf565b6103f56004803603608081101561081657600080fd5b6001600160a01b0382351691602081013591810190606081016040820135600160201b81111561084557600080fd5b82018360208201111561085757600080fd5b803590602001918460018302840111600160201b8311171561087857600080fd5b91908080601f0160208091040260200160405190810160405280939291908181526020018383808284376000920191909152509295949360208101935035915050600160201b8111156108ca57600080fd5b8201836020820111156108dc57600080fd5b803590602001918460018302840111600160201b831117156108fd57600080fd5b91908080601f016020809104026020016040519081016040528093929190818152602001838380828437600092019190915250929550611460945050505050565b6103126004803603604081101561095457600080fd5b506001600160a01b03813581169160200135166114ed565b6103126004803603604081101561098257600080fd5b5080356001600160a01b031690602001356001600160801b0316611518565b6103f5600480360360208110156109b757600080fd5b50356001600160a01b031661153a565b6103f5600480360360808110156109dd57600080fd5b6001600160a01b0382351691602081013591810190606081016040820135600160201b811115610a0c57600080fd5b820183602082011115610a1e57600080fd5b803590602001918460018302840111600160201b83111715610a3f57600080fd5b91908080601f0160208091040260200160405190810160405280939291908181526020018383808284376000920191909152509295949360208101935035915050600160201b811115610a9157600080fd5b820183602082011115610aa357600080fd5b803590602001918460018302840111600160201b83111715610ac457600080fd5b91908080601f016020809104026020016040519081016040528093929190818152602001838380828437600092019190915250929550611686945050505050565b6103f560048036036040811015610b1b57600080fd5b81359190810190604081016020820135600160201b811115610b3c57600080fd5b820183602082011115610b4e57600080fd5b803590602001918460018302840111600160201b83111715610b6f57600080fd5b91908080601f0160208091040260200160405190810160405280939291908181526020018383808284376000920191909152509295506116de945050505050565b60606005805480602002602001604051908101604052809291908181526020018280548015610c0857602002820191906000526020600020905b81546001600160a01b03168152600190910190602001808311610bea575b5050505050905090565b60038054604080516020601f6002600019610100600188161502019095169490940493840181900481028201810190925282815260609390929091830182828015610c085780601f10610c7357610100808354040283529160200191610c08565b820191906000526020600020905b815481529060010190602001808311610c8157509395945050505050565b600080610caa611700565b9050610cb7818585611704565b60019150505b92915050565b60025490565b60006001600160a01b038316610d105760405162461bcd60e51b8152600401808060200182810382526024815260200180612e146024913960400191505060405180910390fd5b6001600160a01b038416610d555760405162461bcd60e51b8152600401808060200182810382526026815260200180612e8d6026913960400191505060405180910390fd5b6000610d5f611700565b9050610d8d8186868660405180602001604052806000815250604051806020016040528060008152506117f0565b610db9818686866040518060200160405280600081525060405180602001604052806000815250611a38565b610e138582610e0e86604051806060016040528060298152602001612e64602991396001600160a01b03808c166000908152600960209081526040808320938b1683529290522054919063ffffffff611c5e16565b611704565b610e418186868660405180602001604052806000815250604051806020016040528060008152506000611cf5565b506001949350505050565b60009081526020819052604090206002015490565b600a6020528160005260406000208181548110610e7a57fe5b6000918252602090912001546001600160801b038082169350600160801b90910416905082565b600082815260208190526040902060020154610ec490610ebf611700565b61101a565b610eff5760405162461bcd60e51b815260040180806020018281038252602f815260200180612c93602f913960400191505060405180910390fd5b610f098282611f95565b5050565b601290565b610f1a611700565b6001600160a01b0316816001600160a01b031614610f695760405162461bcd60e51b815260040180806020018281038252602f815260200180612ef9602f913960400191505060405180910390fd5b610f098282612004565b600190565b610f89610f83611700565b866113bf565b610fc45760405162461bcd60e51b815260040180806020018281038252602c815260200180612e38602c913960400191505060405180910390fd5b610fd385858585856001612073565b5050505050565b6001600160a01b031660009081526001602052604090205490565b6000828152602081905260408120611013908363ffffffff61214a16565b9392505050565b6000828152602081905260408120611013908363ffffffff61215616565b6000610cbd600b8361216b565b806001600160a01b0316611057611700565b6001600160a01b0316141561109d5760405162461bcd60e51b8152600401808060200182810382526024815260200180612d526024913960400191505060405180910390fd5b6001600160a01b03811660009081526006602052604090205460ff161561110057600860006110ca611700565b6001600160a01b03908116825260208083019390935260409182016000908120918516815292529020805460ff19169055611147565b60016007600061110e611700565b6001600160a01b03908116825260208083019390935260409182016000908120918616815292529020805460ff19169115159190911790555b61114f611700565b6001600160a01b0316816001600160a01b03167ff4caeb2d6ca8932a215a353d0703c326ec2d81fc68170f320eb2ab49e9df61f960405160405180910390a350565b60048054604080516020601f6002600019610100600188161502019095169490940493840181900481028201810190925282815260609390929091830182828015610c085780601f10610c7357610100808354040283529160200191610c08565b6112176111fd611700565b848484604051806020016040528060008152506001612073565b505050565b600081565b60006001600160a01b0383166112685760405162461bcd60e51b8152600401808060200182810382526024815260200180612e146024913960400191505060405180910390fd5b6000611272611700565b90506112a08182868660405180602001604052806000815250604051806020016040528060008152506117f0565b6112cc818286866040518060200160405280600081525060405180602001604052806000815250611a38565b610cb78182868660405180602001604052806000815250604051806020016040528060008152506000611cf5565b600b818154811061130757fe5b6000918252602090912001546001600160801b038082169250600160801b9091041682565b6000818152602081905260408120610cbd906122f3565b604080516a4d494e5445525f524f4c4560a81b8152905190819003600b01902081565b60008281526020819052604090206002015461138490610ebf611700565b610f695760405162461bcd60e51b8152600401808060200182810382526030815260200180612d766030913960400191505060405180910390fd5b6000816001600160a01b0316836001600160a01b0316148061142a57506001600160a01b03831660009081526006602052604090205460ff16801561142a57506001600160a01b0380831660009081526008602090815260408083209387168352929052205460ff16155b806110135750506001600160a01b0390811660009081526007602090815260408083209490931682529290925290205460ff1690565b604080516a4d494e5445525f524f4c4560a81b8152905190819003600b01902061148a903361101a565b6114db576040805162461bcd60e51b815260206004820181905260248201527f63616c6c657220646f6573206e6f742068617665206d696e74657220726f6c65604482015290519081900360640190fd5b6114e7848484846122fe565b50505050565b6001600160a01b03918216600090815260096020908152604080832093909416825291909152205490565b6001600160a01b0382166000908152600a60205260408120611013908361216b565b611542611700565b6001600160a01b0316816001600160a01b031614156115925760405162461bcd60e51b8152600401808060200182810382526021815260200180612da66021913960400191505060405180910390fd5b6001600160a01b03811660009081526006602052604090205460ff16156115fe576001600860006115c1611700565b6001600160a01b03908116825260208083019390935260409182016000908120918616815292529020805460ff191691151591909117905561163c565b6007600061160a611700565b6001600160a01b03908116825260208083019390935260409182016000908120918516815292529020805460ff191690555b611644611700565b6001600160a01b0316816001600160a01b03167f50546e66e5f44d728365dc3908c63bc5cfeeab470722c1677e3073a6ac294aa160405160405180910390a350565b611697611691611700565b856113bf565b6116d25760405162461bcd60e51b815260040180806020018281038252602c815260200180612e38602c913960400191505060405180910390fd5b6114e78484848461254f565b610f096116e9611700565b83836040518060200160405280600081525061254f565b3390565b6001600160a01b0383166117495760405162461bcd60e51b8152600401808060200182810382526025815260200180612cc26025913960400191505060405180910390fd5b6001600160a01b03821661178e5760405162461bcd60e51b8152600401808060200182810382526023815260200180612ed66023913960400191505060405180910390fd5b6001600160a01b03808416600081815260096020908152604080832094871680845294825291829020859055815185815291517f8c5be1e5ebec7d5bd14f71427d1e84f3dd0314c0f7b2291e5b200ac8c7c3b9259281900390910190a3505050565b6040805163555ddc6560e11b81526001600160a01b03871660048201527f29ddb589b1fb5fc7cf394961c1adf5f8c6454761adf795e67fe149f658abe89560248201529051600091731820a4b7618bde71dce8cdc73aab6c95905fad249163aabbb8ca91604480820192602092909190829003018186803b15801561187457600080fd5b505afa158015611888573d6000803e3d6000fd5b505050506040513d602081101561189e57600080fd5b505190506001600160a01b03811615611a2f57806001600160a01b03166375ab97828888888888886040518763ffffffff1660e01b815260040180876001600160a01b03166001600160a01b03168152602001866001600160a01b03166001600160a01b03168152602001856001600160a01b03166001600160a01b031681526020018481526020018060200180602001838103835285818151815260200191508051906020019080838360005b8381101561196457818101518382015260200161194c565b50505050905090810190601f1680156119915780820380516001836020036101000a031916815260200191505b50838103825284518152845160209182019186019080838360005b838110156119c45781810151838201526020016119ac565b50505050905090810190601f1680156119f15780820380516001836020036101000a031916815260200191505b5098505050505050505050600060405180830381600087803b158015611a1657600080fd5b505af1158015611a2a573d6000803e3d6000fd5b505050505b50505050505050565b611a4486868686612795565b611a8783604051806060016040528060278152602001612d09602791396001600160a01b038816600090815260016020526040902054919063ffffffff611c5e16565b6001600160a01b038087166000908152600160205260408082209390935590861681522054611abc908463ffffffff6128b216565b60016000866001600160a01b03166001600160a01b0316815260200190815260200160002081905550836001600160a01b0316856001600160a01b0316876001600160a01b03167f06b541ddaa720db2b10a4d0cdac39b8d360425fc073085fac19bc82614677987868686604051808481526020018060200180602001838103835285818151815260200191508051906020019080838360005b83811015611b6e578181015183820152602001611b56565b50505050905090810190601f168015611b9b5780820380516001836020036101000a031916815260200191505b50838103825284518152845160209182019186019080838360005b83811015611bce578181015183820152602001611bb6565b50505050905090810190601f168015611bfb5780820380516001836020036101000a031916815260200191505b509550505050505060405180910390a4836001600160a01b0316856001600160a01b03167fddf252ad1be2c89b69c2b068fc378daa952ba7f163c4a11628f55a4df523b3ef856040518082815260200191505060405180910390a3505050505050565b60008184841115611ced5760405162461bcd60e51b81526004018080602001828103825283818151815260200191508051906020019080838360005b83811015611cb2578181015183820152602001611c9a565b50505050905090810190601f168015611cdf5780820380516001836020036101000a031916815260200191505b509250505060405180910390fd5b505050900390565b6040805163555ddc6560e11b81526001600160a01b03871660048201527fb281fc8c12954d22544db45de3159a39272895b169a852b314f9cc762e44c53b60248201529051600091731820a4b7618bde71dce8cdc73aab6c95905fad249163aabbb8ca91604480820192602092909190829003018186803b158015611d7957600080fd5b505afa158015611d8d573d6000803e3d6000fd5b505050506040513d6020811015611da357600080fd5b505190506001600160a01b03811615611f3757806001600160a01b03166223de298989898989896040518763ffffffff1660e01b815260040180876001600160a01b03166001600160a01b03168152602001866001600160a01b03166001600160a01b03168152602001856001600160a01b03166001600160a01b031681526020018481526020018060200180602001838103835285818151815260200191508051906020019080838360005b83811015611e68578181015183820152602001611e50565b50505050905090810190601f168015611e955780820380516001836020036101000a031916815260200191505b50838103825284518152845160209182019186019080838360005b83811015611ec8578181015183820152602001611eb0565b50505050905090810190601f168015611ef55780820380516001836020036101000a031916815260200191505b5098505050505050505050600060405180830381600087803b158015611f1a57600080fd5b505af1158015611f2e573d6000803e3d6000fd5b50505050611f8b565b8115611f8b57611f4f866001600160a01b031661290c565b15611f8b5760405162461bcd60e51b815260040180806020018281038252604d815260200180612dc7604d913960600191505060405180910390fd5b5050505050505050565b6000828152602081905260409020611fb3908263ffffffff61294816565b15610f0957611fc0611700565b6001600160a01b0316816001600160a01b0316837f2f8788117e7eff1d82e926ec794901d17c78024a50270940304540a733656f0d60405160405180910390a45050565b6000828152602081905260409020612022908263ffffffff61295d16565b15610f095761202f611700565b6001600160a01b0316816001600160a01b0316837ff6391f5c32d9c69d2a47ea670b442974b53935d1edc7fd64eb21e047a839171b60405160405180910390a45050565b6001600160a01b0386166120b85760405162461bcd60e51b8152600401808060200182810382526022815260200180612ce76022913960400191505060405180910390fd5b6001600160a01b038516612113576040805162461bcd60e51b815260206004820181905260248201527f4552433737373a2073656e6420746f20746865207a65726f2061646472657373604482015290519081900360640190fd5b600061211d611700565b905061212d8188888888886117f0565b61213b818888888888611a38565b611a2f81888888888888611cf5565b60006110138383612972565b6000611013836001600160a01b0384166129d6565b81546000908061217f576000915050610cbd565b83600182038154811061218e57fe5b6000918252602090912001546001600160801b03908116908416106121e1578360018203815481106121bc57fe5b600091825260209091200154600160801b90046001600160801b03169150610cbd9050565b836000815481106121ee57fe5b6000918252602090912001546001600160801b039081169084161015612218576000915050610cbd565b600060001982015b818111156122c15760006002600183850101049050600087828154811061224357fe5b6000918252602090912001546001600160801b039081169150871681141561229a5787828154811061227157fe5b600091825260209091200154600160801b90046001600160801b03169550610cbd945050505050565b866001600160801b03168110156122b3578193506122ba565b6001820392505b5050612220565b8582815481106122cd57fe5b600091825260209091200154600160801b90046001600160801b03169695505050505050565b6000610cbd826129ee565b6001600160a01b038416612359576040805162461bcd60e51b815260206004820181905260248201527f4552433737373a206d696e7420746f20746865207a65726f2061646472657373604482015290519081900360640190fd5b6000612363611700565b90506123728160008787612795565b600254612385908563ffffffff6128b216565b6002556001600160a01b0385166000908152600160205260409020546123b1908563ffffffff6128b216565b60016000876001600160a01b03166001600160a01b03168152602001908152602001600020819055506123eb816000878787876001611cf5565b846001600160a01b0316816001600160a01b03167f2fe5be0146f74c5bce36c0b80911af6c7d86ff27e89d5cfa61fc681327954e5d868686604051808481526020018060200180602001838103835285818151815260200191508051906020019080838360005b8381101561246a578181015183820152602001612452565b50505050905090810190601f1680156124975780820380516001836020036101000a031916815260200191505b50838103825284518152845160209182019186019080838360005b838110156124ca5781810151838201526020016124b2565b50505050905090810190601f1680156124f75780820380516001836020036101000a031916815260200191505b509550505050505060405180910390a36040805185815290516001600160a01b038716916000917fddf252ad1be2c89b69c2b068fc378daa952ba7f163c4a11628f55a4df523b3ef9181900360200190a35050505050565b6001600160a01b0384166125945760405162461bcd60e51b8152600401808060200182810382526022815260200180612d306022913960400191505060405180910390fd5b600061259e611700565b90506125af818660008787876117f0565b6125bc8186600087612795565b6125ff84604051806060016040528060238152602001612eb3602391396001600160a01b038816600090815260016020526040902054919063ffffffff611c5e16565b6001600160a01b03861660009081526001602052604090205560025461262b908563ffffffff6129f216565b600281905550846001600160a01b0316816001600160a01b03167fa78a9be3a7b862d26933ad85fb11d80ef66b8f972d7cbba06621d583943a4098868686604051808481526020018060200180602001838103835285818151815260200191508051906020019080838360005b838110156126b0578181015183820152602001612698565b50505050905090810190601f1680156126dd5780820380516001836020036101000a031916815260200191505b50838103825284518152845160209182019186019080838360005b838110156127105781810151838201526020016126f8565b50505050905090810190601f16801561273d5780820380516001836020036101000a031916815260200191505b509550505050505060405180910390a36040805185815290516000916001600160a01b038816917fddf252ad1be2c89b69c2b068fc378daa952ba7f163c4a11628f55a4df523b3ef9181900360200190a35050505050565b6001600160a01b0383166127f3576001600160a01b0382166000908152600a602052604090206127dd906127d8836127cc86610fda565b9063ffffffff6128b216565b612a34565b6127ee600b6127d8836127cc610cc3565b6114e7565b6001600160a01b038216612847576001600160a01b0383166000908152600a60205260409020612836906127d88361282a87610fda565b9063ffffffff6129f216565b6127ee600b6127d88361282a610cc3565b816001600160a01b0316836001600160a01b0316146114e7576001600160a01b0383166000908152600a60205260409020612889906127d88361282a87610fda565b6001600160a01b0382166000908152600a602052604090206114e7906127d8836127cc86610fda565b600082820183811015611013576040805162461bcd60e51b815260206004820152601b60248201527f536166654d6174683a206164646974696f6e206f766572666c6f770000000000604482015290519081900360640190fd5b6000813f7fc5d2460186f7233c927e7db2dcc703c0e500b653ca82273b7bfad8045d85a47081811480159061294057508115155b949350505050565b6000611013836001600160a01b038416612b60565b6000611013836001600160a01b038416612baa565b815460009082106129b45760405162461bcd60e51b8152600401808060200182810382526022815260200180612c716022913960400191505060405180910390fd5b8260000182815481106129c357fe5b9060005260206000200154905092915050565b60009081526001919091016020526040902054151590565b5490565b600061101383836040518060400160405280601e81526020017f536166654d6174683a207375627472616374696f6e206f766572666c6f770000815250611c5e565b6001600160801b03811115612a83576040805162461bcd60e51b815260206004820152601060248201526f63617374696e67206f766572666c6f7760801b604482015290519081900360640190fd5b8154801580612ab4575043836001830381548110612a9d57fe5b6000918252602090912001546001600160801b0316105b15612b255760408051808201909152436001600160801b0390811682528381166020808401918252865460018101885560008881529190912093519301805491516fffffffffffffffffffffffffffffffff19909216938316939093178216600160801b9190921602179055611217565b81836001830381548110612b3557fe5b600091825260209091200180546001600160801b03928316600160801b029216919091179055505050565b6000612b6c83836129d6565b612ba257508154600181810184556000848152602080822090930184905584548482528286019093526040902091909155610cbd565b506000610cbd565b60008181526001830160205260408120548015612c665783546000198083019190810190600090879083908110612bdd57fe5b9060005260206000200154905080876000018481548110612bfa57fe5b600091825260208083209091019290925582815260018981019092526040902090840190558654879080612c2a57fe5b60019003818190600052602060002001600090559055866001016000878152602001908152602001600020600090556001945050505050610cbd565b6000915050610cbd56fe456e756d657261626c655365743a20696e646578206f7574206f6620626f756e6473416363657373436f6e74726f6c3a2073656e646572206d75737420626520616e2061646d696e20746f206772616e744552433737373a20617070726f76652066726f6d20746865207a65726f20616464726573734552433737373a2073656e642066726f6d20746865207a65726f20616464726573734552433737373a207472616e7366657220616d6f756e7420657863656564732062616c616e63654552433737373a206275726e2066726f6d20746865207a65726f20616464726573734552433737373a20617574686f72697a696e672073656c66206173206f70657261746f72416363657373436f6e74726f6c3a2073656e646572206d75737420626520616e2061646d696e20746f207265766f6b654552433737373a207265766f6b696e672073656c66206173206f70657261746f724552433737373a20746f6b656e20726563697069656e7420636f6e747261637420686173206e6f20696d706c656d656e74657220666f7220455243373737546f6b656e73526563697069656e744552433737373a207472616e7366657220746f20746865207a65726f20616464726573734552433737373a2063616c6c6572206973206e6f7420616e206f70657261746f7220666f7220686f6c6465724552433737373a207472616e7366657220616d6f756e74206578636565647320616c6c6f77616e63654552433737373a207472616e736665722066726f6d20746865207a65726f20616464726573734552433737373a206275726e20616d6f756e7420657863656564732062616c616e63654552433737373a20617070726f766520746f20746865207a65726f2061646472657373416363657373436f6e74726f6c3a2063616e206f6e6c792072656e6f756e636520726f6c657320666f722073656c66a26469706673582212207cfb0a8ec99660a151760b9f1c3198ee7ae6a56cf06d3f88e34fbf32c8e73e7364736f6c63430006060033",
  "devdoc": {
    "methods": {
      "allowance(address,address)": {
        "details": "See {IERC20-allowance}.     * Note that operator and allowance concepts are orthogonal: operators may not have allowance, and accounts with allowance may not be operators themselves."
      },
      "approve(address,uint256)": {
        "details": "See {IERC20-approve}.     * Note that accounts cannot have allowance issued by their operators."
      },
      "authorizeOperator(address)": {
        "details": "See {IERC777-authorizeOperator}."
      },
      "balanceOf(address)": {
        "details": "Returns the amount of tokens owned by an account (`tokenHolder`)."
      },
      "balanceOfAt(address,uint128)": {
        "details": "Queries the balance of `_owner` at a specific `_blockNumber`",
        "params": {
          "_blockNumber": "The block number when the balance is queried",
          "_owner": "The address from which the balance will be retrieved"
        },
        "returns": {
          "_0": "The balance at `_blockNumber`"
        }
      },
      "burn(uint256,bytes)": {
        "details": "See {IERC777-burn}.     * Also emits a {IERC20-Transfer} event for ERC20 compatibility."
      },
      "decimals()": {
        "details": "See {ERC20-decimals}.     * Always returns 18, as per the [ERC777 EIP](https://eips.ethereum.org/EIPS/eip-777#backward-compatibility)."
      },
      "defaultOperators()": {
        "details": "See {IERC777-defaultOperators}."
      },
      "getRoleAdmin(bytes32)": {
        "details": "Returns the admin role that controls `role`. See {grantRole} and {revokeRole}.     * To change a role's admin, use {_setRoleAdmin}."
      },
      "getRoleMember(bytes32,uint256)": {
        "details": "Returns one of the accounts that have `role`. `index` must be a value between 0 and {getRoleMemberCount}, non-inclusive.     * Role bearers are not sorted in any particular way, and their ordering may change at any point.     * WARNING: When using {getRoleMember} and {getRoleMemberCount}, make sure you perform all queries on the same block. See the following https://forum.openzeppelin.com/t/iterating-over-elements-on-enumerableset-in-openzeppelin-contracts/2296[forum post] for more information."
      },
      "getRoleMemberCount(bytes32)": {
        "details": "Returns the number of accounts that have `role`. Can be used together with {getRoleMember} to enumerate all bearers of a role."
      },
      "grantRole(bytes32,address)": {
        "details": "Grants `role` to `account`.     * If `account` had not been already granted `role`, emits a {RoleGranted} event.     * Requirements:     * - the caller must have ``role``'s admin role."
      },
      "granularity()": {
        "details": "See {IERC777-granularity}.     * This implementation always returns `1`."
      },
      "hasRole(bytes32,address)": {
        "details": "Returns `true` if `account` has been granted `role`."
      },
      "isOperatorFor(address,address)": {
        "details": "See {IERC777-isOperatorFor}."
      },
      "mint(address,uint256,bytes,bytes)": {
        "details": "Creates `amount` tokens and assigns them to `account`, increasing the total supply.     * If a send hook is registered for `account`, the corresponding function will be called with `operator`, `data` and `operatorData`. Emits {Minted} and {IERC20-Transfer} events.     * Requirements     * - `account` cannot be the zero address. - if `account` is a contract, it must implement the {IERC777Recipient} interface. - `account` must have minter role"
      },
      "name()": {
        "details": "See {IERC777-name}."
      },
      "operatorBurn(address,uint256,bytes,bytes)": {
        "details": "See {IERC777-operatorBurn}.     * Emits {Burned} and {IERC20-Transfer} events."
      },
      "operatorSend(address,address,uint256,bytes,bytes)": {
        "details": "See {IERC777-operatorSend}.     * Emits {Sent} and {IERC20-Transfer} events."
      },
      "renounceRole(bytes32,address)": {
        "details": "Revokes `role` from the calling account.     * Roles are often managed via {grantRole} and {revokeRole}: this function's purpose is to provide a mechanism for accounts to lose their privileges if they are compromised (such as when a trusted device is misplaced).     * If the calling account had been granted `role`, emits a {RoleRevoked} event.     * Requirements:     * - the caller must be `account`."
      },
      "revokeOperator(address)": {
        "details": "See {IERC777-revokeOperator}."
      },
      "revokeRole(bytes32,address)": {
        "details": "Revokes `role` from `account`.     * If `account` had been granted `role`, emits a {RoleRevoked} event.     * Requirements:     * - the caller must have ``role``'s admin role."
      },
      "send(address,uint256,bytes)": {
        "details": "See {IERC777-send}.     * Also emits a {IERC20-Transfer} event for ERC20 compatibility."
      },
      "symbol()": {
        "details": "See {IERC777-symbol}."
      },
      "totalSupply()": {
        "details": "See {IERC777-totalSupply}."
      },
      "totalSupplyAt(uint128)": {
        "params": {
          "_blockNumber": "The block number when the totalSupply is queried"
        },
        "returns": {
          "_0": "The total amount of tokens at `_blockNumber`"
        }
      },
      "transfer(address,uint256)": {
        "details": "See {IERC20-transfer}.     * Unlike `send`, `recipient` is _not_ required to implement the {IERC777Recipient} interface if it is a contract.     * Also emits a {Sent} event."
      },
      "transferFrom(address,address,uint256)": {
        "details": "See {IERC20-transferFrom}.    * Note that operator and allowance concepts are orthogonal: operators cannot call `transferFrom` (unless they have allowance), and accounts with allowance cannot call `operatorSend` (unless they are operators).    * Emits {Sent}, {IERC20-Transfer} and {IERC20-Approval} events."
      }
    }
  },
  "userdoc": {
    "methods": {
      "totalSupplyAt(uint128)": {
        "notice": "Total amount of tokens at a specific `_blockNumber`."
      }
    }
  },
  "storageLayout": {
    "storage": [
      {
        "astId": 49,
        "contract": "contracts/HoprToken.sol:HoprToken",
        "label": "_roles",
        "offset": 0,
        "slot": "0",
        "type": "t_mapping(t_bytes32,t_struct(RoleData)45_storage)"
      },
      {
        "astId": 4860,
        "contract": "contracts/HoprToken.sol:HoprToken",
        "label": "_balances",
        "offset": 0,
        "slot": "1",
        "type": "t_mapping(t_address,t_uint256)"
      },
      {
        "astId": 4862,
        "contract": "contracts/HoprToken.sol:HoprToken",
        "label": "_totalSupply",
        "offset": 0,
        "slot": "2",
        "type": "t_uint256"
      },
      {
        "astId": 4864,
        "contract": "contracts/HoprToken.sol:HoprToken",
        "label": "_name",
        "offset": 0,
        "slot": "3",
        "type": "t_string_storage"
      },
      {
        "astId": 4866,
        "contract": "contracts/HoprToken.sol:HoprToken",
        "label": "_symbol",
        "offset": 0,
        "slot": "4",
        "type": "t_string_storage"
      },
      {
        "astId": 4875,
        "contract": "contracts/HoprToken.sol:HoprToken",
        "label": "_defaultOperatorsArray",
        "offset": 0,
        "slot": "5",
        "type": "t_array(t_address)dyn_storage"
      },
      {
        "astId": 4879,
        "contract": "contracts/HoprToken.sol:HoprToken",
        "label": "_defaultOperators",
        "offset": 0,
        "slot": "6",
        "type": "t_mapping(t_address,t_bool)"
      },
      {
        "astId": 4885,
        "contract": "contracts/HoprToken.sol:HoprToken",
        "label": "_operators",
        "offset": 0,
        "slot": "7",
        "type": "t_mapping(t_address,t_mapping(t_address,t_bool))"
      },
      {
        "astId": 4891,
        "contract": "contracts/HoprToken.sol:HoprToken",
        "label": "_revokedDefaultOperators",
        "offset": 0,
        "slot": "8",
        "type": "t_mapping(t_address,t_mapping(t_address,t_bool))"
      },
      {
        "astId": 4897,
        "contract": "contracts/HoprToken.sol:HoprToken",
        "label": "_allowances",
        "offset": 0,
        "slot": "9",
        "type": "t_mapping(t_address,t_mapping(t_address,t_uint256))"
      },
      {
        "astId": 2878,
        "contract": "contracts/HoprToken.sol:HoprToken",
        "label": "accountSnapshots",
        "offset": 0,
        "slot": "10",
        "type": "t_mapping(t_address,t_array(t_struct(Snapshot)2873_storage)dyn_storage)"
      },
      {
        "astId": 2881,
        "contract": "contracts/HoprToken.sol:HoprToken",
        "label": "totalSupplySnapshots",
        "offset": 0,
        "slot": "11",
        "type": "t_array(t_struct(Snapshot)2873_storage)dyn_storage"
      }
    ],
    "types": {
      "t_address": {
        "encoding": "inplace",
        "label": "address",
        "numberOfBytes": "20"
      },
      "t_array(t_address)dyn_storage": {
        "base": "t_address",
        "encoding": "dynamic_array",
        "label": "address[]",
        "numberOfBytes": "32"
      },
      "t_array(t_bytes32)dyn_storage": {
        "base": "t_bytes32",
        "encoding": "dynamic_array",
        "label": "bytes32[]",
        "numberOfBytes": "32"
      },
      "t_array(t_struct(Snapshot)2873_storage)dyn_storage": {
        "base": "t_struct(Snapshot)2873_storage",
        "encoding": "dynamic_array",
        "label": "struct ERC777Snapshot.Snapshot[]",
        "numberOfBytes": "32"
      },
      "t_bool": {
        "encoding": "inplace",
        "label": "bool",
        "numberOfBytes": "1"
      },
      "t_bytes32": {
        "encoding": "inplace",
        "label": "bytes32",
        "numberOfBytes": "32"
      },
      "t_mapping(t_address,t_array(t_struct(Snapshot)2873_storage)dyn_storage)": {
        "encoding": "mapping",
        "key": "t_address",
        "label": "mapping(address => struct ERC777Snapshot.Snapshot[])",
        "numberOfBytes": "32",
        "value": "t_array(t_struct(Snapshot)2873_storage)dyn_storage"
      },
      "t_mapping(t_address,t_bool)": {
        "encoding": "mapping",
        "key": "t_address",
        "label": "mapping(address => bool)",
        "numberOfBytes": "32",
        "value": "t_bool"
      },
      "t_mapping(t_address,t_mapping(t_address,t_bool))": {
        "encoding": "mapping",
        "key": "t_address",
        "label": "mapping(address => mapping(address => bool))",
        "numberOfBytes": "32",
        "value": "t_mapping(t_address,t_bool)"
      },
      "t_mapping(t_address,t_mapping(t_address,t_uint256))": {
        "encoding": "mapping",
        "key": "t_address",
        "label": "mapping(address => mapping(address => uint256))",
        "numberOfBytes": "32",
        "value": "t_mapping(t_address,t_uint256)"
      },
      "t_mapping(t_address,t_uint256)": {
        "encoding": "mapping",
        "key": "t_address",
        "label": "mapping(address => uint256)",
        "numberOfBytes": "32",
        "value": "t_uint256"
      },
      "t_mapping(t_bytes32,t_struct(RoleData)45_storage)": {
        "encoding": "mapping",
        "key": "t_bytes32",
        "label": "mapping(bytes32 => struct AccessControl.RoleData)",
        "numberOfBytes": "32",
        "value": "t_struct(RoleData)45_storage"
      },
      "t_mapping(t_bytes32,t_uint256)": {
        "encoding": "mapping",
        "key": "t_bytes32",
        "label": "mapping(bytes32 => uint256)",
        "numberOfBytes": "32",
        "value": "t_uint256"
      },
      "t_string_storage": {
        "encoding": "bytes",
        "label": "string",
        "numberOfBytes": "32"
      },
      "t_struct(AddressSet)2622_storage": {
        "encoding": "inplace",
        "label": "struct EnumerableSet.AddressSet",
        "members": [
          {
            "astId": 2621,
            "contract": "contracts/HoprToken.sol:HoprToken",
            "label": "_inner",
            "offset": 0,
            "slot": "0",
            "type": "t_struct(Set)2442_storage"
          }
        ],
        "numberOfBytes": "64"
      },
      "t_struct(RoleData)45_storage": {
        "encoding": "inplace",
        "label": "struct AccessControl.RoleData",
        "members": [
          {
            "astId": 42,
            "contract": "contracts/HoprToken.sol:HoprToken",
            "label": "members",
            "offset": 0,
            "slot": "0",
            "type": "t_struct(AddressSet)2622_storage"
          },
          {
            "astId": 44,
            "contract": "contracts/HoprToken.sol:HoprToken",
            "label": "adminRole",
            "offset": 0,
            "slot": "2",
            "type": "t_bytes32"
          }
        ],
        "numberOfBytes": "96"
      },
      "t_struct(Set)2442_storage": {
        "encoding": "inplace",
        "label": "struct EnumerableSet.Set",
        "members": [
          {
            "astId": 2437,
            "contract": "contracts/HoprToken.sol:HoprToken",
            "label": "_values",
            "offset": 0,
            "slot": "0",
            "type": "t_array(t_bytes32)dyn_storage"
          },
          {
            "astId": 2441,
            "contract": "contracts/HoprToken.sol:HoprToken",
            "label": "_indexes",
            "offset": 0,
            "slot": "1",
            "type": "t_mapping(t_bytes32,t_uint256)"
          }
        ],
        "numberOfBytes": "64"
      },
      "t_struct(Snapshot)2873_storage": {
        "encoding": "inplace",
        "label": "struct ERC777Snapshot.Snapshot",
        "members": [
          {
            "astId": 2870,
            "contract": "contracts/HoprToken.sol:HoprToken",
            "label": "fromBlock",
            "offset": 0,
            "slot": "0",
            "type": "t_uint128"
          },
          {
            "astId": 2872,
            "contract": "contracts/HoprToken.sol:HoprToken",
            "label": "value",
            "offset": 16,
            "slot": "0",
            "type": "t_uint128"
          }
        ],
        "numberOfBytes": "32"
      },
      "t_uint128": {
        "encoding": "inplace",
        "label": "uint128",
        "numberOfBytes": "16"
      },
      "t_uint256": {
        "encoding": "inplace",
        "label": "uint256",
        "numberOfBytes": "32"
      }
    }
  }
}