{
  "address": "0xBd8fb823D1c7C1e41A8777d1aec658cFDc540c45",
  "abi": [
    {
      "inputs": [
        {
          "internalType": "address",
          "name": "stakeContract",
          "type": "address"
        },
        {
          "internalType": "address",
          "name": "newOwner",
          "type": "address"
        },
        {
          "internalType": "uint256",
          "name": "minStake",
          "type": "uint256"
        }
      ],
      "stateMutability": "nonpayable",
      "type": "constructor"
    },
    {
      "anonymous": false,
      "inputs": [
        {
          "indexed": true,
          "internalType": "uint256",
          "name": "nftType",
          "type": "uint256"
        },
        {
          "indexed": true,
          "internalType": "uint256",
          "name": "nftRank",
          "type": "uint256"
        }
      ],
      "name": "NftTypeAndRankAdded",
      "type": "event"
    },
    {
      "anonymous": false,
      "inputs": [
        {
          "indexed": true,
          "internalType": "uint256",
          "name": "nftType",
          "type": "uint256"
        },
        {
          "indexed": true,
          "internalType": "uint256",
          "name": "nftRank",
          "type": "uint256"
        }
      ],
      "name": "NftTypeAndRankRemoved",
      "type": "event"
    },
    {
      "anonymous": false,
      "inputs": [
        {
          "indexed": true,
          "internalType": "address",
          "name": "previousOwner",
          "type": "address"
        },
        {
          "indexed": true,
          "internalType": "address",
          "name": "newOwner",
          "type": "address"
        }
      ],
      "name": "OwnershipTransferred",
      "type": "event"
    },
    {
      "anonymous": false,
      "inputs": [
        {
          "indexed": true,
          "internalType": "uint256",
          "name": "nftType",
          "type": "uint256"
        },
        {
          "indexed": true,
          "internalType": "uint256",
          "name": "nftRank",
          "type": "uint256"
        }
      ],
      "name": "SpecialNftTypeAndRankAdded",
      "type": "event"
    },
    {
      "anonymous": false,
      "inputs": [
        {
          "indexed": true,
          "internalType": "uint256",
          "name": "nftType",
          "type": "uint256"
        },
        {
          "indexed": true,
          "internalType": "uint256",
          "name": "nftRank",
          "type": "uint256"
        }
      ],
      "name": "SpecialNftTypeAndRankRemoved",
      "type": "event"
    },
    {
      "anonymous": false,
      "inputs": [
        {
          "indexed": true,
          "internalType": "uint256",
          "name": "threshold",
          "type": "uint256"
        }
      ],
      "name": "ThresholdUpdated",
      "type": "event"
    },
    {
      "inputs": [],
      "name": "STAKE_CONTRACT",
      "outputs": [
        {
          "internalType": "contract IHoprStake",
          "name": "",
          "type": "address"
        }
      ],
      "stateMutability": "view",
      "type": "function"
    },
    {
      "inputs": [
        {
          "internalType": "uint256",
          "name": "",
          "type": "uint256"
        }
      ],
      "name": "eligibleNftTypeAndRank",
      "outputs": [
        {
          "internalType": "uint256",
          "name": "nftType",
          "type": "uint256"
        },
        {
          "internalType": "uint256",
          "name": "nftRank",
          "type": "uint256"
        }
      ],
      "stateMutability": "view",
      "type": "function"
    },
    {
      "inputs": [
        {
          "internalType": "address",
          "name": "account",
          "type": "address"
        }
      ],
      "name": "isRequirementFulfilled",
      "outputs": [
        {
          "internalType": "bool",
          "name": "",
          "type": "bool"
        }
      ],
      "stateMutability": "view",
      "type": "function"
    },
    {
      "inputs": [],
      "name": "owner",
      "outputs": [
        {
          "internalType": "address",
          "name": "",
          "type": "address"
        }
      ],
      "stateMutability": "view",
      "type": "function"
    },
    {
      "inputs": [
        {
          "internalType": "uint256",
          "name": "nftType",
          "type": "uint256"
        },
        {
          "internalType": "uint256",
          "name": "nftRank",
          "type": "uint256"
        }
      ],
      "name": "ownerAddNftTypeAndRank",
      "outputs": [],
      "stateMutability": "nonpayable",
      "type": "function"
    },
    {
      "inputs": [
        {
          "internalType": "uint256[]",
          "name": "nftTypes",
          "type": "uint256[]"
        },
        {
          "internalType": "uint256[]",
          "name": "nftRanks",
          "type": "uint256[]"
        }
      ],
      "name": "ownerBatchAddNftTypeAndRank",
      "outputs": [],
      "stateMutability": "nonpayable",
      "type": "function"
    },
    {
      "inputs": [
        {
          "internalType": "uint256[]",
          "name": "nftTypes",
          "type": "uint256[]"
        },
        {
          "internalType": "uint256[]",
          "name": "nftRanks",
          "type": "uint256[]"
        }
      ],
      "name": "ownerBatchAddSpecialNftTypeAndRank",
      "outputs": [],
      "stateMutability": "nonpayable",
      "type": "function"
    },
    {
      "inputs": [
        {
          "internalType": "uint256[]",
          "name": "nftTypes",
          "type": "uint256[]"
        },
        {
          "internalType": "uint256[]",
          "name": "nftRanks",
          "type": "uint256[]"
        }
      ],
      "name": "ownerBatchRemoveNftTypeAndRank",
      "outputs": [],
      "stateMutability": "nonpayable",
      "type": "function"
    },
    {
      "inputs": [
        {
          "internalType": "uint256[]",
          "name": "nftTypes",
          "type": "uint256[]"
        },
        {
          "internalType": "uint256[]",
          "name": "nftRanks",
          "type": "uint256[]"
        }
      ],
      "name": "ownerBatchRemoveSpecialNftTypeAndRank",
      "outputs": [],
      "stateMutability": "nonpayable",
      "type": "function"
    },
    {
      "inputs": [
        {
          "internalType": "uint256",
          "name": "nftType",
          "type": "uint256"
        },
        {
          "internalType": "uint256",
          "name": "nftRank",
          "type": "uint256"
        }
      ],
      "name": "ownerRemoveNftTypeAndRank",
      "outputs": [],
      "stateMutability": "nonpayable",
      "type": "function"
    },
    {
      "inputs": [
        {
          "internalType": "uint256",
          "name": "newThreshold",
          "type": "uint256"
        }
      ],
      "name": "ownerUpdateThreshold",
      "outputs": [],
      "stateMutability": "nonpayable",
      "type": "function"
    },
    {
      "inputs": [],
      "name": "renounceOwnership",
      "outputs": [],
      "stateMutability": "nonpayable",
      "type": "function"
    },
    {
      "inputs": [
        {
          "internalType": "uint256",
          "name": "",
          "type": "uint256"
        }
      ],
      "name": "specialNftTypeAndRank",
      "outputs": [
        {
          "internalType": "uint256",
          "name": "nftType",
          "type": "uint256"
        },
        {
          "internalType": "uint256",
          "name": "nftRank",
          "type": "uint256"
        }
      ],
      "stateMutability": "view",
      "type": "function"
    },
    {
      "inputs": [],
      "name": "stakeThreshold",
      "outputs": [
        {
          "internalType": "uint256",
          "name": "",
          "type": "uint256"
        }
      ],
      "stateMutability": "view",
      "type": "function"
    },
    {
      "inputs": [
        {
          "internalType": "address",
          "name": "newOwner",
          "type": "address"
        }
      ],
      "name": "transferOwnership",
      "outputs": [],
      "stateMutability": "nonpayable",
      "type": "function"
    }
  ],
  "transactionHash": "0xaf911579cb53a4b73c29a52f80da5f65bac464eb9c8ba23a747fc5332ec3b028",
  "args": [
    "0x5Bb7e435aDa333A6714e27962e4Bb6aFDE1cECd4",
    "0xA18732DC751BE0dB04157eb92C92BA9d0fC09FC5",
    "1000000000000000000000"
  ],
  "numDeployments": 1,
  "solcInputHash": "e6b0294578975a1bdae7ba1e32ce9aeb",
  "bytecode": "0x60a06040523480156200001157600080fd5b50604051620014b1380380620014b18339810160408190526200003491620000fd565b6200003f3362000090565b6001600160a01b038316608052600181905560405181907fadfa8ecb21b6962ebcd0adbd9ab985b7b4c5b5eb3b0dead683171565c7bfe17190600090a2620000878262000090565b5050506200013e565b600080546001600160a01b038381166001600160a01b0319831681178455604051919092169283917f8be0079c531659141344cd1fd0a4f28419497f9722a3daafe3b4186f6b6457e09190a35050565b80516001600160a01b0381168114620000f857600080fd5b919050565b6000806000606084860312156200011357600080fd5b6200011e84620000e0565b92506200012e60208501620000e0565b9150604084015190509250925092565b6080516113426200016f600039600081816101ca015281816105cb0152818161068a015261079c01526113426000f3fe608060405234801561001057600080fd5b50600436106100f55760003560e01c80638da5cb5b11610097578063ee50c7c411610066578063ee50c7c414610212578063f11f77f914610225578063f2fde38b1461023c578063ff30bd8d1461024f57600080fd5b80638da5cb5b146101a0578063a66aa40d146101c5578063a83a34d0146101ec578063de626c0e146101ff57600080fd5b80635819226b116100d35780635819226b1461014f57806361255c9c14610162578063715018a61461017557806386ca5f311461017d57600080fd5b806306949d07146100fa57806309ed0eb81461010f5780632c3ec80b14610122575b600080fd5b61010d610108366004611131565b610262565b005b61010d61011d36600461119d565b61036f565b6101356101303660046111bf565b6103a7565b604080519283526020830191909152015b60405180910390f35b61010d61015d36600461119d565b6103d5565b61010d610170366004611131565b610409565b61010d610513565b61019061018b3660046111d8565b610549565b6040519015158152602001610146565b6000546001600160a01b03165b6040516001600160a01b039091168152602001610146565b6101ad7f000000000000000000000000000000000000000000000000000000000000000081565b61010d6101fa366004611131565b610843565b61013561020d3660046111bf565b610943565b61010d6102203660046111bf565b610953565b61022e60015481565b604051908152602001610146565b61010d61024a3660046111d8565b610a30565b61010d61025d366004611131565b610acb565b6000546001600160a01b031633146102955760405162461bcd60e51b815260040161028c90611208565b60405180910390fd5b8281146103115760405162461bcd60e51b815260206004820152605060248201526000805160206112ed83398151915260448201527f72793a206f776e657242617463684164644e667454797065416e6452616e6b2060648201526f0d8cadccee8d0e640dad2e6dac2e8c6d60831b608482015260a40161028c565b60005b83811015610368576103568585838181106103315761033161123d565b9050602002013584848481811061034a5761034a61123d565b90506020020135610bd5565b8061036081611269565b915050610314565b5050505050565b6000546001600160a01b031633146103995760405162461bcd60e51b815260040161028c90611208565b6103a38282610bd5565b5050565b600381815481106103b757600080fd5b60009182526020909120600290910201805460019091015490915082565b6000546001600160a01b031633146103ff5760405162461bcd60e51b815260040161028c90611208565b6103a38282610cf7565b6000546001600160a01b031633146104335760405162461bcd60e51b815260040161028c90611208565b8281146104bc5760405162461bcd60e51b815260206004820152605a60248201526000805160206112ed83398151915260448201527f72793a206f776e6572426174636852656d6f76655370656369616c4e6674547960648201527f7065416e6452616e6b206c656e67746873206d69736d61746368000000000000608482015260a40161028c565b60005b83811015610368576105018585838181106104dc576104dc61123d565b905060200201358484848181106104f5576104f561123d565b90506020020135610e39565b8061050b81611269565b9150506104bf565b6000546001600160a01b0316331461053d5760405162461bcd60e51b815260040161028c90611208565b6105476000610f6f565b565b6000805b6003548110156106675760006003828154811061056c5761056c61123d565b60009182526020918290206040805180820182526002939093029091018054808452600190910154938301849052905163541e8f6b60e11b8152600481019190915260248101929092526001600160a01b0386811660448401529092507f0000000000000000000000000000000000000000000000000000000000000000169063a83d1ed69060640160206040518083038186803b15801561060d57600080fd5b505afa158015610621573d6000803e3d6000fd5b505050506040513d601f19601f820116820180604052508101906106459190611284565b15610654575060019392505050565b508061065f81611269565b91505061054d565b5060405163f978fff160e01b81526001600160a01b0383811660048301526000917f00000000000000000000000000000000000000000000000000000000000000009091169063f978fff19060240160206040518083038186803b1580156106ce57600080fd5b505afa1580156106e2573d6000803e3d6000fd5b505050506040513d601f19601f8201168201806040525081019061070691906112a6565b905060015481101561071b5750600092915050565b60005b6002548110156108395760006002828154811061073d5761073d61123d565b60009182526020918290206040805180820182526002939093029091018054808452600190910154938301849052905163541e8f6b60e11b8152600481019190915260248101929092526001600160a01b0387811660448401529092507f0000000000000000000000000000000000000000000000000000000000000000169063a83d1ed69060640160206040518083038186803b1580156107de57600080fd5b505afa1580156107f2573d6000803e3d6000fd5b505050506040513d601f19601f820116820180604052508101906108169190611284565b1561082657506001949350505050565b508061083181611269565b91505061071e565b5060009392505050565b6000546001600160a01b0316331461086d5760405162461bcd60e51b815260040161028c90611208565b8281146108ec5760405162461bcd60e51b815260206004820152605360248201526000805160206112ed83398151915260448201527f72793a206f776e6572426174636852656d6f76654e667454797065416e6452616064820152720dcd640d8cadccee8d0e640dad2e6dac2e8c6d606b1b608482015260a40161028c565b60005b838110156103685761093185858381811061090c5761090c61123d565b905060200201358484848181106109255761092561123d565b90506020020135610cf7565b8061093b81611269565b9150506108ef565b600281815481106103b757600080fd5b6000546001600160a01b0316331461097d5760405162461bcd60e51b815260040161028c90611208565b8060015414156109fd5760405162461bcd60e51b815260206004820152605160248201526000805160206112ed83398151915260448201527f72793a2074727920746f207570646174652077697468207468652073616d65206064820152701cdd185ada5b99c81d1a1c995cda1bdb19607a1b608482015260a40161028c565b600181905560405181907fadfa8ecb21b6962ebcd0adbd9ab985b7b4c5b5eb3b0dead683171565c7bfe17190600090a250565b6000546001600160a01b03163314610a5a5760405162461bcd60e51b815260040161028c90611208565b6001600160a01b038116610abf5760405162461bcd60e51b815260206004820152602660248201527f4f776e61626c653a206e6577206f776e657220697320746865207a65726f206160448201526564647265737360d01b606482015260840161028c565b610ac881610f6f565b50565b6000546001600160a01b03163314610af55760405162461bcd60e51b815260040161028c90611208565b828114610b7e5760405162461bcd60e51b815260206004820152605760248201526000805160206112ed83398151915260448201527f72793a206f776e657242617463684164645370656369616c4e6674547970654160648201527f6e6452616e6b206c656e67746873206d69736d61746368000000000000000000608482015260a40161028c565b60005b8381101561036857610bc3858583818110610b9e57610b9e61123d565b90506020020135848484818110610bb757610bb761123d565b90506020020135610fbf565b80610bcd81611269565b915050610b81565b60005b600254811015610c54578260028281548110610bf657610bf661123d565b906000526020600020906002020160000154148015610c3857508160028281548110610c2457610c2461123d565b906000526020600020906002020160010154145b15610c4257505050565b80610c4c81611269565b915050610bd8565b60408051808201825284815260208101848152600280546001810182556000828152935191027f405787fa12a823e0f2b7631cc41b3ba8828b3321ca811111fa75cd3aa3bb5ace81019190915590517f405787fa12a823e0f2b7631cc41b3ba8828b3321ca811111fa75cd3aa3bb5acf909101559051839185917ff7bae3c106276a3b0547840e398e621bb02e2e352c5fc7ffdb82ee7f2541dfe09190a3505050565b60005b600254811015610e34578260028281548110610d1857610d1861123d565b906000526020600020906002020160000154148015610d5a57508160028281548110610d4657610d4661123d565b906000526020600020906002020160010154145b15610e225760028054610d6f906001906112bf565b81548110610d7f57610d7f61123d565b906000526020600020906002020160028281548110610da057610da061123d565b906000526020600020906002020160008201548160000155600182015481600101559050506002805480610dd657610dd66112d6565b6000828152602081206002600019909301928302018181556001018190559155604051839185917f2384d17d3bc22757fb4abc8d3b19b77b82e08e84bdffefaeb7e3d47a4e5ea9099190a35b80610e2c81611269565b915050610cfa565b505050565b60005b600354811015610e34578260038281548110610e5a57610e5a61123d565b906000526020600020906002020160000154148015610e9c57508160038281548110610e8857610e8861123d565b906000526020600020906002020160010154145b15610f5d5760038054610eb1906001906112bf565b81548110610ec157610ec161123d565b906000526020600020906002020160038281548110610ee257610ee261123d565b6000918252602090912082546002909202019081556001918201549101556003805480610f1157610f116112d6565b6000828152602081206002600019909301928302018181556001018190559155604051839185917f7e364a77c0867754d27a22db79c10b49f78fa98ff87ce51c36cc9bb6c4d502589190a35b80610f6781611269565b915050610e3c565b600080546001600160a01b038381166001600160a01b0319831681178455604051919092169283917f8be0079c531659141344cd1fd0a4f28419497f9722a3daafe3b4186f6b6457e09190a35050565b60005b60035481101561103e578260038281548110610fe057610fe061123d565b9060005260206000209060020201600001541480156110225750816003828154811061100e5761100e61123d565b906000526020600020906002020160010154145b1561102c57505050565b8061103681611269565b915050610fc2565b6040805180820182528481526020810184815260038054600181018255600091825292517fc2575a0e9e593c00f959f8c92f12db2869c3395a3b0502d05e2516446f71f85b60029094029384015590517fc2575a0e9e593c00f959f8c92f12db2869c3395a3b0502d05e2516446f71f85c909201919091559051839185917fa9ba603aa3eaf4973bcaa129203bd5d1b1a8c9f0357b81dfe92926adc61be8599190a3505050565b60008083601f8401126110f757600080fd5b50813567ffffffffffffffff81111561110f57600080fd5b6020830191508360208260051b850101111561112a57600080fd5b9250929050565b6000806000806040858703121561114757600080fd5b843567ffffffffffffffff8082111561115f57600080fd5b61116b888389016110e5565b9096509450602087013591508082111561118457600080fd5b50611191878288016110e5565b95989497509550505050565b600080604083850312156111b057600080fd5b50508035926020909101359150565b6000602082840312156111d157600080fd5b5035919050565b6000602082840312156111ea57600080fd5b81356001600160a01b038116811461120157600080fd5b9392505050565b6020808252818101527f4f776e61626c653a2063616c6c6572206973206e6f7420746865206f776e6572604082015260600190565b634e487b7160e01b600052603260045260246000fd5b634e487b7160e01b600052601160045260246000fd5b600060001982141561127d5761127d611253565b5060010190565b60006020828403121561129657600080fd5b8151801515811461120157600080fd5b6000602082840312156112b857600080fd5b5051919050565b6000828210156112d1576112d1611253565b500390565b634e487b7160e01b600052603160045260246000fdfe486f70725374616b696e6750726f7879466f724e6574776f726b526567697374a26469706673582212206af4fdac5a08e25df104bd6ff09f11c67b6f8eab8d84ed2bc5f1e2d4affa860664736f6c63430008090033",
  "devdoc": {
    "details": "Proxy for staking (v2/v3) contract, which an \"HoprNetworkRegistry requirement\" is implemented Only accounts with HoprBoost NFTs that are of the type and rank in the `eligibleNftTypeAndRank` array are considered as eligible, when their stake is also above the `stakeThreshold`",
    "kind": "dev",
    "methods": {
      "isRequirementFulfilled(address)": {
        "details": "Checks if the provided account has a) special NFTs, e.g. \"Dev NFT\" b) redeemed any NFT of eligibleNftTypeAndRank and staked HOPR tokens above the `threshold`",
        "params": {
          "account": "staker address that has a hopr nodes running"
        }
      },
      "owner()": {
        "details": "Returns the address of the current owner."
      },
      "ownerAddNftTypeAndRank(uint256,uint256)": {
        "details": "Owner adds/updates NFT type and rank to the list of eligibles NFTs.",
        "params": {
          "nftRank": "HOPR boost numerator, which is associated to the eligible NFT",
          "nftType": "Type index of the eligible HoprBoost NFT"
        }
      },
      "ownerBatchAddNftTypeAndRank(uint256[],uint256[])": {
        "details": "Owner adds/updates NFT type and rank to the list of eligibles NFTs in batch.",
        "params": {
          "nftRanks": "Array of HOPR boost numerator, which is associated to the eligible NFT",
          "nftTypes": "Array of type indexes of the eligible HoprBoost NFT"
        }
      },
      "ownerBatchAddSpecialNftTypeAndRank(uint256[],uint256[])": {
        "details": "Owner adds/updates NFT type and rank to the list of special NFTs in batch.",
        "params": {
          "nftRanks": "Array of HOPR boost numerator, which is associated to the special NFT",
          "nftTypes": "Array of type indexes of the special HoprBoost NFT"
        }
      },
      "ownerBatchRemoveNftTypeAndRank(uint256[],uint256[])": {
        "details": "Owner removes from list of eligible NFTs in batch.",
        "params": {
          "nftRanks": "Array of  HOPR boost numerator, which is associated to the eligible NFT",
          "nftTypes": "Array of type index of the eligible HoprBoost NFT"
        }
      },
      "ownerBatchRemoveSpecialNftTypeAndRank(uint256[],uint256[])": {
        "details": "Owner removes from list of special NFTs in batch.",
        "params": {
          "nftRanks": "Array of  HOPR boost numerator, which is associated to the special NFT",
          "nftTypes": "Array of type index of the special HoprBoost NFT"
        }
      },
      "ownerRemoveNftTypeAndRank(uint256,uint256)": {
        "details": "Owner removes from list of eligible NFTs",
        "params": {
          "nftRank": "HOPR boost numerator, which is associated to the eligible NFT",
          "nftType": "Type index of the eligible HoprBoost NFT"
        }
      },
      "ownerUpdateThreshold(uint256)": {
        "details": "Owner updates the minimal staking amount required for users to add themselves onto the HoprNetworkRegistry",
        "params": {
          "newThreshold": "Minimum stake of HOPR token"
        }
      },
      "renounceOwnership()": {
        "details": "Leaves the contract without owner. It will not be possible to call `onlyOwner` functions anymore. Can only be called by the current owner. NOTE: Renouncing ownership will leave the contract without an owner, thereby removing any functionality that is only available to the owner."
      },
      "transferOwnership(address)": {
        "details": "Transfers ownership of the contract to a new account (`newOwner`). Can only be called by the current owner."
      }
    },
    "version": 1
  },
  "userdoc": {
    "kind": "user",
    "methods": {},
    "version": 1
  },
  "storageLayout": {
    "storage": [
      {
        "astId": 539,
        "contract": "contracts/proxy/HoprStakingProxyForNetworkRegistry.sol:HoprStakingProxyForNetworkRegistry",
        "label": "_owner",
        "offset": 0,
        "slot": "0",
        "type": "t_address"
      },
      {
        "astId": 9328,
        "contract": "contracts/proxy/HoprStakingProxyForNetworkRegistry.sol:HoprStakingProxyForNetworkRegistry",
        "label": "stakeThreshold",
        "offset": 0,
        "slot": "1",
        "type": "t_uint256"
      },
      {
        "astId": 9332,
        "contract": "contracts/proxy/HoprStakingProxyForNetworkRegistry.sol:HoprStakingProxyForNetworkRegistry",
        "label": "eligibleNftTypeAndRank",
        "offset": 0,
        "slot": "2",
        "type": "t_array(t_struct(NftTypeAndRank)9323_storage)dyn_storage"
      },
      {
        "astId": 9336,
        "contract": "contracts/proxy/HoprStakingProxyForNetworkRegistry.sol:HoprStakingProxyForNetworkRegistry",
        "label": "specialNftTypeAndRank",
        "offset": 0,
        "slot": "3",
        "type": "t_array(t_struct(NftTypeAndRank)9323_storage)dyn_storage"
      }
    ],
    "types": {
      "t_address": {
        "encoding": "inplace",
        "label": "address",
        "numberOfBytes": "20"
      },
      "t_array(t_struct(NftTypeAndRank)9323_storage)dyn_storage": {
        "base": "t_struct(NftTypeAndRank)9323_storage",
        "encoding": "dynamic_array",
        "label": "struct HoprStakingProxyForNetworkRegistry.NftTypeAndRank[]",
        "numberOfBytes": "32"
      },
      "t_struct(NftTypeAndRank)9323_storage": {
        "encoding": "inplace",
        "label": "struct HoprStakingProxyForNetworkRegistry.NftTypeAndRank",
        "members": [
          {
            "astId": 9320,
            "contract": "contracts/proxy/HoprStakingProxyForNetworkRegistry.sol:HoprStakingProxyForNetworkRegistry",
            "label": "nftType",
            "offset": 0,
            "slot": "0",
            "type": "t_uint256"
          },
          {
            "astId": 9322,
            "contract": "contracts/proxy/HoprStakingProxyForNetworkRegistry.sol:HoprStakingProxyForNetworkRegistry",
            "label": "nftRank",
            "offset": 0,
            "slot": "1",
            "type": "t_uint256"
          }
        ],
        "numberOfBytes": "64"
      },
      "t_uint256": {
        "encoding": "inplace",
        "label": "uint256",
        "numberOfBytes": "32"
      }
    }
  }
}