{
	"abi": [
		{
			"anonymous": true,
			"inputs": [
				{
					"indexed": true,
					"internalType": "bytes32",
					"name": "challenge",
					"type": "bytes32"
				}
			],
			"name": "Challenge",
			"type": "event"
		},
		{
			"anonymous": false,
			"inputs": [
				{
					"indexed": true,
					"internalType": "bytes32",
					"name": "channelId",
					"type": "bytes32"
				},
				{
					"indexed": false,
					"internalType": "bytes16",
					"name": "index",
					"type": "bytes16"
				},
				{
					"indexed": false,
					"internalType": "uint256",
					"name": "amountA",
					"type": "uint256"
				}
			],
			"name": "ClosedChannel",
			"type": "event"
		},
		{
			"anonymous": false,
			"inputs": [
				{
					"indexed": true,
					"internalType": "bytes32",
					"name": "channelId",
					"type": "bytes32"
				},
				{
					"indexed": false,
					"internalType": "uint256",
					"name": "amountA",
					"type": "uint256"
				},
				{
					"indexed": false,
					"internalType": "uint256",
					"name": "amount",
					"type": "uint256"
				}
			],
			"name": "OpenedChannel",
			"type": "event"
		},
		{
			"anonymous": false,
			"inputs": [
				{
					"indexed": true,
					"internalType": "address",
					"name": "partyA",
					"type": "address"
				},
				{
					"indexed": true,
					"internalType": "address",
					"name": "partyB",
					"type": "address"
				},
				{
					"indexed": false,
					"internalType": "uint256",
					"name": "amountA",
					"type": "uint256"
				},
				{
					"indexed": false,
					"internalType": "uint256",
					"name": "amount",
					"type": "uint256"
				}
			],
			"name": "OpenedChannelFor",
			"type": "event"
		},
		{
			"payable": true,
			"stateMutability": "payable",
			"type": "fallback"
		},
		{
			"constant": true,
			"inputs": [
				{
					"internalType": "bytes32",
					"name": "",
					"type": "bytes32"
				}
			],
			"name": "channels",
			"outputs": [
				{
					"internalType": "enum HoprChannel.ChannelState",
					"name": "state",
					"type": "uint8"
				},
				{
					"internalType": "uint256",
					"name": "balance",
					"type": "uint256"
				},
				{
					"internalType": "uint256",
					"name": "balanceA",
					"type": "uint256"
				},
				{
					"internalType": "bytes16",
					"name": "index",
					"type": "bytes16"
				},
				{
					"internalType": "uint256",
					"name": "settleTimestamp",
					"type": "uint256"
				}
			],
			"payable": false,
			"stateMutability": "view",
			"type": "function"
		},
		{
			"constant": false,
			"inputs": [
				{
					"internalType": "bytes16",
					"name": "index",
					"type": "bytes16"
				},
				{
					"internalType": "bytes16",
					"name": "nonce",
					"type": "bytes16"
				},
				{
					"internalType": "uint256",
					"name": "balanceA",
					"type": "uint256"
				},
				{
					"internalType": "bytes32",
					"name": "curvePointFirst",
					"type": "bytes32"
				},
				{
					"internalType": "bytes1",
					"name": "curvePointSecond",
					"type": "bytes1"
				},
				{
					"internalType": "bytes32",
					"name": "r",
					"type": "bytes32"
				},
				{
					"internalType": "bytes32",
					"name": "s",
					"type": "bytes32"
				},
				{
					"internalType": "uint8",
					"name": "v",
					"type": "uint8"
				}
			],
			"name": "closeChannel",
			"outputs": [],
			"payable": false,
			"stateMutability": "nonpayable",
			"type": "function"
		},
		{
			"constant": false,
			"inputs": [
				{
					"internalType": "address",
					"name": "partyA",
					"type": "address"
				},
				{
					"internalType": "address",
					"name": "partyB",
					"type": "address"
				}
			],
			"name": "createFor",
			"outputs": [],
			"payable": true,
			"stateMutability": "payable",
			"type": "function"
		},
		{
			"constant": false,
			"inputs": [
				{
					"internalType": "bytes16",
					"name": "nonce",
					"type": "bytes16"
				},
				{
					"internalType": "uint256",
					"name": "funds",
					"type": "uint256"
				},
				{
					"internalType": "bytes32",
					"name": "r",
					"type": "bytes32"
				},
				{
					"internalType": "bytes32",
					"name": "s",
					"type": "bytes32"
				},
				{
					"internalType": "uint8",
					"name": "v",
					"type": "uint8"
				}
			],
			"name": "createFunded",
			"outputs": [],
			"payable": false,
			"stateMutability": "nonpayable",
			"type": "function"
		},
		{
			"constant": true,
			"inputs": [
				{
					"internalType": "bytes16",
					"name": "",
					"type": "bytes16"
				}
			],
			"name": "nonces",
			"outputs": [
				{
					"internalType": "bool",
					"name": "",
					"type": "bool"
				}
			],
			"payable": false,
			"stateMutability": "view",
			"type": "function"
		},
		{
			"constant": false,
			"inputs": [
				{
					"internalType": "address",
					"name": "beneficiary",
					"type": "address"
				}
			],
			"name": "stakeFor",
			"outputs": [],
			"payable": true,
			"stateMutability": "payable",
			"type": "function"
		},
		{
			"constant": true,
			"inputs": [
				{
					"internalType": "address",
					"name": "",
					"type": "address"
				}
			],
			"name": "states",
			"outputs": [
				{
					"internalType": "bool",
					"name": "isSet",
					"type": "bool"
				},
				{
					"internalType": "uint256",
					"name": "openChannels",
					"type": "uint256"
				},
				{
					"internalType": "uint256",
					"name": "stakedEther",
					"type": "uint256"
				}
			],
			"payable": false,
			"stateMutability": "view",
			"type": "function"
		},
		{
			"constant": false,
			"inputs": [
				{
					"internalType": "uint256",
					"name": "amount",
					"type": "uint256"
				}
			],
			"name": "unstakeEther",
			"outputs": [],
			"payable": false,
			"stateMutability": "nonpayable",
			"type": "function"
		},
		{
			"constant": false,
			"inputs": [
				{
					"internalType": "address",
					"name": "counterParty",
					"type": "address"
				}
			],
			"name": "withdraw",
			"outputs": [],
			"payable": false,
			"stateMutability": "nonpayable",
			"type": "function"
		},
		{
			"constant": true,
			"inputs": [
				{
					"internalType": "bytes32",
					"name": "rChallenge",
					"type": "bytes32"
				},
				{
					"internalType": "bytes32",
					"name": "sChallenge",
					"type": "bytes32"
				},
				{
					"internalType": "bytes32",
					"name": "rResponse",
					"type": "bytes32"
				},
				{
					"internalType": "bytes32",
					"name": "sResponse",
					"type": "bytes32"
				},
				{
					"internalType": "bytes32",
					"name": "keyHalf",
					"type": "bytes32"
				},
				{
					"internalType": "uint8",
					"name": "vChallenge",
					"type": "uint8"
				},
				{
					"internalType": "uint8",
					"name": "vResponse",
					"type": "uint8"
				}
			],
			"name": "wrongAcknowledgement",
			"outputs": [],
			"payable": false,
			"stateMutability": "view",
			"type": "function"
		}
	],
	"devdoc": {
		"methods": {
			"closeChannel(bytes16,bytes16,uint256,bytes32,bytes1,bytes32,bytes32,uint8)": {
				"params": {
					"balanceA": "uint256",
					"index": "bytes16",
					"nonce": "bytes16",
					"r": "bytes32",
					"s": "bytes32",
					"v": "bytes1"
				}
			},
			"createFor(address,address)": {
				"params": {
					"partyA": "address first party",
					"partyB": "address second party"
				}
			},
			"createFunded(bytes16,uint256,bytes32,bytes32,uint8)": {
				"params": {
					"funds": "uint256 how much money both parties put into the channel",
					"nonce": "nonce to prevent against replay attacks",
					"r": "bytes32 signature first part",
					"s": "bytes32 signature second part",
					"v": "uint8 version"
				}
			},
			"stakeFor(address)": {
				"params": {
					"beneficiary": "address the benificiary who receives the stake"
				}
			},
			"unstakeEther(uint256)": {
				"params": {
					"amount": "uint256"
				}
			},
			"withdraw(address)": {
				"params": {
					"counterParty": "address of the counter party"
				}
			},
			"wrongAcknowledgement(bytes32,bytes32,bytes32,bytes32,bytes32,uint8,uint8)": {
				"params": {
					"keyHalf": "bytes32 ",
					"rChallenge": "bytes32 first part of challenge signature",
					"rResponse": "bytes32 first part of response signature",
					"sChallenge": "bytes32 second part of challenge signature",
					"sResponse": "bytes32 second part of response signature",
					"vChallenge": "uint8 version (either 27 or 28)",
					"vResponse": "uint8 version (either 27 or 28)"
				}
			}
		}
	},
	"evm": {
		"assembly": "    /* \"/Volumes/DEV/hopr/hopr-core/contracts/HoprChannel.sol\":86:11775  contract HoprChannel {... */\n  mstore(0x40, 0x80)\n  callvalue\n    /* \"--CODEGEN--\":8:17   */\n  dup1\n    /* \"--CODEGEN--\":5:7   */\n  iszero\n  tag_1\n  jumpi\n    /* \"--CODEGEN--\":30:31   */\n  0x00\n    /* \"--CODEGEN--\":27:28   */\n  dup1\n    /* \"--CODEGEN--\":20:32   */\n  revert\n    /* \"--CODEGEN--\":5:7   */\ntag_1:\n    /* \"/Volumes/DEV/hopr/hopr-core/contracts/HoprChannel.sol\":86:11775  contract HoprChannel {... */\n  pop\n  dataSize(sub_0)\n  dup1\n  dataOffset(sub_0)\n  0x00\n  codecopy\n  0x00\n  return\nstop\n\nsub_0: assembly {\n        /* \"/Volumes/DEV/hopr/hopr-core/contracts/HoprChannel.sol\":86:11775  contract HoprChannel {... */\n      mstore(0x40, 0x80)\n      jumpi(tag_1, lt(calldatasize, 0x04))\n      shr(0xe0, calldataload(0x00))\n      dup1\n      0x75d452da\n      gt\n      tag_12\n      jumpi\n      dup1\n      0x75d452da\n      eq\n      tag_7\n      jumpi\n      dup1\n      0x7a7ebd7b\n      eq\n      tag_8\n      jumpi\n      dup1\n      0xa044f5a3\n      eq\n      tag_9\n      jumpi\n      dup1\n      0xb38e58a3\n      eq\n      tag_10\n      jumpi\n      dup1\n      0xe58cbc2c\n      eq\n      tag_11\n      jumpi\n      jump(tag_1)\n    tag_12:\n      dup1\n      0x02a22337\n      eq\n      tag_2\n      jumpi\n      dup1\n      0x2fd61f92\n      eq\n      tag_3\n      jumpi\n      dup1\n      0x4bf69206\n      eq\n      tag_4\n      jumpi\n      dup1\n      0x51cff8d9\n      eq\n      tag_5\n      jumpi\n      dup1\n      0x6c7a9d87\n      eq\n      tag_6\n      jumpi\n    tag_1:\n        /* \"/Volumes/DEV/hopr/hopr-core/contracts/HoprChannel.sol\":2152:2172  stakeFor(msg.sender) */\n      tag_15\n        /* \"/Volumes/DEV/hopr/hopr-core/contracts/HoprChannel.sol\":2161:2171  msg.sender */\n      caller\n        /* \"/Volumes/DEV/hopr/hopr-core/contracts/HoprChannel.sol\":2152:2160  stakeFor */\n      tag_16\n        /* \"/Volumes/DEV/hopr/hopr-core/contracts/HoprChannel.sol\":2152:2172  stakeFor(msg.sender) */\n      jump\t// in\n    tag_15:\n        /* \"/Volumes/DEV/hopr/hopr-core/contracts/HoprChannel.sol\":86:11775  contract HoprChannel {... */\n      stop\n        /* \"/Volumes/DEV/hopr/hopr-core/contracts/HoprChannel.sol\":1740:1779  mapping(address => State) public states */\n    tag_2:\n      callvalue\n        /* \"--CODEGEN--\":8:17   */\n      dup1\n        /* \"--CODEGEN--\":5:7   */\n      iszero\n      tag_17\n      jumpi\n        /* \"--CODEGEN--\":30:31   */\n      0x00\n        /* \"--CODEGEN--\":27:28   */\n      dup1\n        /* \"--CODEGEN--\":20:32   */\n      revert\n        /* \"--CODEGEN--\":5:7   */\n    tag_17:\n        /* \"/Volumes/DEV/hopr/hopr-core/contracts/HoprChannel.sol\":1740:1779  mapping(address => State) public states */\n      pop\n      tag_18\n      0x04\n      dup1\n      calldatasize\n      sub\n        /* \"--CODEGEN--\":13:15   */\n      0x20\n        /* \"--CODEGEN--\":8:11   */\n      dup2\n        /* \"--CODEGEN--\":5:16   */\n      lt\n        /* \"--CODEGEN--\":2:4   */\n      iszero\n      tag_19\n      jumpi\n        /* \"--CODEGEN--\":29:30   */\n      0x00\n        /* \"--CODEGEN--\":26:27   */\n      dup1\n        /* \"--CODEGEN--\":19:31   */\n      revert\n        /* \"--CODEGEN--\":2:4   */\n    tag_19:\n      pop\n        /* \"/Volumes/DEV/hopr/hopr-core/contracts/HoprChannel.sol\":1740:1779  mapping(address => State) public states */\n      calldataload\n      sub(shl(0xa0, 0x01), 0x01)\n      and\n      tag_20\n      jump\t// in\n    tag_18:\n      0x40\n      dup1\n      mload\n      swap4\n      iszero\n      iszero\n      dup5\n      mstore\n      0x20\n      dup5\n      add\n      swap3\n      swap1\n      swap3\n      mstore\n      dup3\n      dup3\n      add\n      mstore\n      mload\n      swap1\n      dup2\n      swap1\n      sub\n      0x60\n      add\n      swap1\n      return\n        /* \"/Volumes/DEV/hopr/hopr-core/contracts/HoprChannel.sol\":4054:4475  function unstakeEther(uint256 amount) public enoughFunds(amount) {... */\n    tag_3:\n      callvalue\n        /* \"--CODEGEN--\":8:17   */\n      dup1\n        /* \"--CODEGEN--\":5:7   */\n      iszero\n      tag_21\n      jumpi\n        /* \"--CODEGEN--\":30:31   */\n      0x00\n        /* \"--CODEGEN--\":27:28   */\n      dup1\n        /* \"--CODEGEN--\":20:32   */\n      revert\n        /* \"--CODEGEN--\":5:7   */\n    tag_21:\n        /* \"/Volumes/DEV/hopr/hopr-core/contracts/HoprChannel.sol\":4054:4475  function unstakeEther(uint256 amount) public enoughFunds(amount) {... */\n      pop\n      tag_15\n      0x04\n      dup1\n      calldatasize\n      sub\n        /* \"--CODEGEN--\":13:15   */\n      0x20\n        /* \"--CODEGEN--\":8:11   */\n      dup2\n        /* \"--CODEGEN--\":5:16   */\n      lt\n        /* \"--CODEGEN--\":2:4   */\n      iszero\n      tag_23\n      jumpi\n        /* \"--CODEGEN--\":29:30   */\n      0x00\n        /* \"--CODEGEN--\":26:27   */\n      dup1\n        /* \"--CODEGEN--\":19:31   */\n      revert\n        /* \"--CODEGEN--\":2:4   */\n    tag_23:\n      pop\n        /* \"/Volumes/DEV/hopr/hopr-core/contracts/HoprChannel.sol\":4054:4475  function unstakeEther(uint256 amount) public enoughFunds(amount) {... */\n      calldataload\n      tag_24\n      jump\t// in\n        /* \"/Volumes/DEV/hopr/hopr-core/contracts/HoprChannel.sol\":2319:2672  function stakeFor(address beneficiary) payable public {... */\n    tag_4:\n      tag_15\n      0x04\n      dup1\n      calldatasize\n      sub\n        /* \"--CODEGEN--\":13:15   */\n      0x20\n        /* \"--CODEGEN--\":8:11   */\n      dup2\n        /* \"--CODEGEN--\":5:16   */\n      lt\n        /* \"--CODEGEN--\":2:4   */\n      iszero\n      tag_26\n      jumpi\n        /* \"--CODEGEN--\":29:30   */\n      0x00\n        /* \"--CODEGEN--\":26:27   */\n      dup1\n        /* \"--CODEGEN--\":19:31   */\n      revert\n        /* \"--CODEGEN--\":2:4   */\n    tag_26:\n      pop\n        /* \"/Volumes/DEV/hopr/hopr-core/contracts/HoprChannel.sol\":2319:2672  function stakeFor(address beneficiary) payable public {... */\n      calldataload\n      sub(shl(0xa0, 0x01), 0x01)\n      and\n      tag_16\n      jump\t// in\n        /* \"/Volumes/DEV/hopr/hopr-core/contracts/HoprChannel.sol\":9592:11093  function withdraw(address counterParty) external {... */\n    tag_5:\n      callvalue\n        /* \"--CODEGEN--\":8:17   */\n      dup1\n        /* \"--CODEGEN--\":5:7   */\n      iszero\n      tag_27\n      jumpi\n        /* \"--CODEGEN--\":30:31   */\n      0x00\n        /* \"--CODEGEN--\":27:28   */\n      dup1\n        /* \"--CODEGEN--\":20:32   */\n      revert\n        /* \"--CODEGEN--\":5:7   */\n    tag_27:\n        /* \"/Volumes/DEV/hopr/hopr-core/contracts/HoprChannel.sol\":9592:11093  function withdraw(address counterParty) external {... */\n      pop\n      tag_15\n      0x04\n      dup1\n      calldatasize\n      sub\n        /* \"--CODEGEN--\":13:15   */\n      0x20\n        /* \"--CODEGEN--\":8:11   */\n      dup2\n        /* \"--CODEGEN--\":5:16   */\n      lt\n        /* \"--CODEGEN--\":2:4   */\n      iszero\n      tag_29\n      jumpi\n        /* \"--CODEGEN--\":29:30   */\n      0x00\n        /* \"--CODEGEN--\":26:27   */\n      dup1\n        /* \"--CODEGEN--\":19:31   */\n      revert\n        /* \"--CODEGEN--\":2:4   */\n    tag_29:\n      pop\n        /* \"/Volumes/DEV/hopr/hopr-core/contracts/HoprChannel.sol\":9592:11093  function withdraw(address counterParty) external {... */\n      calldataload\n      sub(shl(0xa0, 0x01), 0x01)\n      and\n      tag_30\n      jump\t// in\n        /* \"/Volumes/DEV/hopr/hopr-core/contracts/HoprChannel.sol\":1871:1909  mapping(bytes16 => bool) public nonces */\n    tag_6:\n      callvalue\n        /* \"--CODEGEN--\":8:17   */\n      dup1\n        /* \"--CODEGEN--\":5:7   */\n      iszero\n      tag_31\n      jumpi\n        /* \"--CODEGEN--\":30:31   */\n      0x00\n        /* \"--CODEGEN--\":27:28   */\n      dup1\n        /* \"--CODEGEN--\":20:32   */\n      revert\n        /* \"--CODEGEN--\":5:7   */\n    tag_31:\n        /* \"/Volumes/DEV/hopr/hopr-core/contracts/HoprChannel.sol\":1871:1909  mapping(bytes16 => bool) public nonces */\n      pop\n      tag_32\n      0x04\n      dup1\n      calldatasize\n      sub\n        /* \"--CODEGEN--\":13:15   */\n      0x20\n        /* \"--CODEGEN--\":8:11   */\n      dup2\n        /* \"--CODEGEN--\":5:16   */\n      lt\n        /* \"--CODEGEN--\":2:4   */\n      iszero\n      tag_33\n      jumpi\n        /* \"--CODEGEN--\":29:30   */\n      0x00\n        /* \"--CODEGEN--\":26:27   */\n      dup1\n        /* \"--CODEGEN--\":19:31   */\n      revert\n        /* \"--CODEGEN--\":2:4   */\n    tag_33:\n      pop\n        /* \"/Volumes/DEV/hopr/hopr-core/contracts/HoprChannel.sol\":1871:1909  mapping(bytes16 => bool) public nonces */\n      calldataload\n      not(sub(shl(0x80, 0x01), 0x01))\n      and\n      tag_34\n      jump\t// in\n    tag_32:\n      0x40\n      dup1\n      mload\n      swap2\n      iszero\n      iszero\n      dup3\n      mstore\n      mload\n      swap1\n      dup2\n      swap1\n      sub\n      0x20\n      add\n      swap1\n      return\n        /* \"/Volumes/DEV/hopr/hopr-core/contracts/HoprChannel.sol\":4825:6027  function createFunded(bytes16 nonce, uint256 funds, bytes32 r, bytes32 s, uint8 v) external enoughFunds(funds) {... */\n    tag_7:\n      callvalue\n        /* \"--CODEGEN--\":8:17   */\n      dup1\n        /* \"--CODEGEN--\":5:7   */\n      iszero\n      tag_35\n      jumpi\n        /* \"--CODEGEN--\":30:31   */\n      0x00\n        /* \"--CODEGEN--\":27:28   */\n      dup1\n        /* \"--CODEGEN--\":20:32   */\n      revert\n        /* \"--CODEGEN--\":5:7   */\n    tag_35:\n        /* \"/Volumes/DEV/hopr/hopr-core/contracts/HoprChannel.sol\":4825:6027  function createFunded(bytes16 nonce, uint256 funds, bytes32 r, bytes32 s, uint8 v) external enoughFunds(funds) {... */\n      pop\n      tag_15\n      0x04\n      dup1\n      calldatasize\n      sub\n        /* \"--CODEGEN--\":13:16   */\n      0xa0\n        /* \"--CODEGEN--\":8:11   */\n      dup2\n        /* \"--CODEGEN--\":5:17   */\n      lt\n        /* \"--CODEGEN--\":2:4   */\n      iszero\n      tag_37\n      jumpi\n        /* \"--CODEGEN--\":30:31   */\n      0x00\n        /* \"--CODEGEN--\":27:28   */\n      dup1\n        /* \"--CODEGEN--\":20:32   */\n      revert\n        /* \"--CODEGEN--\":2:4   */\n    tag_37:\n      pop\n        /* \"/Volumes/DEV/hopr/hopr-core/contracts/HoprChannel.sol\":4825:6027  function createFunded(bytes16 nonce, uint256 funds, bytes32 r, bytes32 s, uint8 v) external enoughFunds(funds) {... */\n      dup1\n      calldataload\n      not(sub(shl(0x80, 0x01), 0x01))\n      and\n      swap1\n      0x20\n      dup2\n      add\n      calldataload\n      swap1\n      0x40\n      dup2\n      add\n      calldataload\n      swap1\n      0x60\n      dup2\n      add\n      calldataload\n      swap1\n      0x80\n      add\n      calldataload\n      0xff\n      and\n      tag_38\n      jump\t// in\n        /* \"/Volumes/DEV/hopr/hopr-core/contracts/HoprChannel.sol\":1334:1377  mapping(bytes32 => Channel) public channels */\n    tag_8:\n      callvalue\n        /* \"--CODEGEN--\":8:17   */\n      dup1\n        /* \"--CODEGEN--\":5:7   */\n      iszero\n      tag_39\n      jumpi\n        /* \"--CODEGEN--\":30:31   */\n      0x00\n        /* \"--CODEGEN--\":27:28   */\n      dup1\n        /* \"--CODEGEN--\":20:32   */\n      revert\n        /* \"--CODEGEN--\":5:7   */\n    tag_39:\n        /* \"/Volumes/DEV/hopr/hopr-core/contracts/HoprChannel.sol\":1334:1377  mapping(bytes32 => Channel) public channels */\n      pop\n      tag_40\n      0x04\n      dup1\n      calldatasize\n      sub\n        /* \"--CODEGEN--\":13:15   */\n      0x20\n        /* \"--CODEGEN--\":8:11   */\n      dup2\n        /* \"--CODEGEN--\":5:16   */\n      lt\n        /* \"--CODEGEN--\":2:4   */\n      iszero\n      tag_41\n      jumpi\n        /* \"--CODEGEN--\":29:30   */\n      0x00\n        /* \"--CODEGEN--\":26:27   */\n      dup1\n        /* \"--CODEGEN--\":19:31   */\n      revert\n        /* \"--CODEGEN--\":2:4   */\n    tag_41:\n      pop\n        /* \"/Volumes/DEV/hopr/hopr-core/contracts/HoprChannel.sol\":1334:1377  mapping(bytes32 => Channel) public channels */\n      calldataload\n      tag_42\n      jump\t// in\n    tag_40:\n      mload(0x40)\n      dup1\n      dup7\n      0x04\n      dup2\n      gt\n      iszero\n      tag_43\n      jumpi\n      invalid\n    tag_43:\n      0xff\n      and\n      dup2\n      mstore\n      0x20\n      dup2\n      add\n      swap6\n      swap1\n      swap6\n      mstore\n      pop\n      0x40\n      dup1\n      dup6\n      add\n      swap4\n      swap1\n      swap4\n      mstore\n      not(sub(shl(0x80, 0x01), 0x01))\n      swap1\n      swap2\n      and\n      0x60\n      dup5\n      add\n      mstore\n      0x80\n      dup4\n      add\n      mstore\n      mload\n      swap1\n      dup2\n      swap1\n      sub\n      0xa0\n      add\n      swap2\n      pop\n      return\n        /* \"/Volumes/DEV/hopr/hopr-core/contracts/HoprChannel.sol\":8292:9447  function wrongAcknowledgement(... */\n    tag_9:\n      callvalue\n        /* \"--CODEGEN--\":8:17   */\n      dup1\n        /* \"--CODEGEN--\":5:7   */\n      iszero\n      tag_44\n      jumpi\n        /* \"--CODEGEN--\":30:31   */\n      0x00\n        /* \"--CODEGEN--\":27:28   */\n      dup1\n        /* \"--CODEGEN--\":20:32   */\n      revert\n        /* \"--CODEGEN--\":5:7   */\n    tag_44:\n        /* \"/Volumes/DEV/hopr/hopr-core/contracts/HoprChannel.sol\":8292:9447  function wrongAcknowledgement(... */\n      pop\n      tag_15\n      0x04\n      dup1\n      calldatasize\n      sub\n        /* \"--CODEGEN--\":13:16   */\n      0xe0\n        /* \"--CODEGEN--\":8:11   */\n      dup2\n        /* \"--CODEGEN--\":5:17   */\n      lt\n        /* \"--CODEGEN--\":2:4   */\n      iszero\n      tag_46\n      jumpi\n        /* \"--CODEGEN--\":30:31   */\n      0x00\n        /* \"--CODEGEN--\":27:28   */\n      dup1\n        /* \"--CODEGEN--\":20:32   */\n      revert\n        /* \"--CODEGEN--\":2:4   */\n    tag_46:\n      pop\n        /* \"/Volumes/DEV/hopr/hopr-core/contracts/HoprChannel.sol\":8292:9447  function wrongAcknowledgement(... */\n      dup1\n      calldataload\n      swap1\n      0x20\n      dup2\n      add\n      calldataload\n      swap1\n      0x40\n      dup2\n      add\n      calldataload\n      swap1\n      0x60\n      dup2\n      add\n      calldataload\n      swap1\n      0x80\n      dup2\n      add\n      calldataload\n      swap1\n      0xff\n      0xa0\n      dup3\n      add\n      calldataload\n      dup2\n      and\n      swap2\n      0xc0\n      add\n      calldataload\n      and\n      tag_47\n      jump\t// in\n        /* \"/Volumes/DEV/hopr/hopr-core/contracts/HoprChannel.sol\":2949:3960  function createFor(address partyA, address partyB) payable public {... */\n    tag_10:\n      tag_15\n      0x04\n      dup1\n      calldatasize\n      sub\n        /* \"--CODEGEN--\":13:15   */\n      0x40\n        /* \"--CODEGEN--\":8:11   */\n      dup2\n        /* \"--CODEGEN--\":5:16   */\n      lt\n        /* \"--CODEGEN--\":2:4   */\n      iszero\n      tag_49\n      jumpi\n        /* \"--CODEGEN--\":29:30   */\n      0x00\n        /* \"--CODEGEN--\":26:27   */\n      dup1\n        /* \"--CODEGEN--\":19:31   */\n      revert\n        /* \"--CODEGEN--\":2:4   */\n    tag_49:\n      pop\n      sub(shl(0xa0, 0x01), 0x01)\n        /* \"/Volumes/DEV/hopr/hopr-core/contracts/HoprChannel.sol\":2949:3960  function createFor(address partyA, address partyB) payable public {... */\n      dup2\n      calldataload\n      dup2\n      and\n      swap2\n      0x20\n      add\n      calldataload\n      and\n      tag_50\n      jump\t// in\n        /* \"/Volumes/DEV/hopr/hopr-core/contracts/HoprChannel.sol\":6690:7679  function closeChannel(bytes16 index, bytes16 nonce, uint256 balanceA, bytes32 curvePointFirst, bytes1 curvePointSecond, bytes32 r, bytes32 s, uint8 v) public {... */\n    tag_11:\n      callvalue\n        /* \"--CODEGEN--\":8:17   */\n      dup1\n        /* \"--CODEGEN--\":5:7   */\n      iszero\n      tag_51\n      jumpi\n        /* \"--CODEGEN--\":30:31   */\n      0x00\n        /* \"--CODEGEN--\":27:28   */\n      dup1\n        /* \"--CODEGEN--\":20:32   */\n      revert\n        /* \"--CODEGEN--\":5:7   */\n    tag_51:\n        /* \"/Volumes/DEV/hopr/hopr-core/contracts/HoprChannel.sol\":6690:7679  function closeChannel(bytes16 index, bytes16 nonce, uint256 balanceA, bytes32 curvePointFirst, bytes1 curvePointSecond, bytes32 r, bytes32 s, uint8 v) public {... */\n      pop\n      tag_15\n      0x04\n      dup1\n      calldatasize\n      sub\n        /* \"--CODEGEN--\":13:16   */\n      0x0100\n        /* \"--CODEGEN--\":8:11   */\n      dup2\n        /* \"--CODEGEN--\":5:17   */\n      lt\n        /* \"--CODEGEN--\":2:4   */\n      iszero\n      tag_53\n      jumpi\n        /* \"--CODEGEN--\":30:31   */\n      0x00\n        /* \"--CODEGEN--\":27:28   */\n      dup1\n        /* \"--CODEGEN--\":20:32   */\n      revert\n        /* \"--CODEGEN--\":2:4   */\n    tag_53:\n      pop\n        /* \"/Volumes/DEV/hopr/hopr-core/contracts/HoprChannel.sol\":6690:7679  function closeChannel(bytes16 index, bytes16 nonce, uint256 balanceA, bytes32 curvePointFirst, bytes1 curvePointSecond, bytes32 r, bytes32 s, uint8 v) public {... */\n      dup1\n      calldataload\n      not(sub(shl(0x80, 0x01), 0x01))\n      swap1\n      dup2\n      and\n      swap2\n      0x20\n      dup2\n      add\n      calldataload\n      swap1\n      swap2\n      and\n      swap1\n      0x40\n      dup2\n      add\n      calldataload\n      swap1\n      0x60\n      dup2\n      add\n      calldataload\n      swap1\n      0x80\n      dup2\n      add\n      calldataload\n      not(sub(shl(0xf8, 0x01), 0x01))\n      and\n      swap1\n      0xa0\n      dup2\n      add\n      calldataload\n      swap1\n      0xc0\n      dup2\n      add\n      calldataload\n      swap1\n      0xe0\n      add\n      calldataload\n      0xff\n      and\n      tag_54\n      jump\t// in\n        /* \"/Volumes/DEV/hopr/hopr-core/contracts/HoprChannel.sol\":2319:2672  function stakeFor(address beneficiary) payable public {... */\n    tag_16:\n        /* \"/Volumes/DEV/hopr/hopr-core/contracts/HoprChannel.sol\":2387:2396  msg.value */\n      callvalue\n        /* \"/Volumes/DEV/hopr/hopr-core/contracts/HoprChannel.sol\":2387:2400  msg.value > 0 */\n      iszero\n        /* \"/Volumes/DEV/hopr/hopr-core/contracts/HoprChannel.sol\":2383:2666  if (msg.value > 0) {... */\n      tag_58\n      jumpi\n      sub(shl(0xa0, 0x01), 0x01)\n        /* \"/Volumes/DEV/hopr/hopr-core/contracts/HoprChannel.sol\":2421:2440  states[beneficiary] */\n      dup2\n      and\n      0x00\n      swap1\n      dup2\n      mstore\n        /* \"/Volumes/DEV/hopr/hopr-core/contracts/HoprChannel.sol\":2421:2427  states */\n      0x01\n        /* \"/Volumes/DEV/hopr/hopr-core/contracts/HoprChannel.sol\":2421:2440  states[beneficiary] */\n      0x20\n      mstore\n      0x40\n      swap1\n      keccak256\n        /* \"/Volumes/DEV/hopr/hopr-core/contracts/HoprChannel.sol\":2421:2446  states[beneficiary].isSet */\n      sload\n      0xff\n      and\n        /* \"/Volumes/DEV/hopr/hopr-core/contracts/HoprChannel.sol\":2416:2656  if (!states[beneficiary].isSet) {... */\n      tag_57\n      jumpi\n        /* \"/Volumes/DEV/hopr/hopr-core/contracts/HoprChannel.sol\":2488:2513  State(true, 0, msg.value) */\n      0x40\n      dup1\n      mload\n      0x60\n      dup2\n      add\n      dup3\n      mstore\n        /* \"/Volumes/DEV/hopr/hopr-core/contracts/HoprChannel.sol\":2494:2498  true */\n      0x01\n        /* \"/Volumes/DEV/hopr/hopr-core/contracts/HoprChannel.sol\":2488:2513  State(true, 0, msg.value) */\n      dup1\n      dup3\n      mstore\n      0x00\n      0x20\n      dup1\n      dup5\n      add\n      dup3\n      dup2\n      mstore\n        /* \"/Volumes/DEV/hopr/hopr-core/contracts/HoprChannel.sol\":2503:2512  msg.value */\n      callvalue\n        /* \"/Volumes/DEV/hopr/hopr-core/contracts/HoprChannel.sol\":2488:2513  State(true, 0, msg.value) */\n      dup6\n      dup8\n      add\n      swap1\n      dup2\n      mstore\n      sub(shl(0xa0, 0x01), 0x01)\n        /* \"/Volumes/DEV/hopr/hopr-core/contracts/HoprChannel.sol\":2466:2485  states[beneficiary] */\n      dup9\n      and\n      dup5\n      mstore\n      swap2\n      dup5\n      swap1\n      mstore\n      swap5\n      swap1\n      swap2\n      keccak256\n        /* \"/Volumes/DEV/hopr/hopr-core/contracts/HoprChannel.sol\":2466:2513  states[beneficiary] = State(true, 0, msg.value) */\n      swap3\n      mload\n      dup4\n      sload\n      not(0xff)\n      and\n      swap1\n      iszero\n      iszero\n      or\n      dup4\n      sstore\n      swap3\n      mload\n      swap1\n      dup3\n      add\n      sstore\n      swap1\n      mload\n      0x02\n      swap1\n      swap2\n      add\n      sstore\n        /* \"/Volumes/DEV/hopr/hopr-core/contracts/HoprChannel.sol\":2416:2656  if (!states[beneficiary].isSet) {... */\n      jump(tag_58)\n    tag_57:\n      sub(shl(0xa0, 0x01), 0x01)\n        /* \"/Volumes/DEV/hopr/hopr-core/contracts/HoprChannel.sol\":2586:2605  states[beneficiary] */\n      dup2\n      and\n      0x00\n      swap1\n      dup2\n      mstore\n        /* \"/Volumes/DEV/hopr/hopr-core/contracts/HoprChannel.sol\":2586:2592  states */\n      0x01\n        /* \"/Volumes/DEV/hopr/hopr-core/contracts/HoprChannel.sol\":2586:2605  states[beneficiary] */\n      0x20\n      mstore\n      0x40\n      swap1\n      keccak256\n        /* \"/Volumes/DEV/hopr/hopr-core/contracts/HoprChannel.sol\":2586:2617  states[beneficiary].stakedEther */\n      0x02\n      add\n      sload\n        /* \"/Volumes/DEV/hopr/hopr-core/contracts/HoprChannel.sol\":2586:2641  states[beneficiary].stakedEther.add(uint256(msg.value)) */\n      tag_59\n      swap1\n        /* \"/Volumes/DEV/hopr/hopr-core/contracts/HoprChannel.sol\":2630:2639  msg.value */\n      callvalue\n        /* \"/Volumes/DEV/hopr/hopr-core/contracts/HoprChannel.sol\":2586:2641  states[beneficiary].stakedEther.add(uint256(msg.value)) */\n      0xffffffff\n        /* \"/Volumes/DEV/hopr/hopr-core/contracts/HoprChannel.sol\":2586:2621  states[beneficiary].stakedEther.add */\n      tag_60\n        /* \"/Volumes/DEV/hopr/hopr-core/contracts/HoprChannel.sol\":2586:2641  states[beneficiary].stakedEther.add(uint256(msg.value)) */\n      and\n      jump\t// in\n    tag_59:\n      sub(shl(0xa0, 0x01), 0x01)\n        /* \"/Volumes/DEV/hopr/hopr-core/contracts/HoprChannel.sol\":2552:2571  states[beneficiary] */\n      dup3\n      and\n      0x00\n      swap1\n      dup2\n      mstore\n        /* \"/Volumes/DEV/hopr/hopr-core/contracts/HoprChannel.sol\":2552:2558  states */\n      0x01\n        /* \"/Volumes/DEV/hopr/hopr-core/contracts/HoprChannel.sol\":2552:2571  states[beneficiary] */\n      0x20\n      mstore\n      0x40\n      swap1\n      keccak256\n        /* \"/Volumes/DEV/hopr/hopr-core/contracts/HoprChannel.sol\":2552:2583  states[beneficiary].stakedEther */\n      0x02\n      add\n        /* \"/Volumes/DEV/hopr/hopr-core/contracts/HoprChannel.sol\":2552:2641  states[beneficiary].stakedEther = states[beneficiary].stakedEther.add(uint256(msg.value)) */\n      sstore\n        /* \"/Volumes/DEV/hopr/hopr-core/contracts/HoprChannel.sol\":2416:2656  if (!states[beneficiary].isSet) {... */\n    tag_58:\n        /* \"/Volumes/DEV/hopr/hopr-core/contracts/HoprChannel.sol\":2319:2672  function stakeFor(address beneficiary) payable public {... */\n      pop\n      jump\t// out\n        /* \"/Volumes/DEV/hopr/hopr-core/contracts/HoprChannel.sol\":1740:1779  mapping(address => State) public states */\n    tag_20:\n      0x01\n      0x20\n      dup2\n      swap1\n      mstore\n      0x00\n      swap2\n      dup3\n      mstore\n      0x40\n      swap1\n      swap2\n      keccak256\n      dup1\n      sload\n      swap2\n      dup2\n      add\n      sload\n      0x02\n      swap1\n      swap2\n      add\n      sload\n      0xff\n      swap1\n      swap3\n      and\n      swap2\n      dup4\n      jump\t// out\n        /* \"/Volumes/DEV/hopr/hopr-core/contracts/HoprChannel.sol\":4054:4475  function unstakeEther(uint256 amount) public enoughFunds(amount) {... */\n    tag_24:\n        /* \"/Volumes/DEV/hopr/hopr-core/contracts/HoprChannel.sol\":1988:1998  msg.sender */\n      caller\n        /* \"/Volumes/DEV/hopr/hopr-core/contracts/HoprChannel.sol\":1981:1999  states[msg.sender] */\n      0x00\n      swap1\n      dup2\n      mstore\n        /* \"/Volumes/DEV/hopr/hopr-core/contracts/HoprChannel.sol\":1981:1987  states */\n      0x01\n        /* \"/Volumes/DEV/hopr/hopr-core/contracts/HoprChannel.sol\":1981:1999  states[msg.sender] */\n      0x20\n      mstore\n      0x40\n      swap1\n      keccak256\n        /* \"/Volumes/DEV/hopr/hopr-core/contracts/HoprChannel.sol\":1981:2011  states[msg.sender].stakedEther */\n      0x02\n      add\n      sload\n        /* \"/Volumes/DEV/hopr/hopr-core/contracts/HoprChannel.sol\":4111:4117  amount */\n      dup2\n      swap1\n        /* \"/Volumes/DEV/hopr/hopr-core/contracts/HoprChannel.sol\":1971:2011  amount <= states[msg.sender].stakedEther */\n      dup2\n      gt\n      iszero\n        /* \"/Volumes/DEV/hopr/hopr-core/contracts/HoprChannel.sol\":1963:2035  require(amount <= states[msg.sender].stakedEther, \"Insufficient funds.\") */\n      tag_62\n      jumpi\n      0x40\n      dup1\n      mload\n      shl(0xe5, 0x461bcd)\n      dup2\n      mstore\n      0x20\n      0x04\n      dup3\n      add\n      mstore\n      0x13\n      0x24\n      dup3\n      add\n      mstore\n      shl(0x69, 0x24b739bab33334b1b4b2b73a10333ab7323997)\n      0x44\n      dup3\n      add\n      mstore\n      swap1\n      mload\n      swap1\n      dup2\n      swap1\n      sub\n      0x64\n      add\n      swap1\n      revert\n    tag_62:\n        /* \"/Volumes/DEV/hopr/hopr-core/contracts/HoprChannel.sol\":4144:4154  msg.sender */\n      caller\n        /* \"/Volumes/DEV/hopr/hopr-core/contracts/HoprChannel.sol\":4137:4155  states[msg.sender] */\n      0x00\n      swap1\n      dup2\n      mstore\n        /* \"/Volumes/DEV/hopr/hopr-core/contracts/HoprChannel.sol\":4137:4143  states */\n      0x01\n        /* \"/Volumes/DEV/hopr/hopr-core/contracts/HoprChannel.sol\":4137:4155  states[msg.sender] */\n      0x20\n      dup2\n      swap1\n      mstore\n      0x40\n      swap1\n      swap2\n      keccak256\n        /* \"/Volumes/DEV/hopr/hopr-core/contracts/HoprChannel.sol\":4137:4168  states[msg.sender].openChannels */\n      add\n      sload\n        /* \"/Volumes/DEV/hopr/hopr-core/contracts/HoprChannel.sol\":4137:4173  states[msg.sender].openChannels == 0 */\n      iszero\n        /* \"/Volumes/DEV/hopr/hopr-core/contracts/HoprChannel.sol\":4129:4218  require(states[msg.sender].openChannels == 0, \"Waiting for remaining channels to close.\") */\n      tag_64\n      jumpi\n      mload(0x40)\n      shl(0xe5, 0x461bcd)\n      dup2\n      mstore\n      0x04\n      add\n      dup1\n      dup1\n      0x20\n      add\n      dup3\n      dup2\n      sub\n      dup3\n      mstore\n      0x28\n      dup2\n      mstore\n      0x20\n      add\n      dup1\n      data_269588d01c6486cd54f13fe246e8929221353193b52c40da74f8e88d7b8622c5\n      0x28\n      swap2\n      codecopy\n      0x40\n      add\n      swap2\n      pop\n      pop\n      mload(0x40)\n      dup1\n      swap2\n      sub\n      swap1\n      revert\n    tag_64:\n        /* \"/Volumes/DEV/hopr/hopr-core/contracts/HoprChannel.sol\":4250:4260  msg.sender */\n      caller\n        /* \"/Volumes/DEV/hopr/hopr-core/contracts/HoprChannel.sol\":4243:4261  states[msg.sender] */\n      0x00\n      swap1\n      dup2\n      mstore\n        /* \"/Volumes/DEV/hopr/hopr-core/contracts/HoprChannel.sol\":4243:4249  states */\n      0x01\n        /* \"/Volumes/DEV/hopr/hopr-core/contracts/HoprChannel.sol\":4243:4261  states[msg.sender] */\n      0x20\n      mstore\n      0x40\n      swap1\n      keccak256\n        /* \"/Volumes/DEV/hopr/hopr-core/contracts/HoprChannel.sol\":4243:4273  states[msg.sender].stakedEther */\n      0x02\n      add\n      sload\n        /* \"/Volumes/DEV/hopr/hopr-core/contracts/HoprChannel.sol\":4233:4273  amount == states[msg.sender].stakedEther */\n      dup3\n      eq\n        /* \"/Volumes/DEV/hopr/hopr-core/contracts/HoprChannel.sol\":4229:4431  if (amount == states[msg.sender].stakedEther) {... */\n      iszero\n      tag_65\n      jumpi\n        /* \"/Volumes/DEV/hopr/hopr-core/contracts/HoprChannel.sol\":4303:4313  msg.sender */\n      caller\n        /* \"/Volumes/DEV/hopr/hopr-core/contracts/HoprChannel.sol\":4296:4314  states[msg.sender] */\n      0x00\n      swap1\n      dup2\n      mstore\n        /* \"/Volumes/DEV/hopr/hopr-core/contracts/HoprChannel.sol\":4296:4302  states */\n      0x01\n        /* \"/Volumes/DEV/hopr/hopr-core/contracts/HoprChannel.sol\":4296:4314  states[msg.sender] */\n      0x20\n      dup2\n      swap1\n      mstore\n      0x40\n      dup3\n      keccak256\n        /* \"/Volumes/DEV/hopr/hopr-core/contracts/HoprChannel.sol\":4289:4314  delete states[msg.sender] */\n      dup1\n      sload\n      not(0xff)\n      and\n      dup2\n      sstore\n      swap1\n      dup2\n      add\n      dup3\n      swap1\n      sstore\n      0x02\n      add\n      sstore\n        /* \"/Volumes/DEV/hopr/hopr-core/contracts/HoprChannel.sol\":4229:4431  if (amount == states[msg.sender].stakedEther) {... */\n      jump(tag_66)\n    tag_65:\n        /* \"/Volumes/DEV/hopr/hopr-core/contracts/HoprChannel.sol\":4385:4395  msg.sender */\n      caller\n        /* \"/Volumes/DEV/hopr/hopr-core/contracts/HoprChannel.sol\":4378:4396  states[msg.sender] */\n      0x00\n      swap1\n      dup2\n      mstore\n        /* \"/Volumes/DEV/hopr/hopr-core/contracts/HoprChannel.sol\":4378:4384  states */\n      0x01\n        /* \"/Volumes/DEV/hopr/hopr-core/contracts/HoprChannel.sol\":4378:4396  states[msg.sender] */\n      0x20\n      mstore\n      0x40\n      swap1\n      keccak256\n        /* \"/Volumes/DEV/hopr/hopr-core/contracts/HoprChannel.sol\":4378:4408  states[msg.sender].stakedEther */\n      0x02\n      add\n      sload\n        /* \"/Volumes/DEV/hopr/hopr-core/contracts/HoprChannel.sol\":4378:4420  states[msg.sender].stakedEther.sub(amount) */\n      tag_67\n      swap1\n        /* \"/Volumes/DEV/hopr/hopr-core/contracts/HoprChannel.sol\":4413:4419  amount */\n      dup4\n        /* \"/Volumes/DEV/hopr/hopr-core/contracts/HoprChannel.sol\":4378:4420  states[msg.sender].stakedEther.sub(amount) */\n      0xffffffff\n        /* \"/Volumes/DEV/hopr/hopr-core/contracts/HoprChannel.sol\":4378:4412  states[msg.sender].stakedEther.sub */\n      tag_68\n        /* \"/Volumes/DEV/hopr/hopr-core/contracts/HoprChannel.sol\":4378:4420  states[msg.sender].stakedEther.sub(amount) */\n      and\n      jump\t// in\n    tag_67:\n        /* \"/Volumes/DEV/hopr/hopr-core/contracts/HoprChannel.sol\":4352:4362  msg.sender */\n      caller\n        /* \"/Volumes/DEV/hopr/hopr-core/contracts/HoprChannel.sol\":4345:4363  states[msg.sender] */\n      0x00\n      swap1\n      dup2\n      mstore\n        /* \"/Volumes/DEV/hopr/hopr-core/contracts/HoprChannel.sol\":4345:4351  states */\n      0x01\n        /* \"/Volumes/DEV/hopr/hopr-core/contracts/HoprChannel.sol\":4345:4363  states[msg.sender] */\n      0x20\n      mstore\n      0x40\n      swap1\n      keccak256\n        /* \"/Volumes/DEV/hopr/hopr-core/contracts/HoprChannel.sol\":4345:4375  states[msg.sender].stakedEther */\n      0x02\n      add\n        /* \"/Volumes/DEV/hopr/hopr-core/contracts/HoprChannel.sol\":4345:4420  states[msg.sender].stakedEther = states[msg.sender].stakedEther.sub(amount) */\n      sstore\n        /* \"/Volumes/DEV/hopr/hopr-core/contracts/HoprChannel.sol\":4229:4431  if (amount == states[msg.sender].stakedEther) {... */\n    tag_66:\n        /* \"/Volumes/DEV/hopr/hopr-core/contracts/HoprChannel.sol\":4441:4468  msg.sender.transfer(amount) */\n      mload(0x40)\n        /* \"/Volumes/DEV/hopr/hopr-core/contracts/HoprChannel.sol\":4441:4451  msg.sender */\n      caller\n      swap1\n        /* \"/Volumes/DEV/hopr/hopr-core/contracts/HoprChannel.sol\":4441:4468  msg.sender.transfer(amount) */\n      dup4\n      iszero\n      0x08fc\n      mul\n      swap1\n        /* \"/Volumes/DEV/hopr/hopr-core/contracts/HoprChannel.sol\":4461:4467  amount */\n      dup5\n      swap1\n        /* \"/Volumes/DEV/hopr/hopr-core/contracts/HoprChannel.sol\":4441:4468  msg.sender.transfer(amount) */\n      0x00\n      dup2\n      dup2\n      dup2\n        /* \"/Volumes/DEV/hopr/hopr-core/contracts/HoprChannel.sol\":4461:4467  amount */\n      dup6\n        /* \"/Volumes/DEV/hopr/hopr-core/contracts/HoprChannel.sol\":4441:4451  msg.sender */\n      dup9\n        /* \"/Volumes/DEV/hopr/hopr-core/contracts/HoprChannel.sol\":4441:4468  msg.sender.transfer(amount) */\n      dup9\n      call\n      swap4\n      pop\n      pop\n      pop\n      pop\n      iszero\n        /* \"--CODEGEN--\":8:17   */\n      dup1\n        /* \"--CODEGEN--\":5:7   */\n      iszero\n      tag_69\n      jumpi\n        /* \"--CODEGEN--\":45:61   */\n      returndatasize\n        /* \"--CODEGEN--\":42:43   */\n      0x00\n        /* \"--CODEGEN--\":39:40   */\n      dup1\n        /* \"--CODEGEN--\":24:62   */\n      returndatacopy\n        /* \"--CODEGEN--\":77:93   */\n      returndatasize\n        /* \"--CODEGEN--\":74:75   */\n      0x00\n        /* \"--CODEGEN--\":67:94   */\n      revert\n        /* \"--CODEGEN--\":5:7   */\n    tag_69:\n        /* \"/Volumes/DEV/hopr/hopr-core/contracts/HoprChannel.sol\":4441:4468  msg.sender.transfer(amount) */\n      pop\n        /* \"/Volumes/DEV/hopr/hopr-core/contracts/HoprChannel.sol\":4054:4475  function unstakeEther(uint256 amount) public enoughFunds(amount) {... */\n      pop\n      pop\n      jump\t// out\n        /* \"/Volumes/DEV/hopr/hopr-core/contracts/HoprChannel.sol\":9592:11093  function withdraw(address counterParty) external {... */\n    tag_30:\n        /* \"/Volumes/DEV/hopr/hopr-core/contracts/HoprChannel.sol\":9651:9668  bytes32 channelId */\n      0x00\n        /* \"/Volumes/DEV/hopr/hopr-core/contracts/HoprChannel.sol\":9671:9702  getId(msg.sender, counterParty) */\n      tag_71\n        /* \"/Volumes/DEV/hopr/hopr-core/contracts/HoprChannel.sol\":9677:9687  msg.sender */\n      caller\n        /* \"/Volumes/DEV/hopr/hopr-core/contracts/HoprChannel.sol\":9689:9701  counterParty */\n      dup4\n        /* \"/Volumes/DEV/hopr/hopr-core/contracts/HoprChannel.sol\":9671:9676  getId */\n      tag_72\n        /* \"/Volumes/DEV/hopr/hopr-core/contracts/HoprChannel.sol\":9671:9702  getId(msg.sender, counterParty) */\n      jump\t// in\n    tag_71:\n        /* \"/Volumes/DEV/hopr/hopr-core/contracts/HoprChannel.sol\":9712:9735  Channel storage channel */\n      0x00\n        /* \"/Volumes/DEV/hopr/hopr-core/contracts/HoprChannel.sol\":9738:9757  channels[channelId] */\n      dup2\n      dup2\n      mstore\n      0x20\n      dup2\n      swap1\n      mstore\n      0x40\n      swap1\n      keccak256\n        /* \"/Volumes/DEV/hopr/hopr-core/contracts/HoprChannel.sol\":9651:9702  bytes32 channelId = getId(msg.sender, counterParty) */\n      swap1\n      swap2\n      pop\n        /* \"/Volumes/DEV/hopr/hopr-core/contracts/HoprChannel.sol\":9801:9832  ChannelState.PENDING_SETTLEMENT */\n      0x04\n        /* \"/Volumes/DEV/hopr/hopr-core/contracts/HoprChannel.sol\":9784:9797  channel.state */\n      dup2\n      sload\n      0xff\n      and\n        /* \"/Volumes/DEV/hopr/hopr-core/contracts/HoprChannel.sol\":9784:9832  channel.state == ChannelState.PENDING_SETTLEMENT */\n      0x04\n      dup2\n      gt\n      iszero\n      tag_74\n      jumpi\n      invalid\n    tag_74:\n      eq\n        /* \"/Volumes/DEV/hopr/hopr-core/contracts/HoprChannel.sol\":9776:9865  require(channel.state == ChannelState.PENDING_SETTLEMENT, \"Channel is not withdrawable.\") */\n      tag_75\n      jumpi\n      0x40\n      dup1\n      mload\n      shl(0xe5, 0x461bcd)\n      dup2\n      mstore\n      0x20\n      0x04\n      dup3\n      add\n      mstore\n      0x1c\n      0x24\n      dup3\n      add\n      mstore\n      0x4368616e6e656c206973206e6f7420776974686472617761626c652e00000000\n      0x44\n      dup3\n      add\n      mstore\n      swap1\n      mload\n      swap1\n      dup2\n      swap1\n      sub\n      0x64\n      add\n      swap1\n      revert\n    tag_75:\n        /* \"/Volumes/DEV/hopr/hopr-core/contracts/HoprChannel.sol\":9911:9926  block.timestamp */\n      timestamp\n        /* \"/Volumes/DEV/hopr/hopr-core/contracts/HoprChannel.sol\":9884:9891  channel */\n      dup2\n        /* \"/Volumes/DEV/hopr/hopr-core/contracts/HoprChannel.sol\":9884:9907  channel.settleTimestamp */\n      0x04\n      add\n      sload\n        /* \"/Volumes/DEV/hopr/hopr-core/contracts/HoprChannel.sol\":9884:9926  channel.settleTimestamp <= block.timestamp */\n      gt\n      iszero\n        /* \"/Volumes/DEV/hopr/hopr-core/contracts/HoprChannel.sol\":9876:9960  require(channel.settleTimestamp <= block.timestamp, \"Channel not withdrawable yet.\") */\n      tag_76\n      jumpi\n      0x40\n      dup1\n      mload\n      shl(0xe5, 0x461bcd)\n      dup2\n      mstore\n      0x20\n      0x04\n      dup3\n      add\n      mstore\n      0x1d\n      0x24\n      dup3\n      add\n      mstore\n      0x4368616e6e656c206e6f7420776974686472617761626c65207965742e000000\n      0x44\n      dup3\n      add\n      mstore\n      swap1\n      mload\n      swap1\n      dup2\n      swap1\n      sub\n      0x64\n      add\n      swap1\n      revert\n    tag_76:\n        /* \"/Volumes/DEV/hopr/hopr-core/contracts/HoprChannel.sol\":10023:10033  msg.sender */\n      caller\n        /* \"/Volumes/DEV/hopr/hopr-core/contracts/HoprChannel.sol\":10050:10051  0 */\n      0x00\n        /* \"/Volumes/DEV/hopr/hopr-core/contracts/HoprChannel.sol\":10016:10034  states[msg.sender] */\n      swap1\n      dup2\n      mstore\n        /* \"/Volumes/DEV/hopr/hopr-core/contracts/HoprChannel.sol\":10016:10022  states */\n      0x01\n        /* \"/Volumes/DEV/hopr/hopr-core/contracts/HoprChannel.sol\":10016:10034  states[msg.sender] */\n      0x20\n      dup2\n      swap1\n      mstore\n      0x40\n      swap1\n      swap2\n      keccak256\n        /* \"/Volumes/DEV/hopr/hopr-core/contracts/HoprChannel.sol\":10016:10047  states[msg.sender].openChannels */\n      add\n      sload\n        /* \"/Volumes/DEV/hopr/hopr-core/contracts/HoprChannel.sol\":10016:10051  states[msg.sender].openChannels > 0 */\n      iszero\n      dup1\n      iszero\n      swap1\n        /* \"/Volumes/DEV/hopr/hopr-core/contracts/HoprChannel.sol\":10016:10104  states[msg.sender].openChannels > 0 &&... */\n      tag_77\n      jumpi\n      pop\n      sub(shl(0xa0, 0x01), 0x01)\n        /* \"/Volumes/DEV/hopr/hopr-core/contracts/HoprChannel.sol\":10067:10087  states[counterParty] */\n      dup4\n      and\n        /* \"/Volumes/DEV/hopr/hopr-core/contracts/HoprChannel.sol\":10103:10104  0 */\n      0x00\n        /* \"/Volumes/DEV/hopr/hopr-core/contracts/HoprChannel.sol\":10067:10087  states[counterParty] */\n      swap1\n      dup2\n      mstore\n        /* \"/Volumes/DEV/hopr/hopr-core/contracts/HoprChannel.sol\":10067:10073  states */\n      0x01\n        /* \"/Volumes/DEV/hopr/hopr-core/contracts/HoprChannel.sol\":10067:10087  states[counterParty] */\n      0x20\n      dup2\n      swap1\n      mstore\n      0x40\n      swap1\n      swap2\n      keccak256\n        /* \"/Volumes/DEV/hopr/hopr-core/contracts/HoprChannel.sol\":10067:10100  states[counterParty].openChannels */\n      add\n      sload\n        /* \"/Volumes/DEV/hopr/hopr-core/contracts/HoprChannel.sol\":10067:10104  states[counterParty].openChannels > 0 */\n      iszero\n      iszero\n        /* \"/Volumes/DEV/hopr/hopr-core/contracts/HoprChannel.sol\":10016:10104  states[msg.sender].openChannels > 0 &&... */\n    tag_77:\n        /* \"/Volumes/DEV/hopr/hopr-core/contracts/HoprChannel.sol\":9995:10157  require(... */\n      tag_78\n      jumpi\n      mload(0x40)\n      shl(0xe5, 0x461bcd)\n      dup2\n      mstore\n      0x04\n      add\n      dup1\n      dup1\n      0x20\n      add\n      dup3\n      dup2\n      sub\n      dup3\n      mstore\n      0x23\n      dup2\n      mstore\n      0x20\n      add\n      dup1\n      data_c8a24bb95e326eed0c826d19017307f176fdc32e202e7a26892f4fb2175c29e6\n      0x23\n      swap2\n      codecopy\n      0x40\n      add\n      swap2\n      pop\n      pop\n      mload(0x40)\n      dup1\n      swap2\n      sub\n      swap1\n      revert\n    tag_78:\n        /* \"/Volumes/DEV/hopr/hopr-core/contracts/HoprChannel.sol\":10209:10219  msg.sender */\n      caller\n        /* \"/Volumes/DEV/hopr/hopr-core/contracts/HoprChannel.sol\":10202:10220  states[msg.sender] */\n      0x00\n      swap1\n      dup2\n      mstore\n        /* \"/Volumes/DEV/hopr/hopr-core/contracts/HoprChannel.sol\":10238:10239  1 */\n      0x01\n        /* \"/Volumes/DEV/hopr/hopr-core/contracts/HoprChannel.sol\":10202:10220  states[msg.sender] */\n      0x20\n      dup2\n      swap1\n      mstore\n      0x40\n      swap1\n      swap2\n      keccak256\n        /* \"/Volumes/DEV/hopr/hopr-core/contracts/HoprChannel.sol\":10202:10233  states[msg.sender].openChannels */\n      dup2\n      add\n      sload\n        /* \"/Volumes/DEV/hopr/hopr-core/contracts/HoprChannel.sol\":10202:10240  states[msg.sender].openChannels.sub(1) */\n      tag_79\n      swap2\n      0xffffffff\n        /* \"/Volumes/DEV/hopr/hopr-core/contracts/HoprChannel.sol\":10202:10237  states[msg.sender].openChannels.sub */\n      tag_68\n        /* \"/Volumes/DEV/hopr/hopr-core/contracts/HoprChannel.sol\":10202:10240  states[msg.sender].openChannels.sub(1) */\n      and\n      jump\t// in\n    tag_79:\n        /* \"/Volumes/DEV/hopr/hopr-core/contracts/HoprChannel.sol\":10175:10185  msg.sender */\n      caller\n        /* \"/Volumes/DEV/hopr/hopr-core/contracts/HoprChannel.sol\":10168:10186  states[msg.sender] */\n      0x00\n      swap1\n      dup2\n      mstore\n        /* \"/Volumes/DEV/hopr/hopr-core/contracts/HoprChannel.sol\":10168:10174  states */\n      0x01\n        /* \"/Volumes/DEV/hopr/hopr-core/contracts/HoprChannel.sol\":10168:10186  states[msg.sender] */\n      0x20\n      dup2\n      swap1\n      mstore\n      0x40\n      dup1\n      dup4\n      keccak256\n        /* \"/Volumes/DEV/hopr/hopr-core/contracts/HoprChannel.sol\":10168:10199  states[msg.sender].openChannels */\n      dup3\n      add\n        /* \"/Volumes/DEV/hopr/hopr-core/contracts/HoprChannel.sol\":10168:10240  states[msg.sender].openChannels = states[msg.sender].openChannels.sub(1) */\n      swap4\n      swap1\n      swap4\n      sstore\n      sub(shl(0xa0, 0x01), 0x01)\n        /* \"/Volumes/DEV/hopr/hopr-core/contracts/HoprChannel.sol\":10286:10306  states[counterParty] */\n      dup7\n      and\n      dup3\n      mstore\n      swap2\n      swap1\n      keccak256\n        /* \"/Volumes/DEV/hopr/hopr-core/contracts/HoprChannel.sol\":10286:10319  states[counterParty].openChannels */\n      dup2\n      add\n      sload\n        /* \"/Volumes/DEV/hopr/hopr-core/contracts/HoprChannel.sol\":10286:10326  states[counterParty].openChannels.sub(1) */\n      tag_80\n      swap2\n      0xffffffff\n        /* \"/Volumes/DEV/hopr/hopr-core/contracts/HoprChannel.sol\":10286:10323  states[counterParty].openChannels.sub */\n      tag_68\n        /* \"/Volumes/DEV/hopr/hopr-core/contracts/HoprChannel.sol\":10286:10326  states[counterParty].openChannels.sub(1) */\n      and\n      jump\t// in\n    tag_80:\n      sub(shl(0xa0, 0x01), 0x01)\n        /* \"/Volumes/DEV/hopr/hopr-core/contracts/HoprChannel.sol\":10250:10270  states[counterParty] */\n      dup5\n      and\n      0x00\n      swap1\n      dup2\n      mstore\n        /* \"/Volumes/DEV/hopr/hopr-core/contracts/HoprChannel.sol\":10250:10256  states */\n      0x01\n        /* \"/Volumes/DEV/hopr/hopr-core/contracts/HoprChannel.sol\":10250:10270  states[counterParty] */\n      0x20\n      dup2\n      swap1\n      mstore\n      0x40\n      swap1\n      swap2\n      keccak256\n        /* \"/Volumes/DEV/hopr/hopr-core/contracts/HoprChannel.sol\":10250:10283  states[counterParty].openChannels */\n      add\n        /* \"/Volumes/DEV/hopr/hopr-core/contracts/HoprChannel.sol\":10250:10326  states[counterParty].openChannels = states[counterParty].openChannels.sub(1) */\n      sstore\n        /* \"/Volumes/DEV/hopr/hopr-core/contracts/HoprChannel.sol\":10349:10383  isPartyA(msg.sender, counterParty) */\n      tag_81\n        /* \"/Volumes/DEV/hopr/hopr-core/contracts/HoprChannel.sol\":10358:10368  msg.sender */\n      caller\n        /* \"/Volumes/DEV/hopr/hopr-core/contracts/HoprChannel.sol\":10257:10269  counterParty */\n      dup5\n        /* \"/Volumes/DEV/hopr/hopr-core/contracts/HoprChannel.sol\":10349:10357  isPartyA */\n      tag_82\n        /* \"/Volumes/DEV/hopr/hopr-core/contracts/HoprChannel.sol\":10349:10383  isPartyA(msg.sender, counterParty) */\n      jump\t// in\n    tag_81:\n        /* \"/Volumes/DEV/hopr/hopr-core/contracts/HoprChannel.sol\":10345:11050  if (isPartyA(msg.sender, counterParty)) {... */\n      iszero\n      tag_83\n      jumpi\n        /* \"/Volumes/DEV/hopr/hopr-core/contracts/HoprChannel.sol\":10525:10600  states[msg.sender].stakedEther.add((channel.balance.sub(channel.balanceA))) */\n      tag_84\n        /* \"/Volumes/DEV/hopr/hopr-core/contracts/HoprChannel.sol\":10561:10598  channel.balance.sub(channel.balanceA) */\n      tag_85\n        /* \"/Volumes/DEV/hopr/hopr-core/contracts/HoprChannel.sol\":10581:10588  channel */\n      dup3\n        /* \"/Volumes/DEV/hopr/hopr-core/contracts/HoprChannel.sol\":10581:10597  channel.balanceA */\n      0x02\n      add\n      sload\n        /* \"/Volumes/DEV/hopr/hopr-core/contracts/HoprChannel.sol\":10561:10568  channel */\n      dup4\n        /* \"/Volumes/DEV/hopr/hopr-core/contracts/HoprChannel.sol\":10561:10576  channel.balance */\n      0x01\n      add\n      sload\n        /* \"/Volumes/DEV/hopr/hopr-core/contracts/HoprChannel.sol\":10561:10580  channel.balance.sub */\n      tag_68\n      swap1\n        /* \"/Volumes/DEV/hopr/hopr-core/contracts/HoprChannel.sol\":10561:10598  channel.balance.sub(channel.balanceA) */\n      swap2\n      swap1\n      0xffffffff\n      and\n      jump\t// in\n    tag_85:\n        /* \"/Volumes/DEV/hopr/hopr-core/contracts/HoprChannel.sol\":10532:10542  msg.sender */\n      caller\n        /* \"/Volumes/DEV/hopr/hopr-core/contracts/HoprChannel.sol\":10525:10543  states[msg.sender] */\n      0x00\n      swap1\n      dup2\n      mstore\n        /* \"/Volumes/DEV/hopr/hopr-core/contracts/HoprChannel.sol\":10525:10531  states */\n      0x01\n        /* \"/Volumes/DEV/hopr/hopr-core/contracts/HoprChannel.sol\":10525:10543  states[msg.sender] */\n      0x20\n      mstore\n      0x40\n      swap1\n      keccak256\n        /* \"/Volumes/DEV/hopr/hopr-core/contracts/HoprChannel.sol\":10525:10555  states[msg.sender].stakedEther */\n      0x02\n      add\n      sload\n      swap1\n        /* \"/Volumes/DEV/hopr/hopr-core/contracts/HoprChannel.sol\":10525:10600  states[msg.sender].stakedEther.add((channel.balance.sub(channel.balanceA))) */\n      0xffffffff\n        /* \"/Volumes/DEV/hopr/hopr-core/contracts/HoprChannel.sol\":10525:10559  states[msg.sender].stakedEther.add */\n      tag_60\n        /* \"/Volumes/DEV/hopr/hopr-core/contracts/HoprChannel.sol\":10525:10600  states[msg.sender].stakedEther.add((channel.balance.sub(channel.balanceA))) */\n      and\n      jump\t// in\n    tag_84:\n        /* \"/Volumes/DEV/hopr/hopr-core/contracts/HoprChannel.sol\":10499:10509  msg.sender */\n      caller\n        /* \"/Volumes/DEV/hopr/hopr-core/contracts/HoprChannel.sol\":10492:10510  states[msg.sender] */\n      0x00\n      swap1\n      dup2\n      mstore\n        /* \"/Volumes/DEV/hopr/hopr-core/contracts/HoprChannel.sol\":10492:10498  states */\n      0x01\n        /* \"/Volumes/DEV/hopr/hopr-core/contracts/HoprChannel.sol\":10492:10510  states[msg.sender] */\n      0x20\n      mstore\n      0x40\n      dup1\n      dup3\n      keccak256\n        /* \"/Volumes/DEV/hopr/hopr-core/contracts/HoprChannel.sol\":10492:10522  states[msg.sender].stakedEther */\n      0x02\n      swap1\n      dup2\n      add\n        /* \"/Volumes/DEV/hopr/hopr-core/contracts/HoprChannel.sol\":10492:10600  states[msg.sender].stakedEther = states[msg.sender].stakedEther.add((channel.balance.sub(channel.balanceA))) */\n      swap4\n      swap1\n      swap4\n      sstore\n        /* \"/Volumes/DEV/hopr/hopr-core/contracts/HoprChannel.sol\":10686:10702  channel.balanceA */\n      dup4\n      dup4\n      add\n      sload\n      sub(shl(0xa0, 0x01), 0x01)\n        /* \"/Volumes/DEV/hopr/hopr-core/contracts/HoprChannel.sol\":10649:10669  states[counterParty] */\n      dup8\n      and\n      dup4\n      mstore\n      swap2\n      keccak256\n        /* \"/Volumes/DEV/hopr/hopr-core/contracts/HoprChannel.sol\":10649:10681  states[counterParty].stakedEther */\n      swap1\n      swap2\n      add\n      sload\n        /* \"/Volumes/DEV/hopr/hopr-core/contracts/HoprChannel.sol\":10649:10703  states[counterParty].stakedEther.add(channel.balanceA) */\n      tag_86\n      swap2\n      0xffffffff\n        /* \"/Volumes/DEV/hopr/hopr-core/contracts/HoprChannel.sol\":10649:10685  states[counterParty].stakedEther.add */\n      tag_60\n        /* \"/Volumes/DEV/hopr/hopr-core/contracts/HoprChannel.sol\":10649:10703  states[counterParty].stakedEther.add(channel.balanceA) */\n      and\n      jump\t// in\n    tag_86:\n      sub(shl(0xa0, 0x01), 0x01)\n        /* \"/Volumes/DEV/hopr/hopr-core/contracts/HoprChannel.sol\":10614:10634  states[counterParty] */\n      dup5\n      and\n      0x00\n      swap1\n      dup2\n      mstore\n        /* \"/Volumes/DEV/hopr/hopr-core/contracts/HoprChannel.sol\":10614:10620  states */\n      0x01\n        /* \"/Volumes/DEV/hopr/hopr-core/contracts/HoprChannel.sol\":10614:10634  states[counterParty] */\n      0x20\n      mstore\n      0x40\n      swap1\n      keccak256\n        /* \"/Volumes/DEV/hopr/hopr-core/contracts/HoprChannel.sol\":10614:10646  states[counterParty].stakedEther */\n      0x02\n      add\n        /* \"/Volumes/DEV/hopr/hopr-core/contracts/HoprChannel.sol\":10614:10703  states[counterParty].stakedEther = states[counterParty].stakedEther.add(channel.balanceA) */\n      sstore\n        /* \"/Volumes/DEV/hopr/hopr-core/contracts/HoprChannel.sol\":10345:11050  if (isPartyA(msg.sender, counterParty)) {... */\n      jump(tag_87)\n    tag_83:\n        /* \"/Volumes/DEV/hopr/hopr-core/contracts/HoprChannel.sol\":10862:10939  states[counterParty].stakedEther.add((channel.balance.sub(channel.balanceA))) */\n      tag_88\n        /* \"/Volumes/DEV/hopr/hopr-core/contracts/HoprChannel.sol\":10900:10937  channel.balance.sub(channel.balanceA) */\n      tag_89\n        /* \"/Volumes/DEV/hopr/hopr-core/contracts/HoprChannel.sol\":10920:10927  channel */\n      dup3\n        /* \"/Volumes/DEV/hopr/hopr-core/contracts/HoprChannel.sol\":10920:10936  channel.balanceA */\n      0x02\n      add\n      sload\n        /* \"/Volumes/DEV/hopr/hopr-core/contracts/HoprChannel.sol\":10900:10907  channel */\n      dup4\n        /* \"/Volumes/DEV/hopr/hopr-core/contracts/HoprChannel.sol\":10900:10915  channel.balance */\n      0x01\n      add\n      sload\n        /* \"/Volumes/DEV/hopr/hopr-core/contracts/HoprChannel.sol\":10900:10919  channel.balance.sub */\n      tag_68\n      swap1\n        /* \"/Volumes/DEV/hopr/hopr-core/contracts/HoprChannel.sol\":10900:10937  channel.balance.sub(channel.balanceA) */\n      swap2\n      swap1\n      0xffffffff\n      and\n      jump\t// in\n    tag_89:\n      sub(shl(0xa0, 0x01), 0x01)\n        /* \"/Volumes/DEV/hopr/hopr-core/contracts/HoprChannel.sol\":10862:10882  states[counterParty] */\n      dup6\n      and\n      0x00\n      swap1\n      dup2\n      mstore\n        /* \"/Volumes/DEV/hopr/hopr-core/contracts/HoprChannel.sol\":10862:10868  states */\n      0x01\n        /* \"/Volumes/DEV/hopr/hopr-core/contracts/HoprChannel.sol\":10862:10882  states[counterParty] */\n      0x20\n      mstore\n      0x40\n      swap1\n      keccak256\n        /* \"/Volumes/DEV/hopr/hopr-core/contracts/HoprChannel.sol\":10862:10894  states[counterParty].stakedEther */\n      0x02\n      add\n      sload\n      swap1\n        /* \"/Volumes/DEV/hopr/hopr-core/contracts/HoprChannel.sol\":10862:10939  states[counterParty].stakedEther.add((channel.balance.sub(channel.balanceA))) */\n      0xffffffff\n        /* \"/Volumes/DEV/hopr/hopr-core/contracts/HoprChannel.sol\":10862:10898  states[counterParty].stakedEther.add */\n      tag_60\n        /* \"/Volumes/DEV/hopr/hopr-core/contracts/HoprChannel.sol\":10862:10939  states[counterParty].stakedEther.add((channel.balance.sub(channel.balanceA))) */\n      and\n      jump\t// in\n    tag_88:\n      sub(shl(0xa0, 0x01), 0x01)\n        /* \"/Volumes/DEV/hopr/hopr-core/contracts/HoprChannel.sol\":10827:10847  states[counterParty] */\n      dup5\n      and\n      0x00\n      swap1\n      dup2\n      mstore\n        /* \"/Volumes/DEV/hopr/hopr-core/contracts/HoprChannel.sol\":10827:10833  states */\n      0x01\n        /* \"/Volumes/DEV/hopr/hopr-core/contracts/HoprChannel.sol\":10827:10847  states[counterParty] */\n      0x20\n      mstore\n      0x40\n      dup1\n      dup3\n      keccak256\n        /* \"/Volumes/DEV/hopr/hopr-core/contracts/HoprChannel.sol\":10827:10859  states[counterParty].stakedEther */\n      0x02\n      swap1\n      dup2\n      add\n        /* \"/Volumes/DEV/hopr/hopr-core/contracts/HoprChannel.sol\":10827:10939  states[counterParty].stakedEther = states[counterParty].stakedEther.add((channel.balance.sub(channel.balanceA))) */\n      swap4\n      swap1\n      swap4\n      sstore\n        /* \"/Volumes/DEV/hopr/hopr-core/contracts/HoprChannel.sol\":11021:11037  channel.balanceA */\n      dup4\n      dup4\n      add\n      sload\n        /* \"/Volumes/DEV/hopr/hopr-core/contracts/HoprChannel.sol\":10993:11003  msg.sender */\n      caller\n        /* \"/Volumes/DEV/hopr/hopr-core/contracts/HoprChannel.sol\":10986:11004  states[msg.sender] */\n      dup4\n      mstore\n      swap2\n      keccak256\n        /* \"/Volumes/DEV/hopr/hopr-core/contracts/HoprChannel.sol\":10986:11016  states[msg.sender].stakedEther */\n      swap1\n      swap2\n      add\n      sload\n        /* \"/Volumes/DEV/hopr/hopr-core/contracts/HoprChannel.sol\":10986:11038  states[msg.sender].stakedEther.add(channel.balanceA) */\n      tag_90\n      swap2\n      0xffffffff\n        /* \"/Volumes/DEV/hopr/hopr-core/contracts/HoprChannel.sol\":10986:11020  states[msg.sender].stakedEther.add */\n      tag_60\n        /* \"/Volumes/DEV/hopr/hopr-core/contracts/HoprChannel.sol\":10986:11038  states[msg.sender].stakedEther.add(channel.balanceA) */\n      and\n      jump\t// in\n    tag_90:\n        /* \"/Volumes/DEV/hopr/hopr-core/contracts/HoprChannel.sol\":10960:10970  msg.sender */\n      caller\n        /* \"/Volumes/DEV/hopr/hopr-core/contracts/HoprChannel.sol\":10953:10971  states[msg.sender] */\n      0x00\n      swap1\n      dup2\n      mstore\n        /* \"/Volumes/DEV/hopr/hopr-core/contracts/HoprChannel.sol\":10953:10959  states */\n      0x01\n        /* \"/Volumes/DEV/hopr/hopr-core/contracts/HoprChannel.sol\":10953:10971  states[msg.sender] */\n      0x20\n      mstore\n      0x40\n      swap1\n      keccak256\n        /* \"/Volumes/DEV/hopr/hopr-core/contracts/HoprChannel.sol\":10953:10983  states[msg.sender].stakedEther */\n      0x02\n      add\n        /* \"/Volumes/DEV/hopr/hopr-core/contracts/HoprChannel.sol\":10953:11038  states[msg.sender].stakedEther = states[msg.sender].stakedEther.add(channel.balanceA) */\n      sstore\n        /* \"/Volumes/DEV/hopr/hopr-core/contracts/HoprChannel.sol\":10345:11050  if (isPartyA(msg.sender, counterParty)) {... */\n    tag_87:\n      pop\n        /* \"/Volumes/DEV/hopr/hopr-core/contracts/HoprChannel.sol\":11067:11075  channels */\n      0x00\n        /* \"/Volumes/DEV/hopr/hopr-core/contracts/HoprChannel.sol\":11067:11086  channels[channelId] */\n      swap1\n      dup2\n      mstore\n      0x20\n      dup2\n      swap1\n      mstore\n      0x40\n      dup2\n      keccak256\n        /* \"/Volumes/DEV/hopr/hopr-core/contracts/HoprChannel.sol\":11060:11086  delete channels[channelId] */\n      dup1\n      sload\n      not(0xff)\n      and\n      dup2\n      sstore\n      0x01\n      dup2\n      add\n      dup3\n      swap1\n      sstore\n      0x02\n      dup2\n      add\n      dup3\n      swap1\n      sstore\n      0x03\n      dup2\n      add\n      dup1\n      sload\n      not(sub(shl(0x80, 0x01), 0x01))\n      and\n      swap1\n      sstore\n      0x04\n      add\n      sstore\n      pop\n        /* \"/Volumes/DEV/hopr/hopr-core/contracts/HoprChannel.sol\":9592:11093  function withdraw(address counterParty) external {... */\n      jump\t// out\n        /* \"/Volumes/DEV/hopr/hopr-core/contracts/HoprChannel.sol\":1871:1909  mapping(bytes16 => bool) public nonces */\n    tag_34:\n      mstore(0x20, 0x02)\n      0x00\n      swap1\n      dup2\n      mstore\n      0x40\n      swap1\n      keccak256\n      sload\n      0xff\n      and\n      dup2\n      jump\t// out\n        /* \"/Volumes/DEV/hopr/hopr-core/contracts/HoprChannel.sol\":4825:6027  function createFunded(bytes16 nonce, uint256 funds, bytes32 r, bytes32 s, uint8 v) external enoughFunds(funds) {... */\n    tag_38:\n        /* \"/Volumes/DEV/hopr/hopr-core/contracts/HoprChannel.sol\":1988:1998  msg.sender */\n      caller\n        /* \"/Volumes/DEV/hopr/hopr-core/contracts/HoprChannel.sol\":1981:1999  states[msg.sender] */\n      0x00\n      swap1\n      dup2\n      mstore\n        /* \"/Volumes/DEV/hopr/hopr-core/contracts/HoprChannel.sol\":1981:1987  states */\n      0x01\n        /* \"/Volumes/DEV/hopr/hopr-core/contracts/HoprChannel.sol\":1981:1999  states[msg.sender] */\n      0x20\n      mstore\n      0x40\n      swap1\n      keccak256\n        /* \"/Volumes/DEV/hopr/hopr-core/contracts/HoprChannel.sol\":1981:2011  states[msg.sender].stakedEther */\n      0x02\n      add\n      sload\n        /* \"/Volumes/DEV/hopr/hopr-core/contracts/HoprChannel.sol\":4929:4934  funds */\n      dup5\n      swap1\n        /* \"/Volumes/DEV/hopr/hopr-core/contracts/HoprChannel.sol\":1971:2011  amount <= states[msg.sender].stakedEther */\n      dup2\n      gt\n      iszero\n        /* \"/Volumes/DEV/hopr/hopr-core/contracts/HoprChannel.sol\":1963:2035  require(amount <= states[msg.sender].stakedEther, \"Insufficient funds.\") */\n      tag_92\n      jumpi\n      0x40\n      dup1\n      mload\n      shl(0xe5, 0x461bcd)\n      dup2\n      mstore\n      0x20\n      0x04\n      dup3\n      add\n      mstore\n      0x13\n      0x24\n      dup3\n      add\n      mstore\n      shl(0x69, 0x24b739bab33334b1b4b2b73a10333ab7323997)\n      0x44\n      dup3\n      add\n      mstore\n      swap1\n      mload\n      swap1\n      dup2\n      swap1\n      sub\n      0x64\n      add\n      swap1\n      revert\n    tag_92:\n      not(sub(shl(0x80, 0x01), 0x01))\n        /* \"/Volumes/DEV/hopr/hopr-core/contracts/HoprChannel.sol\":4955:4968  nonces[nonce] */\n      dup7\n      and\n      0x00\n      swap1\n      dup2\n      mstore\n        /* \"/Volumes/DEV/hopr/hopr-core/contracts/HoprChannel.sol\":4955:4961  nonces */\n      0x02\n        /* \"/Volumes/DEV/hopr/hopr-core/contracts/HoprChannel.sol\":4955:4968  nonces[nonce] */\n      0x20\n      mstore\n      0x40\n      swap1\n      keccak256\n      sload\n      0xff\n      and\n        /* \"/Volumes/DEV/hopr/hopr-core/contracts/HoprChannel.sol\":4954:4968  !nonces[nonce] */\n      iszero\n        /* \"/Volumes/DEV/hopr/hopr-core/contracts/HoprChannel.sol\":4946:4996  require(!nonces[nonce], \"Nonce was already used.\") */\n      tag_94\n      jumpi\n      0x40\n      dup1\n      mload\n      shl(0xe5, 0x461bcd)\n      dup2\n      mstore\n      0x20\n      0x04\n      dup3\n      add\n      mstore\n      0x17\n      0x24\n      dup3\n      add\n      mstore\n      0x4e6f6e63652077617320616c726561647920757365642e000000000000000000\n      0x44\n      dup3\n      add\n      mstore\n      swap1\n      mload\n      swap1\n      dup2\n      swap1\n      sub\n      0x64\n      add\n      swap1\n      revert\n    tag_94:\n      not(sub(shl(0x80, 0x01), 0x01))\n        /* \"/Volumes/DEV/hopr/hopr-core/contracts/HoprChannel.sol\":5006:5019  nonces[nonce] */\n      dup7\n      and\n      0x00\n      dup2\n      dup2\n      mstore\n        /* \"/Volumes/DEV/hopr/hopr-core/contracts/HoprChannel.sol\":5006:5012  nonces */\n      0x02\n        /* \"/Volumes/DEV/hopr/hopr-core/contracts/HoprChannel.sol\":5006:5019  nonces[nonce] */\n      0x20\n      swap1\n      dup2\n      mstore\n      0x40\n      dup1\n      dup4\n      keccak256\n        /* \"/Volumes/DEV/hopr/hopr-core/contracts/HoprChannel.sol\":5006:5026  nonces[nonce] = true */\n      dup1\n      sload\n      not(0xff)\n      and\n        /* \"/Volumes/DEV/hopr/hopr-core/contracts/HoprChannel.sol\":5022:5026  true */\n      0x01\n        /* \"/Volumes/DEV/hopr/hopr-core/contracts/HoprChannel.sol\":5006:5026  nonces[nonce] = true */\n      swap1\n      dup2\n      or\n      swap1\n      swap2\n      sstore\n        /* \"/Volumes/DEV/hopr/hopr-core/contracts/HoprChannel.sol\":5071:5136  abi.encodePacked(nonce, uint128(1), funds, bytes32(0), bytes1(0)) */\n      dup2\n      mload\n      dup1\n      dup5\n      add\n      swap6\n      swap1\n      swap6\n      mstore\n      shl(0x80, 0x01)\n      0x30\n      dup7\n      add\n      mstore\n      dup5\n      dup3\n      add\n      dup11\n      swap1\n      mstore\n      0x60\n      dup6\n      add\n      dup5\n      swap1\n      mstore\n      0x80\n      dup6\n      add\n      dup5\n      swap1\n      mstore\n      dup2\n      mload\n        /* \"--CODEGEN--\":22:54   */\n      0x61\n        /* \"--CODEGEN--\":26:47   */\n      dup2\n      dup8\n      sub\n        /* \"--CODEGEN--\":22:54   */\n      add\n        /* \"--CODEGEN--\":6:55   */\n      dup2\n      mstore\n        /* \"/Volumes/DEV/hopr/hopr-core/contracts/HoprChannel.sol\":5071:5136  abi.encodePacked(nonce, uint128(1), funds, bytes32(0), bytes1(0)) */\n      0x81\n      dup7\n      add\n      dup1\n      dup5\n      mstore\n        /* \"/Volumes/DEV/hopr/hopr-core/contracts/HoprChannel.sol\":5061:5137  keccak256(abi.encodePacked(nonce, uint128(1), funds, bytes32(0), bytes1(0))) */\n      dup2\n      mload\n      swap2\n      dup6\n      add\n      swap2\n      swap1\n      swap2\n      keccak256\n        /* \"/Volumes/DEV/hopr/hopr-core/contracts/HoprChannel.sol\":5170:5203  ecrecover(hashedMessage, v, r, s) */\n      swap1\n      dup6\n      swap1\n      mstore\n      0xa1\n      dup7\n      add\n      dup1\n      dup5\n      mstore\n      dup2\n      swap1\n      mstore\n        /* \"/Volumes/DEV/hopr/hopr-core/contracts/HoprChannel.sol\":5006:5026  nonces[nonce] = true */\n      0xff\n        /* \"/Volumes/DEV/hopr/hopr-core/contracts/HoprChannel.sol\":5170:5203  ecrecover(hashedMessage, v, r, s) */\n      dup9\n      and\n      0xc1\n      dup8\n      add\n      mstore\n      0xe1\n      dup7\n      add\n      dup11\n      swap1\n      mstore\n      0x0101\n      dup7\n      add\n      dup10\n      swap1\n      mstore\n      swap2\n      mload\n        /* \"/Volumes/DEV/hopr/hopr-core/contracts/HoprChannel.sol\":5061:5137  keccak256(abi.encodePacked(nonce, uint128(1), funds, bytes32(0), bytes1(0))) */\n      swap2\n      swap5\n        /* \"/Volumes/DEV/hopr/hopr-core/contracts/HoprChannel.sol\":5022:5026  true */\n      swap1\n      swap3\n        /* \"/Volumes/DEV/hopr/hopr-core/contracts/HoprChannel.sol\":5170:5203  ecrecover(hashedMessage, v, r, s) */\n      0x0121\n      dup1\n      dup4\n      add\n      swap4\n        /* \"/Volumes/DEV/hopr/hopr-core/contracts/HoprChannel.sol\":5006:5019  nonces[nonce] */\n      swap2\n      swap3\n      not(0x1f)\n        /* \"/Volumes/DEV/hopr/hopr-core/contracts/HoprChannel.sol\":5170:5203  ecrecover(hashedMessage, v, r, s) */\n      dup4\n      add\n      swap3\n      swap1\n      dup2\n      swap1\n      sub\n      swap1\n      swap2\n      add\n      swap1\n        /* \"/Volumes/DEV/hopr/hopr-core/contracts/HoprChannel.sol\":5022:5026  true */\n      dup6\n        /* \"/Volumes/DEV/hopr/hopr-core/contracts/HoprChannel.sol\":5170:5203  ecrecover(hashedMessage, v, r, s) */\n      gas\n      staticcall\n      iszero\n        /* \"--CODEGEN--\":8:17   */\n      dup1\n        /* \"--CODEGEN--\":5:7   */\n      iszero\n      tag_95\n      jumpi\n        /* \"--CODEGEN--\":45:61   */\n      returndatasize\n        /* \"--CODEGEN--\":42:43   */\n      0x00\n        /* \"--CODEGEN--\":39:40   */\n      dup1\n        /* \"--CODEGEN--\":24:62   */\n      returndatacopy\n        /* \"--CODEGEN--\":77:93   */\n      returndatasize\n        /* \"--CODEGEN--\":74:75   */\n      0x00\n        /* \"--CODEGEN--\":67:94   */\n      revert\n        /* \"--CODEGEN--\":5:7   */\n    tag_95:\n        /* \"/Volumes/DEV/hopr/hopr-core/contracts/HoprChannel.sol\":5170:5203  ecrecover(hashedMessage, v, r, s) */\n      pop\n      pop\n      pop\n      mload(sub(mload(0x40), 0x20))\n        /* \"/Volumes/DEV/hopr/hopr-core/contracts/HoprChannel.sol\":5147:5203  address counterparty = ecrecover(hashedMessage, v, r, s) */\n      swap1\n      pop\n        /* \"/Volumes/DEV/hopr/hopr-core/contracts/HoprChannel.sol\":5266:5271  funds */\n      dup7\n        /* \"/Volumes/DEV/hopr/hopr-core/contracts/HoprChannel.sol\":5230:5236  states */\n      0x01\n        /* \"/Volumes/DEV/hopr/hopr-core/contracts/HoprChannel.sol\":5230:5250  states[counterparty] */\n      0x00\n        /* \"/Volumes/DEV/hopr/hopr-core/contracts/HoprChannel.sol\":5237:5249  counterparty */\n      dup4\n      sub(shl(0xa0, 0x01), 0x01)\n        /* \"/Volumes/DEV/hopr/hopr-core/contracts/HoprChannel.sol\":5230:5250  states[counterparty] */\n      and\n      sub(shl(0xa0, 0x01), 0x01)\n      and\n      dup2\n      mstore\n      0x20\n      add\n      swap1\n      dup2\n      mstore\n      0x20\n      add\n      0x00\n      keccak256\n        /* \"/Volumes/DEV/hopr/hopr-core/contracts/HoprChannel.sol\":5230:5262  states[counterparty].stakedEther */\n      0x02\n      add\n      sload\n        /* \"/Volumes/DEV/hopr/hopr-core/contracts/HoprChannel.sol\":5230:5271  states[counterparty].stakedEther >= funds */\n      lt\n      iszero\n        /* \"/Volumes/DEV/hopr/hopr-core/contracts/HoprChannel.sol\":5222:5295  require(states[counterparty].stakedEther >= funds, \"Insufficient funds.\") */\n      tag_96\n      jumpi\n      0x40\n      dup1\n      mload\n      shl(0xe5, 0x461bcd)\n      dup2\n      mstore\n      0x20\n      0x04\n      dup3\n      add\n      mstore\n      0x13\n      0x24\n      dup3\n      add\n      mstore\n      shl(0x69, 0x24b739bab33334b1b4b2b73a10333ab7323997)\n      0x44\n      dup3\n      add\n      mstore\n      swap1\n      mload\n      swap1\n      dup2\n      swap1\n      sub\n      0x64\n      add\n      swap1\n      revert\n    tag_96:\n        /* \"/Volumes/DEV/hopr/hopr-core/contracts/HoprChannel.sol\":5306:5323  bytes32 channelId */\n      0x00\n        /* \"/Volumes/DEV/hopr/hopr-core/contracts/HoprChannel.sol\":5326:5357  getId(msg.sender, counterparty) */\n      tag_97\n        /* \"/Volumes/DEV/hopr/hopr-core/contracts/HoprChannel.sol\":5332:5342  msg.sender */\n      caller\n        /* \"/Volumes/DEV/hopr/hopr-core/contracts/HoprChannel.sol\":5344:5356  counterparty */\n      dup4\n        /* \"/Volumes/DEV/hopr/hopr-core/contracts/HoprChannel.sol\":5326:5331  getId */\n      tag_72\n        /* \"/Volumes/DEV/hopr/hopr-core/contracts/HoprChannel.sol\":5326:5357  getId(msg.sender, counterparty) */\n      jump\t// in\n    tag_97:\n        /* \"/Volumes/DEV/hopr/hopr-core/contracts/HoprChannel.sol\":5306:5357  bytes32 channelId = getId(msg.sender, counterparty) */\n      swap1\n      pop\n        /* \"/Volumes/DEV/hopr/hopr-core/contracts/HoprChannel.sol\":5405:5431  ChannelState.UNINITIALIZED */\n      0x00\n        /* \"/Volumes/DEV/hopr/hopr-core/contracts/HoprChannel.sol\":5376:5384  channels */\n      dup1\n        /* \"/Volumes/DEV/hopr/hopr-core/contracts/HoprChannel.sol\":5376:5395  channels[channelId] */\n      dup3\n      dup2\n      mstore\n      0x20\n      dup2\n      swap1\n      mstore\n      0x40\n      swap1\n      keccak256\n        /* \"/Volumes/DEV/hopr/hopr-core/contracts/HoprChannel.sol\":5376:5401  channels[channelId].state */\n      sload\n      0xff\n      and\n        /* \"/Volumes/DEV/hopr/hopr-core/contracts/HoprChannel.sol\":5376:5431  channels[channelId].state == ChannelState.UNINITIALIZED */\n      0x04\n      dup2\n      gt\n      iszero\n      tag_99\n      jumpi\n      invalid\n    tag_99:\n      eq\n        /* \"/Volumes/DEV/hopr/hopr-core/contracts/HoprChannel.sol\":5368:5459  require(channels[channelId].state == ChannelState.UNINITIALIZED, \"Channel already exists.\") */\n      tag_100\n      jumpi\n      0x40\n      dup1\n      mload\n      shl(0xe5, 0x461bcd)\n      dup2\n      mstore\n      0x20\n      0x04\n      dup3\n      add\n      mstore\n      0x17\n      0x24\n      dup3\n      add\n      mstore\n      shl(0x49, 0x21b430b73732b61030b63932b0b23c9032bc34b9ba3997)\n      0x44\n      dup3\n      add\n      mstore\n      swap1\n      mload\n      swap1\n      dup2\n      swap1\n      sub\n      0x64\n      add\n      swap1\n      revert\n    tag_100:\n        /* \"/Volumes/DEV/hopr/hopr-core/contracts/HoprChannel.sol\":5510:5520  msg.sender */\n      caller\n        /* \"/Volumes/DEV/hopr/hopr-core/contracts/HoprChannel.sol\":5503:5521  states[msg.sender] */\n      0x00\n      swap1\n      dup2\n      mstore\n        /* \"/Volumes/DEV/hopr/hopr-core/contracts/HoprChannel.sol\":5503:5509  states */\n      0x01\n        /* \"/Volumes/DEV/hopr/hopr-core/contracts/HoprChannel.sol\":5503:5521  states[msg.sender] */\n      0x20\n      mstore\n      0x40\n      swap1\n      keccak256\n        /* \"/Volumes/DEV/hopr/hopr-core/contracts/HoprChannel.sol\":5503:5533  states[msg.sender].stakedEther */\n      0x02\n      add\n      sload\n        /* \"/Volumes/DEV/hopr/hopr-core/contracts/HoprChannel.sol\":5503:5544  states[msg.sender].stakedEther.sub(funds) */\n      tag_101\n      swap1\n        /* \"/Volumes/DEV/hopr/hopr-core/contracts/HoprChannel.sol\":5538:5543  funds */\n      dup10\n        /* \"/Volumes/DEV/hopr/hopr-core/contracts/HoprChannel.sol\":5503:5544  states[msg.sender].stakedEther.sub(funds) */\n      0xffffffff\n        /* \"/Volumes/DEV/hopr/hopr-core/contracts/HoprChannel.sol\":5503:5537  states[msg.sender].stakedEther.sub */\n      tag_68\n        /* \"/Volumes/DEV/hopr/hopr-core/contracts/HoprChannel.sol\":5503:5544  states[msg.sender].stakedEther.sub(funds) */\n      and\n      jump\t// in\n    tag_101:\n        /* \"/Volumes/DEV/hopr/hopr-core/contracts/HoprChannel.sol\":5477:5487  msg.sender */\n      caller\n        /* \"/Volumes/DEV/hopr/hopr-core/contracts/HoprChannel.sol\":5470:5488  states[msg.sender] */\n      0x00\n      swap1\n      dup2\n      mstore\n        /* \"/Volumes/DEV/hopr/hopr-core/contracts/HoprChannel.sol\":5470:5476  states */\n      0x01\n        /* \"/Volumes/DEV/hopr/hopr-core/contracts/HoprChannel.sol\":5470:5488  states[msg.sender] */\n      0x20\n      mstore\n      0x40\n      dup1\n      dup3\n      keccak256\n        /* \"/Volumes/DEV/hopr/hopr-core/contracts/HoprChannel.sol\":5470:5500  states[msg.sender].stakedEther */\n      0x02\n      swap1\n      dup2\n      add\n        /* \"/Volumes/DEV/hopr/hopr-core/contracts/HoprChannel.sol\":5470:5544  states[msg.sender].stakedEther = states[msg.sender].stakedEther.sub(funds) */\n      swap4\n      swap1\n      swap4\n      sstore\n      sub(shl(0xa0, 0x01), 0x01)\n        /* \"/Volumes/DEV/hopr/hopr-core/contracts/HoprChannel.sol\":5589:5609  states[counterparty] */\n      dup6\n      and\n      dup3\n      mstore\n      swap1\n      keccak256\n        /* \"/Volumes/DEV/hopr/hopr-core/contracts/HoprChannel.sol\":5589:5621  states[counterparty].stakedEther */\n      add\n      sload\n        /* \"/Volumes/DEV/hopr/hopr-core/contracts/HoprChannel.sol\":5589:5632  states[counterparty].stakedEther.sub(funds) */\n      tag_102\n      swap1\n        /* \"/Volumes/DEV/hopr/hopr-core/contracts/HoprChannel.sol\":5626:5631  funds */\n      dup10\n        /* \"/Volumes/DEV/hopr/hopr-core/contracts/HoprChannel.sol\":5589:5632  states[counterparty].stakedEther.sub(funds) */\n      0xffffffff\n        /* \"/Volumes/DEV/hopr/hopr-core/contracts/HoprChannel.sol\":5589:5625  states[counterparty].stakedEther.sub */\n      tag_68\n        /* \"/Volumes/DEV/hopr/hopr-core/contracts/HoprChannel.sol\":5589:5632  states[counterparty].stakedEther.sub(funds) */\n      and\n      jump\t// in\n    tag_102:\n      sub(shl(0xa0, 0x01), 0x01)\n        /* \"/Volumes/DEV/hopr/hopr-core/contracts/HoprChannel.sol\":5554:5574  states[counterparty] */\n      dup4\n      and\n      0x00\n      swap1\n      dup2\n      mstore\n        /* \"/Volumes/DEV/hopr/hopr-core/contracts/HoprChannel.sol\":5554:5560  states */\n      0x01\n        /* \"/Volumes/DEV/hopr/hopr-core/contracts/HoprChannel.sol\":5554:5574  states[counterparty] */\n      0x20\n      dup2\n      swap1\n      mstore\n      0x40\n      dup1\n      dup4\n      keccak256\n        /* \"/Volumes/DEV/hopr/hopr-core/contracts/HoprChannel.sol\":5554:5586  states[counterparty].stakedEther */\n      0x02\n      add\n        /* \"/Volumes/DEV/hopr/hopr-core/contracts/HoprChannel.sol\":5554:5632  states[counterparty].stakedEther = states[counterparty].stakedEther.sub(funds) */\n      swap4\n      swap1\n      swap4\n      sstore\n        /* \"/Volumes/DEV/hopr/hopr-core/contracts/HoprChannel.sol\":5684:5694  msg.sender */\n      caller\n        /* \"/Volumes/DEV/hopr/hopr-core/contracts/HoprChannel.sol\":5677:5695  states[msg.sender] */\n      dup3\n      mstore\n      swap2\n      swap1\n      keccak256\n        /* \"/Volumes/DEV/hopr/hopr-core/contracts/HoprChannel.sol\":5677:5708  states[msg.sender].openChannels */\n      dup2\n      add\n      sload\n        /* \"/Volumes/DEV/hopr/hopr-core/contracts/HoprChannel.sol\":5677:5715  states[msg.sender].openChannels.add(1) */\n      tag_103\n      swap2\n      0xffffffff\n        /* \"/Volumes/DEV/hopr/hopr-core/contracts/HoprChannel.sol\":5677:5712  states[msg.sender].openChannels.add */\n      tag_60\n        /* \"/Volumes/DEV/hopr/hopr-core/contracts/HoprChannel.sol\":5677:5715  states[msg.sender].openChannels.add(1) */\n      and\n      jump\t// in\n    tag_103:\n        /* \"/Volumes/DEV/hopr/hopr-core/contracts/HoprChannel.sol\":5650:5660  msg.sender */\n      caller\n        /* \"/Volumes/DEV/hopr/hopr-core/contracts/HoprChannel.sol\":5643:5661  states[msg.sender] */\n      0x00\n      swap1\n      dup2\n      mstore\n        /* \"/Volumes/DEV/hopr/hopr-core/contracts/HoprChannel.sol\":5643:5649  states */\n      0x01\n        /* \"/Volumes/DEV/hopr/hopr-core/contracts/HoprChannel.sol\":5643:5661  states[msg.sender] */\n      0x20\n      dup2\n      swap1\n      mstore\n      0x40\n      dup1\n      dup4\n      keccak256\n        /* \"/Volumes/DEV/hopr/hopr-core/contracts/HoprChannel.sol\":5643:5674  states[msg.sender].openChannels */\n      dup3\n      add\n        /* \"/Volumes/DEV/hopr/hopr-core/contracts/HoprChannel.sol\":5643:5715  states[msg.sender].openChannels = states[msg.sender].openChannels.add(1) */\n      swap4\n      swap1\n      swap4\n      sstore\n      sub(shl(0xa0, 0x01), 0x01)\n        /* \"/Volumes/DEV/hopr/hopr-core/contracts/HoprChannel.sol\":5761:5781  states[counterparty] */\n      dup6\n      and\n      dup3\n      mstore\n      swap2\n      swap1\n      keccak256\n        /* \"/Volumes/DEV/hopr/hopr-core/contracts/HoprChannel.sol\":5761:5794  states[counterparty].openChannels */\n      dup2\n      add\n      sload\n        /* \"/Volumes/DEV/hopr/hopr-core/contracts/HoprChannel.sol\":5761:5801  states[counterparty].openChannels.add(1) */\n      tag_104\n      swap2\n      0xffffffff\n        /* \"/Volumes/DEV/hopr/hopr-core/contracts/HoprChannel.sol\":5761:5798  states[counterparty].openChannels.add */\n      tag_60\n        /* \"/Volumes/DEV/hopr/hopr-core/contracts/HoprChannel.sol\":5761:5801  states[counterparty].openChannels.add(1) */\n      and\n      jump\t// in\n    tag_104:\n      sub(shl(0xa0, 0x01), 0x01)\n        /* \"/Volumes/DEV/hopr/hopr-core/contracts/HoprChannel.sol\":5725:5745  states[counterparty] */\n      dup4\n      and\n      0x00\n      swap1\n      dup2\n      mstore\n        /* \"/Volumes/DEV/hopr/hopr-core/contracts/HoprChannel.sol\":5725:5731  states */\n      0x01\n        /* \"/Volumes/DEV/hopr/hopr-core/contracts/HoprChannel.sol\":5725:5745  states[counterparty] */\n      0x20\n      dup2\n      swap1\n      mstore\n      0x40\n      dup3\n      keccak256\n        /* \"/Volumes/DEV/hopr/hopr-core/contracts/HoprChannel.sol\":5725:5758  states[counterparty].openChannels */\n      add\n        /* \"/Volumes/DEV/hopr/hopr-core/contracts/HoprChannel.sol\":5725:5801  states[counterparty].openChannels = states[counterparty].openChannels.add(1) */\n      swap2\n      swap1\n      swap2\n      sstore\n        /* \"/Volumes/DEV/hopr/hopr-core/contracts/HoprChannel.sol\":5843:5864  uint256(2).mul(funds) */\n      tag_105\n        /* \"/Volumes/DEV/hopr/hopr-core/contracts/HoprChannel.sol\":5851:5852  2 */\n      0x02\n        /* \"/Volumes/DEV/hopr/hopr-core/contracts/HoprChannel.sol\":5858:5863  funds */\n      dup11\n        /* \"/Volumes/DEV/hopr/hopr-core/contracts/HoprChannel.sol\":5843:5864  uint256(2).mul(funds) */\n      0xffffffff\n        /* \"/Volumes/DEV/hopr/hopr-core/contracts/HoprChannel.sol\":5843:5857  uint256(2).mul */\n      tag_106\n        /* \"/Volumes/DEV/hopr/hopr-core/contracts/HoprChannel.sol\":5843:5864  uint256(2).mul(funds) */\n      and\n      jump\t// in\n    tag_105:\n        /* \"/Volumes/DEV/hopr/hopr-core/contracts/HoprChannel.sol\":5896:5951  Channel(ChannelState.ACTIVE, totalBalance, funds, 0, 0) */\n      0x40\n      dup1\n      mload\n      0xa0\n      dup2\n      add\n      swap1\n      swap2\n      mstore\n        /* \"/Volumes/DEV/hopr/hopr-core/contracts/HoprChannel.sol\":5820:5864  uint256 totalBalance = uint256(2).mul(funds) */\n      swap1\n      swap2\n      pop\n        /* \"/Volumes/DEV/hopr/hopr-core/contracts/HoprChannel.sol\":5896:5951  Channel(ChannelState.ACTIVE, totalBalance, funds, 0, 0) */\n      dup1\n        /* \"/Volumes/DEV/hopr/hopr-core/contracts/HoprChannel.sol\":5904:5923  ChannelState.ACTIVE */\n      0x03\n        /* \"/Volumes/DEV/hopr/hopr-core/contracts/HoprChannel.sol\":5896:5951  Channel(ChannelState.ACTIVE, totalBalance, funds, 0, 0) */\n      dup2\n      mstore\n      0x20\n      dup1\n      dup3\n      add\n      dup5\n      swap1\n      mstore\n      0x40\n      dup1\n      dup4\n      add\n      dup14\n      swap1\n      mstore\n      0x00\n      0x60\n      dup5\n      add\n      dup2\n      swap1\n      mstore\n      0x80\n      swap1\n      swap4\n      add\n      dup4\n      swap1\n      mstore\n        /* \"/Volumes/DEV/hopr/hopr-core/contracts/HoprChannel.sol\":5874:5893  channels[channelId] */\n      dup6\n      dup4\n      mstore\n      swap1\n      dup3\n      swap1\n      mstore\n      swap1\n      keccak256\n        /* \"/Volumes/DEV/hopr/hopr-core/contracts/HoprChannel.sol\":5874:5951  channels[channelId] = Channel(ChannelState.ACTIVE, totalBalance, funds, 0, 0) */\n      dup2\n      mload\n      dup2\n      sload\n        /* \"/Volumes/DEV/hopr/hopr-core/contracts/HoprChannel.sol\":5874:5893  channels[channelId] */\n      dup3\n      swap1\n      not(0xff)\n        /* \"/Volumes/DEV/hopr/hopr-core/contracts/HoprChannel.sol\":5874:5951  channels[channelId] = Channel(ChannelState.ACTIVE, totalBalance, funds, 0, 0) */\n      and\n      0x01\n      dup4\n      0x04\n      dup2\n      gt\n      iszero\n      tag_108\n      jumpi\n      invalid\n    tag_108:\n      mul\n      or\n      swap1\n      sstore\n      pop\n      0x20\n      dup3\n      dup2\n      add\n      mload\n      0x01\n      dup4\n      add\n      sstore\n      0x40\n      dup1\n      dup5\n      add\n      mload\n      0x02\n      dup5\n      add\n      sstore\n      0x60\n      dup5\n      add\n      mload\n      0x03\n      dup5\n      add\n      dup1\n      sload\n      not(sub(shl(0x80, 0x01), 0x01))\n      and\n      0x80\n      swap3\n      dup4\n      shr\n      or\n      swap1\n      sstore\n      swap1\n      swap4\n      add\n      mload\n      0x04\n      swap1\n      swap3\n      add\n      swap2\n      swap1\n      swap2\n      sstore\n        /* \"/Volumes/DEV/hopr/hopr-core/contracts/HoprChannel.sol\":5967:6012  OpenedChannel(channelId, funds, totalBalance) */\n      dup2\n      mload\n      dup12\n      dup2\n      mstore\n      swap1\n      dup2\n      add\n      dup4\n      swap1\n      mstore\n      dup2\n      mload\n        /* \"/Volumes/DEV/hopr/hopr-core/contracts/HoprChannel.sol\":5981:5990  channelId */\n      dup5\n      swap3\n        /* \"/Volumes/DEV/hopr/hopr-core/contracts/HoprChannel.sol\":5967:6012  OpenedChannel(channelId, funds, totalBalance) */\n      0xdfb2f221af4ea366a589b50e82754bbe2ffff413a3fa39c7544a527d600201b3\n      swap3\n      dup3\n      swap1\n      sub\n      add\n      swap1\n      log2\n        /* \"/Volumes/DEV/hopr/hopr-core/contracts/HoprChannel.sol\":2045:2046  _ */\n      pop\n      pop\n      pop\n      pop\n        /* \"/Volumes/DEV/hopr/hopr-core/contracts/HoprChannel.sol\":4825:6027  function createFunded(bytes16 nonce, uint256 funds, bytes32 r, bytes32 s, uint8 v) external enoughFunds(funds) {... */\n      pop\n      pop\n      pop\n      pop\n      pop\n      pop\n      jump\t// out\n        /* \"/Volumes/DEV/hopr/hopr-core/contracts/HoprChannel.sol\":1334:1377  mapping(bytes32 => Channel) public channels */\n    tag_42:\n      0x00\n      0x20\n      dup2\n      swap1\n      mstore\n      swap1\n      dup2\n      mstore\n      0x40\n      swap1\n      keccak256\n      dup1\n      sload\n      0x01\n      dup3\n      add\n      sload\n      0x02\n      dup4\n      add\n      sload\n      0x03\n      dup5\n      add\n      sload\n      0x04\n      swap1\n      swap5\n      add\n      sload\n      0xff\n      swap1\n      swap4\n      and\n      swap4\n      swap2\n      swap3\n      swap1\n      swap2\n      0x80\n      shl\n      swap1\n      dup6\n      jump\t// out\n        /* \"/Volumes/DEV/hopr/hopr-core/contracts/HoprChannel.sol\":8292:9447  function wrongAcknowledgement(... */\n    tag_47:\n        /* \"/Volumes/DEV/hopr/hopr-core/contracts/HoprChannel.sol\":8661:8722  abi.encodePacked(rChallenge, sChallenge, vChallenge, keyHalf) */\n      0x40\n      dup1\n      mload\n      0x20\n      dup1\n      dup3\n      add\n      dup11\n      swap1\n      mstore\n      dup2\n      dup4\n      add\n      dup10\n      swap1\n      mstore\n      not(sub(shl(0xf8, 0x01), 0x01))\n      0xf8\n      dup7\n      swap1\n      shl\n      and\n      0x60\n      dup4\n      add\n      mstore\n      0x61\n      dup1\n      dup4\n      add\n      dup8\n      swap1\n      mstore\n      dup4\n      mload\n        /* \"--CODEGEN--\":26:47   */\n      dup1\n      dup5\n      sub\n        /* \"--CODEGEN--\":22:54   */\n      swap1\n      swap2\n      add\n        /* \"--CODEGEN--\":6:55   */\n      dup2\n      mstore\n        /* \"/Volumes/DEV/hopr/hopr-core/contracts/HoprChannel.sol\":8661:8722  abi.encodePacked(rChallenge, sChallenge, vChallenge, keyHalf) */\n      0x81\n      dup4\n      add\n      dup1\n      dup6\n      mstore\n        /* \"/Volumes/DEV/hopr/hopr-core/contracts/HoprChannel.sol\":8651:8723  keccak256(abi.encodePacked(rChallenge, sChallenge, vChallenge, keyHalf)) */\n      dup2\n      mload\n      swap2\n      dup4\n      add\n      swap2\n      swap1\n      swap2\n      keccak256\n        /* \"/Volumes/DEV/hopr/hopr-core/contracts/HoprChannel.sol\":8619:8648  bytes32 hashedAcknowledgement */\n      0x00\n        /* \"/Volumes/DEV/hopr/hopr-core/contracts/HoprChannel.sol\":8757:8822  ecrecover(hashedAcknowledgement, vResponse, rResponse, sResponse) */\n      swap2\n      dup3\n      swap1\n      mstore\n      0xa1\n      dup5\n      add\n      dup1\n      dup7\n      mstore\n      dup2\n      swap1\n      mstore\n        /* \"/Volumes/DEV/hopr/hopr-core/contracts/HoprChannel.sol\":8661:8722  abi.encodePacked(rChallenge, sChallenge, vChallenge, keyHalf) */\n      0xff\n        /* \"/Volumes/DEV/hopr/hopr-core/contracts/HoprChannel.sol\":8757:8822  ecrecover(hashedAcknowledgement, vResponse, rResponse, sResponse) */\n      dup7\n      and\n      0xc1\n      dup6\n      add\n      mstore\n      0xe1\n      dup5\n      add\n      dup11\n      swap1\n      mstore\n      0x0101\n      dup5\n      add\n      dup10\n      swap1\n      mstore\n      swap4\n      mload\n        /* \"/Volumes/DEV/hopr/hopr-core/contracts/HoprChannel.sol\":8619:8648  bytes32 hashedAcknowledgement */\n      swap1\n      swap3\n        /* \"/Volumes/DEV/hopr/hopr-core/contracts/HoprChannel.sol\":8661:8722  abi.encodePacked(rChallenge, sChallenge, vChallenge, keyHalf) */\n      0x01\n      swap3\n        /* \"/Volumes/DEV/hopr/hopr-core/contracts/HoprChannel.sol\":8757:8822  ecrecover(hashedAcknowledgement, vResponse, rResponse, sResponse) */\n      0x0121\n      dup1\n      dup4\n      add\n      swap4\n        /* \"/Volumes/DEV/hopr/hopr-core/contracts/HoprChannel.sol\":8661:8722  abi.encodePacked(rChallenge, sChallenge, vChallenge, keyHalf) */\n      swap2\n      swap3\n      not(0x1f)\n        /* \"/Volumes/DEV/hopr/hopr-core/contracts/HoprChannel.sol\":8757:8822  ecrecover(hashedAcknowledgement, vResponse, rResponse, sResponse) */\n      dup4\n      add\n      swap3\n      swap1\n      dup2\n      swap1\n      sub\n      swap1\n      swap2\n      add\n      swap1\n        /* \"/Volumes/DEV/hopr/hopr-core/contracts/HoprChannel.sol\":8661:8722  abi.encodePacked(rChallenge, sChallenge, vChallenge, keyHalf) */\n      dup6\n        /* \"/Volumes/DEV/hopr/hopr-core/contracts/HoprChannel.sol\":8757:8822  ecrecover(hashedAcknowledgement, vResponse, rResponse, sResponse) */\n      gas\n      staticcall\n      iszero\n        /* \"--CODEGEN--\":8:17   */\n      dup1\n        /* \"--CODEGEN--\":5:7   */\n      iszero\n      tag_110\n      jumpi\n        /* \"--CODEGEN--\":45:61   */\n      returndatasize\n        /* \"--CODEGEN--\":42:43   */\n      0x00\n        /* \"--CODEGEN--\":39:40   */\n      dup1\n        /* \"--CODEGEN--\":24:62   */\n      returndatacopy\n        /* \"--CODEGEN--\":77:93   */\n      returndatasize\n        /* \"--CODEGEN--\":74:75   */\n      0x00\n        /* \"--CODEGEN--\":67:94   */\n      revert\n        /* \"--CODEGEN--\":5:7   */\n    tag_110:\n        /* \"/Volumes/DEV/hopr/hopr-core/contracts/HoprChannel.sol\":8757:8822  ecrecover(hashedAcknowledgement, vResponse, rResponse, sResponse) */\n      pop\n      pop\n      pop\n      mload(sub(mload(0x40), 0x20))\n        /* \"/Volumes/DEV/hopr/hopr-core/contracts/HoprChannel.sol\":8734:8822  address counterparty = ecrecover(hashedAcknowledgement, vResponse, rResponse, sResponse) */\n      swap1\n      pop\n        /* \"/Volumes/DEV/hopr/hopr-core/contracts/HoprChannel.sol\":8832:8855  Channel storage channel */\n      0x00\n        /* \"/Volumes/DEV/hopr/hopr-core/contracts/HoprChannel.sol\":8858:8866  channels */\n      dup1\n        /* \"/Volumes/DEV/hopr/hopr-core/contracts/HoprChannel.sol\":8858:8899  channels[getId(msg.sender, counterparty)] */\n      0x00\n        /* \"/Volumes/DEV/hopr/hopr-core/contracts/HoprChannel.sol\":8867:8898  getId(msg.sender, counterparty) */\n      tag_111\n        /* \"/Volumes/DEV/hopr/hopr-core/contracts/HoprChannel.sol\":8873:8883  msg.sender */\n      caller\n        /* \"/Volumes/DEV/hopr/hopr-core/contracts/HoprChannel.sol\":8885:8897  counterparty */\n      dup6\n        /* \"/Volumes/DEV/hopr/hopr-core/contracts/HoprChannel.sol\":8867:8872  getId */\n      tag_72\n        /* \"/Volumes/DEV/hopr/hopr-core/contracts/HoprChannel.sol\":8867:8898  getId(msg.sender, counterparty) */\n      jump\t// in\n    tag_111:\n        /* \"/Volumes/DEV/hopr/hopr-core/contracts/HoprChannel.sol\":8858:8899  channels[getId(msg.sender, counterparty)] */\n      dup2\n      mstore\n      0x20\n      dup2\n      add\n      swap2\n      swap1\n      swap2\n      mstore\n      0x40\n      add\n      0x00\n      swap1\n      dup2\n      keccak256\n      swap2\n      pop\n        /* \"/Volumes/DEV/hopr/hopr-core/contracts/HoprChannel.sol\":8918:8931  channel.state */\n      dup2\n      sload\n      0xff\n      and\n        /* \"/Volumes/DEV/hopr/hopr-core/contracts/HoprChannel.sol\":8918:8961  channel.state != ChannelState.UNINITIALIZED */\n      0x04\n      dup2\n      gt\n      iszero\n      tag_113\n      jumpi\n      invalid\n    tag_113:\n      eq\n      iszero\n        /* \"/Volumes/DEV/hopr/hopr-core/contracts/HoprChannel.sol\":8910:8986  require(channel.state != ChannelState.UNINITIALIZED, \"Invalid channel 123.\") */\n      tag_114\n      jumpi\n      0x40\n      dup1\n      mload\n      shl(0xe5, 0x461bcd)\n      dup2\n      mstore\n      0x20\n      0x04\n      dup3\n      add\n      mstore\n      0x14\n      0x24\n      dup3\n      add\n      mstore\n      shl(0x61, 0x24b73b30b634b21031b430b73732b61018991997)\n      0x44\n      dup3\n      add\n      mstore\n      swap1\n      mload\n      swap1\n      dup2\n      swap1\n      sub\n      0x64\n      add\n      swap1\n      revert\n    tag_114:\n        /* \"/Volumes/DEV/hopr/hopr-core/contracts/HoprChannel.sol\":9031:9056  abi.encodePacked(keyHalf) */\n      0x40\n      dup1\n      mload\n      0x20\n      dup1\n      dup3\n      add\n      dup10\n      swap1\n      mstore\n      dup3\n      mload\n        /* \"--CODEGEN--\":26:47   */\n      dup1\n      dup4\n      sub\n        /* \"--CODEGEN--\":22:54   */\n      dup3\n      add\n        /* \"--CODEGEN--\":6:55   */\n      dup2\n      mstore\n        /* \"/Volumes/DEV/hopr/hopr-core/contracts/HoprChannel.sol\":9031:9056  abi.encodePacked(keyHalf) */\n      dup3\n      dup5\n      add\n      dup1\n      dup6\n      mstore\n        /* \"/Volumes/DEV/hopr/hopr-core/contracts/HoprChannel.sol\":9021:9057  keccak256(abi.encodePacked(keyHalf)) */\n      dup2\n      mload\n      swap2\n      dup4\n      add\n      swap2\n      swap1\n      swap2\n      keccak256\n        /* \"/Volumes/DEV/hopr/hopr-core/contracts/HoprChannel.sol\":8997:9018  bytes32 hashedKeyHalf */\n      0x00\n        /* \"/Volumes/DEV/hopr/hopr-core/contracts/HoprChannel.sol\":9143:9203  ecrecover(hashedKeyHalf, vChallenge, rChallenge, sChallenge) */\n      swap1\n      swap2\n      mstore\n      0x60\n      dup4\n      add\n      dup1\n      dup6\n      mstore\n      dup2\n      swap1\n      mstore\n      0xff\n      dup10\n      and\n      0x80\n      dup5\n      add\n      mstore\n      0xa0\n      dup4\n      add\n      dup15\n      swap1\n      mstore\n      0xc0\n      dup4\n      add\n      dup14\n      swap1\n      mstore\n      swap3\n      mload\n      0x01\n      swap3\n      0xe0\n      dup1\n      dup3\n      add\n      swap4\n        /* \"/Volumes/DEV/hopr/hopr-core/contracts/HoprChannel.sol\":9031:9056  abi.encodePacked(keyHalf) */\n      swap3\n      not(0x1f)\n        /* \"/Volumes/DEV/hopr/hopr-core/contracts/HoprChannel.sol\":9143:9203  ecrecover(hashedKeyHalf, vChallenge, rChallenge, sChallenge) */\n      dup2\n      add\n      swap3\n      dup2\n      swap1\n      sub\n      swap1\n      swap2\n      add\n      swap1\n      dup6\n      gas\n      staticcall\n      iszero\n        /* \"--CODEGEN--\":8:17   */\n      dup1\n        /* \"--CODEGEN--\":5:7   */\n      iszero\n      tag_115\n      jumpi\n        /* \"--CODEGEN--\":45:61   */\n      returndatasize\n        /* \"--CODEGEN--\":42:43   */\n      0x00\n        /* \"--CODEGEN--\":39:40   */\n      dup1\n        /* \"--CODEGEN--\":24:62   */\n      returndatacopy\n        /* \"--CODEGEN--\":77:93   */\n      returndatasize\n        /* \"--CODEGEN--\":74:75   */\n      0x00\n        /* \"--CODEGEN--\":67:94   */\n      revert\n        /* \"--CODEGEN--\":5:7   */\n    tag_115:\n        /* \"/Volumes/DEV/hopr/hopr-core/contracts/HoprChannel.sol\":9143:9203  ecrecover(hashedKeyHalf, vChallenge, rChallenge, sChallenge) */\n      pop\n      pop\n      pop\n      mload(sub(mload(0x40), 0x20))\n      sub(shl(0xa0, 0x01), 0x01)\n        /* \"/Volumes/DEV/hopr/hopr-core/contracts/HoprChannel.sol\":9129:9203  msg.sender != ecrecover(hashedKeyHalf, vChallenge, rChallenge, sChallenge) */\n      and\n        /* \"/Volumes/DEV/hopr/hopr-core/contracts/HoprChannel.sol\":9129:9139  msg.sender */\n      caller\n      sub(shl(0xa0, 0x01), 0x01)\n        /* \"/Volumes/DEV/hopr/hopr-core/contracts/HoprChannel.sol\":9129:9203  msg.sender != ecrecover(hashedKeyHalf, vChallenge, rChallenge, sChallenge) */\n      and\n      eq\n      iszero\n        /* \"/Volumes/DEV/hopr/hopr-core/contracts/HoprChannel.sol\":9121:9259  require(msg.sender != ecrecover(hashedKeyHalf, vChallenge, rChallenge, sChallenge), \"Trying to claim funds with a valid acknowledgement.\") */\n      tag_116\n      jumpi\n      mload(0x40)\n      shl(0xe5, 0x461bcd)\n      dup2\n      mstore\n      0x04\n      add\n      dup1\n      dup1\n      0x20\n      add\n      dup3\n      dup2\n      sub\n      dup3\n      mstore\n      0x33\n      dup2\n      mstore\n      0x20\n      add\n      dup1\n      data_a40374b6e7c0da51fed59dc816a35033bbe3dca16a44b193c3f4fe4e0c22557d\n      0x33\n      swap2\n      codecopy\n      0x40\n      add\n      swap2\n      pop\n      pop\n      mload(0x40)\n      dup1\n      swap2\n      sub\n      swap1\n      revert\n    tag_116:\n        /* \"/Volumes/DEV/hopr/hopr-core/contracts/HoprChannel.sol\":8292:9447  function wrongAcknowledgement(... */\n      pop\n      pop\n      pop\n      pop\n      pop\n      pop\n      pop\n      pop\n      pop\n      pop\n      pop\n      jump\t// out\n        /* \"/Volumes/DEV/hopr/hopr-core/contracts/HoprChannel.sol\":2949:3960  function createFor(address partyA, address partyB) payable public {... */\n    tag_50:\n        /* \"/Volumes/DEV/hopr/hopr-core/contracts/HoprChannel.sol\":3025:3042  bytes32 channelId */\n      0x00\n        /* \"/Volumes/DEV/hopr/hopr-core/contracts/HoprChannel.sol\":3045:3066  getId(partyA, partyB) */\n      tag_118\n        /* \"/Volumes/DEV/hopr/hopr-core/contracts/HoprChannel.sol\":3051:3057  partyA */\n      dup4\n        /* \"/Volumes/DEV/hopr/hopr-core/contracts/HoprChannel.sol\":3059:3065  partyB */\n      dup4\n        /* \"/Volumes/DEV/hopr/hopr-core/contracts/HoprChannel.sol\":3045:3050  getId */\n      tag_72\n        /* \"/Volumes/DEV/hopr/hopr-core/contracts/HoprChannel.sol\":3045:3066  getId(partyA, partyB) */\n      jump\t// in\n    tag_118:\n        /* \"/Volumes/DEV/hopr/hopr-core/contracts/HoprChannel.sol\":3025:3066  bytes32 channelId = getId(partyA, partyB) */\n      swap1\n      pop\n        /* \"/Volumes/DEV/hopr/hopr-core/contracts/HoprChannel.sol\":3093:3102  msg.value */\n      callvalue\n        /* \"/Volumes/DEV/hopr/hopr-core/contracts/HoprChannel.sol\":3129:3130  1 */\n      0x01\n        /* \"/Volumes/DEV/hopr/hopr-core/contracts/HoprChannel.sol\":3121:3130  funds > 1 */\n      dup2\n      gt\n        /* \"/Volumes/DEV/hopr/hopr-core/contracts/HoprChannel.sol\":3113:3184  require(funds > 1, \"Cannot spread one wei uniformly over two parties.\") */\n      tag_119\n      jumpi\n      mload(0x40)\n      shl(0xe5, 0x461bcd)\n      dup2\n      mstore\n      0x04\n      add\n      dup1\n      dup1\n      0x20\n      add\n      dup3\n      dup2\n      sub\n      dup3\n      mstore\n      0x31\n      dup2\n      mstore\n      0x20\n      add\n      dup1\n      data_6f8688a3ab426439142b92723545fd861013ea32ed54f2be54792633734be3ec\n      0x31\n      swap2\n      codecopy\n      0x40\n      add\n      swap2\n      pop\n      pop\n      mload(0x40)\n      dup1\n      swap2\n      sub\n      swap1\n      revert\n    tag_119:\n        /* \"/Volumes/DEV/hopr/hopr-core/contracts/HoprChannel.sol\":3207:3208  2 */\n      0x02\n        /* \"/Volumes/DEV/hopr/hopr-core/contracts/HoprChannel.sol\":3199:3204  funds */\n      dup2\n        /* \"/Volumes/DEV/hopr/hopr-core/contracts/HoprChannel.sol\":3199:3208  funds % 2 */\n      mod\n        /* \"/Volumes/DEV/hopr/hopr-core/contracts/HoprChannel.sol\":3212:3213  1 */\n      0x01\n        /* \"/Volumes/DEV/hopr/hopr-core/contracts/HoprChannel.sol\":3199:3213  funds % 2 == 1 */\n      eq\n        /* \"/Volumes/DEV/hopr/hopr-core/contracts/HoprChannel.sol\":3195:3257  if (funds % 2 == 1) {... */\n      iszero\n      tag_121\n      jumpi\n      not(0x00)\n        /* \"/Volumes/DEV/hopr/hopr-core/contracts/HoprChannel.sol\":3237:3246  funds - 1 */\n      add\n        /* \"/Volumes/DEV/hopr/hopr-core/contracts/HoprChannel.sol\":3195:3257  if (funds % 2 == 1) {... */\n    tag_121:\n        /* \"/Volumes/DEV/hopr/hopr-core/contracts/HoprChannel.sol\":3304:3330  ChannelState.UNINITIALIZED */\n      0x00\n        /* \"/Volumes/DEV/hopr/hopr-core/contracts/HoprChannel.sol\":3275:3294  channels[channelId] */\n      dup3\n      dup2\n      mstore\n      0x20\n      dup2\n      swap1\n      mstore\n      0x40\n      dup2\n      keccak256\n        /* \"/Volumes/DEV/hopr/hopr-core/contracts/HoprChannel.sol\":3275:3300  channels[channelId].state */\n      sload\n      0xff\n      and\n        /* \"/Volumes/DEV/hopr/hopr-core/contracts/HoprChannel.sol\":3275:3330  channels[channelId].state == ChannelState.UNINITIALIZED */\n      0x04\n      dup2\n      gt\n      iszero\n      tag_123\n      jumpi\n      invalid\n    tag_123:\n      eq\n        /* \"/Volumes/DEV/hopr/hopr-core/contracts/HoprChannel.sol\":3267:3358  require(channels[channelId].state == ChannelState.UNINITIALIZED, \"Channel already exists.\") */\n      tag_124\n      jumpi\n      0x40\n      dup1\n      mload\n      shl(0xe5, 0x461bcd)\n      dup2\n      mstore\n      0x20\n      0x04\n      dup3\n      add\n      mstore\n      0x17\n      0x24\n      dup3\n      add\n      mstore\n      shl(0x49, 0x21b430b73732b61030b63932b0b23c9032bc34b9ba3997)\n      0x44\n      dup3\n      add\n      mstore\n      swap1\n      mload\n      swap1\n      dup2\n      swap1\n      sub\n      0x64\n      add\n      swap1\n      revert\n    tag_124:\n      sub(shl(0xa0, 0x01), 0x01)\n        /* \"/Volumes/DEV/hopr/hopr-core/contracts/HoprChannel.sol\":3374:3388  states[partyA] */\n      dup5\n      and\n      0x00\n      swap1\n      dup2\n      mstore\n        /* \"/Volumes/DEV/hopr/hopr-core/contracts/HoprChannel.sol\":3374:3380  states */\n      0x01\n        /* \"/Volumes/DEV/hopr/hopr-core/contracts/HoprChannel.sol\":3374:3388  states[partyA] */\n      0x20\n      mstore\n      0x40\n      swap1\n      keccak256\n        /* \"/Volumes/DEV/hopr/hopr-core/contracts/HoprChannel.sol\":3374:3394  states[partyA].isSet */\n      sload\n      0xff\n      and\n        /* \"/Volumes/DEV/hopr/hopr-core/contracts/HoprChannel.sol\":3369:3547  if (!states[partyA].isSet) {... */\n      tag_125\n      jumpi\n        /* \"/Volumes/DEV/hopr/hopr-core/contracts/HoprChannel.sol\":3427:3444  State(true, 1, 0) */\n      0x40\n      dup1\n      mload\n      0x60\n      dup2\n      add\n      dup3\n      mstore\n        /* \"/Volumes/DEV/hopr/hopr-core/contracts/HoprChannel.sol\":3433:3437  true */\n      0x01\n        /* \"/Volumes/DEV/hopr/hopr-core/contracts/HoprChannel.sol\":3427:3444  State(true, 1, 0) */\n      dup1\n      dup3\n      mstore\n      0x20\n      dup1\n      dup4\n      add\n      dup3\n      dup2\n      mstore\n      0x00\n      dup5\n      dup7\n      add\n      dup2\n      dup2\n      mstore\n      sub(shl(0xa0, 0x01), 0x01)\n        /* \"/Volumes/DEV/hopr/hopr-core/contracts/HoprChannel.sol\":3410:3424  states[partyA] */\n      dup12\n      and\n      dup3\n      mstore\n      swap3\n      dup5\n      swap1\n      mstore\n      swap5\n      swap1\n      swap5\n      keccak256\n        /* \"/Volumes/DEV/hopr/hopr-core/contracts/HoprChannel.sol\":3410:3444  states[partyA] = State(true, 1, 0) */\n      swap3\n      mload\n      dup4\n      sload\n      not(0xff)\n      and\n      swap1\n      iszero\n      iszero\n      or\n      dup4\n      sstore\n      swap3\n      mload\n      swap1\n      dup3\n      add\n      sstore\n      swap1\n      mload\n      0x02\n      swap1\n      swap2\n      add\n      sstore\n        /* \"/Volumes/DEV/hopr/hopr-core/contracts/HoprChannel.sol\":3369:3547  if (!states[partyA].isSet) {... */\n      jump(tag_126)\n    tag_125:\n      sub(shl(0xa0, 0x01), 0x01)\n        /* \"/Volumes/DEV/hopr/hopr-core/contracts/HoprChannel.sol\":3505:3519  states[partyA] */\n      dup5\n      and\n      0x00\n      swap1\n      dup2\n      mstore\n        /* \"/Volumes/DEV/hopr/hopr-core/contracts/HoprChannel.sol\":3505:3511  states */\n      0x01\n        /* \"/Volumes/DEV/hopr/hopr-core/contracts/HoprChannel.sol\":3505:3519  states[partyA] */\n      0x20\n      dup2\n      swap1\n      mstore\n      0x40\n      swap1\n      swap2\n      keccak256\n        /* \"/Volumes/DEV/hopr/hopr-core/contracts/HoprChannel.sol\":3505:3532  states[partyA].openChannels */\n      dup2\n      add\n      dup1\n      sload\n        /* \"/Volumes/DEV/hopr/hopr-core/contracts/HoprChannel.sol\":3505:3536  states[partyA].openChannels + 1 */\n      swap1\n      swap2\n      add\n        /* \"/Volumes/DEV/hopr/hopr-core/contracts/HoprChannel.sol\":3475:3536  states[partyA].openChannels = states[partyA].openChannels + 1 */\n      swap1\n      sstore\n        /* \"/Volumes/DEV/hopr/hopr-core/contracts/HoprChannel.sol\":3369:3547  if (!states[partyA].isSet) {... */\n    tag_126:\n      sub(shl(0xa0, 0x01), 0x01)\n        /* \"/Volumes/DEV/hopr/hopr-core/contracts/HoprChannel.sol\":3562:3576  states[partyB] */\n      dup4\n      and\n      0x00\n      swap1\n      dup2\n      mstore\n        /* \"/Volumes/DEV/hopr/hopr-core/contracts/HoprChannel.sol\":3562:3568  states */\n      0x01\n        /* \"/Volumes/DEV/hopr/hopr-core/contracts/HoprChannel.sol\":3562:3576  states[partyB] */\n      0x20\n      mstore\n      0x40\n      swap1\n      keccak256\n        /* \"/Volumes/DEV/hopr/hopr-core/contracts/HoprChannel.sol\":3562:3582  states[partyB].isSet */\n      sload\n      0xff\n      and\n        /* \"/Volumes/DEV/hopr/hopr-core/contracts/HoprChannel.sol\":3557:3735  if (!states[partyB].isSet) {... */\n      tag_127\n      jumpi\n        /* \"/Volumes/DEV/hopr/hopr-core/contracts/HoprChannel.sol\":3615:3632  State(true, 1, 0) */\n      0x40\n      dup1\n      mload\n      0x60\n      dup2\n      add\n      dup3\n      mstore\n        /* \"/Volumes/DEV/hopr/hopr-core/contracts/HoprChannel.sol\":3621:3625  true */\n      0x01\n        /* \"/Volumes/DEV/hopr/hopr-core/contracts/HoprChannel.sol\":3615:3632  State(true, 1, 0) */\n      dup1\n      dup3\n      mstore\n      0x20\n      dup1\n      dup4\n      add\n      dup3\n      dup2\n      mstore\n      0x00\n      dup5\n      dup7\n      add\n      dup2\n      dup2\n      mstore\n      sub(shl(0xa0, 0x01), 0x01)\n        /* \"/Volumes/DEV/hopr/hopr-core/contracts/HoprChannel.sol\":3598:3612  states[partyB] */\n      dup11\n      and\n      dup3\n      mstore\n      swap3\n      dup5\n      swap1\n      mstore\n      swap5\n      swap1\n      swap5\n      keccak256\n        /* \"/Volumes/DEV/hopr/hopr-core/contracts/HoprChannel.sol\":3598:3632  states[partyB] = State(true, 1, 0) */\n      swap3\n      mload\n      dup4\n      sload\n      not(0xff)\n      and\n      swap1\n      iszero\n      iszero\n      or\n      dup4\n      sstore\n      swap3\n      mload\n      swap1\n      dup3\n      add\n      sstore\n      swap1\n      mload\n      0x02\n      swap1\n      swap2\n      add\n      sstore\n        /* \"/Volumes/DEV/hopr/hopr-core/contracts/HoprChannel.sol\":3557:3735  if (!states[partyB].isSet) {... */\n      jump(tag_128)\n    tag_127:\n      sub(shl(0xa0, 0x01), 0x01)\n        /* \"/Volumes/DEV/hopr/hopr-core/contracts/HoprChannel.sol\":3693:3707  states[partyB] */\n      dup4\n      and\n      0x00\n      swap1\n      dup2\n      mstore\n        /* \"/Volumes/DEV/hopr/hopr-core/contracts/HoprChannel.sol\":3693:3699  states */\n      0x01\n        /* \"/Volumes/DEV/hopr/hopr-core/contracts/HoprChannel.sol\":3693:3707  states[partyB] */\n      0x20\n      dup2\n      swap1\n      mstore\n      0x40\n      swap1\n      swap2\n      keccak256\n        /* \"/Volumes/DEV/hopr/hopr-core/contracts/HoprChannel.sol\":3693:3720  states[partyB].openChannels */\n      dup2\n      add\n      dup1\n      sload\n        /* \"/Volumes/DEV/hopr/hopr-core/contracts/HoprChannel.sol\":3693:3724  states[partyB].openChannels + 1 */\n      swap1\n      swap2\n      add\n        /* \"/Volumes/DEV/hopr/hopr-core/contracts/HoprChannel.sol\":3663:3724  states[partyB].openChannels = states[partyB].openChannels + 1 */\n      swap1\n      sstore\n        /* \"/Volumes/DEV/hopr/hopr-core/contracts/HoprChannel.sol\":3557:3735  if (!states[partyB].isSet) {... */\n    tag_128:\n        /* \"/Volumes/DEV/hopr/hopr-core/contracts/HoprChannel.sol\":3837:3888  Channel(ChannelState.ACTIVE, amount, amountA, 0, 0) */\n      0x40\n      dup1\n      mload\n      0xa0\n      dup2\n      add\n      swap1\n      swap2\n      mstore\n        /* \"/Volumes/DEV/hopr/hopr-core/contracts/HoprChannel.sol\":3762:3767  funds */\n      dup2\n      swap1\n        /* \"/Volumes/DEV/hopr/hopr-core/contracts/HoprChannel.sol\":3803:3804  2 */\n      0x02\n        /* \"/Volumes/DEV/hopr/hopr-core/contracts/HoprChannel.sol\":3795:3804  funds / 2 */\n      dup3\n      div\n      swap1\n        /* \"/Volumes/DEV/hopr/hopr-core/contracts/HoprChannel.sol\":3837:3888  Channel(ChannelState.ACTIVE, amount, amountA, 0, 0) */\n      dup1\n        /* \"/Volumes/DEV/hopr/hopr-core/contracts/HoprChannel.sol\":3845:3864  ChannelState.ACTIVE */\n      0x03\n        /* \"/Volumes/DEV/hopr/hopr-core/contracts/HoprChannel.sol\":3837:3888  Channel(ChannelState.ACTIVE, amount, amountA, 0, 0) */\n      dup2\n      mstore\n      0x20\n      dup1\n      dup3\n      add\n      dup6\n      swap1\n      mstore\n      0x40\n      dup1\n      dup4\n      add\n      dup6\n      swap1\n      mstore\n      0x00\n      0x60\n      dup5\n      add\n      dup2\n      swap1\n      mstore\n      0x80\n      swap1\n      swap4\n      add\n      dup4\n      swap1\n      mstore\n        /* \"/Volumes/DEV/hopr/hopr-core/contracts/HoprChannel.sol\":3815:3834  channels[channelId] */\n      dup8\n      dup4\n      mstore\n      swap1\n      dup3\n      swap1\n      mstore\n      swap1\n      keccak256\n        /* \"/Volumes/DEV/hopr/hopr-core/contracts/HoprChannel.sol\":3815:3888  channels[channelId] = Channel(ChannelState.ACTIVE, amount, amountA, 0, 0) */\n      dup2\n      mload\n      dup2\n      sload\n        /* \"/Volumes/DEV/hopr/hopr-core/contracts/HoprChannel.sol\":3815:3834  channels[channelId] */\n      dup3\n      swap1\n      not(0xff)\n        /* \"/Volumes/DEV/hopr/hopr-core/contracts/HoprChannel.sol\":3815:3888  channels[channelId] = Channel(ChannelState.ACTIVE, amount, amountA, 0, 0) */\n      and\n      0x01\n      dup4\n      0x04\n      dup2\n      gt\n      iszero\n      tag_131\n      jumpi\n      invalid\n    tag_131:\n      mul\n      or\n      swap1\n      sstore\n      pop\n      0x20\n      dup3\n      dup2\n      add\n      mload\n      0x01\n      dup4\n      add\n      sstore\n      0x40\n      dup1\n      dup5\n      add\n      mload\n      0x02\n      dup5\n      add\n      sstore\n      0x60\n      dup5\n      add\n      mload\n      0x03\n      dup5\n      add\n      dup1\n      sload\n      not(sub(shl(0x80, 0x01), 0x01))\n      and\n      0x80\n      swap3\n      dup4\n      shr\n      or\n      swap1\n      sstore\n      swap1\n      swap4\n      add\n      mload\n      0x04\n      swap1\n      swap3\n      add\n      swap2\n      swap1\n      swap2\n      sstore\n        /* \"/Volumes/DEV/hopr/hopr-core/contracts/HoprChannel.sol\":3904:3953  OpenedChannelFor(partyA, partyB, amountA, amount) */\n      dup2\n      mload\n      dup4\n      dup2\n      mstore\n      swap1\n      dup2\n      add\n      dup5\n      swap1\n      mstore\n      dup2\n      mload\n      sub(shl(0xa0, 0x01), 0x01)\n      dup9\n      dup2\n      and\n      swap4\n      swap1\n      dup11\n      and\n      swap3\n      0x3f702350942174c5a9ec39fd9dc5f67acb65a57454e5155f72a2bab4aede7708\n      swap3\n      swap1\n      dup2\n      swap1\n      sub\n      swap1\n      swap2\n      add\n      swap1\n      log3\n        /* \"/Volumes/DEV/hopr/hopr-core/contracts/HoprChannel.sol\":2949:3960  function createFor(address partyA, address partyB) payable public {... */\n      pop\n      pop\n      pop\n      pop\n      pop\n      pop\n      jump\t// out\n        /* \"/Volumes/DEV/hopr/hopr-core/contracts/HoprChannel.sol\":6690:7679  function closeChannel(bytes16 index, bytes16 nonce, uint256 balanceA, bytes32 curvePointFirst, bytes1 curvePointSecond, bytes32 r, bytes32 s, uint8 v) public {... */\n    tag_54:\n        /* \"/Volumes/DEV/hopr/hopr-core/contracts/HoprChannel.sol\":6892:6967  abi.encodePacked(nonce, index, balanceA, curvePointFirst, curvePointSecond) */\n      0x40\n      dup1\n      mload\n      not(sub(shl(0x80, 0x01), 0x01))\n      dup1\n      dup11\n      and\n      0x20\n      dup1\n      dup5\n      add\n      swap2\n      swap1\n      swap2\n      mstore\n      swap1\n      dup12\n      and\n      0x30\n      dup4\n      add\n      mstore\n      dup2\n      dup4\n      add\n      dup10\n      swap1\n      mstore\n      0x60\n      dup3\n      add\n      dup9\n      swap1\n      mstore\n      not(sub(shl(0xf8, 0x01), 0x01))\n      dup8\n      and\n      0x80\n      dup4\n      add\n      mstore\n      dup3\n      mload\n        /* \"--CODEGEN--\":22:54   */\n      0x61\n        /* \"--CODEGEN--\":26:47   */\n      dup2\n      dup5\n      sub\n        /* \"--CODEGEN--\":22:54   */\n      add\n        /* \"--CODEGEN--\":6:55   */\n      dup2\n      mstore\n        /* \"/Volumes/DEV/hopr/hopr-core/contracts/HoprChannel.sol\":6892:6967  abi.encodePacked(nonce, index, balanceA, curvePointFirst, curvePointSecond) */\n      0x81\n      dup4\n      add\n      dup1\n      dup6\n      mstore\n        /* \"/Volumes/DEV/hopr/hopr-core/contracts/HoprChannel.sol\":6882:6968  keccak256(abi.encodePacked(nonce, index, balanceA, curvePointFirst, curvePointSecond)) */\n      dup2\n      mload\n      swap2\n      dup4\n      add\n      swap2\n      swap1\n      swap2\n      keccak256\n        /* \"/Volumes/DEV/hopr/hopr-core/contracts/HoprChannel.sol\":6858:6879  bytes32 hashedMessage */\n      0x00\n        /* \"/Volumes/DEV/hopr/hopr-core/contracts/HoprChannel.sol\":7001:7034  ecrecover(hashedMessage, v, r, s) */\n      swap2\n      dup3\n      swap1\n      mstore\n      0xa1\n      dup5\n      add\n      dup1\n      dup7\n      mstore\n      dup2\n      swap1\n      mstore\n      0xff\n      dup7\n      and\n      0xc1\n      dup6\n      add\n      mstore\n      0xe1\n      dup5\n      add\n      dup9\n      swap1\n      mstore\n      0x0101\n      dup5\n      add\n      dup8\n      swap1\n      mstore\n      swap4\n      mload\n        /* \"/Volumes/DEV/hopr/hopr-core/contracts/HoprChannel.sol\":6858:6879  bytes32 hashedMessage */\n      swap1\n      swap3\n        /* \"/Volumes/DEV/hopr/hopr-core/contracts/HoprChannel.sol\":6892:6967  abi.encodePacked(nonce, index, balanceA, curvePointFirst, curvePointSecond) */\n      0x01\n      swap3\n        /* \"/Volumes/DEV/hopr/hopr-core/contracts/HoprChannel.sol\":7001:7034  ecrecover(hashedMessage, v, r, s) */\n      0x0121\n      dup1\n      dup4\n      add\n      swap4\n        /* \"/Volumes/DEV/hopr/hopr-core/contracts/HoprChannel.sol\":6892:6967  abi.encodePacked(nonce, index, balanceA, curvePointFirst, curvePointSecond) */\n      swap2\n      swap3\n      not(0x1f)\n        /* \"/Volumes/DEV/hopr/hopr-core/contracts/HoprChannel.sol\":7001:7034  ecrecover(hashedMessage, v, r, s) */\n      dup4\n      add\n      swap3\n      swap1\n      dup2\n      swap1\n      sub\n      swap1\n      swap2\n      add\n      swap1\n        /* \"/Volumes/DEV/hopr/hopr-core/contracts/HoprChannel.sol\":6892:6967  abi.encodePacked(nonce, index, balanceA, curvePointFirst, curvePointSecond) */\n      dup6\n        /* \"/Volumes/DEV/hopr/hopr-core/contracts/HoprChannel.sol\":7001:7034  ecrecover(hashedMessage, v, r, s) */\n      gas\n      staticcall\n      iszero\n        /* \"--CODEGEN--\":8:17   */\n      dup1\n        /* \"--CODEGEN--\":5:7   */\n      iszero\n      tag_133\n      jumpi\n        /* \"--CODEGEN--\":45:61   */\n      returndatasize\n        /* \"--CODEGEN--\":42:43   */\n      0x00\n        /* \"--CODEGEN--\":39:40   */\n      dup1\n        /* \"--CODEGEN--\":24:62   */\n      returndatacopy\n        /* \"--CODEGEN--\":77:93   */\n      returndatasize\n        /* \"--CODEGEN--\":74:75   */\n      0x00\n        /* \"--CODEGEN--\":67:94   */\n      revert\n        /* \"--CODEGEN--\":5:7   */\n    tag_133:\n        /* \"/Volumes/DEV/hopr/hopr-core/contracts/HoprChannel.sol\":7001:7034  ecrecover(hashedMessage, v, r, s) */\n      pop\n      pop\n      pop\n      mload(sub(mload(0x40), 0x20))\n        /* \"/Volumes/DEV/hopr/hopr-core/contracts/HoprChannel.sol\":6978:7034  address counterparty = ecrecover(hashedMessage, v, r, s) */\n      swap1\n      pop\n        /* \"/Volumes/DEV/hopr/hopr-core/contracts/HoprChannel.sol\":7045:7062  bytes32 channelId */\n      0x00\n        /* \"/Volumes/DEV/hopr/hopr-core/contracts/HoprChannel.sol\":7065:7096  getId(msg.sender, counterparty) */\n      tag_134\n        /* \"/Volumes/DEV/hopr/hopr-core/contracts/HoprChannel.sol\":7071:7081  msg.sender */\n      caller\n        /* \"/Volumes/DEV/hopr/hopr-core/contracts/HoprChannel.sol\":7083:7095  counterparty */\n      dup4\n        /* \"/Volumes/DEV/hopr/hopr-core/contracts/HoprChannel.sol\":7065:7070  getId */\n      tag_72\n        /* \"/Volumes/DEV/hopr/hopr-core/contracts/HoprChannel.sol\":7065:7096  getId(msg.sender, counterparty) */\n      jump\t// in\n    tag_134:\n        /* \"/Volumes/DEV/hopr/hopr-core/contracts/HoprChannel.sol\":7106:7129  Channel storage channel */\n      0x00\n        /* \"/Volumes/DEV/hopr/hopr-core/contracts/HoprChannel.sol\":7132:7151  channels[channelId] */\n      dup2\n      dup2\n      mstore\n      0x20\n      dup2\n      swap1\n      mstore\n      0x40\n      swap1\n      keccak256\n        /* \"/Volumes/DEV/hopr/hopr-core/contracts/HoprChannel.sol\":7191:7204  channel.index */\n      0x03\n      dup2\n      add\n      sload\n        /* \"/Volumes/DEV/hopr/hopr-core/contracts/HoprChannel.sol\":7045:7096  bytes32 channelId = getId(msg.sender, counterparty) */\n      swap2\n      swap3\n      pop\n        /* \"/Volumes/DEV/hopr/hopr-core/contracts/HoprChannel.sol\":7132:7151  channels[channelId] */\n      swap1\n      not(sub(shl(0x80, 0x01), 0x01))\n        /* \"/Volumes/DEV/hopr/hopr-core/contracts/HoprChannel.sol\":7191:7212  channel.index < index */\n      dup1\n      dup15\n      and\n        /* \"/Volumes/DEV/hopr/hopr-core/contracts/HoprChannel.sol\":7191:7204  channel.index */\n      0x80\n      swap3\n      swap1\n      swap3\n      shl\n        /* \"/Volumes/DEV/hopr/hopr-core/contracts/HoprChannel.sol\":7191:7212  channel.index < index */\n      and\n      lt\n        /* \"/Volumes/DEV/hopr/hopr-core/contracts/HoprChannel.sol\":7191:7264  channel.index < index &&... */\n      dup1\n      iszero\n      tag_135\n      jumpi\n      pop\n        /* \"/Volumes/DEV/hopr/hopr-core/contracts/HoprChannel.sol\":7245:7264  ChannelState.ACTIVE */\n      0x03\n        /* \"/Volumes/DEV/hopr/hopr-core/contracts/HoprChannel.sol\":7228:7241  channel.state */\n      dup2\n      sload\n      0xff\n      and\n        /* \"/Volumes/DEV/hopr/hopr-core/contracts/HoprChannel.sol\":7228:7264  channel.state == ChannelState.ACTIVE */\n      0x04\n      dup2\n      gt\n      iszero\n      tag_137\n      jumpi\n      invalid\n    tag_137:\n      eq\n        /* \"/Volumes/DEV/hopr/hopr-core/contracts/HoprChannel.sol\":7191:7264  channel.index < index &&... */\n    tag_135:\n        /* \"/Volumes/DEV/hopr/hopr-core/contracts/HoprChannel.sol\":7191:7316  channel.index < index &&... */\n      dup1\n      tag_138\n      jumpi\n      pop\n        /* \"/Volumes/DEV/hopr/hopr-core/contracts/HoprChannel.sol\":7285:7316  ChannelState.PENDING_SETTLEMENT */\n      0x04\n        /* \"/Volumes/DEV/hopr/hopr-core/contracts/HoprChannel.sol\":7268:7281  channel.state */\n      dup2\n      sload\n      0xff\n      and\n        /* \"/Volumes/DEV/hopr/hopr-core/contracts/HoprChannel.sol\":7268:7316  channel.state == ChannelState.PENDING_SETTLEMENT */\n      0x04\n      dup2\n      gt\n      iszero\n      tag_140\n      jumpi\n      invalid\n    tag_140:\n      eq\n        /* \"/Volumes/DEV/hopr/hopr-core/contracts/HoprChannel.sol\":7191:7316  channel.index < index &&... */\n    tag_138:\n        /* \"/Volumes/DEV/hopr/hopr-core/contracts/HoprChannel.sol\":7170:7399  require(... */\n      tag_141\n      jumpi\n      mload(0x40)\n      shl(0xe5, 0x461bcd)\n      dup2\n      mstore\n      0x04\n      add\n      dup1\n      dup1\n      0x20\n      add\n      dup3\n      dup2\n      sub\n      dup3\n      mstore\n      0x42\n      dup2\n      mstore\n      0x20\n      add\n      dup1\n      data_22fda0b909f510fed545d0e3155fe49fd625f6ecc0dbd586e23f574a7e03a802\n      0x42\n      swap2\n      codecopy\n      0x60\n      add\n      swap2\n      pop\n      pop\n      mload(0x40)\n      dup1\n      swap2\n      sub\n      swap1\n      revert\n    tag_141:\n        /* \"/Volumes/DEV/hopr/hopr-core/contracts/HoprChannel.sol\":7418:7434  channel.balanceA */\n      0x02\n      dup2\n      add\n        /* \"/Volumes/DEV/hopr/hopr-core/contracts/HoprChannel.sol\":7418:7445  channel.balanceA = balanceA */\n      dup11\n      swap1\n      sstore\n        /* \"/Volumes/DEV/hopr/hopr-core/contracts/HoprChannel.sol\":7455:7468  channel.index */\n      0x03\n      dup2\n      add\n        /* \"/Volumes/DEV/hopr/hopr-core/contracts/HoprChannel.sol\":7455:7476  channel.index = index */\n      dup1\n      sload\n      0x80\n      dup15\n      swap1\n      shr\n      not(sub(shl(0x80, 0x01), 0x01))\n      swap1\n      swap2\n      and\n      or\n      swap1\n      sstore\n        /* \"/Volumes/DEV/hopr/hopr-core/contracts/HoprChannel.sol\":7486:7533  channel.state = ChannelState.PENDING_SETTLEMENT */\n      dup1\n      sload\n      not(0xff)\n      and\n        /* \"/Volumes/DEV/hopr/hopr-core/contracts/HoprChannel.sol\":7502:7533  ChannelState.PENDING_SETTLEMENT */\n      0x04\n        /* \"/Volumes/DEV/hopr/hopr-core/contracts/HoprChannel.sol\":7486:7533  channel.state = ChannelState.PENDING_SETTLEMENT */\n      or\n      dup2\n      sstore\n        /* \"/Volumes/DEV/hopr/hopr-core/contracts/HoprChannel.sol\":7569:7607  block.timestamp.add(TIME_CONFIRMATION) */\n      tag_143\n        /* \"/Volumes/DEV/hopr/hopr-core/contracts/HoprChannel.sol\":7569:7584  block.timestamp */\n      timestamp\n        /* \"/Volumes/DEV/hopr/hopr-core/contracts/HoprChannel.sol\":195:204  1 minutes */\n      0x3c\n        /* \"/Volumes/DEV/hopr/hopr-core/contracts/HoprChannel.sol\":7569:7588  block.timestamp.add */\n      tag_60\n        /* \"/Volumes/DEV/hopr/hopr-core/contracts/HoprChannel.sol\":7569:7607  block.timestamp.add(TIME_CONFIRMATION) */\n      jump\t// in\n    tag_143:\n        /* \"/Volumes/DEV/hopr/hopr-core/contracts/HoprChannel.sol\":7543:7566  channel.settleTimestamp */\n      0x04\n      dup3\n      add\n        /* \"/Volumes/DEV/hopr/hopr-core/contracts/HoprChannel.sol\":7543:7607  channel.settleTimestamp = block.timestamp.add(TIME_CONFIRMATION) */\n      sstore\n        /* \"/Volumes/DEV/hopr/hopr-core/contracts/HoprChannel.sol\":7631:7672  ClosedChannel(channelId, index, balanceA) */\n      0x40\n      dup1\n      mload\n      not(sub(shl(0x80, 0x01), 0x01))\n      dup15\n      and\n      dup2\n      mstore\n      0x20\n      dup2\n      add\n      dup13\n      swap1\n      mstore\n      dup2\n      mload\n        /* \"/Volumes/DEV/hopr/hopr-core/contracts/HoprChannel.sol\":7645:7654  channelId */\n      dup5\n      swap3\n        /* \"/Volumes/DEV/hopr/hopr-core/contracts/HoprChannel.sol\":7631:7672  ClosedChannel(channelId, index, balanceA) */\n      0x54b49e207894ad1469bf053f4da1814a8221c1cae825105be135f5c86fd93bfd\n      swap3\n      dup3\n      swap1\n      sub\n      add\n      swap1\n      log2\n        /* \"/Volumes/DEV/hopr/hopr-core/contracts/HoprChannel.sol\":6690:7679  function closeChannel(bytes16 index, bytes16 nonce, uint256 balanceA, bytes32 curvePointFirst, bytes1 curvePointSecond, bytes32 r, bytes32 s, uint8 v) public {... */\n      pop\n      pop\n      pop\n      pop\n      pop\n      pop\n      pop\n      pop\n      pop\n      pop\n      pop\n      pop\n      jump\t// out\n        /* \"openzeppelin-solidity/contracts/math/SafeMath.sol\":834:1010   */\n    tag_60:\n        /* \"openzeppelin-solidity/contracts/math/SafeMath.sol\":892:899   */\n      0x00\n        /* \"openzeppelin-solidity/contracts/math/SafeMath.sol\":923:928   */\n      dup3\n      dup3\n      add\n        /* \"openzeppelin-solidity/contracts/math/SafeMath.sol\":946:952   */\n      dup4\n      dup2\n      lt\n      iszero\n        /* \"openzeppelin-solidity/contracts/math/SafeMath.sol\":938:984   */\n      tag_145\n      jumpi\n      0x40\n      dup1\n      mload\n      shl(0xe5, 0x461bcd)\n      dup2\n      mstore\n      0x20\n      0x04\n      dup3\n      add\n      mstore\n      0x1b\n      0x24\n      dup3\n      add\n      mstore\n      0x536166654d6174683a206164646974696f6e206f766572666c6f770000000000\n      0x44\n      dup3\n      add\n      mstore\n      swap1\n      mload\n      swap1\n      dup2\n      swap1\n      sub\n      0x64\n      add\n      swap1\n      revert\n    tag_145:\n        /* \"openzeppelin-solidity/contracts/math/SafeMath.sol\":1002:1003   */\n      swap1\n      pop\n        /* \"openzeppelin-solidity/contracts/math/SafeMath.sol\":834:1010   */\n    tag_144:\n      swap3\n      swap2\n      pop\n      pop\n      jump\t// out\n        /* \"openzeppelin-solidity/contracts/math/SafeMath.sol\":1274:1453   */\n    tag_68:\n        /* \"openzeppelin-solidity/contracts/math/SafeMath.sol\":1332:1339   */\n      0x00\n        /* \"openzeppelin-solidity/contracts/math/SafeMath.sol\":1364:1365   */\n      dup3\n        /* \"openzeppelin-solidity/contracts/math/SafeMath.sol\":1359:1360   */\n      dup3\n        /* \"openzeppelin-solidity/contracts/math/SafeMath.sol\":1359:1365   */\n      gt\n      iszero\n        /* \"openzeppelin-solidity/contracts/math/SafeMath.sol\":1351:1400   */\n      tag_147\n      jumpi\n      0x40\n      dup1\n      mload\n      shl(0xe5, 0x461bcd)\n      dup2\n      mstore\n      0x20\n      0x04\n      dup3\n      add\n      mstore\n      0x1e\n      0x24\n      dup3\n      add\n      mstore\n      0x536166654d6174683a207375627472616374696f6e206f766572666c6f770000\n      0x44\n      dup3\n      add\n      mstore\n      swap1\n      mload\n      swap1\n      dup2\n      swap1\n      sub\n      0x64\n      add\n      swap1\n      revert\n    tag_147:\n      pop\n        /* \"openzeppelin-solidity/contracts/math/SafeMath.sol\":1422:1427   */\n      swap1\n      sub\n      swap1\n        /* \"openzeppelin-solidity/contracts/math/SafeMath.sol\":1274:1453   */\n      jump\t// out\n        /* \"/Volumes/DEV/hopr/hopr-core/contracts/HoprChannel.sol\":11291:11603  function getId(address a, address b) private pure returns (bytes32) {... */\n    tag_72:\n        /* \"/Volumes/DEV/hopr/hopr-core/contracts/HoprChannel.sol\":11350:11357  bytes32 */\n      0x00\n        /* \"/Volumes/DEV/hopr/hopr-core/contracts/HoprChannel.sol\":11382:11383  b */\n      dup2\n      sub(shl(0xa0, 0x01), 0x01)\n        /* \"/Volumes/DEV/hopr/hopr-core/contracts/HoprChannel.sol\":11377:11383  a != b */\n      and\n        /* \"/Volumes/DEV/hopr/hopr-core/contracts/HoprChannel.sol\":11377:11378  a */\n      dup4\n      sub(shl(0xa0, 0x01), 0x01)\n        /* \"/Volumes/DEV/hopr/hopr-core/contracts/HoprChannel.sol\":11377:11383  a != b */\n      and\n      eq\n      iszero\n        /* \"/Volumes/DEV/hopr/hopr-core/contracts/HoprChannel.sol\":11369:11430  require(a != b, \"Party 'a' and party 'b' must not be equal.\") */\n      tag_149\n      jumpi\n      mload(0x40)\n      shl(0xe5, 0x461bcd)\n      dup2\n      mstore\n      0x04\n      add\n      dup1\n      dup1\n      0x20\n      add\n      dup3\n      dup2\n      sub\n      dup3\n      mstore\n      0x2a\n      dup2\n      mstore\n      0x20\n      add\n      dup1\n      data_5273ff672fbf220c41efcbff18e5e25f9291aa640bf7ffb705c77aeec115eaa8\n      0x2a\n      swap2\n      codecopy\n      0x40\n      add\n      swap2\n      pop\n      pop\n      mload(0x40)\n      dup1\n      swap2\n      sub\n      swap1\n      revert\n    tag_149:\n        /* \"/Volumes/DEV/hopr/hopr-core/contracts/HoprChannel.sol\":11445:11459  isPartyA(a, b) */\n      tag_150\n        /* \"/Volumes/DEV/hopr/hopr-core/contracts/HoprChannel.sol\":11454:11455  a */\n      dup4\n        /* \"/Volumes/DEV/hopr/hopr-core/contracts/HoprChannel.sol\":11457:11458  b */\n      dup4\n        /* \"/Volumes/DEV/hopr/hopr-core/contracts/HoprChannel.sol\":11445:11453  isPartyA */\n      tag_82\n        /* \"/Volumes/DEV/hopr/hopr-core/contracts/HoprChannel.sol\":11445:11459  isPartyA(a, b) */\n      jump\t// in\n    tag_150:\n        /* \"/Volumes/DEV/hopr/hopr-core/contracts/HoprChannel.sol\":11441:11597  if (isPartyA(a, b)) {... */\n      iszero\n      tag_151\n      jumpi\n      pop\n        /* \"/Volumes/DEV/hopr/hopr-core/contracts/HoprChannel.sol\":11492:11514  abi.encodePacked(a, b) */\n      0x40\n      dup1\n      mload\n      0x60\n      dup5\n      dup2\n      shl\n      not(sub(shl(0x60, 0x01), 0x01))\n      swap1\n      dup2\n      and\n      0x20\n      dup1\n      dup6\n      add\n      swap2\n      swap1\n      swap2\n      mstore\n      swap2\n      dup6\n      swap1\n      shl\n      and\n      0x34\n      dup4\n      add\n      mstore\n      dup3\n      mload\n        /* \"--CODEGEN--\":26:47   */\n      dup1\n      dup4\n      sub\n        /* \"--CODEGEN--\":22:54   */\n      0x28\n      add\n        /* \"--CODEGEN--\":6:55   */\n      dup2\n      mstore\n        /* \"/Volumes/DEV/hopr/hopr-core/contracts/HoprChannel.sol\":11492:11514  abi.encodePacked(a, b) */\n      0x48\n      swap1\n      swap3\n      add\n      swap1\n      swap3\n      mstore\n        /* \"/Volumes/DEV/hopr/hopr-core/contracts/HoprChannel.sol\":11482:11515  keccak256(abi.encodePacked(a, b)) */\n      dup1\n      mload\n      swap2\n      add\n      keccak256\n        /* \"/Volumes/DEV/hopr/hopr-core/contracts/HoprChannel.sol\":11475:11515  return keccak256(abi.encodePacked(a, b)) */\n      jump(tag_144)\n        /* \"/Volumes/DEV/hopr/hopr-core/contracts/HoprChannel.sol\":11441:11597  if (isPartyA(a, b)) {... */\n    tag_151:\n      pop\n        /* \"/Volumes/DEV/hopr/hopr-core/contracts/HoprChannel.sol\":11563:11585  abi.encodePacked(b, a) */\n      0x40\n      dup1\n      mload\n      0x60\n      dup4\n      dup2\n      shl\n      not(sub(shl(0x60, 0x01), 0x01))\n      swap1\n      dup2\n      and\n      0x20\n      dup1\n      dup6\n      add\n      swap2\n      swap1\n      swap2\n      mstore\n      swap2\n      dup7\n      swap1\n      shl\n      and\n      0x34\n      dup4\n      add\n      mstore\n      dup3\n      mload\n        /* \"--CODEGEN--\":26:47   */\n      dup1\n      dup4\n      sub\n        /* \"--CODEGEN--\":22:54   */\n      0x28\n      add\n        /* \"--CODEGEN--\":6:55   */\n      dup2\n      mstore\n        /* \"/Volumes/DEV/hopr/hopr-core/contracts/HoprChannel.sol\":11563:11585  abi.encodePacked(b, a) */\n      0x48\n      swap1\n      swap3\n      add\n      swap1\n      swap3\n      mstore\n        /* \"/Volumes/DEV/hopr/hopr-core/contracts/HoprChannel.sol\":11553:11586  keccak256(abi.encodePacked(b, a)) */\n      dup1\n      mload\n      swap2\n      add\n      keccak256\n        /* \"/Volumes/DEV/hopr/hopr-core/contracts/HoprChannel.sol\":11546:11586  return keccak256(abi.encodePacked(b, a)) */\n      jump(tag_144)\n        /* \"/Volumes/DEV/hopr/hopr-core/contracts/HoprChannel.sol\":11099:11286  function isPartyA(address a, address b) private pure returns (bool) {... */\n    tag_82:\n        /* \"/Volumes/DEV/hopr/hopr-core/contracts/HoprChannel.sol\":11161:11165  bool */\n      0x00\n        /* \"/Volumes/DEV/hopr/hopr-core/contracts/HoprChannel.sol\":11190:11191  b */\n      dup2\n      sub(shl(0xa0, 0x01), 0x01)\n        /* \"/Volumes/DEV/hopr/hopr-core/contracts/HoprChannel.sol\":11185:11191  a != b */\n      and\n        /* \"/Volumes/DEV/hopr/hopr-core/contracts/HoprChannel.sol\":11185:11186  a */\n      dup4\n      sub(shl(0xa0, 0x01), 0x01)\n        /* \"/Volumes/DEV/hopr/hopr-core/contracts/HoprChannel.sol\":11185:11191  a != b */\n      and\n      eq\n      iszero\n        /* \"/Volumes/DEV/hopr/hopr-core/contracts/HoprChannel.sol\":11177:11238  require(a != b, \"Party 'a' and party 'b' must not be equal.\") */\n      tag_154\n      jumpi\n      mload(0x40)\n      shl(0xe5, 0x461bcd)\n      dup2\n      mstore\n      0x04\n      add\n      dup1\n      dup1\n      0x20\n      add\n      dup3\n      dup2\n      sub\n      dup3\n      mstore\n      0x2a\n      dup2\n      mstore\n      0x20\n      add\n      dup1\n      data_5273ff672fbf220c41efcbff18e5e25f9291aa640bf7ffb705c77aeec115eaa8\n      0x2a\n      swap2\n      codecopy\n      0x40\n      add\n      swap2\n      pop\n      pop\n      mload(0x40)\n      dup1\n      swap2\n      sub\n      swap1\n      revert\n    tag_154:\n      pop\n      not(sub(shl(0x60, 0x01), 0x01))\n        /* \"/Volumes/DEV/hopr/hopr-core/contracts/HoprChannel.sol\":11269:11279  bytes20(b) */\n      0x60\n      swap2\n      dup3\n      shl\n        /* \"/Volumes/DEV/hopr/hopr-core/contracts/HoprChannel.sol\":11256:11279  bytes20(a) < bytes20(b) */\n      dup2\n      and\n        /* \"/Volumes/DEV/hopr/hopr-core/contracts/HoprChannel.sol\":11256:11266  bytes20(a) */\n      swap3\n      swap1\n      swap2\n      shl\n        /* \"/Volumes/DEV/hopr/hopr-core/contracts/HoprChannel.sol\":11256:11279  bytes20(a) < bytes20(b) */\n      and\n      lt\n      swap1\n        /* \"/Volumes/DEV/hopr/hopr-core/contracts/HoprChannel.sol\":11099:11286  function isPartyA(address a, address b) private pure returns (bool) {... */\n      jump\t// out\n        /* \"openzeppelin-solidity/contracts/math/SafeMath.sol\":1693:2151   */\n    tag_106:\n        /* \"openzeppelin-solidity/contracts/math/SafeMath.sol\":1751:1758   */\n      0x00\n        /* \"openzeppelin-solidity/contracts/math/SafeMath.sol\":1991:1997   */\n      dup3\n        /* \"openzeppelin-solidity/contracts/math/SafeMath.sol\":1987:2032   */\n      tag_156\n      jumpi\n      pop\n        /* \"openzeppelin-solidity/contracts/math/SafeMath.sol\":2020:2021   */\n      0x00\n        /* \"openzeppelin-solidity/contracts/math/SafeMath.sol\":2013:2021   */\n      jump(tag_144)\n        /* \"openzeppelin-solidity/contracts/math/SafeMath.sol\":1987:2032   */\n    tag_156:\n        /* \"openzeppelin-solidity/contracts/math/SafeMath.sol\":2054:2059   */\n      dup3\n      dup3\n      mul\n        /* \"openzeppelin-solidity/contracts/math/SafeMath.sol\":2058:2059   */\n      dup3\n        /* \"openzeppelin-solidity/contracts/math/SafeMath.sol\":2054:2055   */\n      dup5\n        /* \"openzeppelin-solidity/contracts/math/SafeMath.sol\":2054:2059   */\n      dup3\n        /* \"openzeppelin-solidity/contracts/math/SafeMath.sol\":2054:2055   */\n      dup2\n        /* \"openzeppelin-solidity/contracts/math/SafeMath.sol\":2077:2082   */\n      tag_157\n      jumpi\n      invalid\n    tag_157:\n      div\n        /* \"openzeppelin-solidity/contracts/math/SafeMath.sol\":2077:2087   */\n      eq\n        /* \"openzeppelin-solidity/contracts/math/SafeMath.sol\":2069:2125   */\n      tag_145\n      jumpi\n      mload(0x40)\n      shl(0xe5, 0x461bcd)\n      dup2\n      mstore\n      0x04\n      add\n      dup1\n      dup1\n      0x20\n      add\n      dup3\n      dup2\n      sub\n      dup3\n      mstore\n      0x21\n      dup2\n      mstore\n      0x20\n      add\n      dup1\n      data_9113bb53c2876a3805b2c9242029423fc540a728243ce887ab24c82cf119fba3\n      0x21\n      swap2\n      codecopy\n      0x40\n      add\n      swap2\n      pop\n      pop\n      mload(0x40)\n      dup1\n      swap2\n      sub\n      swap1\n      revert\n    stop\n    data_22fda0b909f510fed545d0e3155fe49fd625f6ecc0dbd586e23f574a7e03a802 556e61626c6520746f20636c6f7365207061796d656e74206368616e6e656c2064756520746f2070726f6261626c7920696e76616c6964207369676e61747572652e\n    data_269588d01c6486cd54f13fe246e8929221353193b52c40da74f8e88d7b8622c5 57616974696e6720666f722072656d61696e696e67206368616e6e656c7320746f20636c6f73652e\n    data_5273ff672fbf220c41efcbff18e5e25f9291aa640bf7ffb705c77aeec115eaa8 50617274792027612720616e6420706172747920276227206d757374206e6f7420626520657175616c2e\n    data_6f8688a3ab426439142b92723545fd861013ea32ed54f2be54792633734be3ec 43616e6e6f7420737072656164206f6e652077656920756e69666f726d6c79206f7665722074776f20706172746965732e\n    data_9113bb53c2876a3805b2c9242029423fc540a728243ce887ab24c82cf119fba3 536166654d6174683a206d756c7469706c69636174696f6e206f766572666c6f77\n    data_a40374b6e7c0da51fed59dc816a35033bbe3dca16a44b193c3f4fe4e0c22557d 547279696e6720746f20636c61696d2066756e6473207769746820612076616c69642061636b6e6f776c656467656d656e742e\n    data_c8a24bb95e326eed0c826d19017307f176fdc32e202e7a26892f4fb2175c29e6 536f6d657468696e672077656e742077726f6e672e20446f75626c65207370656e643f\n\n    auxdata: 0xa265627a7a7231582079680dc97d9a88c74730b1af46177177db2c38b3d7ed6e1bd9549ed1d0f0f84964736f6c634300050c0032\n}\n",
		"bytecode": {
			"linkReferences": {},
			"object": "608060405234801561001057600080fd5b50611877806100206000396000f3fe6080604052600436106100915760003560e01c806375d452da1161005957806375d452da146101ba5780637a7ebd7b14610209578063a044f5a31461027c578063b38e58a3146102cf578063e58cbc2c146102fd57610091565b806302a223371461009c5780632fd61f92146100ef5780634bf692061461011957806351cff8d91461013f5780636c7a9d8714610172575b61009a3361036e565b005b3480156100a857600080fd5b506100cf600480360360208110156100bf57600080fd5b50356001600160a01b0316610435565b604080519315158452602084019290925282820152519081900360600190f35b3480156100fb57600080fd5b5061009a6004803603602081101561011257600080fd5b503561045b565b61009a6004803603602081101561012f57600080fd5b50356001600160a01b031661036e565b34801561014b57600080fd5b5061009a6004803603602081101561016257600080fd5b50356001600160a01b03166105b5565b34801561017e57600080fd5b506101a66004803603602081101561019557600080fd5b50356001600160801b031916610902565b604080519115158252519081900360200190f35b3480156101c657600080fd5b5061009a600480360360a08110156101dd57600080fd5b5080356001600160801b031916906020810135906040810135906060810135906080013560ff16610917565b34801561021557600080fd5b506102336004803603602081101561022c57600080fd5b5035610d7a565b6040518086600481111561024357fe5b60ff1681526020810195909552506040808501939093526001600160801b031990911660608401526080830152519081900360a0019150f35b34801561028857600080fd5b5061009a600480360360e081101561029f57600080fd5b5080359060208101359060408101359060608101359060808101359060ff60a082013581169160c0013516610db0565b61009a600480360360408110156102e557600080fd5b506001600160a01b0381358116916020013516610fb9565b34801561030957600080fd5b5061009a600480360361010081101561032157600080fd5b5080356001600160801b03199081169160208101359091169060408101359060608101359060808101356001600160f81b0319169060a08101359060c08101359060e0013560ff166112a1565b3415610432576001600160a01b03811660009081526001602052604090205460ff166103e95760408051606081018252600180825260006020808401828152348587019081526001600160a01b038816845291849052949091209251835460ff19169015151783559251908201559051600290910155610432565b6001600160a01b038116600090815260016020526040902060020154610415903463ffffffff61149416565b6001600160a01b0382166000908152600160205260409020600201555b50565b600160208190526000918252604090912080549181015460029091015460ff9092169183565b3360009081526001602052604090206002015481908111156104ba576040805162461bcd60e51b815260206004820152601360248201527224b739bab33334b1b4b2b73a10333ab732399760691b604482015290519081900360640190fd5b33600090815260016020819052604090912001541561050a5760405162461bcd60e51b81526004018080602001828103825260288152602001806117496028913960400191505060405180910390fd5b3360009081526001602052604090206002015482141561054c573360009081526001602081905260408220805460ff1916815590810182905560020155610583565b3360009081526001602052604090206002015461056f908363ffffffff6114f716565b336000908152600160205260409020600201555b604051339083156108fc029084906000818181858888f193505050501580156105b0573d6000803e3d6000fd5b505050565b60006105c13383611554565b60008181526020819052604090209091506004815460ff1660048111156105e457fe5b14610636576040805162461bcd60e51b815260206004820152601c60248201527f4368616e6e656c206973206e6f7420776974686472617761626c652e00000000604482015290519081900360640190fd5b428160040154111561068f576040805162461bcd60e51b815260206004820152601d60248201527f4368616e6e656c206e6f7420776974686472617761626c65207965742e000000604482015290519081900360640190fd5b3360009081526001602081905260409091200154158015906106cc57506001600160a01b0383166000908152600160208190526040909120015415155b6107075760405162461bcd60e51b81526004018080602001828103825260238152602001806118206023913960400191505060405180910390fd5b33600090815260016020819052604090912081015461072b9163ffffffff6114f716565b3360009081526001602081905260408083208201939093556001600160a01b03861682529190208101546107649163ffffffff6114f716565b6001600160a01b0384166000908152600160208190526040909120015561078b3384611640565b1561082c576107cd6107ae826002015483600101546114f790919063ffffffff16565b336000908152600160205260409020600201549063ffffffff61149416565b33600090815260016020526040808220600290810193909355838301546001600160a01b038716835291209091015461080b9163ffffffff61149416565b6001600160a01b0384166000908152600160205260409020600201556108c4565b61087261084a826002015483600101546114f790919063ffffffff16565b6001600160a01b0385166000908152600160205260409020600201549063ffffffff61149416565b6001600160a01b038416600090815260016020526040808220600290810193909355838301543383529120909101546108b09163ffffffff61149416565b336000908152600160205260409020600201555b506000908152602081905260408120805460ff1916815560018101829055600281018290556003810180546001600160801b03191690556004015550565b60026020526000908152604090205460ff1681565b336000908152600160205260409020600201548490811115610976576040805162461bcd60e51b815260206004820152601360248201527224b739bab33334b1b4b2b73a10333ab732399760691b604482015290519081900360640190fd5b6001600160801b0319861660009081526002602052604090205460ff16156109e5576040805162461bcd60e51b815260206004820152601760248201527f4e6f6e63652077617320616c726561647920757365642e000000000000000000604482015290519081900360640190fd5b6001600160801b031986166000818152600260209081526040808320805460ff19166001908117909155815180840195909552600160801b60308601528482018a9052606085018490526080850184905281516061818703018152608186018084528151918501919091209085905260a1860180845281905260ff881660c187015260e186018a90526101018601899052915191949092610121808301939192601f198301929081900390910190855afa158015610aa7573d6000803e3d6000fd5b5050506020604051035190508660016000836001600160a01b03166001600160a01b03168152602001908152602001600020600201541015610b26576040805162461bcd60e51b815260206004820152601360248201527224b739bab33334b1b4b2b73a10333ab732399760691b604482015290519081900360640190fd5b6000610b323383611554565b90506000808281526020819052604090205460ff166004811115610b5257fe5b14610b9e576040805162461bcd60e51b815260206004820152601760248201527621b430b73732b61030b63932b0b23c9032bc34b9ba399760491b604482015290519081900360640190fd5b33600090815260016020526040902060020154610bc1908963ffffffff6114f716565b336000908152600160205260408082206002908101939093556001600160a01b038516825290200154610bfa908963ffffffff6114f716565b6001600160a01b038316600090815260016020819052604080832060020193909355338252919020810154610c349163ffffffff61149416565b3360009081526001602081905260408083208201939093556001600160a01b0385168252919020810154610c6d9163ffffffff61149416565b6001600160a01b038316600090815260016020819052604082200191909155610c9d60028a63ffffffff6116ad16565b6040805160a081019091529091508060038152602080820184905260408083018d9052600060608401819052608090930183905285835290829052902081518154829060ff19166001836004811115610cf257fe5b02179055506020828101516001830155604080840151600284015560608401516003840180546001600160801b031916608092831c1790559093015160049092019190915581518b8152908101839052815184927fdfb2f221af4ea366a589b50e82754bbe2ffff413a3fa39c7544a527d600201b3928290030190a250505050505050505050565b6000602081905290815260409020805460018201546002830154600384015460049094015460ff909316939192909160801b9085565b6040805160208082018a90528183018990526001600160f81b031960f886901b1660608301526061808301879052835180840390910181526081830180855281519183019190912060009182905260a1840180865281905260ff861660c185015260e184018a9052610101840189905293519092600192610121808301939192601f198301929081900390910190855afa158015610e52573d6000803e3d6000fd5b5050506020604051035190506000806000610e6d3385611554565b8152602081019190915260400160009081209150815460ff166004811115610e9157fe5b1415610edb576040805162461bcd60e51b815260206004820152601460248201527324b73b30b634b21031b430b73732b6101899199760611b604482015290519081900360640190fd5b60408051602080820189905282518083038201815282840180855281519183019190912060009091526060830180855281905260ff8916608084015260a083018e905260c083018d9052925160019260e08082019392601f1981019281900390910190855afa158015610f52573d6000803e3d6000fd5b505050602060405103516001600160a01b0316336001600160a01b03161415610fac5760405162461bcd60e51b81526004018080602001828103825260338152602001806117ed6033913960400191505060405180910390fd5b5050505050505050505050565b6000610fc58383611554565b905034600181116110075760405162461bcd60e51b815260040180806020018281038252603181526020018061179b6031913960400191505060405180910390fd5b600281066001141561101857600019015b60008281526020819052604081205460ff16600481111561103557fe5b14611081576040805162461bcd60e51b815260206004820152601760248201527621b430b73732b61030b63932b0b23c9032bc34b9ba399760491b604482015290519081900360640190fd5b6001600160a01b03841660009081526001602052604090205460ff166110f557604080516060810182526001808252602080830182815260008486018181526001600160a01b038b16825292849052949094209251835460ff1916901515178355925190820155905160029091015561111a565b6001600160a01b03841660009081526001602081905260409091208101805490910190555b6001600160a01b03831660009081526001602052604090205460ff1661118e57604080516060810182526001808252602080830182815260008486018181526001600160a01b038a16825292849052949094209251835460ff191690151517835592519082015590516002909101556111b3565b6001600160a01b03831660009081526001602081905260409091208101805490910190555b6040805160a0810190915281906002820490806003815260208082018590526040808301859052600060608401819052608090930183905287835290829052902081518154829060ff1916600183600481111561120c57fe5b02179055506020828101516001830155604080840151600284015560608401516003840180546001600160801b031916608092831c17905590930151600490920191909155815183815290810184905281516001600160a01b0388811693908a16927f3f702350942174c5a9ec39fd9dc5f67acb65a57454e5155f72a2bab4aede7708929081900390910190a3505050505050565b604080516001600160801b0319808a16602080840191909152908b166030830152818301899052606082018890526001600160f81b031987166080830152825160618184030181526081830180855281519183019190912060009182905260a1840180865281905260ff861660c185015260e18401889052610101840187905293519092600192610121808301939192601f198301929081900390910190855afa158015611353573d6000803e3d6000fd5b505050602060405103519050600061136b3383611554565b60008181526020819052604090206003810154919250906001600160801b0319808e1660809290921b161080156113b157506003815460ff1660048111156113af57fe5b145b806113cb57506004815460ff1660048111156113c957fe5b145b6114065760405162461bcd60e51b81526004018080602001828103825260428152602001806117076042913960600191505060405180910390fd5b600281018a905560038101805460808e901c6001600160801b0319909116179055805460ff1916600417815561143d42603c611494565b6004820155604080516001600160801b03198e168152602081018c9052815184927f54b49e207894ad1469bf053f4da1814a8221c1cae825105be135f5c86fd93bfd928290030190a2505050505050505050505050565b6000828201838110156114ee576040805162461bcd60e51b815260206004820152601b60248201527f536166654d6174683a206164646974696f6e206f766572666c6f770000000000604482015290519081900360640190fd5b90505b92915050565b60008282111561154e576040805162461bcd60e51b815260206004820152601e60248201527f536166654d6174683a207375627472616374696f6e206f766572666c6f770000604482015290519081900360640190fd5b50900390565b6000816001600160a01b0316836001600160a01b031614156115a75760405162461bcd60e51b815260040180806020018281038252602a815260200180611771602a913960400191505060405180910390fd5b6115b18383611640565b156115fb575060408051606084811b6001600160601b03199081166020808501919091529185901b16603483015282518083036028018152604890920190925280519101206114f1565b5060408051606083811b6001600160601b03199081166020808501919091529186901b16603483015282518083036028018152604890920190925280519101206114f1565b6000816001600160a01b0316836001600160a01b031614156116935760405162461bcd60e51b815260040180806020018281038252602a815260200180611771602a913960400191505060405180910390fd5b506001600160601b0319606091821b81169290911b161090565b6000826116bc575060006114f1565b828202828482816116c957fe5b04146114ee5760405162461bcd60e51b81526004018080602001828103825260218152602001806117cc6021913960400191505060405180910390fdfe556e61626c6520746f20636c6f7365207061796d656e74206368616e6e656c2064756520746f2070726f6261626c7920696e76616c6964207369676e61747572652e57616974696e6720666f722072656d61696e696e67206368616e6e656c7320746f20636c6f73652e50617274792027612720616e6420706172747920276227206d757374206e6f7420626520657175616c2e43616e6e6f7420737072656164206f6e652077656920756e69666f726d6c79206f7665722074776f20706172746965732e536166654d6174683a206d756c7469706c69636174696f6e206f766572666c6f77547279696e6720746f20636c61696d2066756e6473207769746820612076616c69642061636b6e6f776c656467656d656e742e536f6d657468696e672077656e742077726f6e672e20446f75626c65207370656e643fa265627a7a7231582079680dc97d9a88c74730b1af46177177db2c38b3d7ed6e1bd9549ed1d0f0f84964736f6c634300050c0032",
			"opcodes": "PUSH1 0x80 PUSH1 0x40 MSTORE CALLVALUE DUP1 ISZERO PUSH2 0x10 JUMPI PUSH1 0x0 DUP1 REVERT JUMPDEST POP PUSH2 0x1877 DUP1 PUSH2 0x20 PUSH1 0x0 CODECOPY PUSH1 0x0 RETURN INVALID PUSH1 0x80 PUSH1 0x40 MSTORE PUSH1 0x4 CALLDATASIZE LT PUSH2 0x91 JUMPI PUSH1 0x0 CALLDATALOAD PUSH1 0xE0 SHR DUP1 PUSH4 0x75D452DA GT PUSH2 0x59 JUMPI DUP1 PUSH4 0x75D452DA EQ PUSH2 0x1BA JUMPI DUP1 PUSH4 0x7A7EBD7B EQ PUSH2 0x209 JUMPI DUP1 PUSH4 0xA044F5A3 EQ PUSH2 0x27C JUMPI DUP1 PUSH4 0xB38E58A3 EQ PUSH2 0x2CF JUMPI DUP1 PUSH4 0xE58CBC2C EQ PUSH2 0x2FD JUMPI PUSH2 0x91 JUMP JUMPDEST DUP1 PUSH4 0x2A22337 EQ PUSH2 0x9C JUMPI DUP1 PUSH4 0x2FD61F92 EQ PUSH2 0xEF JUMPI DUP1 PUSH4 0x4BF69206 EQ PUSH2 0x119 JUMPI DUP1 PUSH4 0x51CFF8D9 EQ PUSH2 0x13F JUMPI DUP1 PUSH4 0x6C7A9D87 EQ PUSH2 0x172 JUMPI JUMPDEST PUSH2 0x9A CALLER PUSH2 0x36E JUMP JUMPDEST STOP JUMPDEST CALLVALUE DUP1 ISZERO PUSH2 0xA8 JUMPI PUSH1 0x0 DUP1 REVERT JUMPDEST POP PUSH2 0xCF PUSH1 0x4 DUP1 CALLDATASIZE SUB PUSH1 0x20 DUP2 LT ISZERO PUSH2 0xBF JUMPI PUSH1 0x0 DUP1 REVERT JUMPDEST POP CALLDATALOAD PUSH1 0x1 PUSH1 0x1 PUSH1 0xA0 SHL SUB AND PUSH2 0x435 JUMP JUMPDEST PUSH1 0x40 DUP1 MLOAD SWAP4 ISZERO ISZERO DUP5 MSTORE PUSH1 0x20 DUP5 ADD SWAP3 SWAP1 SWAP3 MSTORE DUP3 DUP3 ADD MSTORE MLOAD SWAP1 DUP2 SWAP1 SUB PUSH1 0x60 ADD SWAP1 RETURN JUMPDEST CALLVALUE DUP1 ISZERO PUSH2 0xFB JUMPI PUSH1 0x0 DUP1 REVERT JUMPDEST POP PUSH2 0x9A PUSH1 0x4 DUP1 CALLDATASIZE SUB PUSH1 0x20 DUP2 LT ISZERO PUSH2 0x112 JUMPI PUSH1 0x0 DUP1 REVERT JUMPDEST POP CALLDATALOAD PUSH2 0x45B JUMP JUMPDEST PUSH2 0x9A PUSH1 0x4 DUP1 CALLDATASIZE SUB PUSH1 0x20 DUP2 LT ISZERO PUSH2 0x12F JUMPI PUSH1 0x0 DUP1 REVERT JUMPDEST POP CALLDATALOAD PUSH1 0x1 PUSH1 0x1 PUSH1 0xA0 SHL SUB AND PUSH2 0x36E JUMP JUMPDEST CALLVALUE DUP1 ISZERO PUSH2 0x14B JUMPI PUSH1 0x0 DUP1 REVERT JUMPDEST POP PUSH2 0x9A PUSH1 0x4 DUP1 CALLDATASIZE SUB PUSH1 0x20 DUP2 LT ISZERO PUSH2 0x162 JUMPI PUSH1 0x0 DUP1 REVERT JUMPDEST POP CALLDATALOAD PUSH1 0x1 PUSH1 0x1 PUSH1 0xA0 SHL SUB AND PUSH2 0x5B5 JUMP JUMPDEST CALLVALUE DUP1 ISZERO PUSH2 0x17E JUMPI PUSH1 0x0 DUP1 REVERT JUMPDEST POP PUSH2 0x1A6 PUSH1 0x4 DUP1 CALLDATASIZE SUB PUSH1 0x20 DUP2 LT ISZERO PUSH2 0x195 JUMPI PUSH1 0x0 DUP1 REVERT JUMPDEST POP CALLDATALOAD PUSH1 0x1 PUSH1 0x1 PUSH1 0x80 SHL SUB NOT AND PUSH2 0x902 JUMP JUMPDEST PUSH1 0x40 DUP1 MLOAD SWAP2 ISZERO ISZERO DUP3 MSTORE MLOAD SWAP1 DUP2 SWAP1 SUB PUSH1 0x20 ADD SWAP1 RETURN JUMPDEST CALLVALUE DUP1 ISZERO PUSH2 0x1C6 JUMPI PUSH1 0x0 DUP1 REVERT JUMPDEST POP PUSH2 0x9A PUSH1 0x4 DUP1 CALLDATASIZE SUB PUSH1 0xA0 DUP2 LT ISZERO PUSH2 0x1DD JUMPI PUSH1 0x0 DUP1 REVERT JUMPDEST POP DUP1 CALLDATALOAD PUSH1 0x1 PUSH1 0x1 PUSH1 0x80 SHL SUB NOT AND SWAP1 PUSH1 0x20 DUP2 ADD CALLDATALOAD SWAP1 PUSH1 0x40 DUP2 ADD CALLDATALOAD SWAP1 PUSH1 0x60 DUP2 ADD CALLDATALOAD SWAP1 PUSH1 0x80 ADD CALLDATALOAD PUSH1 0xFF AND PUSH2 0x917 JUMP JUMPDEST CALLVALUE DUP1 ISZERO PUSH2 0x215 JUMPI PUSH1 0x0 DUP1 REVERT JUMPDEST POP PUSH2 0x233 PUSH1 0x4 DUP1 CALLDATASIZE SUB PUSH1 0x20 DUP2 LT ISZERO PUSH2 0x22C JUMPI PUSH1 0x0 DUP1 REVERT JUMPDEST POP CALLDATALOAD PUSH2 0xD7A JUMP JUMPDEST PUSH1 0x40 MLOAD DUP1 DUP7 PUSH1 0x4 DUP2 GT ISZERO PUSH2 0x243 JUMPI INVALID JUMPDEST PUSH1 0xFF AND DUP2 MSTORE PUSH1 0x20 DUP2 ADD SWAP6 SWAP1 SWAP6 MSTORE POP PUSH1 0x40 DUP1 DUP6 ADD SWAP4 SWAP1 SWAP4 MSTORE PUSH1 0x1 PUSH1 0x1 PUSH1 0x80 SHL SUB NOT SWAP1 SWAP2 AND PUSH1 0x60 DUP5 ADD MSTORE PUSH1 0x80 DUP4 ADD MSTORE MLOAD SWAP1 DUP2 SWAP1 SUB PUSH1 0xA0 ADD SWAP2 POP RETURN JUMPDEST CALLVALUE DUP1 ISZERO PUSH2 0x288 JUMPI PUSH1 0x0 DUP1 REVERT JUMPDEST POP PUSH2 0x9A PUSH1 0x4 DUP1 CALLDATASIZE SUB PUSH1 0xE0 DUP2 LT ISZERO PUSH2 0x29F JUMPI PUSH1 0x0 DUP1 REVERT JUMPDEST POP DUP1 CALLDATALOAD SWAP1 PUSH1 0x20 DUP2 ADD CALLDATALOAD SWAP1 PUSH1 0x40 DUP2 ADD CALLDATALOAD SWAP1 PUSH1 0x60 DUP2 ADD CALLDATALOAD SWAP1 PUSH1 0x80 DUP2 ADD CALLDATALOAD SWAP1 PUSH1 0xFF PUSH1 0xA0 DUP3 ADD CALLDATALOAD DUP2 AND SWAP2 PUSH1 0xC0 ADD CALLDATALOAD AND PUSH2 0xDB0 JUMP JUMPDEST PUSH2 0x9A PUSH1 0x4 DUP1 CALLDATASIZE SUB PUSH1 0x40 DUP2 LT ISZERO PUSH2 0x2E5 JUMPI PUSH1 0x0 DUP1 REVERT JUMPDEST POP PUSH1 0x1 PUSH1 0x1 PUSH1 0xA0 SHL SUB DUP2 CALLDATALOAD DUP2 AND SWAP2 PUSH1 0x20 ADD CALLDATALOAD AND PUSH2 0xFB9 JUMP JUMPDEST CALLVALUE DUP1 ISZERO PUSH2 0x309 JUMPI PUSH1 0x0 DUP1 REVERT JUMPDEST POP PUSH2 0x9A PUSH1 0x4 DUP1 CALLDATASIZE SUB PUSH2 0x100 DUP2 LT ISZERO PUSH2 0x321 JUMPI PUSH1 0x0 DUP1 REVERT JUMPDEST POP DUP1 CALLDATALOAD PUSH1 0x1 PUSH1 0x1 PUSH1 0x80 SHL SUB NOT SWAP1 DUP2 AND SWAP2 PUSH1 0x20 DUP2 ADD CALLDATALOAD SWAP1 SWAP2 AND SWAP1 PUSH1 0x40 DUP2 ADD CALLDATALOAD SWAP1 PUSH1 0x60 DUP2 ADD CALLDATALOAD SWAP1 PUSH1 0x80 DUP2 ADD CALLDATALOAD PUSH1 0x1 PUSH1 0x1 PUSH1 0xF8 SHL SUB NOT AND SWAP1 PUSH1 0xA0 DUP2 ADD CALLDATALOAD SWAP1 PUSH1 0xC0 DUP2 ADD CALLDATALOAD SWAP1 PUSH1 0xE0 ADD CALLDATALOAD PUSH1 0xFF AND PUSH2 0x12A1 JUMP JUMPDEST CALLVALUE ISZERO PUSH2 0x432 JUMPI PUSH1 0x1 PUSH1 0x1 PUSH1 0xA0 SHL SUB DUP2 AND PUSH1 0x0 SWAP1 DUP2 MSTORE PUSH1 0x1 PUSH1 0x20 MSTORE PUSH1 0x40 SWAP1 KECCAK256 SLOAD PUSH1 0xFF AND PUSH2 0x3E9 JUMPI PUSH1 0x40 DUP1 MLOAD PUSH1 0x60 DUP2 ADD DUP3 MSTORE PUSH1 0x1 DUP1 DUP3 MSTORE PUSH1 0x0 PUSH1 0x20 DUP1 DUP5 ADD DUP3 DUP2 MSTORE CALLVALUE DUP6 DUP8 ADD SWAP1 DUP2 MSTORE PUSH1 0x1 PUSH1 0x1 PUSH1 0xA0 SHL SUB DUP9 AND DUP5 MSTORE SWAP2 DUP5 SWAP1 MSTORE SWAP5 SWAP1 SWAP2 KECCAK256 SWAP3 MLOAD DUP4 SLOAD PUSH1 0xFF NOT AND SWAP1 ISZERO ISZERO OR DUP4 SSTORE SWAP3 MLOAD SWAP1 DUP3 ADD SSTORE SWAP1 MLOAD PUSH1 0x2 SWAP1 SWAP2 ADD SSTORE PUSH2 0x432 JUMP JUMPDEST PUSH1 0x1 PUSH1 0x1 PUSH1 0xA0 SHL SUB DUP2 AND PUSH1 0x0 SWAP1 DUP2 MSTORE PUSH1 0x1 PUSH1 0x20 MSTORE PUSH1 0x40 SWAP1 KECCAK256 PUSH1 0x2 ADD SLOAD PUSH2 0x415 SWAP1 CALLVALUE PUSH4 0xFFFFFFFF PUSH2 0x1494 AND JUMP JUMPDEST PUSH1 0x1 PUSH1 0x1 PUSH1 0xA0 SHL SUB DUP3 AND PUSH1 0x0 SWAP1 DUP2 MSTORE PUSH1 0x1 PUSH1 0x20 MSTORE PUSH1 0x40 SWAP1 KECCAK256 PUSH1 0x2 ADD SSTORE JUMPDEST POP JUMP JUMPDEST PUSH1 0x1 PUSH1 0x20 DUP2 SWAP1 MSTORE PUSH1 0x0 SWAP2 DUP3 MSTORE PUSH1 0x40 SWAP1 SWAP2 KECCAK256 DUP1 SLOAD SWAP2 DUP2 ADD SLOAD PUSH1 0x2 SWAP1 SWAP2 ADD SLOAD PUSH1 0xFF SWAP1 SWAP3 AND SWAP2 DUP4 JUMP JUMPDEST CALLER PUSH1 0x0 SWAP1 DUP2 MSTORE PUSH1 0x1 PUSH1 0x20 MSTORE PUSH1 0x40 SWAP1 KECCAK256 PUSH1 0x2 ADD SLOAD DUP2 SWAP1 DUP2 GT ISZERO PUSH2 0x4BA JUMPI PUSH1 0x40 DUP1 MLOAD PUSH3 0x461BCD PUSH1 0xE5 SHL DUP2 MSTORE PUSH1 0x20 PUSH1 0x4 DUP3 ADD MSTORE PUSH1 0x13 PUSH1 0x24 DUP3 ADD MSTORE PUSH19 0x24B739BAB33334B1B4B2B73A10333AB7323997 PUSH1 0x69 SHL PUSH1 0x44 DUP3 ADD MSTORE SWAP1 MLOAD SWAP1 DUP2 SWAP1 SUB PUSH1 0x64 ADD SWAP1 REVERT JUMPDEST CALLER PUSH1 0x0 SWAP1 DUP2 MSTORE PUSH1 0x1 PUSH1 0x20 DUP2 SWAP1 MSTORE PUSH1 0x40 SWAP1 SWAP2 KECCAK256 ADD SLOAD ISZERO PUSH2 0x50A JUMPI PUSH1 0x40 MLOAD PUSH3 0x461BCD PUSH1 0xE5 SHL DUP2 MSTORE PUSH1 0x4 ADD DUP1 DUP1 PUSH1 0x20 ADD DUP3 DUP2 SUB DUP3 MSTORE PUSH1 0x28 DUP2 MSTORE PUSH1 0x20 ADD DUP1 PUSH2 0x1749 PUSH1 0x28 SWAP2 CODECOPY PUSH1 0x40 ADD SWAP2 POP POP PUSH1 0x40 MLOAD DUP1 SWAP2 SUB SWAP1 REVERT JUMPDEST CALLER PUSH1 0x0 SWAP1 DUP2 MSTORE PUSH1 0x1 PUSH1 0x20 MSTORE PUSH1 0x40 SWAP1 KECCAK256 PUSH1 0x2 ADD SLOAD DUP3 EQ ISZERO PUSH2 0x54C JUMPI CALLER PUSH1 0x0 SWAP1 DUP2 MSTORE PUSH1 0x1 PUSH1 0x20 DUP2 SWAP1 MSTORE PUSH1 0x40 DUP3 KECCAK256 DUP1 SLOAD PUSH1 0xFF NOT AND DUP2 SSTORE SWAP1 DUP2 ADD DUP3 SWAP1 SSTORE PUSH1 0x2 ADD SSTORE PUSH2 0x583 JUMP JUMPDEST CALLER PUSH1 0x0 SWAP1 DUP2 MSTORE PUSH1 0x1 PUSH1 0x20 MSTORE PUSH1 0x40 SWAP1 KECCAK256 PUSH1 0x2 ADD SLOAD PUSH2 0x56F SWAP1 DUP4 PUSH4 0xFFFFFFFF PUSH2 0x14F7 AND JUMP JUMPDEST CALLER PUSH1 0x0 SWAP1 DUP2 MSTORE PUSH1 0x1 PUSH1 0x20 MSTORE PUSH1 0x40 SWAP1 KECCAK256 PUSH1 0x2 ADD SSTORE JUMPDEST PUSH1 0x40 MLOAD CALLER SWAP1 DUP4 ISZERO PUSH2 0x8FC MUL SWAP1 DUP5 SWAP1 PUSH1 0x0 DUP2 DUP2 DUP2 DUP6 DUP9 DUP9 CALL SWAP4 POP POP POP POP ISZERO DUP1 ISZERO PUSH2 0x5B0 JUMPI RETURNDATASIZE PUSH1 0x0 DUP1 RETURNDATACOPY RETURNDATASIZE PUSH1 0x0 REVERT JUMPDEST POP POP POP JUMP JUMPDEST PUSH1 0x0 PUSH2 0x5C1 CALLER DUP4 PUSH2 0x1554 JUMP JUMPDEST PUSH1 0x0 DUP2 DUP2 MSTORE PUSH1 0x20 DUP2 SWAP1 MSTORE PUSH1 0x40 SWAP1 KECCAK256 SWAP1 SWAP2 POP PUSH1 0x4 DUP2 SLOAD PUSH1 0xFF AND PUSH1 0x4 DUP2 GT ISZERO PUSH2 0x5E4 JUMPI INVALID JUMPDEST EQ PUSH2 0x636 JUMPI PUSH1 0x40 DUP1 MLOAD PUSH3 0x461BCD PUSH1 0xE5 SHL DUP2 MSTORE PUSH1 0x20 PUSH1 0x4 DUP3 ADD MSTORE PUSH1 0x1C PUSH1 0x24 DUP3 ADD MSTORE PUSH32 0x4368616E6E656C206973206E6F7420776974686472617761626C652E00000000 PUSH1 0x44 DUP3 ADD MSTORE SWAP1 MLOAD SWAP1 DUP2 SWAP1 SUB PUSH1 0x64 ADD SWAP1 REVERT JUMPDEST TIMESTAMP DUP2 PUSH1 0x4 ADD SLOAD GT ISZERO PUSH2 0x68F JUMPI PUSH1 0x40 DUP1 MLOAD PUSH3 0x461BCD PUSH1 0xE5 SHL DUP2 MSTORE PUSH1 0x20 PUSH1 0x4 DUP3 ADD MSTORE PUSH1 0x1D PUSH1 0x24 DUP3 ADD MSTORE PUSH32 0x4368616E6E656C206E6F7420776974686472617761626C65207965742E000000 PUSH1 0x44 DUP3 ADD MSTORE SWAP1 MLOAD SWAP1 DUP2 SWAP1 SUB PUSH1 0x64 ADD SWAP1 REVERT JUMPDEST CALLER PUSH1 0x0 SWAP1 DUP2 MSTORE PUSH1 0x1 PUSH1 0x20 DUP2 SWAP1 MSTORE PUSH1 0x40 SWAP1 SWAP2 KECCAK256 ADD SLOAD ISZERO DUP1 ISZERO SWAP1 PUSH2 0x6CC JUMPI POP PUSH1 0x1 PUSH1 0x1 PUSH1 0xA0 SHL SUB DUP4 AND PUSH1 0x0 SWAP1 DUP2 MSTORE PUSH1 0x1 PUSH1 0x20 DUP2 SWAP1 MSTORE PUSH1 0x40 SWAP1 SWAP2 KECCAK256 ADD SLOAD ISZERO ISZERO JUMPDEST PUSH2 0x707 JUMPI PUSH1 0x40 MLOAD PUSH3 0x461BCD PUSH1 0xE5 SHL DUP2 MSTORE PUSH1 0x4 ADD DUP1 DUP1 PUSH1 0x20 ADD DUP3 DUP2 SUB DUP3 MSTORE PUSH1 0x23 DUP2 MSTORE PUSH1 0x20 ADD DUP1 PUSH2 0x1820 PUSH1 0x23 SWAP2 CODECOPY PUSH1 0x40 ADD SWAP2 POP POP PUSH1 0x40 MLOAD DUP1 SWAP2 SUB SWAP1 REVERT JUMPDEST CALLER PUSH1 0x0 SWAP1 DUP2 MSTORE PUSH1 0x1 PUSH1 0x20 DUP2 SWAP1 MSTORE PUSH1 0x40 SWAP1 SWAP2 KECCAK256 DUP2 ADD SLOAD PUSH2 0x72B SWAP2 PUSH4 0xFFFFFFFF PUSH2 0x14F7 AND JUMP JUMPDEST CALLER PUSH1 0x0 SWAP1 DUP2 MSTORE PUSH1 0x1 PUSH1 0x20 DUP2 SWAP1 MSTORE PUSH1 0x40 DUP1 DUP4 KECCAK256 DUP3 ADD SWAP4 SWAP1 SWAP4 SSTORE PUSH1 0x1 PUSH1 0x1 PUSH1 0xA0 SHL SUB DUP7 AND DUP3 MSTORE SWAP2 SWAP1 KECCAK256 DUP2 ADD SLOAD PUSH2 0x764 SWAP2 PUSH4 0xFFFFFFFF PUSH2 0x14F7 AND JUMP JUMPDEST PUSH1 0x1 PUSH1 0x1 PUSH1 0xA0 SHL SUB DUP5 AND PUSH1 0x0 SWAP1 DUP2 MSTORE PUSH1 0x1 PUSH1 0x20 DUP2 SWAP1 MSTORE PUSH1 0x40 SWAP1 SWAP2 KECCAK256 ADD SSTORE PUSH2 0x78B CALLER DUP5 PUSH2 0x1640 JUMP JUMPDEST ISZERO PUSH2 0x82C JUMPI PUSH2 0x7CD PUSH2 0x7AE DUP3 PUSH1 0x2 ADD SLOAD DUP4 PUSH1 0x1 ADD SLOAD PUSH2 0x14F7 SWAP1 SWAP2 SWAP1 PUSH4 0xFFFFFFFF AND JUMP JUMPDEST CALLER PUSH1 0x0 SWAP1 DUP2 MSTORE PUSH1 0x1 PUSH1 0x20 MSTORE PUSH1 0x40 SWAP1 KECCAK256 PUSH1 0x2 ADD SLOAD SWAP1 PUSH4 0xFFFFFFFF PUSH2 0x1494 AND JUMP JUMPDEST CALLER PUSH1 0x0 SWAP1 DUP2 MSTORE PUSH1 0x1 PUSH1 0x20 MSTORE PUSH1 0x40 DUP1 DUP3 KECCAK256 PUSH1 0x2 SWAP1 DUP2 ADD SWAP4 SWAP1 SWAP4 SSTORE DUP4 DUP4 ADD SLOAD PUSH1 0x1 PUSH1 0x1 PUSH1 0xA0 SHL SUB DUP8 AND DUP4 MSTORE SWAP2 KECCAK256 SWAP1 SWAP2 ADD SLOAD PUSH2 0x80B SWAP2 PUSH4 0xFFFFFFFF PUSH2 0x1494 AND JUMP JUMPDEST PUSH1 0x1 PUSH1 0x1 PUSH1 0xA0 SHL SUB DUP5 AND PUSH1 0x0 SWAP1 DUP2 MSTORE PUSH1 0x1 PUSH1 0x20 MSTORE PUSH1 0x40 SWAP1 KECCAK256 PUSH1 0x2 ADD SSTORE PUSH2 0x8C4 JUMP JUMPDEST PUSH2 0x872 PUSH2 0x84A DUP3 PUSH1 0x2 ADD SLOAD DUP4 PUSH1 0x1 ADD SLOAD PUSH2 0x14F7 SWAP1 SWAP2 SWAP1 PUSH4 0xFFFFFFFF AND JUMP JUMPDEST PUSH1 0x1 PUSH1 0x1 PUSH1 0xA0 SHL SUB DUP6 AND PUSH1 0x0 SWAP1 DUP2 MSTORE PUSH1 0x1 PUSH1 0x20 MSTORE PUSH1 0x40 SWAP1 KECCAK256 PUSH1 0x2 ADD SLOAD SWAP1 PUSH4 0xFFFFFFFF PUSH2 0x1494 AND JUMP JUMPDEST PUSH1 0x1 PUSH1 0x1 PUSH1 0xA0 SHL SUB DUP5 AND PUSH1 0x0 SWAP1 DUP2 MSTORE PUSH1 0x1 PUSH1 0x20 MSTORE PUSH1 0x40 DUP1 DUP3 KECCAK256 PUSH1 0x2 SWAP1 DUP2 ADD SWAP4 SWAP1 SWAP4 SSTORE DUP4 DUP4 ADD SLOAD CALLER DUP4 MSTORE SWAP2 KECCAK256 SWAP1 SWAP2 ADD SLOAD PUSH2 0x8B0 SWAP2 PUSH4 0xFFFFFFFF PUSH2 0x1494 AND JUMP JUMPDEST CALLER PUSH1 0x0 SWAP1 DUP2 MSTORE PUSH1 0x1 PUSH1 0x20 MSTORE PUSH1 0x40 SWAP1 KECCAK256 PUSH1 0x2 ADD SSTORE JUMPDEST POP PUSH1 0x0 SWAP1 DUP2 MSTORE PUSH1 0x20 DUP2 SWAP1 MSTORE PUSH1 0x40 DUP2 KECCAK256 DUP1 SLOAD PUSH1 0xFF NOT AND DUP2 SSTORE PUSH1 0x1 DUP2 ADD DUP3 SWAP1 SSTORE PUSH1 0x2 DUP2 ADD DUP3 SWAP1 SSTORE PUSH1 0x3 DUP2 ADD DUP1 SLOAD PUSH1 0x1 PUSH1 0x1 PUSH1 0x80 SHL SUB NOT AND SWAP1 SSTORE PUSH1 0x4 ADD SSTORE POP JUMP JUMPDEST PUSH1 0x2 PUSH1 0x20 MSTORE PUSH1 0x0 SWAP1 DUP2 MSTORE PUSH1 0x40 SWAP1 KECCAK256 SLOAD PUSH1 0xFF AND DUP2 JUMP JUMPDEST CALLER PUSH1 0x0 SWAP1 DUP2 MSTORE PUSH1 0x1 PUSH1 0x20 MSTORE PUSH1 0x40 SWAP1 KECCAK256 PUSH1 0x2 ADD SLOAD DUP5 SWAP1 DUP2 GT ISZERO PUSH2 0x976 JUMPI PUSH1 0x40 DUP1 MLOAD PUSH3 0x461BCD PUSH1 0xE5 SHL DUP2 MSTORE PUSH1 0x20 PUSH1 0x4 DUP3 ADD MSTORE PUSH1 0x13 PUSH1 0x24 DUP3 ADD MSTORE PUSH19 0x24B739BAB33334B1B4B2B73A10333AB7323997 PUSH1 0x69 SHL PUSH1 0x44 DUP3 ADD MSTORE SWAP1 MLOAD SWAP1 DUP2 SWAP1 SUB PUSH1 0x64 ADD SWAP1 REVERT JUMPDEST PUSH1 0x1 PUSH1 0x1 PUSH1 0x80 SHL SUB NOT DUP7 AND PUSH1 0x0 SWAP1 DUP2 MSTORE PUSH1 0x2 PUSH1 0x20 MSTORE PUSH1 0x40 SWAP1 KECCAK256 SLOAD PUSH1 0xFF AND ISZERO PUSH2 0x9E5 JUMPI PUSH1 0x40 DUP1 MLOAD PUSH3 0x461BCD PUSH1 0xE5 SHL DUP2 MSTORE PUSH1 0x20 PUSH1 0x4 DUP3 ADD MSTORE PUSH1 0x17 PUSH1 0x24 DUP3 ADD MSTORE PUSH32 0x4E6F6E63652077617320616C726561647920757365642E000000000000000000 PUSH1 0x44 DUP3 ADD MSTORE SWAP1 MLOAD SWAP1 DUP2 SWAP1 SUB PUSH1 0x64 ADD SWAP1 REVERT JUMPDEST PUSH1 0x1 PUSH1 0x1 PUSH1 0x80 SHL SUB NOT DUP7 AND PUSH1 0x0 DUP2 DUP2 MSTORE PUSH1 0x2 PUSH1 0x20 SWAP1 DUP2 MSTORE PUSH1 0x40 DUP1 DUP4 KECCAK256 DUP1 SLOAD PUSH1 0xFF NOT AND PUSH1 0x1 SWAP1 DUP2 OR SWAP1 SWAP2 SSTORE DUP2 MLOAD DUP1 DUP5 ADD SWAP6 SWAP1 SWAP6 MSTORE PUSH1 0x1 PUSH1 0x80 SHL PUSH1 0x30 DUP7 ADD MSTORE DUP5 DUP3 ADD DUP11 SWAP1 MSTORE PUSH1 0x60 DUP6 ADD DUP5 SWAP1 MSTORE PUSH1 0x80 DUP6 ADD DUP5 SWAP1 MSTORE DUP2 MLOAD PUSH1 0x61 DUP2 DUP8 SUB ADD DUP2 MSTORE PUSH1 0x81 DUP7 ADD DUP1 DUP5 MSTORE DUP2 MLOAD SWAP2 DUP6 ADD SWAP2 SWAP1 SWAP2 KECCAK256 SWAP1 DUP6 SWAP1 MSTORE PUSH1 0xA1 DUP7 ADD DUP1 DUP5 MSTORE DUP2 SWAP1 MSTORE PUSH1 0xFF DUP9 AND PUSH1 0xC1 DUP8 ADD MSTORE PUSH1 0xE1 DUP7 ADD DUP11 SWAP1 MSTORE PUSH2 0x101 DUP7 ADD DUP10 SWAP1 MSTORE SWAP2 MLOAD SWAP2 SWAP5 SWAP1 SWAP3 PUSH2 0x121 DUP1 DUP4 ADD SWAP4 SWAP2 SWAP3 PUSH1 0x1F NOT DUP4 ADD SWAP3 SWAP1 DUP2 SWAP1 SUB SWAP1 SWAP2 ADD SWAP1 DUP6 GAS STATICCALL ISZERO DUP1 ISZERO PUSH2 0xAA7 JUMPI RETURNDATASIZE PUSH1 0x0 DUP1 RETURNDATACOPY RETURNDATASIZE PUSH1 0x0 REVERT JUMPDEST POP POP POP PUSH1 0x20 PUSH1 0x40 MLOAD SUB MLOAD SWAP1 POP DUP7 PUSH1 0x1 PUSH1 0x0 DUP4 PUSH1 0x1 PUSH1 0x1 PUSH1 0xA0 SHL SUB AND PUSH1 0x1 PUSH1 0x1 PUSH1 0xA0 SHL SUB AND DUP2 MSTORE PUSH1 0x20 ADD SWAP1 DUP2 MSTORE PUSH1 0x20 ADD PUSH1 0x0 KECCAK256 PUSH1 0x2 ADD SLOAD LT ISZERO PUSH2 0xB26 JUMPI PUSH1 0x40 DUP1 MLOAD PUSH3 0x461BCD PUSH1 0xE5 SHL DUP2 MSTORE PUSH1 0x20 PUSH1 0x4 DUP3 ADD MSTORE PUSH1 0x13 PUSH1 0x24 DUP3 ADD MSTORE PUSH19 0x24B739BAB33334B1B4B2B73A10333AB7323997 PUSH1 0x69 SHL PUSH1 0x44 DUP3 ADD MSTORE SWAP1 MLOAD SWAP1 DUP2 SWAP1 SUB PUSH1 0x64 ADD SWAP1 REVERT JUMPDEST PUSH1 0x0 PUSH2 0xB32 CALLER DUP4 PUSH2 0x1554 JUMP JUMPDEST SWAP1 POP PUSH1 0x0 DUP1 DUP3 DUP2 MSTORE PUSH1 0x20 DUP2 SWAP1 MSTORE PUSH1 0x40 SWAP1 KECCAK256 SLOAD PUSH1 0xFF AND PUSH1 0x4 DUP2 GT ISZERO PUSH2 0xB52 JUMPI INVALID JUMPDEST EQ PUSH2 0xB9E JUMPI PUSH1 0x40 DUP1 MLOAD PUSH3 0x461BCD PUSH1 0xE5 SHL DUP2 MSTORE PUSH1 0x20 PUSH1 0x4 DUP3 ADD MSTORE PUSH1 0x17 PUSH1 0x24 DUP3 ADD MSTORE PUSH23 0x21B430B73732B61030B63932B0B23C9032BC34B9BA3997 PUSH1 0x49 SHL PUSH1 0x44 DUP3 ADD MSTORE SWAP1 MLOAD SWAP1 DUP2 SWAP1 SUB PUSH1 0x64 ADD SWAP1 REVERT JUMPDEST CALLER PUSH1 0x0 SWAP1 DUP2 MSTORE PUSH1 0x1 PUSH1 0x20 MSTORE PUSH1 0x40 SWAP1 KECCAK256 PUSH1 0x2 ADD SLOAD PUSH2 0xBC1 SWAP1 DUP10 PUSH4 0xFFFFFFFF PUSH2 0x14F7 AND JUMP JUMPDEST CALLER PUSH1 0x0 SWAP1 DUP2 MSTORE PUSH1 0x1 PUSH1 0x20 MSTORE PUSH1 0x40 DUP1 DUP3 KECCAK256 PUSH1 0x2 SWAP1 DUP2 ADD SWAP4 SWAP1 SWAP4 SSTORE PUSH1 0x1 PUSH1 0x1 PUSH1 0xA0 SHL SUB DUP6 AND DUP3 MSTORE SWAP1 KECCAK256 ADD SLOAD PUSH2 0xBFA SWAP1 DUP10 PUSH4 0xFFFFFFFF PUSH2 0x14F7 AND JUMP JUMPDEST PUSH1 0x1 PUSH1 0x1 PUSH1 0xA0 SHL SUB DUP4 AND PUSH1 0x0 SWAP1 DUP2 MSTORE PUSH1 0x1 PUSH1 0x20 DUP2 SWAP1 MSTORE PUSH1 0x40 DUP1 DUP4 KECCAK256 PUSH1 0x2 ADD SWAP4 SWAP1 SWAP4 SSTORE CALLER DUP3 MSTORE SWAP2 SWAP1 KECCAK256 DUP2 ADD SLOAD PUSH2 0xC34 SWAP2 PUSH4 0xFFFFFFFF PUSH2 0x1494 AND JUMP JUMPDEST CALLER PUSH1 0x0 SWAP1 DUP2 MSTORE PUSH1 0x1 PUSH1 0x20 DUP2 SWAP1 MSTORE PUSH1 0x40 DUP1 DUP4 KECCAK256 DUP3 ADD SWAP4 SWAP1 SWAP4 SSTORE PUSH1 0x1 PUSH1 0x1 PUSH1 0xA0 SHL SUB DUP6 AND DUP3 MSTORE SWAP2 SWAP1 KECCAK256 DUP2 ADD SLOAD PUSH2 0xC6D SWAP2 PUSH4 0xFFFFFFFF PUSH2 0x1494 AND JUMP JUMPDEST PUSH1 0x1 PUSH1 0x1 PUSH1 0xA0 SHL SUB DUP4 AND PUSH1 0x0 SWAP1 DUP2 MSTORE PUSH1 0x1 PUSH1 0x20 DUP2 SWAP1 MSTORE PUSH1 0x40 DUP3 KECCAK256 ADD SWAP2 SWAP1 SWAP2 SSTORE PUSH2 0xC9D PUSH1 0x2 DUP11 PUSH4 0xFFFFFFFF PUSH2 0x16AD AND JUMP JUMPDEST PUSH1 0x40 DUP1 MLOAD PUSH1 0xA0 DUP2 ADD SWAP1 SWAP2 MSTORE SWAP1 SWAP2 POP DUP1 PUSH1 0x3 DUP2 MSTORE PUSH1 0x20 DUP1 DUP3 ADD DUP5 SWAP1 MSTORE PUSH1 0x40 DUP1 DUP4 ADD DUP14 SWAP1 MSTORE PUSH1 0x0 PUSH1 0x60 DUP5 ADD DUP2 SWAP1 MSTORE PUSH1 0x80 SWAP1 SWAP4 ADD DUP4 SWAP1 MSTORE DUP6 DUP4 MSTORE SWAP1 DUP3 SWAP1 MSTORE SWAP1 KECCAK256 DUP2 MLOAD DUP2 SLOAD DUP3 SWAP1 PUSH1 0xFF NOT AND PUSH1 0x1 DUP4 PUSH1 0x4 DUP2 GT ISZERO PUSH2 0xCF2 JUMPI INVALID JUMPDEST MUL OR SWAP1 SSTORE POP PUSH1 0x20 DUP3 DUP2 ADD MLOAD PUSH1 0x1 DUP4 ADD SSTORE PUSH1 0x40 DUP1 DUP5 ADD MLOAD PUSH1 0x2 DUP5 ADD SSTORE PUSH1 0x60 DUP5 ADD MLOAD PUSH1 0x3 DUP5 ADD DUP1 SLOAD PUSH1 0x1 PUSH1 0x1 PUSH1 0x80 SHL SUB NOT AND PUSH1 0x80 SWAP3 DUP4 SHR OR SWAP1 SSTORE SWAP1 SWAP4 ADD MLOAD PUSH1 0x4 SWAP1 SWAP3 ADD SWAP2 SWAP1 SWAP2 SSTORE DUP2 MLOAD DUP12 DUP2 MSTORE SWAP1 DUP2 ADD DUP4 SWAP1 MSTORE DUP2 MLOAD DUP5 SWAP3 PUSH32 0xDFB2F221AF4EA366A589B50E82754BBE2FFFF413A3FA39C7544A527D600201B3 SWAP3 DUP3 SWAP1 SUB ADD SWAP1 LOG2 POP POP POP POP POP POP POP POP POP POP JUMP JUMPDEST PUSH1 0x0 PUSH1 0x20 DUP2 SWAP1 MSTORE SWAP1 DUP2 MSTORE PUSH1 0x40 SWAP1 KECCAK256 DUP1 SLOAD PUSH1 0x1 DUP3 ADD SLOAD PUSH1 0x2 DUP4 ADD SLOAD PUSH1 0x3 DUP5 ADD SLOAD PUSH1 0x4 SWAP1 SWAP5 ADD SLOAD PUSH1 0xFF SWAP1 SWAP4 AND SWAP4 SWAP2 SWAP3 SWAP1 SWAP2 PUSH1 0x80 SHL SWAP1 DUP6 JUMP JUMPDEST PUSH1 0x40 DUP1 MLOAD PUSH1 0x20 DUP1 DUP3 ADD DUP11 SWAP1 MSTORE DUP2 DUP4 ADD DUP10 SWAP1 MSTORE PUSH1 0x1 PUSH1 0x1 PUSH1 0xF8 SHL SUB NOT PUSH1 0xF8 DUP7 SWAP1 SHL AND PUSH1 0x60 DUP4 ADD MSTORE PUSH1 0x61 DUP1 DUP4 ADD DUP8 SWAP1 MSTORE DUP4 MLOAD DUP1 DUP5 SUB SWAP1 SWAP2 ADD DUP2 MSTORE PUSH1 0x81 DUP4 ADD DUP1 DUP6 MSTORE DUP2 MLOAD SWAP2 DUP4 ADD SWAP2 SWAP1 SWAP2 KECCAK256 PUSH1 0x0 SWAP2 DUP3 SWAP1 MSTORE PUSH1 0xA1 DUP5 ADD DUP1 DUP7 MSTORE DUP2 SWAP1 MSTORE PUSH1 0xFF DUP7 AND PUSH1 0xC1 DUP6 ADD MSTORE PUSH1 0xE1 DUP5 ADD DUP11 SWAP1 MSTORE PUSH2 0x101 DUP5 ADD DUP10 SWAP1 MSTORE SWAP4 MLOAD SWAP1 SWAP3 PUSH1 0x1 SWAP3 PUSH2 0x121 DUP1 DUP4 ADD SWAP4 SWAP2 SWAP3 PUSH1 0x1F NOT DUP4 ADD SWAP3 SWAP1 DUP2 SWAP1 SUB SWAP1 SWAP2 ADD SWAP1 DUP6 GAS STATICCALL ISZERO DUP1 ISZERO PUSH2 0xE52 JUMPI RETURNDATASIZE PUSH1 0x0 DUP1 RETURNDATACOPY RETURNDATASIZE PUSH1 0x0 REVERT JUMPDEST POP POP POP PUSH1 0x20 PUSH1 0x40 MLOAD SUB MLOAD SWAP1 POP PUSH1 0x0 DUP1 PUSH1 0x0 PUSH2 0xE6D CALLER DUP6 PUSH2 0x1554 JUMP JUMPDEST DUP2 MSTORE PUSH1 0x20 DUP2 ADD SWAP2 SWAP1 SWAP2 MSTORE PUSH1 0x40 ADD PUSH1 0x0 SWAP1 DUP2 KECCAK256 SWAP2 POP DUP2 SLOAD PUSH1 0xFF AND PUSH1 0x4 DUP2 GT ISZERO PUSH2 0xE91 JUMPI INVALID JUMPDEST EQ ISZERO PUSH2 0xEDB JUMPI PUSH1 0x40 DUP1 MLOAD PUSH3 0x461BCD PUSH1 0xE5 SHL DUP2 MSTORE PUSH1 0x20 PUSH1 0x4 DUP3 ADD MSTORE PUSH1 0x14 PUSH1 0x24 DUP3 ADD MSTORE PUSH20 0x24B73B30B634B21031B430B73732B61018991997 PUSH1 0x61 SHL PUSH1 0x44 DUP3 ADD MSTORE SWAP1 MLOAD SWAP1 DUP2 SWAP1 SUB PUSH1 0x64 ADD SWAP1 REVERT JUMPDEST PUSH1 0x40 DUP1 MLOAD PUSH1 0x20 DUP1 DUP3 ADD DUP10 SWAP1 MSTORE DUP3 MLOAD DUP1 DUP4 SUB DUP3 ADD DUP2 MSTORE DUP3 DUP5 ADD DUP1 DUP6 MSTORE DUP2 MLOAD SWAP2 DUP4 ADD SWAP2 SWAP1 SWAP2 KECCAK256 PUSH1 0x0 SWAP1 SWAP2 MSTORE PUSH1 0x60 DUP4 ADD DUP1 DUP6 MSTORE DUP2 SWAP1 MSTORE PUSH1 0xFF DUP10 AND PUSH1 0x80 DUP5 ADD MSTORE PUSH1 0xA0 DUP4 ADD DUP15 SWAP1 MSTORE PUSH1 0xC0 DUP4 ADD DUP14 SWAP1 MSTORE SWAP3 MLOAD PUSH1 0x1 SWAP3 PUSH1 0xE0 DUP1 DUP3 ADD SWAP4 SWAP3 PUSH1 0x1F NOT DUP2 ADD SWAP3 DUP2 SWAP1 SUB SWAP1 SWAP2 ADD SWAP1 DUP6 GAS STATICCALL ISZERO DUP1 ISZERO PUSH2 0xF52 JUMPI RETURNDATASIZE PUSH1 0x0 DUP1 RETURNDATACOPY RETURNDATASIZE PUSH1 0x0 REVERT JUMPDEST POP POP POP PUSH1 0x20 PUSH1 0x40 MLOAD SUB MLOAD PUSH1 0x1 PUSH1 0x1 PUSH1 0xA0 SHL SUB AND CALLER PUSH1 0x1 PUSH1 0x1 PUSH1 0xA0 SHL SUB AND EQ ISZERO PUSH2 0xFAC JUMPI PUSH1 0x40 MLOAD PUSH3 0x461BCD PUSH1 0xE5 SHL DUP2 MSTORE PUSH1 0x4 ADD DUP1 DUP1 PUSH1 0x20 ADD DUP3 DUP2 SUB DUP3 MSTORE PUSH1 0x33 DUP2 MSTORE PUSH1 0x20 ADD DUP1 PUSH2 0x17ED PUSH1 0x33 SWAP2 CODECOPY PUSH1 0x40 ADD SWAP2 POP POP PUSH1 0x40 MLOAD DUP1 SWAP2 SUB SWAP1 REVERT JUMPDEST POP POP POP POP POP POP POP POP POP POP POP JUMP JUMPDEST PUSH1 0x0 PUSH2 0xFC5 DUP4 DUP4 PUSH2 0x1554 JUMP JUMPDEST SWAP1 POP CALLVALUE PUSH1 0x1 DUP2 GT PUSH2 0x1007 JUMPI PUSH1 0x40 MLOAD PUSH3 0x461BCD PUSH1 0xE5 SHL DUP2 MSTORE PUSH1 0x4 ADD DUP1 DUP1 PUSH1 0x20 ADD DUP3 DUP2 SUB DUP3 MSTORE PUSH1 0x31 DUP2 MSTORE PUSH1 0x20 ADD DUP1 PUSH2 0x179B PUSH1 0x31 SWAP2 CODECOPY PUSH1 0x40 ADD SWAP2 POP POP PUSH1 0x40 MLOAD DUP1 SWAP2 SUB SWAP1 REVERT JUMPDEST PUSH1 0x2 DUP2 MOD PUSH1 0x1 EQ ISZERO PUSH2 0x1018 JUMPI PUSH1 0x0 NOT ADD JUMPDEST PUSH1 0x0 DUP3 DUP2 MSTORE PUSH1 0x20 DUP2 SWAP1 MSTORE PUSH1 0x40 DUP2 KECCAK256 SLOAD PUSH1 0xFF AND PUSH1 0x4 DUP2 GT ISZERO PUSH2 0x1035 JUMPI INVALID JUMPDEST EQ PUSH2 0x1081 JUMPI PUSH1 0x40 DUP1 MLOAD PUSH3 0x461BCD PUSH1 0xE5 SHL DUP2 MSTORE PUSH1 0x20 PUSH1 0x4 DUP3 ADD MSTORE PUSH1 0x17 PUSH1 0x24 DUP3 ADD MSTORE PUSH23 0x21B430B73732B61030B63932B0B23C9032BC34B9BA3997 PUSH1 0x49 SHL PUSH1 0x44 DUP3 ADD MSTORE SWAP1 MLOAD SWAP1 DUP2 SWAP1 SUB PUSH1 0x64 ADD SWAP1 REVERT JUMPDEST PUSH1 0x1 PUSH1 0x1 PUSH1 0xA0 SHL SUB DUP5 AND PUSH1 0x0 SWAP1 DUP2 MSTORE PUSH1 0x1 PUSH1 0x20 MSTORE PUSH1 0x40 SWAP1 KECCAK256 SLOAD PUSH1 0xFF AND PUSH2 0x10F5 JUMPI PUSH1 0x40 DUP1 MLOAD PUSH1 0x60 DUP2 ADD DUP3 MSTORE PUSH1 0x1 DUP1 DUP3 MSTORE PUSH1 0x20 DUP1 DUP4 ADD DUP3 DUP2 MSTORE PUSH1 0x0 DUP5 DUP7 ADD DUP2 DUP2 MSTORE PUSH1 0x1 PUSH1 0x1 PUSH1 0xA0 SHL SUB DUP12 AND DUP3 MSTORE SWAP3 DUP5 SWAP1 MSTORE SWAP5 SWAP1 SWAP5 KECCAK256 SWAP3 MLOAD DUP4 SLOAD PUSH1 0xFF NOT AND SWAP1 ISZERO ISZERO OR DUP4 SSTORE SWAP3 MLOAD SWAP1 DUP3 ADD SSTORE SWAP1 MLOAD PUSH1 0x2 SWAP1 SWAP2 ADD SSTORE PUSH2 0x111A JUMP JUMPDEST PUSH1 0x1 PUSH1 0x1 PUSH1 0xA0 SHL SUB DUP5 AND PUSH1 0x0 SWAP1 DUP2 MSTORE PUSH1 0x1 PUSH1 0x20 DUP2 SWAP1 MSTORE PUSH1 0x40 SWAP1 SWAP2 KECCAK256 DUP2 ADD DUP1 SLOAD SWAP1 SWAP2 ADD SWAP1 SSTORE JUMPDEST PUSH1 0x1 PUSH1 0x1 PUSH1 0xA0 SHL SUB DUP4 AND PUSH1 0x0 SWAP1 DUP2 MSTORE PUSH1 0x1 PUSH1 0x20 MSTORE PUSH1 0x40 SWAP1 KECCAK256 SLOAD PUSH1 0xFF AND PUSH2 0x118E JUMPI PUSH1 0x40 DUP1 MLOAD PUSH1 0x60 DUP2 ADD DUP3 MSTORE PUSH1 0x1 DUP1 DUP3 MSTORE PUSH1 0x20 DUP1 DUP4 ADD DUP3 DUP2 MSTORE PUSH1 0x0 DUP5 DUP7 ADD DUP2 DUP2 MSTORE PUSH1 0x1 PUSH1 0x1 PUSH1 0xA0 SHL SUB DUP11 AND DUP3 MSTORE SWAP3 DUP5 SWAP1 MSTORE SWAP5 SWAP1 SWAP5 KECCAK256 SWAP3 MLOAD DUP4 SLOAD PUSH1 0xFF NOT AND SWAP1 ISZERO ISZERO OR DUP4 SSTORE SWAP3 MLOAD SWAP1 DUP3 ADD SSTORE SWAP1 MLOAD PUSH1 0x2 SWAP1 SWAP2 ADD SSTORE PUSH2 0x11B3 JUMP JUMPDEST PUSH1 0x1 PUSH1 0x1 PUSH1 0xA0 SHL SUB DUP4 AND PUSH1 0x0 SWAP1 DUP2 MSTORE PUSH1 0x1 PUSH1 0x20 DUP2 SWAP1 MSTORE PUSH1 0x40 SWAP1 SWAP2 KECCAK256 DUP2 ADD DUP1 SLOAD SWAP1 SWAP2 ADD SWAP1 SSTORE JUMPDEST PUSH1 0x40 DUP1 MLOAD PUSH1 0xA0 DUP2 ADD SWAP1 SWAP2 MSTORE DUP2 SWAP1 PUSH1 0x2 DUP3 DIV SWAP1 DUP1 PUSH1 0x3 DUP2 MSTORE PUSH1 0x20 DUP1 DUP3 ADD DUP6 SWAP1 MSTORE PUSH1 0x40 DUP1 DUP4 ADD DUP6 SWAP1 MSTORE PUSH1 0x0 PUSH1 0x60 DUP5 ADD DUP2 SWAP1 MSTORE PUSH1 0x80 SWAP1 SWAP4 ADD DUP4 SWAP1 MSTORE DUP8 DUP4 MSTORE SWAP1 DUP3 SWAP1 MSTORE SWAP1 KECCAK256 DUP2 MLOAD DUP2 SLOAD DUP3 SWAP1 PUSH1 0xFF NOT AND PUSH1 0x1 DUP4 PUSH1 0x4 DUP2 GT ISZERO PUSH2 0x120C JUMPI INVALID JUMPDEST MUL OR SWAP1 SSTORE POP PUSH1 0x20 DUP3 DUP2 ADD MLOAD PUSH1 0x1 DUP4 ADD SSTORE PUSH1 0x40 DUP1 DUP5 ADD MLOAD PUSH1 0x2 DUP5 ADD SSTORE PUSH1 0x60 DUP5 ADD MLOAD PUSH1 0x3 DUP5 ADD DUP1 SLOAD PUSH1 0x1 PUSH1 0x1 PUSH1 0x80 SHL SUB NOT AND PUSH1 0x80 SWAP3 DUP4 SHR OR SWAP1 SSTORE SWAP1 SWAP4 ADD MLOAD PUSH1 0x4 SWAP1 SWAP3 ADD SWAP2 SWAP1 SWAP2 SSTORE DUP2 MLOAD DUP4 DUP2 MSTORE SWAP1 DUP2 ADD DUP5 SWAP1 MSTORE DUP2 MLOAD PUSH1 0x1 PUSH1 0x1 PUSH1 0xA0 SHL SUB DUP9 DUP2 AND SWAP4 SWAP1 DUP11 AND SWAP3 PUSH32 0x3F702350942174C5A9EC39FD9DC5F67ACB65A57454E5155F72A2BAB4AEDE7708 SWAP3 SWAP1 DUP2 SWAP1 SUB SWAP1 SWAP2 ADD SWAP1 LOG3 POP POP POP POP POP POP JUMP JUMPDEST PUSH1 0x40 DUP1 MLOAD PUSH1 0x1 PUSH1 0x1 PUSH1 0x80 SHL SUB NOT DUP1 DUP11 AND PUSH1 0x20 DUP1 DUP5 ADD SWAP2 SWAP1 SWAP2 MSTORE SWAP1 DUP12 AND PUSH1 0x30 DUP4 ADD MSTORE DUP2 DUP4 ADD DUP10 SWAP1 MSTORE PUSH1 0x60 DUP3 ADD DUP9 SWAP1 MSTORE PUSH1 0x1 PUSH1 0x1 PUSH1 0xF8 SHL SUB NOT DUP8 AND PUSH1 0x80 DUP4 ADD MSTORE DUP3 MLOAD PUSH1 0x61 DUP2 DUP5 SUB ADD DUP2 MSTORE PUSH1 0x81 DUP4 ADD DUP1 DUP6 MSTORE DUP2 MLOAD SWAP2 DUP4 ADD SWAP2 SWAP1 SWAP2 KECCAK256 PUSH1 0x0 SWAP2 DUP3 SWAP1 MSTORE PUSH1 0xA1 DUP5 ADD DUP1 DUP7 MSTORE DUP2 SWAP1 MSTORE PUSH1 0xFF DUP7 AND PUSH1 0xC1 DUP6 ADD MSTORE PUSH1 0xE1 DUP5 ADD DUP9 SWAP1 MSTORE PUSH2 0x101 DUP5 ADD DUP8 SWAP1 MSTORE SWAP4 MLOAD SWAP1 SWAP3 PUSH1 0x1 SWAP3 PUSH2 0x121 DUP1 DUP4 ADD SWAP4 SWAP2 SWAP3 PUSH1 0x1F NOT DUP4 ADD SWAP3 SWAP1 DUP2 SWAP1 SUB SWAP1 SWAP2 ADD SWAP1 DUP6 GAS STATICCALL ISZERO DUP1 ISZERO PUSH2 0x1353 JUMPI RETURNDATASIZE PUSH1 0x0 DUP1 RETURNDATACOPY RETURNDATASIZE PUSH1 0x0 REVERT JUMPDEST POP POP POP PUSH1 0x20 PUSH1 0x40 MLOAD SUB MLOAD SWAP1 POP PUSH1 0x0 PUSH2 0x136B CALLER DUP4 PUSH2 0x1554 JUMP JUMPDEST PUSH1 0x0 DUP2 DUP2 MSTORE PUSH1 0x20 DUP2 SWAP1 MSTORE PUSH1 0x40 SWAP1 KECCAK256 PUSH1 0x3 DUP2 ADD SLOAD SWAP2 SWAP3 POP SWAP1 PUSH1 0x1 PUSH1 0x1 PUSH1 0x80 SHL SUB NOT DUP1 DUP15 AND PUSH1 0x80 SWAP3 SWAP1 SWAP3 SHL AND LT DUP1 ISZERO PUSH2 0x13B1 JUMPI POP PUSH1 0x3 DUP2 SLOAD PUSH1 0xFF AND PUSH1 0x4 DUP2 GT ISZERO PUSH2 0x13AF JUMPI INVALID JUMPDEST EQ JUMPDEST DUP1 PUSH2 0x13CB JUMPI POP PUSH1 0x4 DUP2 SLOAD PUSH1 0xFF AND PUSH1 0x4 DUP2 GT ISZERO PUSH2 0x13C9 JUMPI INVALID JUMPDEST EQ JUMPDEST PUSH2 0x1406 JUMPI PUSH1 0x40 MLOAD PUSH3 0x461BCD PUSH1 0xE5 SHL DUP2 MSTORE PUSH1 0x4 ADD DUP1 DUP1 PUSH1 0x20 ADD DUP3 DUP2 SUB DUP3 MSTORE PUSH1 0x42 DUP2 MSTORE PUSH1 0x20 ADD DUP1 PUSH2 0x1707 PUSH1 0x42 SWAP2 CODECOPY PUSH1 0x60 ADD SWAP2 POP POP PUSH1 0x40 MLOAD DUP1 SWAP2 SUB SWAP1 REVERT JUMPDEST PUSH1 0x2 DUP2 ADD DUP11 SWAP1 SSTORE PUSH1 0x3 DUP2 ADD DUP1 SLOAD PUSH1 0x80 DUP15 SWAP1 SHR PUSH1 0x1 PUSH1 0x1 PUSH1 0x80 SHL SUB NOT SWAP1 SWAP2 AND OR SWAP1 SSTORE DUP1 SLOAD PUSH1 0xFF NOT AND PUSH1 0x4 OR DUP2 SSTORE PUSH2 0x143D TIMESTAMP PUSH1 0x3C PUSH2 0x1494 JUMP JUMPDEST PUSH1 0x4 DUP3 ADD SSTORE PUSH1 0x40 DUP1 MLOAD PUSH1 0x1 PUSH1 0x1 PUSH1 0x80 SHL SUB NOT DUP15 AND DUP2 MSTORE PUSH1 0x20 DUP2 ADD DUP13 SWAP1 MSTORE DUP2 MLOAD DUP5 SWAP3 PUSH32 0x54B49E207894AD1469BF053F4DA1814A8221C1CAE825105BE135F5C86FD93BFD SWAP3 DUP3 SWAP1 SUB ADD SWAP1 LOG2 POP POP POP POP POP POP POP POP POP POP POP POP JUMP JUMPDEST PUSH1 0x0 DUP3 DUP3 ADD DUP4 DUP2 LT ISZERO PUSH2 0x14EE JUMPI PUSH1 0x40 DUP1 MLOAD PUSH3 0x461BCD PUSH1 0xE5 SHL DUP2 MSTORE PUSH1 0x20 PUSH1 0x4 DUP3 ADD MSTORE PUSH1 0x1B PUSH1 0x24 DUP3 ADD MSTORE PUSH32 0x536166654D6174683A206164646974696F6E206F766572666C6F770000000000 PUSH1 0x44 DUP3 ADD MSTORE SWAP1 MLOAD SWAP1 DUP2 SWAP1 SUB PUSH1 0x64 ADD SWAP1 REVERT JUMPDEST SWAP1 POP JUMPDEST SWAP3 SWAP2 POP POP JUMP JUMPDEST PUSH1 0x0 DUP3 DUP3 GT ISZERO PUSH2 0x154E JUMPI PUSH1 0x40 DUP1 MLOAD PUSH3 0x461BCD PUSH1 0xE5 SHL DUP2 MSTORE PUSH1 0x20 PUSH1 0x4 DUP3 ADD MSTORE PUSH1 0x1E PUSH1 0x24 DUP3 ADD MSTORE PUSH32 0x536166654D6174683A207375627472616374696F6E206F766572666C6F770000 PUSH1 0x44 DUP3 ADD MSTORE SWAP1 MLOAD SWAP1 DUP2 SWAP1 SUB PUSH1 0x64 ADD SWAP1 REVERT JUMPDEST POP SWAP1 SUB SWAP1 JUMP JUMPDEST PUSH1 0x0 DUP2 PUSH1 0x1 PUSH1 0x1 PUSH1 0xA0 SHL SUB AND DUP4 PUSH1 0x1 PUSH1 0x1 PUSH1 0xA0 SHL SUB AND EQ ISZERO PUSH2 0x15A7 JUMPI PUSH1 0x40 MLOAD PUSH3 0x461BCD PUSH1 0xE5 SHL DUP2 MSTORE PUSH1 0x4 ADD DUP1 DUP1 PUSH1 0x20 ADD DUP3 DUP2 SUB DUP3 MSTORE PUSH1 0x2A DUP2 MSTORE PUSH1 0x20 ADD DUP1 PUSH2 0x1771 PUSH1 0x2A SWAP2 CODECOPY PUSH1 0x40 ADD SWAP2 POP POP PUSH1 0x40 MLOAD DUP1 SWAP2 SUB SWAP1 REVERT JUMPDEST PUSH2 0x15B1 DUP4 DUP4 PUSH2 0x1640 JUMP JUMPDEST ISZERO PUSH2 0x15FB JUMPI POP PUSH1 0x40 DUP1 MLOAD PUSH1 0x60 DUP5 DUP2 SHL PUSH1 0x1 PUSH1 0x1 PUSH1 0x60 SHL SUB NOT SWAP1 DUP2 AND PUSH1 0x20 DUP1 DUP6 ADD SWAP2 SWAP1 SWAP2 MSTORE SWAP2 DUP6 SWAP1 SHL AND PUSH1 0x34 DUP4 ADD MSTORE DUP3 MLOAD DUP1 DUP4 SUB PUSH1 0x28 ADD DUP2 MSTORE PUSH1 0x48 SWAP1 SWAP3 ADD SWAP1 SWAP3 MSTORE DUP1 MLOAD SWAP2 ADD KECCAK256 PUSH2 0x14F1 JUMP JUMPDEST POP PUSH1 0x40 DUP1 MLOAD PUSH1 0x60 DUP4 DUP2 SHL PUSH1 0x1 PUSH1 0x1 PUSH1 0x60 SHL SUB NOT SWAP1 DUP2 AND PUSH1 0x20 DUP1 DUP6 ADD SWAP2 SWAP1 SWAP2 MSTORE SWAP2 DUP7 SWAP1 SHL AND PUSH1 0x34 DUP4 ADD MSTORE DUP3 MLOAD DUP1 DUP4 SUB PUSH1 0x28 ADD DUP2 MSTORE PUSH1 0x48 SWAP1 SWAP3 ADD SWAP1 SWAP3 MSTORE DUP1 MLOAD SWAP2 ADD KECCAK256 PUSH2 0x14F1 JUMP JUMPDEST PUSH1 0x0 DUP2 PUSH1 0x1 PUSH1 0x1 PUSH1 0xA0 SHL SUB AND DUP4 PUSH1 0x1 PUSH1 0x1 PUSH1 0xA0 SHL SUB AND EQ ISZERO PUSH2 0x1693 JUMPI PUSH1 0x40 MLOAD PUSH3 0x461BCD PUSH1 0xE5 SHL DUP2 MSTORE PUSH1 0x4 ADD DUP1 DUP1 PUSH1 0x20 ADD DUP3 DUP2 SUB DUP3 MSTORE PUSH1 0x2A DUP2 MSTORE PUSH1 0x20 ADD DUP1 PUSH2 0x1771 PUSH1 0x2A SWAP2 CODECOPY PUSH1 0x40 ADD SWAP2 POP POP PUSH1 0x40 MLOAD DUP1 SWAP2 SUB SWAP1 REVERT JUMPDEST POP PUSH1 0x1 PUSH1 0x1 PUSH1 0x60 SHL SUB NOT PUSH1 0x60 SWAP2 DUP3 SHL DUP2 AND SWAP3 SWAP1 SWAP2 SHL AND LT SWAP1 JUMP JUMPDEST PUSH1 0x0 DUP3 PUSH2 0x16BC JUMPI POP PUSH1 0x0 PUSH2 0x14F1 JUMP JUMPDEST DUP3 DUP3 MUL DUP3 DUP5 DUP3 DUP2 PUSH2 0x16C9 JUMPI INVALID JUMPDEST DIV EQ PUSH2 0x14EE JUMPI PUSH1 0x40 MLOAD PUSH3 0x461BCD PUSH1 0xE5 SHL DUP2 MSTORE PUSH1 0x4 ADD DUP1 DUP1 PUSH1 0x20 ADD DUP3 DUP2 SUB DUP3 MSTORE PUSH1 0x21 DUP2 MSTORE PUSH1 0x20 ADD DUP1 PUSH2 0x17CC PUSH1 0x21 SWAP2 CODECOPY PUSH1 0x40 ADD SWAP2 POP POP PUSH1 0x40 MLOAD DUP1 SWAP2 SUB SWAP1 REVERT INVALID SSTORE PUSH15 0x61626C6520746F20636C6F73652070 PUSH2 0x796D PUSH6 0x6E7420636861 PUSH15 0x6E656C2064756520746F2070726F62 PUSH2 0x626C PUSH26 0x20696E76616C6964207369676E61747572652E57616974696E67 KECCAK256 PUSH7 0x6F722072656D61 PUSH10 0x6E696E67206368616E6E PUSH6 0x6C7320746F20 PUSH4 0x6C6F7365 0x2e POP PUSH2 0x7274 PUSH26 0x2027612720616E6420706172747920276227206D757374206E6F PUSH21 0x20626520657175616C2E43616E6E6F742073707265 PUSH2 0x6420 PUSH16 0x6E652077656920756E69666F726D6C79 KECCAK256 PUSH16 0x7665722074776F20706172746965732E MSTORE8 PUSH2 0x6665 0x4d PUSH2 0x7468 GASPRICE KECCAK256 PUSH14 0x756C7469706C69636174696F6E20 PUSH16 0x766572666C6F77547279696E6720746F KECCAK256 PUSH4 0x6C61696D KECCAK256 PUSH7 0x756E6473207769 PUSH21 0x6820612076616C69642061636B6E6F776C65646765 PUSH14 0x656E742E536F6D657468696E6720 PUSH24 0x656E742077726F6E672E20446F75626C65207370656E643F LOG2 PUSH6 0x627A7A723158 KECCAK256 PUSH26 0x680DC97D9A88C74730B1AF46177177DB2C38B3D7ED6E1BD9549E 0xd1 0xd0 CREATE 0xf8 0x49 PUSH5 0x736F6C6343 STOP SDIV 0xc STOP ORIGIN "
		},
		"gasEstimates": {
			"creation": {
				"codeDepositCost": "1252600",
				"executionCost": "1302",
				"totalCost": "1253902"
			},
			"external": {
				"": "infinite",
				"channels(bytes32)": "1553",
				"closeChannel(bytes16,bytes16,uint256,bytes32,bytes1,bytes32,bytes32,uint8)": "infinite",
				"createFor(address,address)": "infinite",
				"createFunded(bytes16,uint256,bytes32,bytes32,uint8)": "infinite",
				"nonces(bytes16)": "628",
				"stakeFor(address)": "infinite",
				"states(address)": "1018",
				"unstakeEther(uint256)": "infinite",
				"withdraw(address)": "infinite",
				"wrongAcknowledgement(bytes32,bytes32,bytes32,bytes32,bytes32,uint8,uint8)": "infinite"
			},
			"internal": {
				"getId(address,address)": "infinite",
				"isPartyA(address,address)": "infinite"
			}
		},
		"methodIdentifiers": {
			"channels(bytes32)": "7a7ebd7b",
			"closeChannel(bytes16,bytes16,uint256,bytes32,bytes1,bytes32,bytes32,uint8)": "e58cbc2c",
			"createFor(address,address)": "b38e58a3",
			"createFunded(bytes16,uint256,bytes32,bytes32,uint8)": "75d452da",
			"nonces(bytes16)": "6c7a9d87",
			"stakeFor(address)": "4bf69206",
			"states(address)": "02a22337",
			"unstakeEther(uint256)": "2fd61f92",
			"withdraw(address)": "51cff8d9",
			"wrongAcknowledgement(bytes32,bytes32,bytes32,bytes32,bytes32,uint8,uint8)": "a044f5a3"
		}
	},
	"userdoc": {
		"methods": {
			"closeChannel(bytes16,bytes16,uint256,bytes32,bytes1,bytes32,bytes32,uint8)": {
				"notice": "Initiates the closing procedure of a payment channel. The sender of the transaction proposes a possible settlement transaction and opens a time interval that the counterparty can use to propose a more recent update transaction which leads to a reset of the time interval. Once the time interval is over, any of the parties can call the `withdraw` function which finally payout the money.settle & close payment channel"
			},
			"createFor(address,address)": {
				"notice": "Creates a payment channel record in behalf for two channel parties.The initiator does not need to be among the two channel parties."
			},
			"createFunded(bytes16,uint256,bytes32,bytes32,uint8)": {
				"notice": "pre-fund channel by with staked Ether of both parties"
			},
			"stakeFor(address)": {
				"notice": "Stake funds for another party."
			},
			"unstakeEther(uint256)": {
				"notice": "withdrawal staked ether"
			},
			"withdraw(address)": {
				"notice": "withdrawal pending balance from payment channel"
			},
			"wrongAcknowledgement(bytes32,bytes32,bytes32,bytes32,bytes32,uint8,uint8)": {
				"notice": "The purpose of this method is to give the relayer the opportunity to claim the funds in case the next downstream node responds with an invalid acknowledgement."
			}
		}
	}
}